Component: ARM Compiler 5.06 update 7 (build 960) Tool: armlink [4d3601]

==============================================================================

Section Cross References

    startup_stm32h723xx.o(RESET) refers to startup_stm32h723xx.o(STACK) for __initial_sp
    startup_stm32h723xx.o(RESET) refers to startup_stm32h723xx.o(.text) for Reset_Handler
    startup_stm32h723xx.o(RESET) refers to stm32h7xx_it.o(i.NMI_Handler) for NMI_Handler
    startup_stm32h723xx.o(RESET) refers to stm32h7xx_it.o(i.HardFault_Handler) for HardFault_Handler
    startup_stm32h723xx.o(RESET) refers to stm32h7xx_it.o(i.MemManage_Handler) for MemManage_Handler
    startup_stm32h723xx.o(RESET) refers to stm32h7xx_it.o(i.BusFault_Handler) for BusFault_Handler
    startup_stm32h723xx.o(RESET) refers to stm32h7xx_it.o(i.UsageFault_Handler) for UsageFault_Handler
    startup_stm32h723xx.o(RESET) refers to port.o(.emb_text) for SVC_Handler
    startup_stm32h723xx.o(RESET) refers to stm32h7xx_it.o(i.DebugMon_Handler) for DebugMon_Handler
    startup_stm32h723xx.o(RESET) refers to port.o(i.SysTick_Handler) for SysTick_Handler
    startup_stm32h723xx.o(RESET) refers to stm32h7xx_it.o(i.DMA1_Stream0_IRQHandler) for DMA1_Stream0_IRQHandler
    startup_stm32h723xx.o(RESET) refers to stm32h7xx_it.o(i.DMA1_Stream1_IRQHandler) for DMA1_Stream1_IRQHandler
    startup_stm32h723xx.o(RESET) refers to stm32h7xx_it.o(i.FDCAN1_IT0_IRQHandler) for FDCAN1_IT0_IRQHandler
    startup_stm32h723xx.o(RESET) refers to stm32h7xx_it.o(i.FDCAN2_IT0_IRQHandler) for FDCAN2_IT0_IRQHandler
    startup_stm32h723xx.o(RESET) refers to stm32h7xx_it.o(i.TIM2_IRQHandler) for TIM2_IRQHandler
    startup_stm32h723xx.o(RESET) refers to stm32h7xx_it.o(i.SPI2_IRQHandler) for SPI2_IRQHandler
    startup_stm32h723xx.o(RESET) refers to stm32h7xx_it.o(i.FDCAN3_IT0_IRQHandler) for FDCAN3_IT0_IRQHandler
    startup_stm32h723xx.o(.text) refers to system_stm32h7xx.o(i.SystemInit) for SystemInit
==============================================================================

Removing Unused input sections from the image.

    Removing main.o(.rev16_text), (4 bytes).
    Removing main.o(.revsh_text), (4 bytes).
    Removing main.o(.rrx_text), (6 bytes).
    Removing gpio.o(.rev16_text), (4 bytes).
    Removing gpio.o(.revsh_text), (4 bytes).
    Removing gpio.o(.rrx_text), (6 bytes).
    Removing freertos.o(.rev16_text), (4 bytes).
    Removing freertos.o(.revsh_text), (4 bytes).
    Removing freertos.o(.rrx_text), (6 bytes).
    Removing dma.o(.rev16_text), (4 bytes).
    Removing dma.o(.revsh_text), (4 bytes).
    Removing dma.o(.rrx_text), (6 bytes).
    Removing fdcan.o(.rev16_text), (4 bytes).
    Removing fdcan.o(.revsh_text), (4 bytes).
    Removing fdcan.o(.rrx_text), (6 bytes).
    Removing fdcan.o(i.HAL_FDCAN_MspDeInit), (192 bytes).
    Removing spi.o(.rev16_text), (4 bytes).
    Removing spi.o(.revsh_text), (4 bytes).
==============================================================================

Image Symbol Table

    Local Symbols

    Symbol Name                              Value     Ov Type        Size  Object(Section)

    ../Core/Src/dma.c                        0x00000000   Number         0  dma.o ABSOLUTE
    ../Core/Src/fdcan.c                      0x00000000   Number         0  fdcan.o ABSOLUTE
    ../Core/Src/freertos.c                   0x00000000   Number         0  freertos.o ABSOLUTE
    ../Core/Src/gpio.c                       0x00000000   Number         0  gpio.o ABSOLUTE
    ../Core/Src/main.c                       0x00000000   Number         0  main.o ABSOLUTE
    ../Core/Src/spi.c                        0x00000000   Number         0  spi.o ABSOLUTE
    ../Core/Src/stm32h7xx_hal_msp.c          0x00000000   Number         0  stm32h7xx_hal_msp.o ABSOLUTE
    ../Core/Src/stm32h7xx_hal_timebase_tim.c 0x00000000   Number         0  stm32h7xx_hal_timebase_tim.o ABSOLUTE
    ../Core/Src/stm32h7xx_it.c               0x00000000   Number         0  stm32h7xx_it.o ABSOLUTE
    ../Core/Src/system_stm32h7xx.c           0x00000000   Number         0  system_stm32h7xx.o ABSOLUTE
    ../Core/Src/tim.c                        0x00000000   Number         0  tim.o ABSOLUTE
    ../Drivers/STM32H7xx_HAL_Driver/Src/stm32h7xx_hal.c 0x00000000   Number         0  stm32h7xx_hal.o ABSOLUTE
    ../Drivers/STM32H7xx_HAL_Driver/Src/stm32h7xx_hal_cortex.c 0x00000000   Number         0  stm32h7xx_hal_cortex.o ABSOLUTE
    ../Drivers/STM32H7xx_HAL_Driver/Src/stm32h7xx_hal_dma.c 0x00000000   Number         0  stm32h7xx_hal_dma.o ABSOLUTE
    ../Drivers/STM32H7xx_HAL_Driver/Src/stm32h7xx_hal_dma_ex.c 0x00000000   Number         0  stm32h7xx_hal_dma_ex.o ABSOLUTE
    ../Drivers/STM32H7xx_HAL_Driver/Src/stm32h7xx_hal_exti.c 0x00000000   Number         0  stm32h7xx_hal_exti.o ABSOLUTE
    ../Drivers/STM32H7xx_HAL_Driver/Src/stm32h7xx_hal_fdcan.c 0x00000000   Number         0  stm32h7xx_hal_fdcan.o ABSOLUTE
    ../Drivers/STM32H7xx_HAL_Driver/Src/stm32h7xx_hal_flash.c 0x00000000   Number         0  stm32h7xx_hal_flash.o ABSOLUTE
    ../Drivers/STM32H7xx_HAL_Driver/Src/stm32h7xx_hal_flash_ex.c 0x00000000   Number         0  stm32h7xx_hal_flash_ex.o ABSOLUTE
    ../Drivers/STM32H7xx_HAL_Driver/Src/stm32h7xx_hal_gpio.c 0x00000000   Number         0  stm32h7xx_hal_gpio.o ABSOLUTE
    ../Drivers/STM32H7xx_HAL_Driver/Src/stm32h7xx_hal_hsem.c 0x00000000   Number         0  stm32h7xx_hal_hsem.o ABSOLUTE
    ../Drivers/STM32H7xx_HAL_Driver/Src/stm32h7xx_hal_i2c.c 0x00000000   Number         0  stm32h7xx_hal_i2c.o ABSOLUTE
    ../Drivers/STM32H7xx_HAL_Driver/Src/stm32h7xx_hal_i2c_ex.c 0x00000000   Number         0  stm32h7xx_hal_i2c_ex.o ABSOLUTE
    ../Drivers/STM32H7xx_HAL_Driver/Src/stm32h7xx_hal_mdma.c 0x00000000   Number         0  stm32h7xx_hal_mdma.o ABSOLUTE
    ../Drivers/STM32H7xx_HAL_Driver/Src/stm32h7xx_hal_pwr.c 0x00000000   Number         0  stm32h7xx_hal_pwr.o ABSOLUTE
    ../Drivers/STM32H7xx_HAL_Driver/Src/stm32h7xx_hal_pwr_ex.c 0x00000000   Number         0  stm32h7xx_hal_pwr_ex.o ABSOLUTE
    ../Drivers/STM32H7xx_HAL_Driver/Src/stm32h7xx_hal_rcc.c 0x00000000   Number         0  stm32h7xx_hal_rcc.o ABSOLUTE
    ../Drivers/STM32H7xx_HAL_Driver/Src/stm32h7xx_hal_rcc_ex.c 0x00000000   Number         0  stm32h7xx_hal_rcc_ex.o ABSOLUTE
    ../Drivers/STM32H7xx_HAL_Driver/Src/stm32h7xx_hal_spi.c 0x00000000   Number         0  stm32h7xx_hal_spi.o ABSOLUTE
    ../Drivers/STM32H7xx_HAL_Driver/Src/stm32h7xx_hal_spi_ex.c 0x00000000   Number         0  stm32h7xx_hal_spi_ex.o ABSOLUTE
    ../Drivers/STM32H7xx_HAL_Driver/Src/stm32h7xx_hal_tim.c 0x00000000   Number         0  stm32h7xx_hal_tim.o ABSOLUTE
    ../Drivers/STM32H7xx_HAL_Driver/Src/stm32h7xx_hal_tim_ex.c 0x00000000   Number         0  stm32h7xx_hal_tim_ex.o ABSOLUTE
    ../Middlewares/Third_Party/FreeRTOS/Source/CMSIS_RTOS/cmsis_os.c 0x00000000   Number         0  cmsis_os.o ABSOLUTE
    ../Middlewares/Third_Party/FreeRTOS/Source/croutine.c 0x00000000   Number         0  croutine.o ABSOLUTE
    ../Middlewares/Third_Party/FreeRTOS/Source/event_groups.c 0x00000000   Number         0  event_groups.o ABSOLUTE
    ../Middlewares/Third_Party/FreeRTOS/Source/list.c 0x00000000   Number         0  list.o ABSOLUTE
    ../Middlewares/Third_Party/FreeRTOS/Source/portable/MemMang/heap_4.c 0x00000000   Number         0  heap_4.o ABSOLUTE
    ../Middlewares/Third_Party/FreeRTOS/Source/portable/RVDS/ARM_CM4F/port.c 0x00000000   Number         0  port.o ABSOLUTE
    ../Middlewares/Third_Party/FreeRTOS/Source/queue.c 0x00000000   Number         0  queue.o ABSOLUTE
    ../Middlewares/Third_Party/FreeRTOS/Source/stream_buffer.c 0x00000000   Number         0  stream_buffer.o ABSOLUTE
    ../Middlewares/Third_Party/FreeRTOS/Source/tasks.c 0x00000000   Number         0  tasks.o ABSOLUTE
    ../Middlewares/Third_Party/FreeRTOS/Source/timers.c 0x00000000   Number         0  timers.o ABSOLUTE
    ../clib/../cmprslib/zerorunl2.c          0x00000000   Number         0  __dczerorl2.o ABSOLUTE
    ../clib/microlib/division.c              0x00000000   Number         0  uldiv.o ABSOLUTE
    ../clib/microlib/errno.c                 0x00000000   Number         0  errno.o ABSOLUTE
    ../clib/microlib/init/entry.s            0x00000000   Number         0  entry5.o ABSOLUTE
    ../clib/microlib/init/entry.s            0x00000000   Number         0  entry.o ABSOLUTE
    ../clib/microlib/init/entry.s            0x00000000   Number         0  entry2.o ABSOLUTE
    ../clib/microlib/init/entry.s            0x00000000   Number         0  entry9a.o ABSOLUTE
    ../clib/microlib/init/entry.s            0x00000000   Number         0  entry9b.o ABSOLUTE
    ../clib/microlib/init/entry.s            0x00000000   Number         0  entry12b.o ABSOLUTE
    ../clib/microlib/init/entry.s            0x00000000   Number         0  entry12a.o ABSOLUTE
    ../clib/microlib/init/entry.s            0x00000000   Number         0  entry8b.o ABSOLUTE
    ../clib/microlib/init/entry.s            0x00000000   Number         0  entry11b.o ABSOLUTE
    ../clib/microlib/init/entry.s            0x00000000   Number         0  entry11a.o ABSOLUTE
    ../clib/microlib/init/entry.s            0x00000000   Number         0  entry10b.o ABSOLUTE
    ../clib/microlib/init/entry.s            0x00000000   Number         0  entry8a.o ABSOLUTE
    ../clib/microlib/init/entry.s            0x00000000   Number         0  entry10a.o ABSOLUTE
    ../clib/microlib/init/entry.s            0x00000000   Number         0  entry7b.o ABSOLUTE
    ../clib/microlib/init/entry.s            0x00000000   Number         0  entry7a.o ABSOLUTE
    ../clib/microlib/longlong.c              0x00000000   Number         0  llshl.o ABSOLUTE
    ../clib/microlib/longlong.c              0x00000000   Number         0  llushr.o ABSOLUTE
    ../clib/microlib/malloc/malloc.c         0x00000000   Number         0  malloc.o ABSOLUTE
    ../clib/microlib/malloc/malloc.c         0x00000000   Number         0  mallocr.o ABSOLUTE
    ../clib/microlib/malloc/malloc.c         0x00000000   Number         0  malloca.o ABSOLUTE
    ../clib/microlib/malloc/malloc.c         0x00000000   Number         0  mallocra.o ABSOLUTE
    ../clib/microlib/malloc/mvars.c          0x00000000   Number         0  mvars.o ABSOLUTE
    ../clib/microlib/string/memcpy.c         0x00000000   Number         0  memcpyb.o ABSOLUTE
    ../clib/microlib/string/memcpy.c         0x00000000   Number         0  memcpya.o ABSOLUTE
    ../clib/microlib/string/memset.c         0x00000000   Number         0  memseta.o ABSOLUTE
    ../clib/microlib/string/memset.c         0x00000000   Number         0  memset.o ABSOLUTE
    ../clib/microlib/stubs.s                 0x00000000   Number         0  iusefp.o ABSOLUTE
    ../mathlib/acosf.c                       0x00000000   Number         0  acosf_x.o ABSOLUTE
    ../mathlib/acosf.c                       0x00000000   Number         0  acosf.o ABSOLUTE
    ../mathlib/asinf.c                       0x00000000   Number         0  asinf_x.o ABSOLUTE
    ../mathlib/asinf.c                       0x00000000   Number         0  asinf.o ABSOLUTE
    ../mathlib/atan2f.c                      0x00000000   Number         0  atan2f.o ABSOLUTE
    ../mathlib/atan2f.c                      0x00000000   Number         0  atan2f_x.o ABSOLUTE
    ../mathlib/fpclassifyf.c                 0x00000000   Number         0  fpclassifyf.o ABSOLUTE
    ../mathlib/funder.c                      0x00000000   Number         0  funder.o ABSOLUTE
    ../mathlib/sqrt.c                        0x00000000   Number         0  sqrt.o ABSOLUTE
    ../mathlib/sqrt.c                        0x00000000   Number         0  sqrt_x.o ABSOLUTE
    ../mathlib/sqrtf.c                       0x00000000   Number         0  sqrtf_x.o ABSOLUTE
    ../mathlib/sqrtf.c                       0x00000000   Number         0  sqrtf.o ABSOLUTE
    ..\Core\Src\dma.c                        0x00000000   Number         0  dma.o ABSOLUTE
    ..\Core\Src\fdcan.c                      0x00000000   Number         0  fdcan.o ABSOLUTE
    ..\Core\Src\freertos.c                   0x00000000   Number         0  freertos.o ABSOLUTE
    ..\Core\Src\gpio.c                       0x00000000   Number         0  gpio.o ABSOLUTE
    ..\Core\Src\main.c                       0x00000000   Number         0  main.o ABSOLUTE
    ..\Core\Src\spi.c                        0x00000000   Number         0  spi.o ABSOLUTE
    ..\Core\Src\stm32h7xx_hal_msp.c          0x00000000   Number         0  stm32h7xx_hal_msp.o ABSOLUTE
    ..\Core\Src\stm32h7xx_hal_timebase_tim.c 0x00000000   Number         0  stm32h7xx_hal_timebase_tim.o ABSOLUTE
    ..\Core\Src\stm32h7xx_it.c               0x00000000   Number         0  stm32h7xx_it.o ABSOLUTE
    ..\Core\Src\system_stm32h7xx.c           0x00000000   Number         0  system_stm32h7xx.o ABSOLUTE
    ..\Core\Src\tim.c                        0x00000000   Number         0  tim.o ABSOLUTE
    ..\Drivers\STM32H7xx_HAL_Driver\Src\stm32h7xx_hal.c 0x00000000   Number         0  stm32h7xx_hal.o ABSOLUTE
    ..\Drivers\STM32H7xx_HAL_Driver\Src\stm32h7xx_hal_cortex.c 0x00000000   Number         0  stm32h7xx_hal_cortex.o ABSOLUTE
    ..\Drivers\STM32H7xx_HAL_Driver\Src\stm32h7xx_hal_dma.c 0x00000000   Number         0  stm32h7xx_hal_dma.o ABSOLUTE
    ..\Drivers\STM32H7xx_HAL_Driver\Src\stm32h7xx_hal_dma_ex.c 0x00000000   Number         0  stm32h7xx_hal_dma_ex.o ABSOLUTE
    ..\Drivers\STM32H7xx_HAL_Driver\Src\stm32h7xx_hal_exti.c 0x00000000   Number         0  stm32h7xx_hal_exti.o ABSOLUTE
    ..\Drivers\STM32H7xx_HAL_Driver\Src\stm32h7xx_hal_fdcan.c 0x00000000   Number         0  stm32h7xx_hal_fdcan.o ABSOLUTE
    ..\Drivers\STM32H7xx_HAL_Driver\Src\stm32h7xx_hal_flash.c 0x00000000   Number         0  stm32h7xx_hal_flash.o ABSOLUTE
    ..\Drivers\STM32H7xx_HAL_Driver\Src\stm32h7xx_hal_flash_ex.c 0x00000000   Number         0  stm32h7xx_hal_flash_ex.o ABSOLUTE
    ..\Drivers\STM32H7xx_HAL_Driver\Src\stm32h7xx_hal_gpio.c 0x00000000   Number         0  stm32h7xx_hal_gpio.o ABSOLUTE
    ..\Drivers\STM32H7xx_HAL_Driver\Src\stm32h7xx_hal_hsem.c 0x00000000   Number         0  stm32h7xx_hal_hsem.o ABSOLUTE
    ..\Drivers\STM32H7xx_HAL_Driver\Src\stm32h7xx_hal_i2c.c 0x00000000   Number         0  stm32h7xx_hal_i2c.o ABSOLUTE
    ..\Drivers\STM32H7xx_HAL_Driver\Src\stm32h7xx_hal_i2c_ex.c 0x00000000   Number         0  stm32h7xx_hal_i2c_ex.o ABSOLUTE
    ..\Drivers\STM32H7xx_HAL_Driver\Src\stm32h7xx_hal_mdma.c 0x00000000   Number         0  stm32h7xx_hal_mdma.o ABSOLUTE
    ..\Drivers\STM32H7xx_HAL_Driver\Src\stm32h7xx_hal_pwr.c 0x00000000   Number         0  stm32h7xx_hal_pwr.o ABSOLUTE
    ..\Drivers\STM32H7xx_HAL_Driver\Src\stm32h7xx_hal_pwr_ex.c 0x00000000   Number         0  stm32h7xx_hal_pwr_ex.o ABSOLUTE
    ..\Drivers\STM32H7xx_HAL_Driver\Src\stm32h7xx_hal_rcc.c 0x00000000   Number         0  stm32h7xx_hal_rcc.o ABSOLUTE
    ..\Drivers\STM32H7xx_HAL_Driver\Src\stm32h7xx_hal_rcc_ex.c 0x00000000   Number         0  stm32h7xx_hal_rcc_ex.o ABSOLUTE
    ..\Drivers\STM32H7xx_HAL_Driver\Src\stm32h7xx_hal_spi.c 0x00000000   Number         0  stm32h7xx_hal_spi.o ABSOLUTE
    ..\Drivers\STM32H7xx_HAL_Driver\Src\stm32h7xx_hal_spi_ex.c 0x00000000   Number         0  stm32h7xx_hal_spi_ex.o ABSOLUTE
    ..\Drivers\STM32H7xx_HAL_Driver\Src\stm32h7xx_hal_tim.c 0x00000000   Number         0  stm32h7xx_hal_tim.o ABSOLUTE
    ..\Drivers\STM32H7xx_HAL_Driver\Src\stm32h7xx_hal_tim_ex.c 0x00000000   Number         0  stm32h7xx_hal_tim_ex.o ABSOLUTE
    ..\Middlewares\Third_Party\FreeRTOS\Source\CMSIS_RTOS\cmsis_os.c 0x00000000   Number         0  cmsis_os.o ABSOLUTE
    ..\Middlewares\Third_Party\FreeRTOS\Source\portable\RVDS\ARM_CM4F\port.c 0x00000000   Number         0  port.o ABSOLUTE
    ..\User\APP\INS_task.c                   0x00000000   Number         0  ins_task.o ABSOLUTE
    ..\User\APP\chassisL_task.c              0x00000000   Number         0  chassisl_task.o ABSOLUTE
    ..\User\APP\chassisR_task.c              0x00000000   Number         0  chassisr_task.o ABSOLUTE
    ..\User\APP\observe_task.c               0x00000000   Number         0  observe_task.o ABSOLUTE
    ..\User\APP\ps2_task.c                   0x00000000   Number         0  ps2_task.o ABSOLUTE
    ..\User\Algorithm\EKF\QuaternionEKF.c    0x00000000   Number         0  quaternionekf.o ABSOLUTE
    ..\User\Algorithm\PID\pid.c              0x00000000   Number         0  pid.o ABSOLUTE
    ..\User\Algorithm\VMC\VMC_calc.c         0x00000000   Number         0  vmc_calc.o ABSOLUTE
    ..\User\Algorithm\kalman\kalman_filter.c 0x00000000   Number         0  kalman_filter.o ABSOLUTE
    ..\User\Algorithm\mahony\mahony_filter.c 0x00000000   Number         0  mahony_filter.o ABSOLUTE
    ..\User\Bsp\bsp_PWM.c                    0x00000000   Number         0  bsp_pwm.o ABSOLUTE
    ..\User\Bsp\can_bsp.c                    0x00000000   Number         0  can_bsp.o ABSOLUTE
    ..\User\Controller\controller.c          0x00000000   Number         0  controller.o ABSOLUTE
    ..\User\Devices\BMI088\BMI088Middleware.c 0x00000000   Number         0  bmi088middleware.o ABSOLUTE
    ..\User\Devices\BMI088\BMI088driver.c    0x00000000   Number         0  bmi088driver.o ABSOLUTE
    ..\User\Devices\DM_Motor\dm4310_drv.c    0x00000000   Number         0  dm4310_drv.o ABSOLUTE
    ..\User\Lib\user_lib.c                   0x00000000   Number         0  user_lib.o ABSOLUTE
    ..\User\bsp\bsp_dwt.c                    0x00000000   Number         0  bsp_dwt.o ABSOLUTE
    ..\\User\\APP\\INS_task.c                0x00000000   Number         0  ins_task.o ABSOLUTE
    ..\\User\\APP\\chassisL_task.c           0x00000000   Number         0  chassisl_task.o ABSOLUTE
    ..\\User\\APP\\chassisR_task.c           0x00000000   Number         0  chassisr_task.o ABSOLUTE
    ..\\User\\APP\\observe_task.c            0x00000000   Number         0  observe_task.o ABSOLUTE
    ..\\User\\APP\\ps2_task.c                0x00000000   Number         0  ps2_task.o ABSOLUTE
    ..\\User\\Algorithm\\EKF\\QuaternionEKF.c 0x00000000   Number         0  quaternionekf.o ABSOLUTE
    ..\\User\\Algorithm\\PID\\pid.c          0x00000000   Number         0  pid.o ABSOLUTE
    ..\\User\\Algorithm\\VMC\\VMC_calc.c     0x00000000   Number         0  vmc_calc.o ABSOLUTE
    ..\\User\\Algorithm\\kalman\\kalman_filter.c 0x00000000   Number         0  kalman_filter.o ABSOLUTE
    ..\\User\\Algorithm\\mahony\\mahony_filter.c 0x00000000   Number         0  mahony_filter.o ABSOLUTE
    ..\\User\\Bsp\\bsp_PWM.c                 0x00000000   Number         0  bsp_pwm.o ABSOLUTE
    ..\\User\\Bsp\\can_bsp.c                 0x00000000   Number         0  can_bsp.o ABSOLUTE
    ..\\User\\Controller\\controller.c       0x00000000   Number         0  controller.o ABSOLUTE
    ..\\User\\Devices\\BMI088\\BMI088Middleware.c 0x00000000   Number         0  bmi088middleware.o ABSOLUTE
    ..\\User\\Devices\\BMI088\\BMI088driver.c 0x00000000   Number         0  bmi088driver.o ABSOLUTE
    ..\\User\\Devices\\DM_Motor\\dm4310_drv.c 0x00000000   Number         0  dm4310_drv.o ABSOLUTE
    ..\\User\\Lib\\user_lib.c                0x00000000   Number         0  user_lib.o ABSOLUTE
    ..\\User\\bsp\\bsp_dwt.c                 0x00000000   Number         0  bsp_dwt.o ABSOLUTE
    arm_common_tables.c                      0x00000000   Number         0  arm_common_tables.o ABSOLUTE
    arm_cos_f32.c                            0x00000000   Number         0  arm_cos_f32.o ABSOLUTE
    arm_mat_add_f32.c                        0x00000000   Number         0  arm_mat_add_f32.o ABSOLUTE
    arm_mat_init_f32.c                       0x00000000   Number         0  arm_mat_init_f32.o ABSOLUTE
    arm_mat_inverse_f32.c                    0x00000000   Number         0  arm_mat_inverse_f32.o ABSOLUTE
    arm_mat_mult_f32.c                       0x00000000   Number         0  arm_mat_mult_f32.o ABSOLUTE
    arm_mat_sub_f32.c                        0x00000000   Number         0  arm_mat_sub_f32.o ABSOLUTE
    arm_mat_trans_f32.c                      0x00000000   Number         0  arm_mat_trans_f32.o ABSOLUTE
    arm_sin_f32.c                            0x00000000   Number         0  arm_sin_f32.o ABSOLUTE
    dc.s                                     0x00000000   Number         0  dc.o ABSOLUTE
    handlers.s                               0x00000000   Number         0  handlers.o ABSOLUTE
    init.s                                   0x00000000   Number         0  init.o ABSOLUTE
    startup_stm32h723xx.s                    0x00000000   Number         0  startup_stm32h723xx.o ABSOLUTE
    RESET                                    0x08000000   Section      716  startup_stm32h723xx.o(RESET)
    .ARM.Collect$$$$00000000                 0x080002cc   Section        0  entry.o(.ARM.Collect$$$$00000000)
    .ARM.Collect$$$$00000001                 0x080002cc   Section        4  entry2.o(.ARM.Collect$$$$00000001)
    .ARM.Collect$$$$00000004                 0x080002d0   Section        4  entry5.o(.ARM.Collect$$$$00000004)
    .ARM.Collect$$$$00000008                 0x080002d4   Section        0  entry7b.o(.ARM.Collect$$$$00000008)
    .ARM.Collect$$$$0000000A                 0x080002d4   Section        0  entry8b.o(.ARM.Collect$$$$0000000A)
    .ARM.Collect$$$$0000000B                 0x080002d4   Section        8  entry9a.o(.ARM.Collect$$$$0000000B)
    .ARM.Collect$$$$0000000E                 0x080002dc   Section        4  entry12b.o(.ARM.Collect$$$$0000000E)
    .ARM.Collect$$$$0000000F                 0x080002e0   Section        0  entry10a.o(.ARM.Collect$$$$0000000F)
    .ARM.Collect$$$$00000011                 0x080002e0   Section        0  entry11a.o(.ARM.Collect$$$$00000011)
    .ARM.Collect$$$$00002712                 0x080002e0   Section        4  entry2.o(.ARM.Collect$$$$00002712)
    __lit__00000000                          0x080002e0   Data           4  entry2.o(.ARM.Collect$$$$00002712)
    .emb_text                                0x080002e4   Section      190  port.o(.emb_text)
    $v0                                      0x080002e4   Number         0  port.o(.emb_text)
    .text                                    0x080003a4   Section       36  startup_stm32h723xx.o(.text)
    $v0                                      0x080003a4   Number         0  startup_stm32h723xx.o(.text)
    .text                                    0x080003c8   Section        0  uldiv.o(.text)
    .text                                    0x0800042a   Section        0  memcpya.o(.text)
    .text                                    0x0800044e   Section        0  memseta.o(.text)
    .text                                    0x08000472   Section        0  llshl.o(.text)
    .text                                    0x08000490   Section        0  llushr.o(.text)
    .text                                    0x080004b0   Section        0  iusefp.o(.text)
    .text                                    0x080004b0   Section       36  init.o(.text)
    .text                                    0x080004d4   Section        0  __dczerorl2.o(.text)
    [Anonymous Symbol]                       0x0800052c   Section        0  arm_cos_f32.o(.text.arm_cos_f32)
    [Anonymous Symbol]                       0x080005bc   Section        0  arm_mat_add_f32.o(.text.arm_mat_add_f32)
    [Anonymous Symbol]                       0x0800067a   Section        0  arm_mat_init_f32.o(.text.arm_mat_init_f32)
    [Anonymous Symbol]                       0x08000684   Section        0  arm_mat_inverse_f32.o(.text.arm_mat_inverse_f32)
    [Anonymous Symbol]                       0x08000950   Section        0  arm_mat_mult_f32.o(.text.arm_mat_mult_f32)
    [Anonymous Symbol]                       0x08000a80   Section        0  arm_mat_sub_f32.o(.text.arm_mat_sub_f32)
    [Anonymous Symbol]                       0x08000b40   Section        0  arm_mat_trans_f32.o(.text.arm_mat_trans_f32)
    [Anonymous Symbol]                       0x08000bf4   Section        0  arm_sin_f32.o(.text.arm_sin_f32)
    i.BMI088_ACCEL_NS_H                      0x08000c80   Section        0  bmi088middleware.o(i.BMI088_ACCEL_NS_H)
    i.BMI088_ACCEL_NS_L                      0x08000c94   Section        0  bmi088middleware.o(i.BMI088_ACCEL_NS_L)
    i.BMI088_GYRO_NS_H                       0x08000ca8   Section        0  bmi088middleware.o(i.BMI088_GYRO_NS_H)
    i.BMI088_GYRO_NS_L                       0x08000cbc   Section        0  bmi088middleware.o(i.BMI088_GYRO_NS_L)
    i.BMI088_Read                            0x08000cd0   Section        0  bmi088driver.o(i.BMI088_Read)
    i.BMI088_init                            0x08001000   Section        0  bmi088driver.o(i.BMI088_init)
    i.BMI088_read_muli_reg                   0x080010c0   Section        0  bmi088driver.o(i.BMI088_read_muli_reg)
    BMI088_read_muli_reg                     0x080010c1   Thumb Code    38  bmi088driver.o(i.BMI088_read_muli_reg)
    i.BMI088_read_single_reg                 0x080010e6   Section        0  bmi088driver.o(i.BMI088_read_single_reg)
    BMI088_read_single_reg                   0x080010e7   Thumb Code    24  bmi088driver.o(i.BMI088_read_single_reg)
    i.BMI088_read_write_byte                 0x08001100   Section        0  bmi088middleware.o(i.BMI088_read_write_byte)
    i.BMI088_write_single_reg                0x08001124   Section        0  bmi088driver.o(i.BMI088_write_single_reg)
    BMI088_write_single_reg                  0x08001125   Thumb Code    20  bmi088driver.o(i.BMI088_write_single_reg)
    i.BodyFrameToEarthFrame                  0x08001138   Section        0  ins_task.o(i.BodyFrameToEarthFrame)
    i.BusFault_Handler                       0x08001292   Section        0  stm32h7xx_it.o(i.BusFault_Handler)
    i.Calibrate_MPU_Offset                   0x08001298   Section        0  bmi088driver.o(i.Calibrate_MPU_Offset)
    Calibrate_MPU_Offset                     0x08001299   Thumb Code  1612  bmi088driver.o(i.Calibrate_MPU_Offset)
    i.ChassisL_Task                          0x0800190c   Section        0  freertos.o(i.ChassisL_Task)
    i.ChassisL_init                          0x08001914   Section        0  chassisl_task.o(i.ChassisL_init)
    i.ChassisL_task                          0x080019cc   Section        0  chassisl_task.o(i.ChassisL_task)
    i.ChassisR_Task                          0x08001b3c   Section        0  freertos.o(i.ChassisR_Task)
    i.ChassisR_init                          0x08001b44   Section        0  chassisr_task.o(i.ChassisR_init)
    i.ChassisR_task                          0x08001bf0   Section        0  chassisr_task.o(i.ChassisR_task)
    i.DMA1_Stream0_IRQHandler                0x08001d68   Section        0  stm32h7xx_it.o(i.DMA1_Stream0_IRQHandler)
    i.DMA1_Stream1_IRQHandler                0x08001d78   Section        0  stm32h7xx_it.o(i.DMA1_Stream1_IRQHandler)
    i.DMA_CalcBaseAndBitshift                0x08001d88   Section        0  stm32h7xx_hal_dma.o(i.DMA_CalcBaseAndBitshift)
    DMA_CalcBaseAndBitshift                  0x08001d89   Thumb Code   224  stm32h7xx_hal_dma.o(i.DMA_CalcBaseAndBitshift)
    i.DMA_CalcDMAMUXChannelBaseAndMask       0x08001e74   Section        0  stm32h7xx_hal_dma.o(i.DMA_CalcDMAMUXChannelBaseAndMask)
    DMA_CalcDMAMUXChannelBaseAndMask         0x08001e75   Thumb Code   178  stm32h7xx_hal_dma.o(i.DMA_CalcDMAMUXChannelBaseAndMask)
    i.DMA_CalcDMAMUXRequestGenBaseAndMask    0x08001f38   Section        0  stm32h7xx_hal_dma.o(i.DMA_CalcDMAMUXRequestGenBaseAndMask)
    DMA_CalcDMAMUXRequestGenBaseAndMask      0x08001f39   Thumb Code   140  stm32h7xx_hal_dma.o(i.DMA_CalcDMAMUXRequestGenBaseAndMask)
    i.DMA_CheckFifoParam                     0x08001fd0   Section        0  stm32h7xx_hal_dma.o(i.DMA_CheckFifoParam)
    DMA_CheckFifoParam                       0x08001fd1   Thumb Code   174  stm32h7xx_hal_dma.o(i.DMA_CheckFifoParam)
    i.DWT_CNT_Update                         0x08002080   Section        0  bsp_dwt.o(i.DWT_CNT_Update)
    DWT_CNT_Update                           0x08002081   Thumb Code    36  bsp_dwt.o(i.DWT_CNT_Update)
    i.DWT_Delay                              0x080020b0   Section        0  bsp_dwt.o(i.DWT_Delay)
    i.DWT_GetDeltaT                          0x080020ec   Section        0  bsp_dwt.o(i.DWT_GetDeltaT)
    i.DWT_GetTimeline_s                      0x08002138   Section        0  bsp_dwt.o(i.DWT_GetTimeline_s)
    i.DWT_Init                               0x0800218c   Section        0  bsp_dwt.o(i.DWT_Init)
    i.DWT_SysTimeUpdate                      0x080021f4   Section        0  bsp_dwt.o(i.DWT_SysTimeUpdate)
    i.DebugMon_Handler                       0x080022c4   Section        0  stm32h7xx_it.o(i.DebugMon_Handler)
    i.EarthFrameToBodyFrame                  0x080022c6   Section        0  ins_task.o(i.EarthFrameToBodyFrame)
    i.Error_Handler                          0x08002420   Section        0  main.o(i.Error_Handler)
    i.FDCAN1_Config                          0x08002428   Section        0  can_bsp.o(i.FDCAN1_Config)
    i.FDCAN1_IT0_IRQHandler                  0x08002488   Section        0  stm32h7xx_it.o(i.FDCAN1_IT0_IRQHandler)
    i.FDCAN2_Config                          0x08002498   Section        0  can_bsp.o(i.FDCAN2_Config)
    i.FDCAN2_IT0_IRQHandler                  0x080024f8   Section        0  stm32h7xx_it.o(i.FDCAN2_IT0_IRQHandler)
    i.FDCAN3_IT0_IRQHandler                  0x08002508   Section        0  stm32h7xx_it.o(i.FDCAN3_IT0_IRQHandler)
    i.FDCAN_CalcultateRamBlockAddresses      0x08002518   Section        0  stm32h7xx_hal_fdcan.o(i.FDCAN_CalcultateRamBlockAddresses)
    FDCAN_CalcultateRamBlockAddresses        0x08002519   Thumb Code   536  stm32h7xx_hal_fdcan.o(i.FDCAN_CalcultateRamBlockAddresses)
    i.FDCAN_CopyMessageToRAM                 0x08002738   Section        0  stm32h7xx_hal_fdcan.o(i.FDCAN_CopyMessageToRAM)
    FDCAN_CopyMessageToRAM                   0x08002739   Thumb Code   206  stm32h7xx_hal_fdcan.o(i.FDCAN_CopyMessageToRAM)
    i.HAL_DMA_Abort_IT                       0x0800280c   Section        0  stm32h7xx_hal_dma.o(i.HAL_DMA_Abort_IT)
    i.HAL_DMA_IRQHandler                     0x08002ba4   Section        0  stm32h7xx_hal_dma.o(i.HAL_DMA_IRQHandler)
    i.HAL_DMA_Init                           0x0800369c   Section        0  stm32h7xx_hal_dma.o(i.HAL_DMA_Init)
    i.HAL_Delay                              0x08003bb0   Section        0  stm32h7xx_hal.o(i.HAL_Delay)
    i.HAL_FDCAN_ActivateNotification         0x08003bd8   Section        0  stm32h7xx_hal_fdcan.o(i.HAL_FDCAN_ActivateNotification)
    i.HAL_FDCAN_AddMessageToTxFifoQ          0x08003c80   Section        0  stm32h7xx_hal_fdcan.o(i.HAL_FDCAN_AddMessageToTxFifoQ)
    i.HAL_FDCAN_ClockCalibrationCallback     0x08003d10   Section        0  stm32h7xx_hal_fdcan.o(i.HAL_FDCAN_ClockCalibrationCallback)
    i.HAL_FDCAN_ConfigFilter                 0x08003d12   Section        0  stm32h7xx_hal_fdcan.o(i.HAL_FDCAN_ConfigFilter)
    i.HAL_FDCAN_ConfigGlobalFilter           0x08003dba   Section        0  stm32h7xx_hal_fdcan.o(i.HAL_FDCAN_ConfigGlobalFilter)
    i.HAL_FDCAN_ErrorCallback                0x08003dee   Section        0  stm32h7xx_hal_fdcan.o(i.HAL_FDCAN_ErrorCallback)
    i.HAL_FDCAN_ErrorStatusCallback          0x08003df0   Section        0  stm32h7xx_hal_fdcan.o(i.HAL_FDCAN_ErrorStatusCallback)
    i.HAL_FDCAN_GetRxMessage                 0x08003df4   Section        0  stm32h7xx_hal_fdcan.o(i.HAL_FDCAN_GetRxMessage)
    i.HAL_FDCAN_HighPriorityMessageCallback  0x08003fe8   Section        0  stm32h7xx_hal_fdcan.o(i.HAL_FDCAN_HighPriorityMessageCallback)
    i.HAL_FDCAN_IRQHandler                   0x08003fec   Section        0  stm32h7xx_hal_fdcan.o(i.HAL_FDCAN_IRQHandler)
    i.HAL_FDCAN_Init                         0x080043c0   Section        0  stm32h7xx_hal_fdcan.o(i.HAL_FDCAN_Init)
    i.HAL_FDCAN_MspInit                      0x080046a0   Section        0  fdcan.o(i.HAL_FDCAN_MspInit)
    i.HAL_FDCAN_RxBufferNewMessageCallback   0x08004854   Section        0  stm32h7xx_hal_fdcan.o(i.HAL_FDCAN_RxBufferNewMessageCallback)
    i.HAL_FDCAN_RxFifo0Callback              0x08004858   Section        0  can_bsp.o(i.HAL_FDCAN_RxFifo0Callback)
    i.HAL_FDCAN_RxFifo1Callback              0x080048d4   Section        0  can_bsp.o(i.HAL_FDCAN_RxFifo1Callback)
    i.HAL_FDCAN_Start                        0x08004950   Section        0  stm32h7xx_hal_fdcan.o(i.HAL_FDCAN_Start)
    i.HAL_FDCAN_TT_GlobalTimeCallback        0x08004984   Section        0  stm32h7xx_hal_fdcan.o(i.HAL_FDCAN_TT_GlobalTimeCallback)
    i.HAL_FDCAN_TT_ScheduleSyncCallback      0x08004986   Section        0  stm32h7xx_hal_fdcan.o(i.HAL_FDCAN_TT_ScheduleSyncCallback)
    i.HAL_FDCAN_TT_StopWatchCallback         0x08004988   Section        0  stm32h7xx_hal_fdcan.o(i.HAL_FDCAN_TT_StopWatchCallback)
    i.HAL_FDCAN_TT_TimeMarkCallback          0x0800498a   Section        0  stm32h7xx_hal_fdcan.o(i.HAL_FDCAN_TT_TimeMarkCallback)
    i.HAL_FDCAN_TimeoutOccurredCallback      0x0800498c   Section        0  stm32h7xx_hal_fdcan.o(i.HAL_FDCAN_TimeoutOccurredCallback)
    i.HAL_FDCAN_TimestampWraparoundCallback  0x0800498e   Section        0  stm32h7xx_hal_fdcan.o(i.HAL_FDCAN_TimestampWraparoundCallback)
    i.HAL_FDCAN_TxBufferAbortCallback        0x08004990   Section        0  stm32h7xx_hal_fdcan.o(i.HAL_FDCAN_TxBufferAbortCallback)
    i.HAL_FDCAN_TxBufferCompleteCallback     0x08004992   Section        0  stm32h7xx_hal_fdcan.o(i.HAL_FDCAN_TxBufferCompleteCallback)
    i.HAL_FDCAN_TxEventFifoCallback          0x08004994   Section        0  stm32h7xx_hal_fdcan.o(i.HAL_FDCAN_TxEventFifoCallback)
    i.HAL_FDCAN_TxFifoEmptyCallback          0x08004996   Section        0  stm32h7xx_hal_fdcan.o(i.HAL_FDCAN_TxFifoEmptyCallback)
    i.HAL_GPIO_Init                          0x08004998   Section        0  stm32h7xx_hal_gpio.o(i.HAL_GPIO_Init)
    i.HAL_GPIO_ReadPin                       0x08004b88   Section        0  stm32h7xx_hal_gpio.o(i.HAL_GPIO_ReadPin)
    i.HAL_GPIO_WritePin                      0x08004b98   Section        0  stm32h7xx_hal_gpio.o(i.HAL_GPIO_WritePin)
    i.HAL_GetTick                            0x08004ba4   Section        0  stm32h7xx_hal.o(i.HAL_GetTick)
    i.HAL_IncTick                            0x08004bb0   Section        0  stm32h7xx_hal.o(i.HAL_IncTick)
    i.HAL_Init                               0x08004bc8   Section        0  stm32h7xx_hal.o(i.HAL_Init)
    i.HAL_InitTick                           0x08004c28   Section        0  stm32h7xx_hal_timebase_tim.o(i.HAL_InitTick)
    i.HAL_MspInit                            0x08004cc8   Section        0  stm32h7xx_hal_msp.o(i.HAL_MspInit)
    i.HAL_NVIC_EnableIRQ                     0x08004cf8   Section        0  stm32h7xx_hal_cortex.o(i.HAL_NVIC_EnableIRQ)
    i.HAL_NVIC_SetPriority                   0x08004d20   Section        0  stm32h7xx_hal_cortex.o(i.HAL_NVIC_SetPriority)
    i.HAL_NVIC_SetPriorityGrouping           0x08004d9c   Section        0  stm32h7xx_hal_cortex.o(i.HAL_NVIC_SetPriorityGrouping)
    i.HAL_PWREx_ConfigSupply                 0x08004dc4   Section        0  stm32h7xx_hal_pwr_ex.o(i.HAL_PWREx_ConfigSupply)
    i.HAL_RCCEx_PeriphCLKConfig              0x08004e24   Section        0  stm32h7xx_hal_rcc_ex.o(i.HAL_RCCEx_PeriphCLKConfig)
    i.HAL_RCC_ClockConfig                    0x08005aec   Section        0  stm32h7xx_hal_rcc.o(i.HAL_RCC_ClockConfig)
    i.HAL_RCC_GetClockConfig                 0x08005e0c   Section        0  stm32h7xx_hal_rcc.o(i.HAL_RCC_GetClockConfig)
    i.HAL_RCC_GetHCLKFreq                    0x08005e78   Section        0  stm32h7xx_hal_rcc.o(i.HAL_RCC_GetHCLKFreq)
    i.HAL_RCC_GetPCLK1Freq                   0x08005ec4   Section        0  stm32h7xx_hal_rcc.o(i.HAL_RCC_GetPCLK1Freq)
    i.HAL_RCC_GetSysClockFreq                0x08005ee8   Section        0  stm32h7xx_hal_rcc.o(i.HAL_RCC_GetSysClockFreq)
    i.HAL_RCC_OscConfig                      0x08006114   Section        0  stm32h7xx_hal_rcc.o(i.HAL_RCC_OscConfig)
    i.HAL_SPI_ErrorCallback                  0x08006870   Section        0  stm32h7xx_hal_spi.o(i.HAL_SPI_ErrorCallback)
    i.HAL_SPI_IRQHandler                     0x08006874   Section        0  stm32h7xx_hal_spi.o(i.HAL_SPI_IRQHandler)
    i.HAL_SPI_Init                           0x08006b08   Section        0  stm32h7xx_hal_spi.o(i.HAL_SPI_Init)
    i.HAL_SPI_MspInit                        0x08006cb8   Section        0  spi.o(i.HAL_SPI_MspInit)
    i.HAL_SPI_RxCpltCallback                 0x08006e30   Section        0  stm32h7xx_hal_spi.o(i.HAL_SPI_RxCpltCallback)
    i.HAL_SPI_SuspendCallback                0x08006e32   Section        0  stm32h7xx_hal_spi.o(i.HAL_SPI_SuspendCallback)
    i.HAL_SPI_TransmitReceive                0x08006e34   Section        0  stm32h7xx_hal_spi.o(i.HAL_SPI_TransmitReceive)
    i.HAL_SPI_TxCpltCallback                 0x08007136   Section        0  stm32h7xx_hal_spi.o(i.HAL_SPI_TxCpltCallback)
    i.HAL_SPI_TxRxCpltCallback               0x08007138   Section        0  stm32h7xx_hal_spi.o(i.HAL_SPI_TxRxCpltCallback)
    i.HAL_TIMEx_Break2Callback               0x0800713a   Section        0  stm32h7xx_hal_tim_ex.o(i.HAL_TIMEx_Break2Callback)
    i.HAL_TIMEx_BreakCallback                0x0800713c   Section        0  stm32h7xx_hal_tim_ex.o(i.HAL_TIMEx_BreakCallback)
    i.HAL_TIMEx_CommutCallback               0x0800713e   Section        0  stm32h7xx_hal_tim_ex.o(i.HAL_TIMEx_CommutCallback)
    i.HAL_TIMEx_MasterConfigSynchronization  0x08007140   Section        0  stm32h7xx_hal_tim_ex.o(i.HAL_TIMEx_MasterConfigSynchronization)
    i.HAL_TIM_Base_Init                      0x08007224   Section        0  stm32h7xx_hal_tim.o(i.HAL_TIM_Base_Init)
    i.HAL_TIM_Base_MspInit                   0x08007292   Section        0  stm32h7xx_hal_tim.o(i.HAL_TIM_Base_MspInit)
    i.HAL_TIM_Base_Start_IT                  0x08007294   Section        0  stm32h7xx_hal_tim.o(i.HAL_TIM_Base_Start_IT)
    i.HAL_TIM_IC_CaptureCallback             0x08007360   Section        0  stm32h7xx_hal_tim.o(i.HAL_TIM_IC_CaptureCallback)
    i.HAL_TIM_IRQHandler                     0x08007362   Section        0  stm32h7xx_hal_tim.o(i.HAL_TIM_IRQHandler)
    i.HAL_TIM_MspPostInit                    0x0800751c   Section        0  tim.o(i.HAL_TIM_MspPostInit)
    i.HAL_TIM_OC_DelayElapsedCallback        0x08007578   Section        0  stm32h7xx_hal_tim.o(i.HAL_TIM_OC_DelayElapsedCallback)
    i.HAL_TIM_PWM_ConfigChannel              0x0800757a   Section        0  stm32h7xx_hal_tim.o(i.HAL_TIM_PWM_ConfigChannel)
    i.HAL_TIM_PWM_Init                       0x080076ea   Section        0  stm32h7xx_hal_tim.o(i.HAL_TIM_PWM_Init)
    i.HAL_TIM_PWM_MspInit                    0x08007758   Section        0  tim.o(i.HAL_TIM_PWM_MspInit)
    i.HAL_TIM_PWM_PulseFinishedCallback      0x08007788   Section        0  stm32h7xx_hal_tim.o(i.HAL_TIM_PWM_PulseFinishedCallback)
    i.HAL_TIM_PeriodElapsedCallback          0x0800778a   Section        0  main.o(i.HAL_TIM_PeriodElapsedCallback)
    i.HAL_TIM_TriggerCallback                0x0800779c   Section        0  stm32h7xx_hal_tim.o(i.HAL_TIM_TriggerCallback)
    i.H_K_R_Adjustment                       0x080077a0   Section        0  kalman_filter.o(i.H_K_R_Adjustment)
    H_K_R_Adjustment                         0x080077a1   Thumb Code   300  kalman_filter.o(i.H_K_R_Adjustment)
    i.HardFault_Handler                      0x080078d0   Section        0  stm32h7xx_it.o(i.HardFault_Handler)
    i.INS_Init                               0x080078d4   Section        0  ins_task.o(i.INS_Init)
    i.INS_Task                               0x08007908   Section        0  freertos.o(i.INS_Task)
    i.INS_task                               0x08007910   Section        0  ins_task.o(i.INS_task)
    i.Kalman_Filter_Init                     0x08007c30   Section        0  kalman_filter.o(i.Kalman_Filter_Init)
    i.Kalman_Filter_Measure                  0x0800833c   Section        0  kalman_filter.o(i.Kalman_Filter_Measure)
    i.Kalman_Filter_P_Update                 0x0800838c   Section        0  kalman_filter.o(i.Kalman_Filter_P_Update)
    i.Kalman_Filter_PminusUpdate             0x080083f4   Section        0  kalman_filter.o(i.Kalman_Filter_PminusUpdate)
    i.Kalman_Filter_SetK                     0x0800845c   Section        0  kalman_filter.o(i.Kalman_Filter_SetK)
    i.Kalman_Filter_Update                   0x08008530   Section        0  kalman_filter.o(i.Kalman_Filter_Update)
    i.Kalman_Filter_xhatMinusUpdate          0x0800865c   Section        0  kalman_filter.o(i.Kalman_Filter_xhatMinusUpdate)
    i.Kalman_Filter_xhatUpdate               0x080086d8   Section        0  kalman_filter.o(i.Kalman_Filter_xhatUpdate)
    i.LQR_K_calc                             0x0800875e   Section        0  vmc_calc.o(i.LQR_K_calc)
    i.MX_DMA_Init                            0x08008790   Section        0  dma.o(i.MX_DMA_Init)
    i.MX_FDCAN1_Init                         0x080087d4   Section        0  fdcan.o(i.MX_FDCAN1_Init)
    i.MX_FDCAN2_Init                         0x08008854   Section        0  fdcan.o(i.MX_FDCAN2_Init)
    i.MX_FDCAN3_Init                         0x080088d4   Section        0  fdcan.o(i.MX_FDCAN3_Init)
    i.MX_FREERTOS_Init                       0x08008954   Section        0  freertos.o(i.MX_FREERTOS_Init)
    i.MX_GPIO_Init                           0x08008a08   Section        0  gpio.o(i.MX_GPIO_Init)
    i.MX_SPI2_Init                           0x08008b7c   Section        0  spi.o(i.MX_SPI2_Init)
    i.MX_TIM3_Init                           0x08008be0   Section        0  tim.o(i.MX_TIM3_Init)
    i.MemManage_Handler                      0x08008c60   Section        0  stm32h7xx_it.o(i.MemManage_Handler)
    i.NMI_Handler                            0x08008c64   Section        0  stm32h7xx_it.o(i.NMI_Handler)
    i.OBSERVE_Task                           0x08008c68   Section        0  freertos.o(i.OBSERVE_Task)
    i.Observe_task                           0x08008c70   Section        0  observe_task.o(i.Observe_task)
    i.PID_Calc                               0x08008e14   Section        0  pid.o(i.PID_Calc)
    i.PID_init                               0x08009004   Section        0  pid.o(i.PID_init)
    i.PS2_AnologData                         0x08009064   Section        0  ps2_task.o(i.PS2_AnologData)
    i.PS2_ClearData                          0x08009070   Section        0  ps2_task.o(i.PS2_ClearData)
    i.PS2_Cmd                                0x08009088   Section        0  ps2_task.o(i.PS2_Cmd)
    i.PS2_DataKey                            0x08009138   Section        0  ps2_task.o(i.PS2_DataKey)
    i.PS2_EnterConfing                       0x0800918c   Section        0  ps2_task.o(i.PS2_EnterConfing)
    i.PS2_ExitConfing                        0x080091f4   Section        0  ps2_task.o(i.PS2_ExitConfing)
    i.PS2_ReadData                           0x0800925c   Section        0  ps2_task.o(i.PS2_ReadData)
    i.PS2_SetInit                            0x08009330   Section        0  ps2_task.o(i.PS2_SetInit)
    i.PS2_ShortPoll                          0x0800934c   Section        0  ps2_task.o(i.PS2_ShortPoll)
    i.PS2_Task                               0x0800939c   Section        0  freertos.o(i.PS2_Task)
    i.PS2_TurnOnAnalogMode                   0x080093a4   Section        0  ps2_task.o(i.PS2_TurnOnAnalogMode)
    i.PS2_data_process                       0x08009404   Section        0  ps2_task.o(i.PS2_data_process)
    i.PS2_data_read                          0x080095bc   Section        0  ps2_task.o(i.PS2_data_read)
    i.Pensation_init                         0x08009630   Section        0  chassisr_task.o(i.Pensation_init)
    i.PeriphCommonClock_Config               0x08009668   Section        0  main.o(i.PeriphCommonClock_Config)
    i.RCCEx_PLL2_Config                      0x080096b0   Section        0  stm32h7xx_hal_rcc_ex.o(i.RCCEx_PLL2_Config)
    RCCEx_PLL2_Config                        0x080096b1   Thumb Code   350  stm32h7xx_hal_rcc_ex.o(i.RCCEx_PLL2_Config)
    i.RCCEx_PLL3_Config                      0x08009814   Section        0  stm32h7xx_hal_rcc_ex.o(i.RCCEx_PLL3_Config)
    RCCEx_PLL3_Config                        0x08009815   Thumb Code   350  stm32h7xx_hal_rcc_ex.o(i.RCCEx_PLL3_Config)
    i.RotationMatrix_update                  0x08009978   Section        0  mahony_filter.o(i.RotationMatrix_update)
    i.SPI2_IRQHandler                        0x08009aa8   Section        0  stm32h7xx_it.o(i.SPI2_IRQHandler)
    i.SPI_CloseTransfer                      0x08009ab8   Section        0  stm32h7xx_hal_spi.o(i.SPI_CloseTransfer)
    SPI_CloseTransfer                        0x08009ab9   Thumb Code   214  stm32h7xx_hal_spi.o(i.SPI_CloseTransfer)
    i.SPI_DMAAbortOnError                    0x08009b8e   Section        0  stm32h7xx_hal_spi.o(i.SPI_DMAAbortOnError)
    SPI_DMAAbortOnError                      0x08009b8f   Thumb Code    28  stm32h7xx_hal_spi.o(i.SPI_DMAAbortOnError)
    i.SPI_GetPacketSize                      0x08009baa   Section        0  stm32h7xx_hal_spi.o(i.SPI_GetPacketSize)
    SPI_GetPacketSize                        0x08009bab   Thumb Code    26  stm32h7xx_hal_spi.o(i.SPI_GetPacketSize)
    i.SPI_WaitOnFlagUntilTimeout             0x08009bc4   Section        0  stm32h7xx_hal_spi.o(i.SPI_WaitOnFlagUntilTimeout)
    SPI_WaitOnFlagUntilTimeout               0x08009bc5   Thumb Code    66  stm32h7xx_hal_spi.o(i.SPI_WaitOnFlagUntilTimeout)
    i.StartDefaultTask                       0x08009c06   Section        0  freertos.o(i.StartDefaultTask)
    i.SysTick_Handler                        0x08009c10   Section        0  port.o(i.SysTick_Handler)
    i.SystemClock_Config                     0x08009c44   Section        0  main.o(i.SystemClock_Config)
    i.SystemInit                             0x08009cf8   Section        0  system_stm32h7xx.o(i.SystemInit)
    i.TIM2_IRQHandler                        0x08009dd8   Section        0  stm32h7xx_it.o(i.TIM2_IRQHandler)
    i.TIM_Base_SetConfig                     0x08009de8   Section        0  stm32h7xx_hal_tim.o(i.TIM_Base_SetConfig)
    i.TIM_OC1_SetConfig                      0x08009ec8   Section        0  stm32h7xx_hal_tim.o(i.TIM_OC1_SetConfig)
    TIM_OC1_SetConfig                        0x08009ec9   Thumb Code   146  stm32h7xx_hal_tim.o(i.TIM_OC1_SetConfig)
    i.TIM_OC2_SetConfig                      0x08009f74   Section        0  stm32h7xx_hal_tim.o(i.TIM_OC2_SetConfig)
    i.TIM_OC3_SetConfig                      0x0800a028   Section        0  stm32h7xx_hal_tim.o(i.TIM_OC3_SetConfig)
    TIM_OC3_SetConfig                        0x0800a029   Thumb Code   154  stm32h7xx_hal_tim.o(i.TIM_OC3_SetConfig)
    i.TIM_OC4_SetConfig                      0x0800a0dc   Section        0  stm32h7xx_hal_tim.o(i.TIM_OC4_SetConfig)
    TIM_OC4_SetConfig                        0x0800a0dd   Thumb Code    92  stm32h7xx_hal_tim.o(i.TIM_OC4_SetConfig)
    i.TIM_OC5_SetConfig                      0x0800a150   Section        0  stm32h7xx_hal_tim.o(i.TIM_OC5_SetConfig)
    TIM_OC5_SetConfig                        0x0800a151   Thumb Code    86  stm32h7xx_hal_tim.o(i.TIM_OC5_SetConfig)
    i.TIM_OC6_SetConfig                      0x0800a1c0   Section        0  stm32h7xx_hal_tim.o(i.TIM_OC6_SetConfig)
    TIM_OC6_SetConfig                        0x0800a1c1   Thumb Code    88  stm32h7xx_hal_tim.o(i.TIM_OC6_SetConfig)
    i.UsageFault_Handler                     0x0800a230   Section        0  stm32h7xx_it.o(i.UsageFault_Handler)
    i.VMC_calc_1_left                        0x0800a234   Section        0  vmc_calc.o(i.VMC_calc_1_left)
    i.VMC_calc_1_right                       0x0800a5d0   Section        0  vmc_calc.o(i.VMC_calc_1_right)
    i.VMC_calc_2                             0x0800a95c   Section        0  vmc_calc.o(i.VMC_calc_2)
    i.VMC_init                               0x0800aaf4   Section        0  vmc_calc.o(i.VMC_init)
    i.__ARM_fpclassifyf                      0x0800ab2c   Section        0  fpclassifyf.o(i.__ARM_fpclassifyf)
    i.__NVIC_GetPriorityGrouping             0x0800ab54   Section        0  stm32h7xx_hal_cortex.o(i.__NVIC_GetPriorityGrouping)
    __NVIC_GetPriorityGrouping               0x0800ab55   Thumb Code    10  stm32h7xx_hal_cortex.o(i.__NVIC_GetPriorityGrouping)
    i.__NVIC_SetPriority                     0x0800ab64   Section        0  stm32h7xx_hal_cortex.o(i.__NVIC_SetPriority)
    __NVIC_SetPriority                       0x0800ab65   Thumb Code    32  stm32h7xx_hal_cortex.o(i.__NVIC_SetPriority)
    i.__hardfp_asinf                         0x0800ab8c   Section        0  asinf.o(i.__hardfp_asinf)
    i.__hardfp_atan2f                        0x0800acc4   Section        0  atan2f.o(i.__hardfp_atan2f)
    i.__hardfp_sqrt                          0x0800af78   Section        0  sqrt.o(i.__hardfp_sqrt)
    i.__hardfp_sqrtf                         0x0800afde   Section        0  sqrtf.o(i.__hardfp_sqrtf)
    i.__mathlib_flt_infnan                   0x0800b018   Section        0  funder.o(i.__mathlib_flt_infnan)
    i.__mathlib_flt_infnan2                  0x0800b01e   Section        0  funder.o(i.__mathlib_flt_infnan2)
    i.__mathlib_flt_invalid                  0x0800b024   Section        0  funder.o(i.__mathlib_flt_invalid)
    i.__mathlib_flt_underflow                0x0800b034   Section        0  funder.o(i.__mathlib_flt_underflow)
    i.__scatterload_copy                     0x0800b044   Section       14  handlers.o(i.__scatterload_copy)
    i.__scatterload_null                     0x0800b052   Section        2  handlers.o(i.__scatterload_null)
    i.__scatterload_zeroinit                 0x0800b054   Section       14  handlers.o(i.__scatterload_zeroinit)
    i.__set_errno                            0x0800b064   Section        0  errno.o(i.__set_errno)
    i.bmi088_accel_init                      0x0800b070   Section        0  bmi088driver.o(i.bmi088_accel_init)
    i.bmi088_gyro_init                       0x0800b1dc   Section        0  bmi088driver.o(i.bmi088_gyro_init)
    i.canx_send_data                         0x0800b30c   Section        0  can_bsp.o(i.canx_send_data)
    i.chassisL_control_loop                  0x0800b390   Section        0  chassisl_task.o(i.chassisL_control_loop)
    i.chassisL_feedback_update               0x0800b63c   Section        0  chassisl_task.o(i.chassisL_feedback_update)
    i.chassisR_control_loop                  0x0800b688   Section        0  chassisr_task.o(i.chassisR_control_loop)
    i.chassisR_feedback_update               0x0800b978   Section        0  chassisr_task.o(i.chassisR_feedback_update)
    i.dm4310_fbdata                          0x0800ba14   Section        0  dm4310_drv.o(i.dm4310_fbdata)
    i.dm6215_fbdata                          0x0800bab0   Section        0  dm4310_drv.o(i.dm6215_fbdata)
    i.enable_motor_mode                      0x0800bb54   Section        0  dm4310_drv.o(i.enable_motor_mode)
    i.fabsf                                  0x0800bb96   Section        0  bmi088driver.o(i.fabsf)
    fabsf                                    0x0800bb97   Thumb Code    10  bmi088driver.o(i.fabsf)
    i.float_to_uint                          0x0800bba0   Section        0  dm4310_drv.o(i.float_to_uint)
    i.ground_detectionL                      0x0800bbd2   Section        0  vmc_calc.o(i.ground_detectionL)
    i.ground_detectionR                      0x0800bc36   Section        0  vmc_calc.o(i.ground_detectionR)
    i.joint_motor_init                       0x0800bc9a   Section        0  dm4310_drv.o(i.joint_motor_init)
    i.mahony_init                            0x0800bca0   Section        0  mahony_filter.o(i.mahony_init)
    i.mahony_input                           0x0800bcd8   Section        0  mahony_filter.o(i.mahony_input)
    i.mahony_output                          0x0800bcf6   Section        0  mahony_filter.o(i.mahony_output)
    i.mahony_update                          0x0800bd40   Section        0  mahony_filter.o(i.mahony_update)
    i.main                                   0x0800bfc8   Section        0  main.o(i.main)
    i.makeFreeRtosPriority                   0x0800c038   Section        0  cmsis_os.o(i.makeFreeRtosPriority)
    makeFreeRtosPriority                     0x0800c039   Thumb Code    14  cmsis_os.o(i.makeFreeRtosPriority)
    i.malloc                                 0x0800c048   Section        0  malloc.o(i.malloc)
    i.mit_ctrl                               0x0800c0b4   Section        0  dm4310_drv.o(i.mit_ctrl)
    i.mit_ctrl2                              0x0800c1a4   Section        0  dm4310_drv.o(i.mit_ctrl2)
    i.mySaturate                             0x0800c29c   Section        0  chassisr_task.o(i.mySaturate)
    i.osDelay                                0x0800c2c4   Section        0  cmsis_os.o(i.osDelay)
    i.osKernelStart                          0x0800c2dc   Section        0  cmsis_os.o(i.osKernelStart)
    i.osThreadCreate                         0x0800c2e6   Section        0  cmsis_os.o(i.osThreadCreate)
    i.prvAddCurrentTaskToDelayedList         0x0800c318   Section        0  tasks.o(i.prvAddCurrentTaskToDelayedList)
    prvAddCurrentTaskToDelayedList           0x0800c319   Thumb Code   124  tasks.o(i.prvAddCurrentTaskToDelayedList)
    i.prvAddNewTaskToReadyList               0x0800c3b0   Section        0  tasks.o(i.prvAddNewTaskToReadyList)
    prvAddNewTaskToReadyList                 0x0800c3b1   Thumb Code   150  tasks.o(i.prvAddNewTaskToReadyList)
    i.prvCheckTasksWaitingTermination        0x0800c464   Section        0  tasks.o(i.prvCheckTasksWaitingTermination)
    prvCheckTasksWaitingTermination          0x0800c465   Thumb Code    60  tasks.o(i.prvCheckTasksWaitingTermination)
    i.prvDeleteTCB                           0x0800c4ac   Section        0  tasks.o(i.prvDeleteTCB)
    prvDeleteTCB                             0x0800c4ad   Thumb Code    18  tasks.o(i.prvDeleteTCB)
    i.prvHeapInit                            0x0800c4c0   Section        0  heap_4.o(i.prvHeapInit)
    prvHeapInit                              0x0800c4c1   Thumb Code    98  heap_4.o(i.prvHeapInit)
    i.prvIdleTask                            0x0800c53c   Section        0  tasks.o(i.prvIdleTask)
    prvIdleTask                              0x0800c53d   Thumb Code    32  tasks.o(i.prvIdleTask)
    i.prvInitialiseNewTask                   0x0800c564   Section        0  tasks.o(i.prvInitialiseNewTask)
    prvInitialiseNewTask                     0x0800c565   Thumb Code   180  tasks.o(i.prvInitialiseNewTask)
    i.prvInitialiseTaskLists                 0x0800c618   Section        0  tasks.o(i.prvInitialiseTaskLists)
    prvInitialiseTaskLists                   0x0800c619   Thumb Code    70  tasks.o(i.prvInitialiseTaskLists)
    i.prvInsertBlockIntoFreeList             0x0800c680   Section        0  heap_4.o(i.prvInsertBlockIntoFreeList)
    prvInsertBlockIntoFreeList               0x0800c681   Thumb Code    96  heap_4.o(i.prvInsertBlockIntoFreeList)
    i.prvResetNextTaskUnblockTime            0x0800c6e8   Section        0  tasks.o(i.prvResetNextTaskUnblockTime)
    prvResetNextTaskUnblockTime              0x0800c6e9   Thumb Code    42  tasks.o(i.prvResetNextTaskUnblockTime)
    i.prvTaskExitError                       0x0800c71c   Section        0  port.o(i.prvTaskExitError)
    prvTaskExitError                         0x0800c71d   Thumb Code    60  port.o(i.prvTaskExitError)
    i.pstwo_task                             0x0800c75c   Section        0  ps2_task.o(i.pstwo_task)
    i.pvPortMalloc                           0x0800c7b8   Section        0  heap_4.o(i.pvPortMalloc)
    i.pxPortInitialiseStack                  0x0800c904   Section        0  port.o(i.pxPortInitialiseStack)
    i.sqrtf                                  0x0800c930   Section        0  sqrtf.o(i.sqrtf)
    i.uint_to_float                          0x0800c96e   Section        0  dm4310_drv.o(i.uint_to_float)
    i.uxListRemove                           0x0800c9a2   Section        0  list.o(i.uxListRemove)
    i.vListInitialise                        0x0800c9ca   Section        0  list.o(i.vListInitialise)
    i.vListInitialiseItem                    0x0800c9e4   Section        0  list.o(i.vListInitialiseItem)
    i.vListInsert                            0x0800c9ea   Section        0  list.o(i.vListInsert)
    i.vListInsertEnd                         0x0800ca1e   Section        0  list.o(i.vListInsertEnd)
    i.vPortEnterCritical                     0x0800ca38   Section        0  port.o(i.vPortEnterCritical)
    i.vPortExitCritical                      0x0800ca8c   Section        0  port.o(i.vPortExitCritical)
    i.vPortFree                              0x0800cac8   Section        0  heap_4.o(i.vPortFree)
    i.vPortSetupTimerInterrupt               0x0800cb6c   Section        0  port.o(i.vPortSetupTimerInterrupt)
    i.vTaskDelay                             0x0800cb94   Section        0  tasks.o(i.vTaskDelay)
    i.vTaskStartScheduler                    0x0800cbf0   Section        0  tasks.o(i.vTaskStartScheduler)
    i.vTaskSuspendAll                        0x0800cc78   Section        0  tasks.o(i.vTaskSuspendAll)
    i.vTaskSwitchContext                     0x0800cc88   Section        0  tasks.o(i.vTaskSwitchContext)
    i.wheel_motor_init                       0x0800cd14   Section        0  dm4310_drv.o(i.wheel_motor_init)
    i.xPortStartScheduler                    0x0800cd1c   Section        0  port.o(i.xPortStartScheduler)
    i.xTaskCreate                            0x0800ce84   Section        0  tasks.o(i.xTaskCreate)
    i.xTaskIncrementTick                     0x0800cee4   Section        0  tasks.o(i.xTaskIncrementTick)
    i.xTaskResumeAll                         0x0800d02c   Section        0  tasks.o(i.xTaskResumeAll)
    i.xvEstimateKF_Init                      0x0800d130   Section        0  observe_task.o(i.xvEstimateKF_Init)
    i.xvEstimateKF_Update                    0x0800d1a4   Section        0  observe_task.o(i.xvEstimateKF_Update)
    .constdata                               0x0800d1ec   Section      120  freertos.o(.constdata)
    .constdata                               0x0800d264   Section        8  stm32h7xx_hal_dma.o(.constdata)
    flagBitshiftOffset                       0x0800d264   Data           8  stm32h7xx_hal_dma.o(.constdata)
    .constdata                               0x0800d26c   Section       92  stm32h7xx_hal_fdcan.o(.constdata)
    DLCtoBytes                               0x0800d26c   Data          16  stm32h7xx_hal_fdcan.o(.constdata)
    .constdata                               0x0800d2c8   Section       16  system_stm32h7xx.o(.constdata)
    .constdata                               0x0800d2d8   Section       12  chassisl_task.o(.constdata)
    legl_pid                                 0x0800d2d8   Data          12  chassisl_task.o(.constdata)
    .constdata                               0x0800d2e4   Section       36  chassisr_task.o(.constdata)
    legr_pid                                 0x0800d2e4   Data          12  chassisr_task.o(.constdata)
    tp_pid                                   0x0800d2f0   Data          12  chassisr_task.o(.constdata)
    turn_pid                                 0x0800d2fc   Data          12  chassisr_task.o(.constdata)
    .constdata                               0x0800d308   Section       16  observe_task.o(.constdata)
    .conststring                             0x0800d318   Section       84  freertos.o(.conststring)
    .data                                    0x24000000   Section       24  freertos.o(.data)
    .data                                    0x24000018   Section        4  fdcan.o(.data)
    HAL_RCC_FDCAN_CLK_ENABLED                0x24000018   Data           4  fdcan.o(.data)
    .data                                    0x2400001c   Section        9  stm32h7xx_hal.o(.data)
    .data                                    0x24000028   Section        8  system_stm32h7xx.o(.data)
    .data                                    0x24000030   Section       74  bmi088driver.o(.data)
    res                                      0x24000038   Data           1  bmi088driver.o(.data)
    write_reg_num                            0x24000039   Data           1  bmi088driver.o(.data)
    error                                    0x2400003a   Data           1  bmi088driver.o(.data)
    write_BMI088_accel_reg_data_error        0x24000044   Data          18  bmi088driver.o(.data)
    write_BMI088_gyro_reg_data_error         0x24000056   Data          18  bmi088driver.o(.data)
    startTime                                0x24000068   Data           4  bmi088driver.o(.data)
    CaliTimes                                0x2400006c   Data           2  bmi088driver.o(.data)
    acc_CaliTimes                            0x2400006e   Data           2  bmi088driver.o(.data)
    buf                                      0x24000070   Data           8  bmi088driver.o(.data)
    bmi088_raw_temp                          0x24000078   Data           2  bmi088driver.o(.data)
    .data                                    0x2400007c   Section        4  bmi088middleware.o(.data)
    .data                                    0x24000080   Section       16  vmc_calc.o(.data)
    PitchR                                   0x24000080   Data           4  vmc_calc.o(.data)
    PithGyroR                                0x24000084   Data           4  vmc_calc.o(.data)
    PitchL                                   0x24000088   Data           4  vmc_calc.o(.data)
    PithGyroL                                0x2400008c   Data           4  vmc_calc.o(.data)
    .data                                    0x24000090   Section        4  kalman_filter.o(.data)
    .data                                    0x24000094   Section       60  tasks.o(.data)
    pxDelayedTaskList                        0x24000098   Data           4  tasks.o(.data)
    pxOverflowDelayedTaskList                0x2400009c   Data           4  tasks.o(.data)
    uxDeletedTasksWaitingCleanUp             0x240000a0   Data           4  tasks.o(.data)
    uxCurrentNumberOfTasks                   0x240000a4   Data           4  tasks.o(.data)
    xTickCount                               0x240000a8   Data           4  tasks.o(.data)
    uxTopReadyPriority                       0x240000ac   Data           4  tasks.o(.data)
    xSchedulerRunning                        0x240000b0   Data           4  tasks.o(.data)
    xPendedTicks                             0x240000b4   Data           4  tasks.o(.data)
    xYieldPending                            0x240000b8   Data           4  tasks.o(.data)
    xNumOfOverflows                          0x240000bc   Data           4  tasks.o(.data)
    uxTaskNumber                             0x240000c0   Data           4  tasks.o(.data)
    xNextTaskUnblockTime                     0x240000c4   Data           4  tasks.o(.data)
    xIdleTaskHandle                          0x240000c8   Data           4  tasks.o(.data)
    uxSchedulerSuspended                     0x240000cc   Data           4  tasks.o(.data)
    .data                                    0x240000d0   Section       32  heap_4.o(.data)
    xStart                                   0x240000d0   Data           8  heap_4.o(.data)
    pxEnd                                    0x240000d8   Data           4  heap_4.o(.data)
    xFreeBytesRemaining                      0x240000dc   Data           4  heap_4.o(.data)
    xMinimumEverFreeBytesRemaining           0x240000e0   Data           4  heap_4.o(.data)
    xNumberOfSuccessfulAllocations           0x240000e4   Data           4  heap_4.o(.data)
    xNumberOfSuccessfulFrees                 0x240000e8   Data           4  heap_4.o(.data)
    xBlockAllocatedBit                       0x240000ec   Data           4  heap_4.o(.data)
    .data                                    0x240000f0   Section       12  port.o(.data)
    uxCriticalNesting                        0x240000f0   Data           4  port.o(.data)
    ucMaxSysCallPriority                     0x240000f4   Data           1  port.o(.data)
    ulMaxPRIGROUPValue                       0x240000f8   Data           4  port.o(.data)
    .data                                    0x240000fc   Section       28  ins_task.o(.data)
    .data                                    0x24000118   Section       53  chassisl_task.o(.data)
    .data                                    0x24000150   Section      245  chassisr_task.o(.data)
    .data                                    0x24000248   Section       96  observe_task.o(.data)
    wr                                       0x24000294   Data           4  observe_task.o(.data)
    wl                                       0x24000298   Data           4  observe_task.o(.data)
    vrb                                      0x2400029c   Data           4  observe_task.o(.data)
    vlb                                      0x240002a0   Data           4  observe_task.o(.data)
    aver_v                                   0x240002a4   Data           4  observe_task.o(.data)
    .data                                    0x240002a8   Section       41  ps2_task.o(.data)
    .data                                    0x240002d8   Section       64  bsp_dwt.o(.data)
    CPU_FREQ_Hz                              0x240002e0   Data           4  bsp_dwt.o(.data)
    CPU_FREQ_Hz_ms                           0x240002e4   Data           4  bsp_dwt.o(.data)
    CPU_FREQ_Hz_us                           0x240002e8   Data           4  bsp_dwt.o(.data)
    CYCCNT_RountCount                        0x240002ec   Data           4  bsp_dwt.o(.data)
    CYCCNT_LAST                              0x240002f0   Data           4  bsp_dwt.o(.data)
    CNT_TEMP1                                0x24000300   Data           8  bsp_dwt.o(.data)
    CNT_TEMP2                                0x24000308   Data           8  bsp_dwt.o(.data)
    CNT_TEMP3                                0x24000310   Data           8  bsp_dwt.o(.data)
    .data                                    0x24000318   Section        4  mvars.o(.data)
    .data                                    0x2400031c   Section        4  mvars.o(.data)
    .data                                    0x24000320   Section        4  errno.o(.data)
    _errno                                   0x24000320   Data           4  errno.o(.data)
    .bss                                     0x24000324   Section      480  fdcan.o(.bss)
    .bss                                     0x24000504   Section      376  spi.o(.bss)
    .bss                                     0x2400067c   Section       76  tim.o(.bss)
    .bss                                     0x240006c8   Section       76  stm32h7xx_hal_timebase_tim.o(.bss)
    .bss                                     0x24000714   Section       76  bmi088driver.o(.bss)
    .bss                                     0x24000760   Section      240  tasks.o(.bss)
    pxReadyTasksLists                        0x24000760   Data         140  tasks.o(.bss)
    xDelayedTaskList1                        0x240007ec   Data          20  tasks.o(.bss)
    xDelayedTaskList2                        0x24000800   Data          20  tasks.o(.bss)
    xPendingReadyList                        0x24000814   Data          20  tasks.o(.bss)
    xTasksWaitingTermination                 0x24000828   Data          20  tasks.o(.bss)
    xSuspendedTaskList                       0x2400083c   Data          20  tasks.o(.bss)
    .bss                                     0x24000850   Section    30720  heap_4.o(.bss)
    ucHeap                                   0x24000850   Data       30720  heap_4.o(.bss)
    .bss                                     0x24008050   Section      304  ins_task.o(.bss)
    .bss                                     0x24008180   Section      244  chassisl_task.o(.bss)
    .bss                                     0x24008274   Section      804  chassisr_task.o(.bss)
    .bss                                     0x24008598   Section      336  observe_task.o(.bss)
    .bss                                     0x240086e8   Section       21  ps2_task.o(.bss)
    .bss                                     0x24008700   Section      208  can_bsp.o(.bss)
    HEAP                                     0x240087d0   Section      512  startup_stm32h723xx.o(HEAP)
    STACK                                    0x240089d0   Section     2048  startup_stm32h723xx.o(STACK)

    Global Symbols

    Symbol Name                              Value     Ov Type        Size  Object(Section)

    BuildAttributes$$THM_ISAv4$E$P$D$K$B$S$7EM$VFPv5_D16$PE$PLD8$A:L22UL41UL21$X:L11$S22US41US21$IEEE1$IW$USESV6$~STKCKD$USESV7$~SHL$OTIME$ROPI$IEEEX$EBA8$MICROLIB$REQ8$PRES8$EABIv2 0x00000000   Number         0  anon$$obj.o ABSOLUTE
    __ARM_use_no_argv                        0x00000000   Number         0  main.o ABSOLUTE
    __arm_fini_                               - Undefined Weak Reference
    __cpp_initialize__aeabi_                  - Undefined Weak Reference
    __cxa_finalize                            - Undefined Weak Reference
    _clock_init                               - Undefined Weak Reference
    _microlib_exit                            - Undefined Weak Reference
    __Vectors_Size                           0x000002cc   Number         0  startup_stm32h723xx.o ABSOLUTE
    __Vectors                                0x08000000   Data           4  startup_stm32h723xx.o(RESET)
    __Vectors_End                            0x080002cc   Data           0  startup_stm32h723xx.o(RESET)
    __main                                   0x080002cd   Thumb Code     0  entry.o(.ARM.Collect$$$$00000000)
    _main_stk                                0x080002cd   Thumb Code     0  entry2.o(.ARM.Collect$$$$00000001)
    _main_scatterload                        0x080002d1   Thumb Code     0  entry5.o(.ARM.Collect$$$$00000004)
    __main_after_scatterload                 0x080002d5   Thumb Code     0  entry5.o(.ARM.Collect$$$$00000004)
    _main_clock                              0x080002d5   Thumb Code     0  entry7b.o(.ARM.Collect$$$$00000008)
    _main_cpp_init                           0x080002d5   Thumb Code     0  entry8b.o(.ARM.Collect$$$$0000000A)
    _main_init                               0x080002d5   Thumb Code     0  entry9a.o(.ARM.Collect$$$$0000000B)
    __rt_lib_shutdown_fini                   0x080002dd   Thumb Code     0  entry12b.o(.ARM.Collect$$$$0000000E)
    __rt_final_cpp                           0x080002e1   Thumb Code     0  entry10a.o(.ARM.Collect$$$$0000000F)
    __rt_final_exit                          0x080002e1   Thumb Code     0  entry11a.o(.ARM.Collect$$$$00000011)
    SVC_Handler                              0x080002e5   Thumb Code    28  port.o(.emb_text)
    __asm___6_port_c_39a90d8d__prvStartFirstTask 0x08000305   Thumb Code    36  port.o(.emb_text)
    __asm___6_port_c_39a90d8d__prvEnableVFP  0x0800032d   Thumb Code    16  port.o(.emb_text)
    PendSV_Handler                           0x08000341   Thumb Code    88  port.o(.emb_text)
    vPortGetIPSR                             0x0800039d   Thumb Code     6  port.o(.emb_text)
    Reset_Handler                            0x080003a5   Thumb Code     8  startup_stm32h723xx.o(.text)
    ADC3_IRQHandler                          0x080003bf   Thumb Code     0  startup_stm32h723xx.o(.text)
    ADC_IRQHandler                           0x080003bf   Thumb Code     0  startup_stm32h723xx.o(.text)
    BDMA_Channel0_IRQHandler                 0x080003bf   Thumb Code     0  startup_stm32h723xx.o(.text)
    BDMA_Channel1_IRQHandler                 0x080003bf   Thumb Code     0  startup_stm32h723xx.o(.text)
    BDMA_Channel2_IRQHandler                 0x080003bf   Thumb Code     0  startup_stm32h723xx.o(.text)
    BDMA_Channel3_IRQHandler                 0x080003bf   Thumb Code     0  startup_stm32h723xx.o(.text)
    BDMA_Channel4_IRQHandler                 0x080003bf   Thumb Code     0  startup_stm32h723xx.o(.text)
    BDMA_Channel5_IRQHandler                 0x080003bf   Thumb Code     0  startup_stm32h723xx.o(.text)
    BDMA_Channel6_IRQHandler                 0x080003bf   Thumb Code     0  startup_stm32h723xx.o(.text)
    BDMA_Channel7_IRQHandler                 0x080003bf   Thumb Code     0  startup_stm32h723xx.o(.text)
    CEC_IRQHandler                           0x080003bf   Thumb Code     0  startup_stm32h723xx.o(.text)
    COMP1_IRQHandler                         0x080003bf   Thumb Code     0  startup_stm32h723xx.o(.text)
    CORDIC_IRQHandler                        0x080003bf   Thumb Code     0  startup_stm32h723xx.o(.text)
    CRS_IRQHandler                           0x080003bf   Thumb Code     0  startup_stm32h723xx.o(.text)
    DCMI_PSSI_IRQHandler                     0x080003bf   Thumb Code     0  startup_stm32h723xx.o(.text)
    DFSDM1_FLT0_IRQHandler                   0x080003bf   Thumb Code     0  startup_stm32h723xx.o(.text)
    DFSDM1_FLT1_IRQHandler                   0x080003bf   Thumb Code     0  startup_stm32h723xx.o(.text)
    DFSDM1_FLT2_IRQHandler                   0x080003bf   Thumb Code     0  startup_stm32h723xx.o(.text)
    DFSDM1_FLT3_IRQHandler                   0x080003bf   Thumb Code     0  startup_stm32h723xx.o(.text)
    DMA1_Stream2_IRQHandler                  0x080003bf   Thumb Code     0  startup_stm32h723xx.o(.text)
    DMA1_Stream3_IRQHandler                  0x080003bf   Thumb Code     0  startup_stm32h723xx.o(.text)
    DMA1_Stream4_IRQHandler                  0x080003bf   Thumb Code     0  startup_stm32h723xx.o(.text)
    DMA1_Stream5_IRQHandler                  0x080003bf   Thumb Code     0  startup_stm32h723xx.o(.text)
    DMA1_Stream6_IRQHandler                  0x080003bf   Thumb Code     0  startup_stm32h723xx.o(.text)
    DMA1_Stream7_IRQHandler                  0x080003bf   Thumb Code     0  startup_stm32h723xx.o(.text)
    DMA2D_IRQHandler                         0x080003bf   Thumb Code     0  startup_stm32h723xx.o(.text)
    DMA2_Stream0_IRQHandler                  0x080003bf   Thumb Code     0  startup_stm32h723xx.o(.text)
    DMA2_Stream1_IRQHandler                  0x080003bf   Thumb Code     0  startup_stm32h723xx.o(.text)
    DMA2_Stream2_IRQHandler                  0x080003bf   Thumb Code     0  startup_stm32h723xx.o(.text)
    DMA2_Stream3_IRQHandler                  0x080003bf   Thumb Code     0  startup_stm32h723xx.o(.text)
    DMA2_Stream4_IRQHandler                  0x080003bf   Thumb Code     0  startup_stm32h723xx.o(.text)
    DMA2_Stream5_IRQHandler                  0x080003bf   Thumb Code     0  startup_stm32h723xx.o(.text)
    DMA2_Stream6_IRQHandler                  0x080003bf   Thumb Code     0  startup_stm32h723xx.o(.text)
    DMA2_Stream7_IRQHandler                  0x080003bf   Thumb Code     0  startup_stm32h723xx.o(.text)
    DMAMUX1_OVR_IRQHandler                   0x080003bf   Thumb Code     0  startup_stm32h723xx.o(.text)
    DMAMUX2_OVR_IRQHandler                   0x080003bf   Thumb Code     0  startup_stm32h723xx.o(.text)
    DTS_IRQHandler                           0x080003bf   Thumb Code     0  startup_stm32h723xx.o(.text)
    ECC_IRQHandler                           0x080003bf   Thumb Code     0  startup_stm32h723xx.o(.text)
    ETH_IRQHandler                           0x080003bf   Thumb Code     0  startup_stm32h723xx.o(.text)
    ETH_WKUP_IRQHandler                      0x080003bf   Thumb Code     0  startup_stm32h723xx.o(.text)
    EXTI0_IRQHandler                         0x080003bf   Thumb Code     0  startup_stm32h723xx.o(.text)
    EXTI15_10_IRQHandler                     0x080003bf   Thumb Code     0  startup_stm32h723xx.o(.text)
    EXTI1_IRQHandler                         0x080003bf   Thumb Code     0  startup_stm32h723xx.o(.text)
    EXTI2_IRQHandler                         0x080003bf   Thumb Code     0  startup_stm32h723xx.o(.text)
    EXTI3_IRQHandler                         0x080003bf   Thumb Code     0  startup_stm32h723xx.o(.text)
    EXTI4_IRQHandler                         0x080003bf   Thumb Code     0  startup_stm32h723xx.o(.text)
    EXTI9_5_IRQHandler                       0x080003bf   Thumb Code     0  startup_stm32h723xx.o(.text)
    FDCAN1_IT1_IRQHandler                    0x080003bf   Thumb Code     0  startup_stm32h723xx.o(.text)
    FDCAN2_IT1_IRQHandler                    0x080003bf   Thumb Code     0  startup_stm32h723xx.o(.text)
    FDCAN3_IT1_IRQHandler                    0x080003bf   Thumb Code     0  startup_stm32h723xx.o(.text)
    FDCAN_CAL_IRQHandler                     0x080003bf   Thumb Code     0  startup_stm32h723xx.o(.text)
    FLASH_IRQHandler                         0x080003bf   Thumb Code     0  startup_stm32h723xx.o(.text)
    FMAC_IRQHandler                          0x080003bf   Thumb Code     0  startup_stm32h723xx.o(.text)
    FMC_IRQHandler                           0x080003bf   Thumb Code     0  startup_stm32h723xx.o(.text)
    FPU_IRQHandler                           0x080003bf   Thumb Code     0  startup_stm32h723xx.o(.text)
    HSEM1_IRQHandler                         0x080003bf   Thumb Code     0  startup_stm32h723xx.o(.text)
    I2C1_ER_IRQHandler                       0x080003bf   Thumb Code     0  startup_stm32h723xx.o(.text)
    I2C1_EV_IRQHandler                       0x080003bf   Thumb Code     0  startup_stm32h723xx.o(.text)
    I2C2_ER_IRQHandler                       0x080003bf   Thumb Code     0  startup_stm32h723xx.o(.text)
    I2C2_EV_IRQHandler                       0x080003bf   Thumb Code     0  startup_stm32h723xx.o(.text)
    I2C3_ER_IRQHandler                       0x080003bf   Thumb Code     0  startup_stm32h723xx.o(.text)
    I2C3_EV_IRQHandler                       0x080003bf   Thumb Code     0  startup_stm32h723xx.o(.text)
    I2C4_ER_IRQHandler                       0x080003bf   Thumb Code     0  startup_stm32h723xx.o(.text)
    I2C4_EV_IRQHandler                       0x080003bf   Thumb Code     0  startup_stm32h723xx.o(.text)
    I2C5_ER_IRQHandler                       0x080003bf   Thumb Code     0  startup_stm32h723xx.o(.text)
    I2C5_EV_IRQHandler                       0x080003bf   Thumb Code     0  startup_stm32h723xx.o(.text)
    LPTIM1_IRQHandler                        0x080003bf   Thumb Code     0  startup_stm32h723xx.o(.text)
    LPTIM2_IRQHandler                        0x080003bf   Thumb Code     0  startup_stm32h723xx.o(.text)
    LPTIM3_IRQHandler                        0x080003bf   Thumb Code     0  startup_stm32h723xx.o(.text)
    LPTIM4_IRQHandler                        0x080003bf   Thumb Code     0  startup_stm32h723xx.o(.text)
    LPTIM5_IRQHandler                        0x080003bf   Thumb Code     0  startup_stm32h723xx.o(.text)
    LPUART1_IRQHandler                       0x080003bf   Thumb Code     0  startup_stm32h723xx.o(.text)
    LTDC_ER_IRQHandler                       0x080003bf   Thumb Code     0  startup_stm32h723xx.o(.text)
    LTDC_IRQHandler                          0x080003bf   Thumb Code     0  startup_stm32h723xx.o(.text)
    MDIOS_IRQHandler                         0x080003bf   Thumb Code     0  startup_stm32h723xx.o(.text)
    MDIOS_WKUP_IRQHandler                    0x080003bf   Thumb Code     0  startup_stm32h723xx.o(.text)
    MDMA_IRQHandler                          0x080003bf   Thumb Code     0  startup_stm32h723xx.o(.text)
    OCTOSPI1_IRQHandler                      0x080003bf   Thumb Code     0  startup_stm32h723xx.o(.text)
    OCTOSPI2_IRQHandler                      0x080003bf   Thumb Code     0  startup_stm32h723xx.o(.text)
    OTG_HS_EP1_IN_IRQHandler                 0x080003bf   Thumb Code     0  startup_stm32h723xx.o(.text)
    OTG_HS_EP1_OUT_IRQHandler                0x080003bf   Thumb Code     0  startup_stm32h723xx.o(.text)
    OTG_HS_IRQHandler                        0x080003bf   Thumb Code     0  startup_stm32h723xx.o(.text)
    OTG_HS_WKUP_IRQHandler                   0x080003bf   Thumb Code     0  startup_stm32h723xx.o(.text)
    PVD_AVD_IRQHandler                       0x080003bf   Thumb Code     0  startup_stm32h723xx.o(.text)
    RCC_IRQHandler                           0x080003bf   Thumb Code     0  startup_stm32h723xx.o(.text)
    RNG_IRQHandler                           0x080003bf   Thumb Code     0  startup_stm32h723xx.o(.text)
    RTC_Alarm_IRQHandler                     0x080003bf   Thumb Code     0  startup_stm32h723xx.o(.text)
    RTC_WKUP_IRQHandler                      0x080003bf   Thumb Code     0  startup_stm32h723xx.o(.text)
    SAI1_IRQHandler                          0x080003bf   Thumb Code     0  startup_stm32h723xx.o(.text)
    SAI4_IRQHandler                          0x080003bf   Thumb Code     0  startup_stm32h723xx.o(.text)
    SDMMC1_IRQHandler                        0x080003bf   Thumb Code     0  startup_stm32h723xx.o(.text)
    SDMMC2_IRQHandler                        0x080003bf   Thumb Code     0  startup_stm32h723xx.o(.text)
    SPDIF_RX_IRQHandler                      0x080003bf   Thumb Code     0  startup_stm32h723xx.o(.text)
    SPI1_IRQHandler                          0x080003bf   Thumb Code     0  startup_stm32h723xx.o(.text)
    SPI3_IRQHandler                          0x080003bf   Thumb Code     0  startup_stm32h723xx.o(.text)
    SPI4_IRQHandler                          0x080003bf   Thumb Code     0  startup_stm32h723xx.o(.text)
    SPI5_IRQHandler                          0x080003bf   Thumb Code     0  startup_stm32h723xx.o(.text)
    SPI6_IRQHandler                          0x080003bf   Thumb Code     0  startup_stm32h723xx.o(.text)
    SWPMI1_IRQHandler                        0x080003bf   Thumb Code     0  startup_stm32h723xx.o(.text)
    TAMP_STAMP_IRQHandler                    0x080003bf   Thumb Code     0  startup_stm32h723xx.o(.text)
    TIM15_IRQHandler                         0x080003bf   Thumb Code     0  startup_stm32h723xx.o(.text)
    TIM16_IRQHandler                         0x080003bf   Thumb Code     0  startup_stm32h723xx.o(.text)
    TIM17_IRQHandler                         0x080003bf   Thumb Code     0  startup_stm32h723xx.o(.text)
    TIM1_BRK_IRQHandler                      0x080003bf   Thumb Code     0  startup_stm32h723xx.o(.text)
    TIM1_CC_IRQHandler                       0x080003bf   Thumb Code     0  startup_stm32h723xx.o(.text)
    TIM1_TRG_COM_IRQHandler                  0x080003bf   Thumb Code     0  startup_stm32h723xx.o(.text)
    TIM1_UP_IRQHandler                       0x080003bf   Thumb Code     0  startup_stm32h723xx.o(.text)
    TIM23_IRQHandler                         0x080003bf   Thumb Code     0  startup_stm32h723xx.o(.text)
    TIM24_IRQHandler                         0x080003bf   Thumb Code     0  startup_stm32h723xx.o(.text)
    TIM3_IRQHandler                          0x080003bf   Thumb Code     0  startup_stm32h723xx.o(.text)
    TIM4_IRQHandler                          0x080003bf   Thumb Code     0  startup_stm32h723xx.o(.text)
    TIM5_IRQHandler                          0x080003bf   Thumb Code     0  startup_stm32h723xx.o(.text)
    TIM6_DAC_IRQHandler                      0x080003bf   Thumb Code     0  startup_stm32h723xx.o(.text)
    TIM7_IRQHandler                          0x080003bf   Thumb Code     0  startup_stm32h723xx.o(.text)
    TIM8_BRK_TIM12_IRQHandler                0x080003bf   Thumb Code     0  startup_stm32h723xx.o(.text)
    TIM8_CC_IRQHandler                       0x080003bf   Thumb Code     0  startup_stm32h723xx.o(.text)
    TIM8_TRG_COM_TIM14_IRQHandler            0x080003bf   Thumb Code     0  startup_stm32h723xx.o(.text)
    TIM8_UP_TIM13_IRQHandler                 0x080003bf   Thumb Code     0  startup_stm32h723xx.o(.text)
    UART4_IRQHandler                         0x080003bf   Thumb Code     0  startup_stm32h723xx.o(.text)
    UART5_IRQHandler                         0x080003bf   Thumb Code     0  startup_stm32h723xx.o(.text)
    UART7_IRQHandler                         0x080003bf   Thumb Code     0  startup_stm32h723xx.o(.text)
    UART8_IRQHandler                         0x080003bf   Thumb Code     0  startup_stm32h723xx.o(.text)
    UART9_IRQHandler                         0x080003bf   Thumb Code     0  startup_stm32h723xx.o(.text)
    USART10_IRQHandler                       0x080003bf   Thumb Code     0  startup_stm32h723xx.o(.text)
    USART1_IRQHandler                        0x080003bf   Thumb Code     0  startup_stm32h723xx.o(.text)
    USART2_IRQHandler                        0x080003bf   Thumb Code     0  startup_stm32h723xx.o(.text)
    USART3_IRQHandler                        0x080003bf   Thumb Code     0  startup_stm32h723xx.o(.text)
    USART6_IRQHandler                        0x080003bf   Thumb Code     0  startup_stm32h723xx.o(.text)
    WAKEUP_PIN_IRQHandler                    0x080003bf   Thumb Code     0  startup_stm32h723xx.o(.text)
    WWDG_IRQHandler                          0x080003bf   Thumb Code     0  startup_stm32h723xx.o(.text)
    __aeabi_uldivmod                         0x080003c9   Thumb Code    98  uldiv.o(.text)
    __aeabi_memcpy                           0x0800042b   Thumb Code    36  memcpya.o(.text)
    __aeabi_memcpy4                          0x0800042b   Thumb Code     0  memcpya.o(.text)
    __aeabi_memcpy8                          0x0800042b   Thumb Code     0  memcpya.o(.text)
    __aeabi_memset                           0x0800044f   Thumb Code    14  memseta.o(.text)
    __aeabi_memset4                          0x0800044f   Thumb Code     0  memseta.o(.text)
    __aeabi_memset8                          0x0800044f   Thumb Code     0  memseta.o(.text)
    __aeabi_memclr                           0x0800045d   Thumb Code     4  memseta.o(.text)
    __aeabi_memclr4                          0x0800045d   Thumb Code     0  memseta.o(.text)
    __aeabi_memclr8                          0x0800045d   Thumb Code     0  memseta.o(.text)
    memset                                   0x08000461   Thumb Code    18  memseta.o(.text)
    __aeabi_llsl                             0x08000473   Thumb Code    30  llshl.o(.text)
    _ll_shift_l                              0x08000473   Thumb Code     0  llshl.o(.text)
    __aeabi_llsr                             0x08000491   Thumb Code    32  llushr.o(.text)
    _ll_ushift_r                             0x08000491   Thumb Code     0  llushr.o(.text)
    __I$use$fp                               0x080004b1   Thumb Code     0  iusefp.o(.text)
    __scatterload                            0x080004b1   Thumb Code    28  init.o(.text)
    __scatterload_rt2                        0x080004b1   Thumb Code     0  init.o(.text)
    __decompress                             0x080004d5   Thumb Code     0  __dczerorl2.o(.text)
    __decompress1                            0x080004d5   Thumb Code    86  __dczerorl2.o(.text)
    arm_cos_f32                              0x0800052d   Thumb Code   144  arm_cos_f32.o(.text.arm_cos_f32)
    arm_mat_add_f32                          0x080005bd   Thumb Code   190  arm_mat_add_f32.o(.text.arm_mat_add_f32)
    arm_mat_init_f32                         0x0800067b   Thumb Code     8  arm_mat_init_f32.o(.text.arm_mat_init_f32)
    arm_mat_inverse_f32                      0x08000685   Thumb Code   716  arm_mat_inverse_f32.o(.text.arm_mat_inverse_f32)
    arm_mat_mult_f32                         0x08000951   Thumb Code   304  arm_mat_mult_f32.o(.text.arm_mat_mult_f32)
    arm_mat_sub_f32                          0x08000a81   Thumb Code   190  arm_mat_sub_f32.o(.text.arm_mat_sub_f32)
    arm_mat_trans_f32                        0x08000b41   Thumb Code   180  arm_mat_trans_f32.o(.text.arm_mat_trans_f32)
    arm_sin_f32                              0x08000bf5   Thumb Code   140  arm_sin_f32.o(.text.arm_sin_f32)
    BMI088_ACCEL_NS_H                        0x08000c81   Thumb Code    14  bmi088middleware.o(i.BMI088_ACCEL_NS_H)
    BMI088_ACCEL_NS_L                        0x08000c95   Thumb Code    14  bmi088middleware.o(i.BMI088_ACCEL_NS_L)
    BMI088_GYRO_NS_H                         0x08000ca9   Thumb Code    14  bmi088middleware.o(i.BMI088_GYRO_NS_H)
    BMI088_GYRO_NS_L                         0x08000cbd   Thumb Code    14  bmi088middleware.o(i.BMI088_GYRO_NS_L)
    BMI088_Read                              0x08000cd1   Thumb Code   794  bmi088driver.o(i.BMI088_Read)
    BMI088_init                              0x08001001   Thumb Code   142  bmi088driver.o(i.BMI088_init)
    BMI088_read_write_byte                   0x08001101   Thumb Code    30  bmi088middleware.o(i.BMI088_read_write_byte)
    BodyFrameToEarthFrame                    0x08001139   Thumb Code   346  ins_task.o(i.BodyFrameToEarthFrame)
    BusFault_Handler                         0x08001293   Thumb Code     4  stm32h7xx_it.o(i.BusFault_Handler)
    ChassisL_Task                            0x0800190d   Thumb Code     8  freertos.o(i.ChassisL_Task)
    ChassisL_init                            0x08001915   Thumb Code   166  chassisl_task.o(i.ChassisL_init)
    ChassisL_task                            0x080019cd   Thumb Code   336  chassisl_task.o(i.ChassisL_task)
    ChassisR_Task                            0x08001b3d   Thumb Code     8  freertos.o(i.ChassisR_Task)
    ChassisR_init                            0x08001b45   Thumb Code   154  chassisr_task.o(i.ChassisR_init)
    ChassisR_task                            0x08001bf1   Thumb Code   336  chassisr_task.o(i.ChassisR_task)
    DMA1_Stream0_IRQHandler                  0x08001d69   Thumb Code    10  stm32h7xx_it.o(i.DMA1_Stream0_IRQHandler)
    DMA1_Stream1_IRQHandler                  0x08001d79   Thumb Code    10  stm32h7xx_it.o(i.DMA1_Stream1_IRQHandler)
    DWT_Delay                                0x080020b1   Thumb Code    50  bsp_dwt.o(i.DWT_Delay)
    DWT_GetDeltaT                            0x080020ed   Thumb Code    68  bsp_dwt.o(i.DWT_GetDeltaT)
    DWT_GetTimeline_s                        0x08002139   Thumb Code    72  bsp_dwt.o(i.DWT_GetTimeline_s)
    DWT_Init                                 0x0800218d   Thumb Code    74  bsp_dwt.o(i.DWT_Init)
    DWT_SysTimeUpdate                        0x080021f5   Thumb Code   168  bsp_dwt.o(i.DWT_SysTimeUpdate)
    DebugMon_Handler                         0x080022c5   Thumb Code     2  stm32h7xx_it.o(i.DebugMon_Handler)
    EarthFrameToBodyFrame                    0x080022c7   Thumb Code   346  ins_task.o(i.EarthFrameToBodyFrame)
    Error_Handler                            0x08002421   Thumb Code     6  main.o(i.Error_Handler)
    FDCAN1_Config                            0x08002429   Thumb Code    92  can_bsp.o(i.FDCAN1_Config)
    FDCAN1_IT0_IRQHandler                    0x08002489   Thumb Code    10  stm32h7xx_it.o(i.FDCAN1_IT0_IRQHandler)
    FDCAN2_Config                            0x08002499   Thumb Code    92  can_bsp.o(i.FDCAN2_Config)
    FDCAN2_IT0_IRQHandler                    0x080024f9   Thumb Code    10  stm32h7xx_it.o(i.FDCAN2_IT0_IRQHandler)
    FDCAN3_IT0_IRQHandler                    0x08002509   Thumb Code    10  stm32h7xx_it.o(i.FDCAN3_IT0_IRQHandler)
    HAL_DMA_Abort_IT                         0x0800280d   Thumb Code   906  stm32h7xx_hal_dma.o(i.HAL_DMA_Abort_IT)
    HAL_DMA_IRQHandler                       0x08002ba5   Thumb Code  2798  stm32h7xx_hal_dma.o(i.HAL_DMA_IRQHandler)
    HAL_DMA_Init                             0x0800369d   Thumb Code  1292  stm32h7xx_hal_dma.o(i.HAL_DMA_Init)
    HAL_Delay                                0x08003bb1   Thumb Code    36  stm32h7xx_hal.o(i.HAL_Delay)
    HAL_FDCAN_ActivateNotification           0x08003bd9   Thumb Code   158  stm32h7xx_hal_fdcan.o(i.HAL_FDCAN_ActivateNotification)
    HAL_FDCAN_AddMessageToTxFifoQ            0x08003c81   Thumb Code   144  stm32h7xx_hal_fdcan.o(i.HAL_FDCAN_AddMessageToTxFifoQ)
    HAL_FDCAN_ClockCalibrationCallback       0x08003d11   Thumb Code     2  stm32h7xx_hal_fdcan.o(i.HAL_FDCAN_ClockCalibrationCallback)
    HAL_FDCAN_ConfigFilter                   0x08003d13   Thumb Code   168  stm32h7xx_hal_fdcan.o(i.HAL_FDCAN_ConfigFilter)
    HAL_FDCAN_ConfigGlobalFilter             0x08003dbb   Thumb Code    52  stm32h7xx_hal_fdcan.o(i.HAL_FDCAN_ConfigGlobalFilter)
    HAL_FDCAN_ErrorCallback                  0x08003def   Thumb Code     2  stm32h7xx_hal_fdcan.o(i.HAL_FDCAN_ErrorCallback)
    HAL_FDCAN_ErrorStatusCallback            0x08003df1   Thumb Code     2  stm32h7xx_hal_fdcan.o(i.HAL_FDCAN_ErrorStatusCallback)
    HAL_FDCAN_GetRxMessage                   0x08003df5   Thumb Code   496  stm32h7xx_hal_fdcan.o(i.HAL_FDCAN_GetRxMessage)
    HAL_FDCAN_HighPriorityMessageCallback    0x08003fe9   Thumb Code     2  stm32h7xx_hal_fdcan.o(i.HAL_FDCAN_HighPriorityMessageCallback)
    HAL_FDCAN_IRQHandler                     0x08003fed   Thumb Code   966  stm32h7xx_hal_fdcan.o(i.HAL_FDCAN_IRQHandler)
    HAL_FDCAN_Init                           0x080043c1   Thumb Code   726  stm32h7xx_hal_fdcan.o(i.HAL_FDCAN_Init)
    HAL_FDCAN_MspInit                        0x080046a1   Thumb Code   408  fdcan.o(i.HAL_FDCAN_MspInit)
    HAL_FDCAN_RxBufferNewMessageCallback     0x08004855   Thumb Code     2  stm32h7xx_hal_fdcan.o(i.HAL_FDCAN_RxBufferNewMessageCallback)
    HAL_FDCAN_RxFifo0Callback                0x08004859   Thumb Code   108  can_bsp.o(i.HAL_FDCAN_RxFifo0Callback)
    HAL_FDCAN_RxFifo1Callback                0x080048d5   Thumb Code   108  can_bsp.o(i.HAL_FDCAN_RxFifo1Callback)
    HAL_FDCAN_Start                          0x08004951   Thumb Code    52  stm32h7xx_hal_fdcan.o(i.HAL_FDCAN_Start)
    HAL_FDCAN_TT_GlobalTimeCallback          0x08004985   Thumb Code     2  stm32h7xx_hal_fdcan.o(i.HAL_FDCAN_TT_GlobalTimeCallback)
    HAL_FDCAN_TT_ScheduleSyncCallback        0x08004987   Thumb Code     2  stm32h7xx_hal_fdcan.o(i.HAL_FDCAN_TT_ScheduleSyncCallback)
    HAL_FDCAN_TT_StopWatchCallback           0x08004989   Thumb Code     2  stm32h7xx_hal_fdcan.o(i.HAL_FDCAN_TT_StopWatchCallback)
    HAL_FDCAN_TT_TimeMarkCallback            0x0800498b   Thumb Code     2  stm32h7xx_hal_fdcan.o(i.HAL_FDCAN_TT_TimeMarkCallback)
    HAL_FDCAN_TimeoutOccurredCallback        0x0800498d   Thumb Code     2  stm32h7xx_hal_fdcan.o(i.HAL_FDCAN_TimeoutOccurredCallback)
    HAL_FDCAN_TimestampWraparoundCallback    0x0800498f   Thumb Code     2  stm32h7xx_hal_fdcan.o(i.HAL_FDCAN_TimestampWraparoundCallback)
    HAL_FDCAN_TxBufferAbortCallback          0x08004991   Thumb Code     2  stm32h7xx_hal_fdcan.o(i.HAL_FDCAN_TxBufferAbortCallback)
    HAL_FDCAN_TxBufferCompleteCallback       0x08004993   Thumb Code     2  stm32h7xx_hal_fdcan.o(i.HAL_FDCAN_TxBufferCompleteCallback)
    HAL_FDCAN_TxEventFifoCallback            0x08004995   Thumb Code     2  stm32h7xx_hal_fdcan.o(i.HAL_FDCAN_TxEventFifoCallback)
    HAL_FDCAN_TxFifoEmptyCallback            0x08004997   Thumb Code     2  stm32h7xx_hal_fdcan.o(i.HAL_FDCAN_TxFifoEmptyCallback)
    HAL_GPIO_Init                            0x08004999   Thumb Code   446  stm32h7xx_hal_gpio.o(i.HAL_GPIO_Init)
    HAL_GPIO_ReadPin                         0x08004b89   Thumb Code    16  stm32h7xx_hal_gpio.o(i.HAL_GPIO_ReadPin)
    HAL_GPIO_WritePin                        0x08004b99   Thumb Code    12  stm32h7xx_hal_gpio.o(i.HAL_GPIO_WritePin)
    HAL_GetTick                              0x08004ba5   Thumb Code     6  stm32h7xx_hal.o(i.HAL_GetTick)
    HAL_IncTick                              0x08004bb1   Thumb Code    16  stm32h7xx_hal.o(i.HAL_IncTick)
    HAL_Init                                 0x08004bc9   Thumb Code    80  stm32h7xx_hal.o(i.HAL_Init)
    HAL_InitTick                             0x08004c29   Thumb Code   142  stm32h7xx_hal_timebase_tim.o(i.HAL_InitTick)
    HAL_MspInit                              0x08004cc9   Thumb Code    42  stm32h7xx_hal_msp.o(i.HAL_MspInit)
    HAL_NVIC_EnableIRQ                       0x08004cf9   Thumb Code    40  stm32h7xx_hal_cortex.o(i.HAL_NVIC_EnableIRQ)
    HAL_NVIC_SetPriority                     0x08004d21   Thumb Code   122  stm32h7xx_hal_cortex.o(i.HAL_NVIC_SetPriority)
    HAL_NVIC_SetPriorityGrouping             0x08004d9d   Thumb Code    32  stm32h7xx_hal_cortex.o(i.HAL_NVIC_SetPriorityGrouping)
    HAL_PWREx_ConfigSupply                   0x08004dc5   Thumb Code    90  stm32h7xx_hal_pwr_ex.o(i.HAL_PWREx_ConfigSupply)
    HAL_RCCEx_PeriphCLKConfig                0x08004e25   Thumb Code  3272  stm32h7xx_hal_rcc_ex.o(i.HAL_RCCEx_PeriphCLKConfig)
    HAL_RCC_ClockConfig                      0x08005aed   Thumb Code   774  stm32h7xx_hal_rcc.o(i.HAL_RCC_ClockConfig)
    HAL_RCC_GetClockConfig                   0x08005e0d   Thumb Code    98  stm32h7xx_hal_rcc.o(i.HAL_RCC_GetClockConfig)
    HAL_RCC_GetHCLKFreq                      0x08005e79   Thumb Code    60  stm32h7xx_hal_rcc.o(i.HAL_RCC_GetHCLKFreq)
    HAL_RCC_GetPCLK1Freq                     0x08005ec5   Thumb Code    26  stm32h7xx_hal_rcc.o(i.HAL_RCC_GetPCLK1Freq)
    HAL_RCC_GetSysClockFreq                  0x08005ee9   Thumb Code   524  stm32h7xx_hal_rcc.o(i.HAL_RCC_GetSysClockFreq)
    HAL_RCC_OscConfig                        0x08006115   Thumb Code  1874  stm32h7xx_hal_rcc.o(i.HAL_RCC_OscConfig)
    HAL_SPI_ErrorCallback                    0x08006871   Thumb Code     2  stm32h7xx_hal_spi.o(i.HAL_SPI_ErrorCallback)
    HAL_SPI_IRQHandler                       0x08006875   Thumb Code   654  stm32h7xx_hal_spi.o(i.HAL_SPI_IRQHandler)
    HAL_SPI_Init                             0x08006b09   Thumb Code   420  stm32h7xx_hal_spi.o(i.HAL_SPI_Init)
    HAL_SPI_MspInit                          0x08006cb9   Thumb Code   348  spi.o(i.HAL_SPI_MspInit)
    HAL_SPI_RxCpltCallback                   0x08006e31   Thumb Code     2  stm32h7xx_hal_spi.o(i.HAL_SPI_RxCpltCallback)
    HAL_SPI_SuspendCallback                  0x08006e33   Thumb Code     2  stm32h7xx_hal_spi.o(i.HAL_SPI_SuspendCallback)
    HAL_SPI_TransmitReceive                  0x08006e35   Thumb Code   770  stm32h7xx_hal_spi.o(i.HAL_SPI_TransmitReceive)
    HAL_SPI_TxCpltCallback                   0x08007137   Thumb Code     2  stm32h7xx_hal_spi.o(i.HAL_SPI_TxCpltCallback)
    HAL_SPI_TxRxCpltCallback                 0x08007139   Thumb Code     2  stm32h7xx_hal_spi.o(i.HAL_SPI_TxRxCpltCallback)
    HAL_TIMEx_Break2Callback                 0x0800713b   Thumb Code     2  stm32h7xx_hal_tim_ex.o(i.HAL_TIMEx_Break2Callback)
    HAL_TIMEx_BreakCallback                  0x0800713d   Thumb Code     2  stm32h7xx_hal_tim_ex.o(i.HAL_TIMEx_BreakCallback)
    HAL_TIMEx_CommutCallback                 0x0800713f   Thumb Code     2  stm32h7xx_hal_tim_ex.o(i.HAL_TIMEx_CommutCallback)
    HAL_TIMEx_MasterConfigSynchronization    0x08007141   Thumb Code   190  stm32h7xx_hal_tim_ex.o(i.HAL_TIMEx_MasterConfigSynchronization)
    HAL_TIM_Base_Init                        0x08007225   Thumb Code   110  stm32h7xx_hal_tim.o(i.HAL_TIM_Base_Init)
    HAL_TIM_Base_MspInit                     0x08007293   Thumb Code     2  stm32h7xx_hal_tim.o(i.HAL_TIM_Base_MspInit)
    HAL_TIM_Base_Start_IT                    0x08007295   Thumb Code   162  stm32h7xx_hal_tim.o(i.HAL_TIM_Base_Start_IT)
    HAL_TIM_IC_CaptureCallback               0x08007361   Thumb Code     2  stm32h7xx_hal_tim.o(i.HAL_TIM_IC_CaptureCallback)
    HAL_TIM_IRQHandler                       0x08007363   Thumb Code   440  stm32h7xx_hal_tim.o(i.HAL_TIM_IRQHandler)
    HAL_TIM_MspPostInit                      0x0800751d   Thumb Code    78  tim.o(i.HAL_TIM_MspPostInit)
    HAL_TIM_OC_DelayElapsedCallback          0x08007579   Thumb Code     2  stm32h7xx_hal_tim.o(i.HAL_TIM_OC_DelayElapsedCallback)
    HAL_TIM_PWM_ConfigChannel                0x0800757b   Thumb Code   368  stm32h7xx_hal_tim.o(i.HAL_TIM_PWM_ConfigChannel)
    HAL_TIM_PWM_Init                         0x080076eb   Thumb Code   110  stm32h7xx_hal_tim.o(i.HAL_TIM_PWM_Init)
    HAL_TIM_PWM_MspInit                      0x08007759   Thumb Code    40  tim.o(i.HAL_TIM_PWM_MspInit)
    HAL_TIM_PWM_PulseFinishedCallback        0x08007789   Thumb Code     2  stm32h7xx_hal_tim.o(i.HAL_TIM_PWM_PulseFinishedCallback)
    HAL_TIM_PeriodElapsedCallback            0x0800778b   Thumb Code    18  main.o(i.HAL_TIM_PeriodElapsedCallback)
    HAL_TIM_TriggerCallback                  0x0800779d   Thumb Code     2  stm32h7xx_hal_tim.o(i.HAL_TIM_TriggerCallback)
    HardFault_Handler                        0x080078d1   Thumb Code     4  stm32h7xx_it.o(i.HardFault_Handler)
    INS_Init                                 0x080078d5   Thumb Code    32  ins_task.o(i.INS_Init)
    INS_Task                                 0x08007909   Thumb Code     8  freertos.o(i.INS_Task)
    INS_task                                 0x08007911   Thumb Code   736  ins_task.o(i.INS_task)
    Kalman_Filter_Init                       0x08007c31   Thumb Code  1800  kalman_filter.o(i.Kalman_Filter_Init)
    Kalman_Filter_Measure                    0x0800833d   Thumb Code    74  kalman_filter.o(i.Kalman_Filter_Measure)
    Kalman_Filter_P_Update                   0x0800838d   Thumb Code   104  kalman_filter.o(i.Kalman_Filter_P_Update)
    Kalman_Filter_PminusUpdate               0x080083f5   Thumb Code   104  kalman_filter.o(i.Kalman_Filter_PminusUpdate)
    Kalman_Filter_SetK                       0x0800845d   Thumb Code   210  kalman_filter.o(i.Kalman_Filter_SetK)
    Kalman_Filter_Update                     0x08008531   Thumb Code   294  kalman_filter.o(i.Kalman_Filter_Update)
    Kalman_Filter_xhatMinusUpdate            0x0800865d   Thumb Code   124  kalman_filter.o(i.Kalman_Filter_xhatMinusUpdate)
    Kalman_Filter_xhatUpdate                 0x080086d9   Thumb Code   134  kalman_filter.o(i.Kalman_Filter_xhatUpdate)
    LQR_K_calc                               0x0800875f   Thumb Code    50  vmc_calc.o(i.LQR_K_calc)
    MX_DMA_Init                              0x08008791   Thumb Code    64  dma.o(i.MX_DMA_Init)
    MX_FDCAN1_Init                           0x080087d5   Thumb Code   120  fdcan.o(i.MX_FDCAN1_Init)
    MX_FDCAN2_Init                           0x08008855   Thumb Code   118  fdcan.o(i.MX_FDCAN2_Init)
    MX_FDCAN3_Init                           0x080088d5   Thumb Code   120  fdcan.o(i.MX_FDCAN3_Init)
    MX_FREERTOS_Init                         0x08008955   Thumb Code   150  freertos.o(i.MX_FREERTOS_Init)
    MX_GPIO_Init                             0x08008a09   Thumb Code   356  gpio.o(i.MX_GPIO_Init)
    MX_SPI2_Init                             0x08008b7d   Thumb Code    90  spi.o(i.MX_SPI2_Init)
    MX_TIM3_Init                             0x08008be1   Thumb Code   118  tim.o(i.MX_TIM3_Init)
    MemManage_Handler                        0x08008c61   Thumb Code     4  stm32h7xx_it.o(i.MemManage_Handler)
    NMI_Handler                              0x08008c65   Thumb Code     4  stm32h7xx_it.o(i.NMI_Handler)
    OBSERVE_Task                             0x08008c69   Thumb Code     8  freertos.o(i.OBSERVE_Task)
    Observe_task                             0x08008c71   Thumb Code   364  observe_task.o(i.Observe_task)
    PID_Calc                                 0x08008e15   Thumb Code   492  pid.o(i.PID_Calc)
    PID_init                                 0x08009005   Thumb Code    92  pid.o(i.PID_init)
    PS2_AnologData                           0x08009065   Thumb Code     8  ps2_task.o(i.PS2_AnologData)
    PS2_ClearData                            0x08009071   Thumb Code    20  ps2_task.o(i.PS2_ClearData)
    PS2_Cmd                                  0x08009089   Thumb Code   154  ps2_task.o(i.PS2_Cmd)
    PS2_DataKey                              0x08009139   Thumb Code    70  ps2_task.o(i.PS2_DataKey)
    PS2_EnterConfing                         0x0800918d   Thumb Code    96  ps2_task.o(i.PS2_EnterConfing)
    PS2_ExitConfing                          0x080091f5   Thumb Code    96  ps2_task.o(i.PS2_ExitConfing)
    PS2_ReadData                             0x0800925d   Thumb Code   188  ps2_task.o(i.PS2_ReadData)
    PS2_SetInit                              0x08009331   Thumb Code    28  ps2_task.o(i.PS2_SetInit)
    PS2_ShortPoll                            0x0800934d   Thumb Code    72  ps2_task.o(i.PS2_ShortPoll)
    PS2_Task                                 0x0800939d   Thumb Code     8  freertos.o(i.PS2_Task)
    PS2_TurnOnAnalogMode                     0x080093a5   Thumb Code    88  ps2_task.o(i.PS2_TurnOnAnalogMode)
    PS2_data_process                         0x08009405   Thumb Code   382  ps2_task.o(i.PS2_data_process)
    PS2_data_read                            0x080095bd   Thumb Code   116  ps2_task.o(i.PS2_data_read)
    Pensation_init                           0x08009631   Thumb Code    44  chassisr_task.o(i.Pensation_init)
    PeriphCommonClock_Config                 0x08009669   Thumb Code    72  main.o(i.PeriphCommonClock_Config)
    RotationMatrix_update                    0x08009979   Thumb Code   302  mahony_filter.o(i.RotationMatrix_update)
    SPI2_IRQHandler                          0x08009aa9   Thumb Code    10  stm32h7xx_it.o(i.SPI2_IRQHandler)
    StartDefaultTask                         0x08009c07   Thumb Code    10  freertos.o(i.StartDefaultTask)
    SysTick_Handler                          0x08009c11   Thumb Code    46  port.o(i.SysTick_Handler)
    SystemClock_Config                       0x08009c45   Thumb Code   176  main.o(i.SystemClock_Config)
    SystemInit                               0x08009cf9   Thumb Code   192  system_stm32h7xx.o(i.SystemInit)
    TIM2_IRQHandler                          0x08009dd9   Thumb Code    10  stm32h7xx_it.o(i.TIM2_IRQHandler)
    TIM_Base_SetConfig                       0x08009de9   Thumb Code   182  stm32h7xx_hal_tim.o(i.TIM_Base_SetConfig)
    TIM_OC2_SetConfig                        0x08009f75   Thumb Code   156  stm32h7xx_hal_tim.o(i.TIM_OC2_SetConfig)
    UsageFault_Handler                       0x0800a231   Thumb Code     4  stm32h7xx_it.o(i.UsageFault_Handler)
    VMC_calc_1_left                          0x0800a235   Thumb Code   908  vmc_calc.o(i.VMC_calc_1_left)
    VMC_calc_1_right                         0x0800a5d1   Thumb Code   892  vmc_calc.o(i.VMC_calc_1_right)
    VMC_calc_2                               0x0800a95d   Thumb Code   406  vmc_calc.o(i.VMC_calc_2)
    VMC_init                                 0x0800aaf5   Thumb Code    42  vmc_calc.o(i.VMC_init)
    __ARM_fpclassifyf                        0x0800ab2d   Thumb Code    38  fpclassifyf.o(i.__ARM_fpclassifyf)
    __hardfp_asinf                           0x0800ab8d   Thumb Code   258  asinf.o(i.__hardfp_asinf)
    __hardfp_atan2f                          0x0800acc5   Thumb Code   594  atan2f.o(i.__hardfp_atan2f)
    __hardfp_sqrt                            0x0800af79   Thumb Code   102  sqrt.o(i.__hardfp_sqrt)
    __hardfp_sqrtf                           0x0800afdf   Thumb Code    58  sqrtf.o(i.__hardfp_sqrtf)
    __mathlib_flt_infnan                     0x0800b019   Thumb Code     6  funder.o(i.__mathlib_flt_infnan)
    __mathlib_flt_infnan2                    0x0800b01f   Thumb Code     6  funder.o(i.__mathlib_flt_infnan2)
    __mathlib_flt_invalid                    0x0800b025   Thumb Code    10  funder.o(i.__mathlib_flt_invalid)
    __mathlib_flt_underflow                  0x0800b035   Thumb Code    10  funder.o(i.__mathlib_flt_underflow)
    __scatterload_copy                       0x0800b045   Thumb Code    14  handlers.o(i.__scatterload_copy)
    __scatterload_null                       0x0800b053   Thumb Code     2  handlers.o(i.__scatterload_null)
    __scatterload_zeroinit                   0x0800b055   Thumb Code    14  handlers.o(i.__scatterload_zeroinit)
    __set_errno                              0x0800b065   Thumb Code     6  errno.o(i.__set_errno)
    bmi088_accel_init                        0x0800b071   Thumb Code   348  bmi088driver.o(i.bmi088_accel_init)
    bmi088_gyro_init                         0x0800b1dd   Thumb Code   284  bmi088driver.o(i.bmi088_gyro_init)
    canx_send_data                           0x0800b30d   Thumb Code   132  can_bsp.o(i.canx_send_data)
    chassisL_control_loop                    0x0800b391   Thumb Code   652  chassisl_task.o(i.chassisL_control_loop)
    chassisL_feedback_update                 0x0800b63d   Thumb Code    66  chassisl_task.o(i.chassisL_feedback_update)
    chassisR_control_loop                    0x0800b689   Thumb Code   712  chassisr_task.o(i.chassisR_control_loop)
    chassisR_feedback_update                 0x0800b979   Thumb Code   134  chassisr_task.o(i.chassisR_feedback_update)
    dm4310_fbdata                            0x0800ba15   Thumb Code   154  dm4310_drv.o(i.dm4310_fbdata)
    dm6215_fbdata                            0x0800bab1   Thumb Code   154  dm4310_drv.o(i.dm6215_fbdata)
    enable_motor_mode                        0x0800bb55   Thumb Code    66  dm4310_drv.o(i.enable_motor_mode)
    float_to_uint                            0x0800bba1   Thumb Code    50  dm4310_drv.o(i.float_to_uint)
    ground_detectionL                        0x0800bbd3   Thumb Code   100  vmc_calc.o(i.ground_detectionL)
    ground_detectionR                        0x0800bc37   Thumb Code   100  vmc_calc.o(i.ground_detectionR)
    joint_motor_init                         0x0800bc9b   Thumb Code     6  dm4310_drv.o(i.joint_motor_init)
    mahony_init                              0x0800bca1   Thumb Code    40  mahony_filter.o(i.mahony_init)
    mahony_input                             0x0800bcd9   Thumb Code    30  mahony_filter.o(i.mahony_input)
    mahony_output                            0x0800bcf7   Thumb Code    74  mahony_filter.o(i.mahony_output)
    mahony_update                            0x0800bd41   Thumb Code   646  mahony_filter.o(i.mahony_update)
    main                                     0x0800bfc9   Thumb Code   102  main.o(i.main)
    malloc                                   0x0800c049   Thumb Code    92  malloc.o(i.malloc)
    mit_ctrl                                 0x0800c0b5   Thumb Code   232  dm4310_drv.o(i.mit_ctrl)
    mit_ctrl2                                0x0800c1a5   Thumb Code   232  dm4310_drv.o(i.mit_ctrl2)
    mySaturate                               0x0800c29d   Thumb Code    40  chassisr_task.o(i.mySaturate)
    osDelay                                  0x0800c2c5   Thumb Code    24  cmsis_os.o(i.osDelay)
    osKernelStart                            0x0800c2dd   Thumb Code    10  cmsis_os.o(i.osKernelStart)
    osThreadCreate                           0x0800c2e7   Thumb Code    48  cmsis_os.o(i.osThreadCreate)
    pstwo_task                               0x0800c75d   Thumb Code    72  ps2_task.o(i.pstwo_task)
    pvPortMalloc                             0x0800c7b9   Thumb Code   306  heap_4.o(i.pvPortMalloc)
    pxPortInitialiseStack                    0x0800c905   Thumb Code    38  port.o(i.pxPortInitialiseStack)
    sqrtf                                    0x0800c931   Thumb Code    62  sqrtf.o(i.sqrtf)
    uint_to_float                            0x0800c96f   Thumb Code    52  dm4310_drv.o(i.uint_to_float)
    uxListRemove                             0x0800c9a3   Thumb Code    40  list.o(i.uxListRemove)
    vListInitialise                          0x0800c9cb   Thumb Code    26  list.o(i.vListInitialise)
    vListInitialiseItem                      0x0800c9e5   Thumb Code     6  list.o(i.vListInitialiseItem)
    vListInsert                              0x0800c9eb   Thumb Code    52  list.o(i.vListInsert)
    vListInsertEnd                           0x0800ca1f   Thumb Code    24  list.o(i.vListInsertEnd)
    vPortEnterCritical                       0x0800ca39   Thumb Code    76  port.o(i.vPortEnterCritical)
    vPortExitCritical                        0x0800ca8d   Thumb Code    56  port.o(i.vPortExitCritical)
    vPortFree                                0x0800cac9   Thumb Code   150  heap_4.o(i.vPortFree)
    vPortSetupTimerInterrupt                 0x0800cb6d   Thumb Code    36  port.o(i.vPortSetupTimerInterrupt)
    vTaskDelay                               0x0800cb95   Thumb Code    82  tasks.o(i.vTaskDelay)
    vTaskStartScheduler                      0x0800cbf1   Thumb Code   108  tasks.o(i.vTaskStartScheduler)
    vTaskSuspendAll                          0x0800cc79   Thumb Code    12  tasks.o(i.vTaskSuspendAll)
    vTaskSwitchContext                       0x0800cc89   Thumb Code   118  tasks.o(i.vTaskSwitchContext)
    wheel_motor_init                         0x0800cd15   Thumb Code     6  dm4310_drv.o(i.wheel_motor_init)
    xPortStartScheduler                      0x0800cd1d   Thumb Code   330  port.o(i.xPortStartScheduler)
    xTaskCreate                              0x0800ce85   Thumb Code    96  tasks.o(i.xTaskCreate)
    xTaskIncrementTick                       0x0800cee5   Thumb Code   282  tasks.o(i.xTaskIncrementTick)
    xTaskResumeAll                           0x0800d02d   Thumb Code   224  tasks.o(i.xTaskResumeAll)
    xvEstimateKF_Init                        0x0800d131   Thumb Code    96  observe_task.o(i.xvEstimateKF_Init)
    xvEstimateKF_Update                      0x0800d1a5   Thumb Code    68  observe_task.o(i.xvEstimateKF_Update)
    D1CorePrescTable                         0x0800d2c8   Data          16  system_stm32h7xx.o(.constdata)
    vaEstimateKF_H                           0x0800d308   Data          16  observe_task.o(.constdata)
    sinTable_f32                             0x0800d36c   Data        2052  arm_common_tables.o(.rodata.sinTable_f32)
    Region$$Table$$Base                      0x0800db70   Number         0  anon$$obj.o(Region$$Table)
    Region$$Table$$Limit                     0x0800db90   Number         0  anon$$obj.o(Region$$Table)
    defaultTaskHandle                        0x24000000   Data           4  freertos.o(.data)
    INS_TASKHandle                           0x24000004   Data           4  freertos.o(.data)
    CHASSISR_TASKHandle                      0x24000008   Data           4  freertos.o(.data)
    CHASSISL_TASKHandle                      0x2400000c   Data           4  freertos.o(.data)
    OBSERVE_TASKHandle                       0x24000010   Data           4  freertos.o(.data)
    PS2_TASKHandle                           0x24000014   Data           4  freertos.o(.data)
    uwTick                                   0x2400001c   Data           4  stm32h7xx_hal.o(.data)
    uwTickPrio                               0x24000020   Data           4  stm32h7xx_hal.o(.data)
    uwTickFreq                               0x24000024   Data           1  stm32h7xx_hal.o(.data)
    SystemCoreClock                          0x24000028   Data           4  system_stm32h7xx.o(.data)
    SystemD2Clock                            0x2400002c   Data           4  system_stm32h7xx.o(.data)
    BMI088_ACCEL_SEN                         0x24000030   Data           4  bmi088driver.o(.data)
    BMI088_GYRO_SEN                          0x24000034   Data           4  bmi088driver.o(.data)
    gNormDiff                                0x2400003c   Data           4  bmi088driver.o(.data)
    caliOffset                               0x24000040   Data           1  bmi088driver.o(.data)
    caliCount                                0x24000042   Data           2  bmi088driver.o(.data)
    BMI088_SPI                               0x2400007c   Data           4  bmi088middleware.o(.data)
    sizeof_float                             0x24000090   Data           2  kalman_filter.o(.data)
    sizeof_double                            0x24000092   Data           2  kalman_filter.o(.data)
    pxCurrentTCB                             0x24000094   Data           4  tasks.o(.data)
    gravity                                  0x240000fc   Data          12  ins_task.o(.data)
    INS_DWT_Count                            0x24000108   Data           4  ins_task.o(.data)
    ins_dt                                   0x2400010c   Data           4  ins_task.o(.data)
    ins_time                                 0x24000110   Data           4  ins_task.o(.data)
    stop_time                                0x24000114   Data           4  ins_task.o(.data)
    LQR_K_L                                  0x24000118   Data          48  chassisl_task.o(.data)
    CHASSL_TIME                              0x24000148   Data           4  chassisl_task.o(.data)
    left_flag                                0x2400014c   Data           1  chassisl_task.o(.data)
    LQR_K_R                                  0x24000150   Data          48  chassisr_task.o(.data)
    Poly_Coefficient                         0x24000180   Data         192  chassisr_task.o(.data)
    CHASSR_TIME                              0x24000240   Data           4  chassisr_task.o(.data)
    right_flag                               0x24000244   Data           1  chassisr_task.o(.data)
    vaEstimateKF_F                           0x24000248   Data          16  observe_task.o(.data)
    vaEstimateKF_P                           0x24000258   Data          16  observe_task.o(.data)
    vaEstimateKF_Q                           0x24000268   Data          16  observe_task.o(.data)
    vaEstimateKF_R                           0x24000278   Data          16  observe_task.o(.data)
    vel_acc                                  0x24000288   Data           8  observe_task.o(.data)
    OBSERVE_TIME                             0x24000290   Data           4  observe_task.o(.data)
    Handkey                                  0x240002a8   Data           2  ps2_task.o(.data)
    Comd                                     0x240002aa   Data           2  ps2_task.o(.data)
    MASK                                     0x240002ac   Data          32  ps2_task.o(.data)
    PS2_TIME                                 0x240002cc   Data           4  ps2_task.o(.data)
    reve_flag                                0x240002d0   Data           1  ps2_task.o(.data)
    SysTime                                  0x240002d8   Data           8  bsp_dwt.o(.data)
    CYCCNT64                                 0x240002f8   Data           8  bsp_dwt.o(.data)
    __microlib_freelist                      0x24000318   Data           4  mvars.o(.data)
    __microlib_freelist_initialised          0x2400031c   Data           4  mvars.o(.data)
    hfdcan1                                  0x24000324   Data         160  fdcan.o(.bss)
    hfdcan2                                  0x240003c4   Data         160  fdcan.o(.bss)
    hfdcan3                                  0x24000464   Data         160  fdcan.o(.bss)
    hspi2                                    0x24000504   Data         136  spi.o(.bss)
    hdma_spi2_rx                             0x2400058c   Data         120  spi.o(.bss)
    hdma_spi2_tx                             0x24000604   Data         120  spi.o(.bss)
    htim3                                    0x2400067c   Data          76  tim.o(.bss)
    htim2                                    0x240006c8   Data          76  stm32h7xx_hal_timebase_tim.o(.bss)
    gyroDiff                                 0x24000714   Data          12  bmi088driver.o(.bss)
    BMI088                                   0x24000720   Data          64  bmi088driver.o(.bss)
    INS                                      0x24008050   Data         148  ins_task.o(.bss)
    mahony                                   0x240080e4   Data         132  ins_task.o(.bss)
    Gyro                                     0x24008168   Data          12  ins_task.o(.bss)
    Accel                                    0x24008174   Data          12  ins_task.o(.bss)
    left                                     0x24008180   Data         172  chassisl_task.o(.bss)
    LegL_Pid                                 0x2400822c   Data          72  chassisl_task.o(.bss)
    right                                    0x24008274   Data         172  chassisr_task.o(.bss)
    chassis_move                             0x24008320   Data         416  chassisr_task.o(.bss)
    LegR_Pid                                 0x240084c0   Data          72  chassisr_task.o(.bss)
    Tp_Pid                                   0x24008508   Data          72  chassisr_task.o(.bss)
    Turn_Pid                                 0x24008550   Data          72  chassisr_task.o(.bss)
    vaEstimateKF                             0x24008598   Data         320  observe_task.o(.bss)
    vaEstimateKF_K                           0x240086d8   Data          16  observe_task.o(.bss)
    ps2data                                  0x240086e8   Data          12  ps2_task.o(.bss)
    Data                                     0x240086f4   Data           9  ps2_task.o(.bss)
    RxHeader1                                0x24008700   Data          40  can_bsp.o(.bss)
    g_Can1RxData                             0x24008728   Data          64  can_bsp.o(.bss)
    RxHeader2                                0x24008768   Data          40  can_bsp.o(.bss)
    g_Can2RxData                             0x24008790   Data          64  can_bsp.o(.bss)
    __heap_base                              0x240087d0   Data           0  startup_stm32h723xx.o(HEAP)
    __heap_limit                             0x240089d0   Data           0  startup_stm32h723xx.o(HEAP)
    __initial_sp                             0x240091d0   Data           0  startup_stm32h723xx.o(STACK)



==============================================================================

Memory Map of the image

  Image Entry point : 0x080002cd

  Load Region LR_IROM1 (Base: 0x08000000, Size: 0x0000deb4, Max: 0x00100000, ABSOLUTE, COMPRESSED[0x0000dd18])

    Execution Region ER_IROM1 (Exec base: 0x08000000, Load base: 0x08000000, Size: 0x0000db90, Max: 0x00100000, ABSOLUTE)

    Exec Addr    Load Addr    Size         Type   Attr      Idx    E Section Name        Object

    0x08000000   0x08000000   0x000002cc   Data   RO            3    RESET               startup_stm32h723xx.o
    0x080002cc   0x080002cc   0x00000000   Code   RO         8104  * .ARM.Collect$$$$00000000  mc_w.l(entry.o)
    0x080002cc   0x080002cc   0x00000004   Code   RO         8161    .ARM.Collect$$$$00000001  mc_w.l(entry2.o)
    0x080002d0   0x080002d0   0x00000004   Code   RO         8164    .ARM.Collect$$$$00000004  mc_w.l(entry5.o)
    0x080002d4   0x080002d4   0x00000000   Code   RO         8166    .ARM.Collect$$$$00000008  mc_w.l(entry7b.o)
    0x080002d4   0x080002d4   0x00000000   Code   RO         8168    .ARM.Collect$$$$0000000A  mc_w.l(entry8b.o)
    0x080002d4   0x080002d4   0x00000008   Code   RO         8169    .ARM.Collect$$$$0000000B  mc_w.l(entry9a.o)
    0x080002dc   0x080002dc   0x00000004   Code   RO         8176    .ARM.Collect$$$$0000000E  mc_w.l(entry12b.o)
    0x080002e0   0x080002e0   0x00000000   Code   RO         8171    .ARM.Collect$$$$0000000F  mc_w.l(entry10a.o)
    0x080002e0   0x080002e0   0x00000000   Code   RO         8173    .ARM.Collect$$$$00000011  mc_w.l(entry11a.o)
    0x080002e0   0x080002e0   0x00000004   Code   RO         8162    .ARM.Collect$$$$00002712  mc_w.l(entry2.o)
    0x080002e4   0x080002e4   0x000000be   Code   RO         7159    .emb_text           port.o
    0x080003a2   0x080003a2   0x00000002   PAD
    0x080003a4   0x080003a4   0x00000024   Code   RO            4    .text               startup_stm32h723xx.o
    0x080003c8   0x080003c8   0x00000062   Code   RO         8107    .text               mc_w.l(uldiv.o)
    0x0800042a   0x0800042a   0x00000024   Code   RO         8109    .text               mc_w.l(memcpya.o)
    0x0800044e   0x0800044e   0x00000024   Code   RO         8113    .text               mc_w.l(memseta.o)
    0x08000472   0x08000472   0x0000001e   Code   RO         8177    .text               mc_w.l(llshl.o)
    0x08000490   0x08000490   0x00000020   Code   RO         8179    .text               mc_w.l(llushr.o)
    0x080004b0   0x080004b0   0x00000000   Code   RO         8190    .text               mc_w.l(iusefp.o)
    0x080004b0   0x080004b0   0x00000024   Code   RO         8191    .text               mc_w.l(init.o)
    0x080004d4   0x080004d4   0x00000056   Code   RO         8201    .text               mc_w.l(__dczerorl2.o)
    0x0800052a   0x0800052a   0x00000002   PAD
    0x0800052c   0x0800052c   0x00000090   Code   RO         7871    .text.arm_cos_f32   arm_cortexM7lfdp_math.lib(arm_cos_f32.o)
    0x080005bc   0x080005bc   0x000000be   Code   RO         7891    .text.arm_mat_add_f32  arm_cortexM7lfdp_math.lib(arm_mat_add_f32.o)
    0x0800067a   0x0800067a   0x00000008   Code   RO         7901    .text.arm_mat_init_f32  arm_cortexM7lfdp_math.lib(arm_mat_init_f32.o)
    0x08000682   0x08000682   0x00000002   PAD
    0x08000684   0x08000684   0x000002cc   Code   RO         7910    .text.arm_mat_inverse_f32  arm_cortexM7lfdp_math.lib(arm_mat_inverse_f32.o)
    0x08000950   0x08000950   0x00000130   Code   RO         7920    .text.arm_mat_mult_f32  arm_cortexM7lfdp_math.lib(arm_mat_mult_f32.o)
    0x08000a80   0x08000a80   0x000000be   Code   RO         7930    .text.arm_mat_sub_f32  arm_cortexM7lfdp_math.lib(arm_mat_sub_f32.o)
    0x08000b3e   0x08000b3e   0x00000002   PAD
    0x08000b40   0x08000b40   0x000000b4   Code   RO         7940    .text.arm_mat_trans_f32  arm_cortexM7lfdp_math.lib(arm_mat_trans_f32.o)
    0x08000bf4   0x08000bf4   0x0000008c   Code   RO         7881    .text.arm_sin_f32   arm_cortexM7lfdp_math.lib(arm_sin_f32.o)
    0x08000c80   0x08000c80   0x00000014   Code   RO         5347    i.BMI088_ACCEL_NS_H  bmi088middleware.o
    0x08000c94   0x08000c94   0x00000014   Code   RO         5348    i.BMI088_ACCEL_NS_L  bmi088middleware.o
    0x08000ca8   0x08000ca8   0x00000014   Code   RO         5349    i.BMI088_GYRO_NS_H  bmi088middleware.o
    0x08000cbc   0x08000cbc   0x00000014   Code   RO         5350    i.BMI088_GYRO_NS_L  bmi088middleware.o
    0x08000cd0   0x08000cd0   0x00000330   Code   RO         5257    i.BMI088_Read       bmi088driver.o
    0x08001000   0x08001000   0x000000c0   Code   RO         5258    i.BMI088_init       bmi088driver.o
    0x080010c0   0x080010c0   0x00000026   Code   RO         5259    i.BMI088_read_muli_reg  bmi088driver.o
    0x080010e6   0x080010e6   0x00000018   Code   RO         5260    i.BMI088_read_single_reg  bmi088driver.o
    0x080010fe   0x080010fe   0x00000002   PAD
    0x08001100   0x08001100   0x00000024   Code   RO         5351    i.BMI088_read_write_byte  bmi088middleware.o
    0x08001124   0x08001124   0x00000014   Code   RO         5261    i.BMI088_write_single_reg  bmi088driver.o
    0x08001138   0x08001138   0x0000015a   Code   RO         7239    i.BodyFrameToEarthFrame  ins_task.o
    0x08001292   0x08001292   0x00000004   Code   RO          567    i.BusFault_Handler  stm32h7xx_it.o
    0x08001296   0x08001296   0x00000002   PAD
    0x08001298   0x08001298   0x00000674   Code   RO         5262    i.Calibrate_MPU_Offset  bmi088driver.o
    0x0800190c   0x0800190c   0x00000008   Code   RO          296    i.ChassisL_Task     freertos.o
    0x08001914   0x08001914   0x000000b8   Code   RO         7298    i.ChassisL_init     chassisl_task.o
    0x080019cc   0x080019cc   0x00000170   Code   RO         7299    i.ChassisL_task     chassisl_task.o
    0x08001b3c   0x08001b3c   0x00000008   Code   RO          297    i.ChassisR_Task     freertos.o
    0x08001b44   0x08001b44   0x000000ac   Code   RO         7352    i.ChassisR_init     chassisr_task.o
    0x08001bf0   0x08001bf0   0x00000178   Code   RO         7353    i.ChassisR_task     chassisr_task.o
    0x08001d68   0x08001d68   0x00000010   Code   RO          568    i.DMA1_Stream0_IRQHandler  stm32h7xx_it.o
    0x08001d78   0x08001d78   0x00000010   Code   RO          569    i.DMA1_Stream1_IRQHandler  stm32h7xx_it.o
    0x08001d88   0x08001d88   0x000000ec   Code   RO         1596    i.DMA_CalcBaseAndBitshift  stm32h7xx_hal_dma.o
    0x08001e74   0x08001e74   0x000000c4   Code   RO         1597    i.DMA_CalcDMAMUXChannelBaseAndMask  stm32h7xx_hal_dma.o
    0x08001f38   0x08001f38   0x00000098   Code   RO         1598    i.DMA_CalcDMAMUXRequestGenBaseAndMask  stm32h7xx_hal_dma.o
    0x08001fd0   0x08001fd0   0x000000ae   Code   RO         1599    i.DMA_CheckFifoParam  stm32h7xx_hal_dma.o
    0x0800207e   0x0800207e   0x00000002   PAD
    0x08002080   0x08002080   0x00000030   Code   RO         7579    i.DWT_CNT_Update    bsp_dwt.o
    0x080020b0   0x080020b0   0x0000003c   Code   RO         7580    i.DWT_Delay         bsp_dwt.o
    0x080020ec   0x080020ec   0x0000004c   Code   RO         7581    i.DWT_GetDeltaT     bsp_dwt.o
    0x08002138   0x08002138   0x00000054   Code   RO         7584    i.DWT_GetTimeline_s  bsp_dwt.o
    0x0800218c   0x0800218c   0x00000068   Code   RO         7586    i.DWT_Init          bsp_dwt.o
    0x080021f4   0x080021f4   0x000000d0   Code   RO         7587    i.DWT_SysTimeUpdate  bsp_dwt.o
    0x080022c4   0x080022c4   0x00000002   Code   RO          570    i.DebugMon_Handler  stm32h7xx_it.o
    0x080022c6   0x080022c6   0x0000015a   Code   RO         7240    i.EarthFrameToBodyFrame  ins_task.o
    0x08002420   0x08002420   0x00000006   Code   RO           13    i.Error_Handler     main.o
    0x08002426   0x08002426   0x00000002   PAD
    0x08002428   0x08002428   0x00000060   Code   RO         7656    i.FDCAN1_Config     can_bsp.o
    0x08002488   0x08002488   0x00000010   Code   RO          571    i.FDCAN1_IT0_IRQHandler  stm32h7xx_it.o
    0x08002498   0x08002498   0x00000060   Code   RO         7657    i.FDCAN2_Config     can_bsp.o
    0x080024f8   0x080024f8   0x00000010   Code   RO          572    i.FDCAN2_IT0_IRQHandler  stm32h7xx_it.o
    0x08002508   0x08002508   0x00000010   Code   RO          573    i.FDCAN3_IT0_IRQHandler  stm32h7xx_it.o
    0x08002518   0x08002518   0x00000220   Code   RO         3237    i.FDCAN_CalcultateRamBlockAddresses  stm32h7xx_hal_fdcan.o
    0x08002738   0x08002738   0x000000d4   Code   RO         3238    i.FDCAN_CopyMessageToRAM  stm32h7xx_hal_fdcan.o
    0x0800280c   0x0800280c   0x00000398   Code   RO         1602    i.HAL_DMA_Abort_IT  stm32h7xx_hal_dma.o
    0x08002ba4   0x08002ba4   0x00000af8   Code   RO         1606    i.HAL_DMA_IRQHandler  stm32h7xx_hal_dma.o
    0x0800369c   0x0800369c   0x00000514   Code   RO         1607    i.HAL_DMA_Init      stm32h7xx_hal_dma.o
    0x08003bb0   0x08003bb0   0x00000028   Code   RO         2298    i.HAL_Delay         stm32h7xx_hal.o
    0x08003bd8   0x08003bd8   0x000000a8   Code   RO         3240    i.HAL_FDCAN_ActivateNotification  stm32h7xx_hal_fdcan.o
    0x08003c80   0x08003c80   0x00000090   Code   RO         3242    i.HAL_FDCAN_AddMessageToTxFifoQ  stm32h7xx_hal_fdcan.o
    0x08003d10   0x08003d10   0x00000002   Code   RO         3243    i.HAL_FDCAN_ClockCalibrationCallback  stm32h7xx_hal_fdcan.o
    0x08003d12   0x08003d12   0x000000a8   Code   RO         3247    i.HAL_FDCAN_ConfigFilter  stm32h7xx_hal_fdcan.o
    0x08003dba   0x08003dba   0x00000034   Code   RO         3248    i.HAL_FDCAN_ConfigGlobalFilter  stm32h7xx_hal_fdcan.o
    0x08003dee   0x08003dee   0x00000002   Code   RO         3269    i.HAL_FDCAN_ErrorCallback  stm32h7xx_hal_fdcan.o
    0x08003df0   0x08003df0   0x00000002   Code   RO         3270    i.HAL_FDCAN_ErrorStatusCallback  stm32h7xx_hal_fdcan.o
    0x08003df2   0x08003df2   0x00000002   PAD
    0x08003df4   0x08003df4   0x000001f4   Code   RO         3281    i.HAL_FDCAN_GetRxMessage  stm32h7xx_hal_fdcan.o
    0x08003fe8   0x08003fe8   0x00000002   Code   RO         3287    i.HAL_FDCAN_HighPriorityMessageCallback  stm32h7xx_hal_fdcan.o
    0x08003fea   0x08003fea   0x00000002   PAD
    0x08003fec   0x08003fec   0x000003d4   Code   RO         3288    i.HAL_FDCAN_IRQHandler  stm32h7xx_hal_fdcan.o
    0x080043c0   0x080043c0   0x000002e0   Code   RO         3289    i.HAL_FDCAN_Init    stm32h7xx_hal_fdcan.o
    0x080046a0   0x080046a0   0x000001b4   Code   RO          423    i.HAL_FDCAN_MspInit  fdcan.o
    0x08004854   0x08004854   0x00000002   Code   RO         3298    i.HAL_FDCAN_RxBufferNewMessageCallback  stm32h7xx_hal_fdcan.o
    0x08004856   0x08004856   0x00000002   PAD
    0x08004858   0x08004858   0x0000007c   Code   RO         7658    i.HAL_FDCAN_RxFifo0Callback  can_bsp.o
    0x080048d4   0x080048d4   0x0000007c   Code   RO         7659    i.HAL_FDCAN_RxFifo1Callback  can_bsp.o
    0x08004950   0x08004950   0x00000034   Code   RO         3301    i.HAL_FDCAN_Start   stm32h7xx_hal_fdcan.o
    0x08004984   0x08004984   0x00000002   Code   RO         3323    i.HAL_FDCAN_TT_GlobalTimeCallback  stm32h7xx_hal_fdcan.o
    0x08004986   0x08004986   0x00000002   Code   RO         3324    i.HAL_FDCAN_TT_ScheduleSyncCallback  stm32h7xx_hal_fdcan.o
    0x08004988   0x08004988   0x00000002   Code   RO         3329    i.HAL_FDCAN_TT_StopWatchCallback  stm32h7xx_hal_fdcan.o
    0x0800498a   0x0800498a   0x00000002   Code   RO         3330    i.HAL_FDCAN_TT_TimeMarkCallback  stm32h7xx_hal_fdcan.o
    0x0800498c   0x0800498c   0x00000002   Code   RO         3331    i.HAL_FDCAN_TimeoutOccurredCallback  stm32h7xx_hal_fdcan.o
    0x0800498e   0x0800498e   0x00000002   Code   RO         3332    i.HAL_FDCAN_TimestampWraparoundCallback  stm32h7xx_hal_fdcan.o
    0x08004990   0x08004990   0x00000002   Code   RO         3333    i.HAL_FDCAN_TxBufferAbortCallback  stm32h7xx_hal_fdcan.o
    0x08004992   0x08004992   0x00000002   Code   RO         3334    i.HAL_FDCAN_TxBufferCompleteCallback  stm32h7xx_hal_fdcan.o
    0x08004994   0x08004994   0x00000002   Code   RO         3335    i.HAL_FDCAN_TxEventFifoCallback  stm32h7xx_hal_fdcan.o
    0x08004996   0x08004996   0x00000002   Code   RO         3336    i.HAL_FDCAN_TxFifoEmptyCallback  stm32h7xx_hal_fdcan.o
    0x08004998   0x08004998   0x000001f0   Code   RO         1449    i.HAL_GPIO_Init     stm32h7xx_hal_gpio.o
    0x08004b88   0x08004b88   0x00000010   Code   RO         1451    i.HAL_GPIO_ReadPin  stm32h7xx_hal_gpio.o
    0x08004b98   0x08004b98   0x0000000c   Code   RO         1453    i.HAL_GPIO_WritePin  stm32h7xx_hal_gpio.o
    0x08004ba4   0x08004ba4   0x0000000c   Code   RO         2314    i.HAL_GetTick       stm32h7xx_hal.o
    0x08004bb0   0x08004bb0   0x00000018   Code   RO         2320    i.HAL_IncTick       stm32h7xx_hal.o
    0x08004bc8   0x08004bc8   0x00000060   Code   RO         2321    i.HAL_Init          stm32h7xx_hal.o
    0x08004c28   0x08004c28   0x000000a0   Code   RO          691    i.HAL_InitTick      stm32h7xx_hal_timebase_tim.o
    0x08004cc8   0x08004cc8   0x00000030   Code   RO          667    i.HAL_MspInit       stm32h7xx_hal_msp.o
    0x08004cf8   0x08004cf8   0x00000028   Code   RO          736    i.HAL_NVIC_EnableIRQ  stm32h7xx_hal_cortex.o
    0x08004d20   0x08004d20   0x0000007a   Code   RO          742    i.HAL_NVIC_SetPriority  stm32h7xx_hal_cortex.o
    0x08004d9a   0x08004d9a   0x00000002   PAD
    0x08004d9c   0x08004d9c   0x00000028   Code   RO          743    i.HAL_NVIC_SetPriorityGrouping  stm32h7xx_hal_cortex.o
    0x08004dc4   0x08004dc4   0x00000060   Code   RO         2050    i.HAL_PWREx_ConfigSupply  stm32h7xx_hal_pwr_ex.o
    0x08004e24   0x08004e24   0x00000cc8   Code   RO         1001    i.HAL_RCCEx_PeriphCLKConfig  stm32h7xx_hal_rcc_ex.o
    0x08005aec   0x08005aec   0x00000320   Code   RO          877    i.HAL_RCC_ClockConfig  stm32h7xx_hal_rcc.o
    0x08005e0c   0x08005e0c   0x0000006c   Code   RO          881    i.HAL_RCC_GetClockConfig  stm32h7xx_hal_rcc.o
    0x08005e78   0x08005e78   0x0000004c   Code   RO          882    i.HAL_RCC_GetHCLKFreq  stm32h7xx_hal_rcc.o
    0x08005ec4   0x08005ec4   0x00000024   Code   RO          884    i.HAL_RCC_GetPCLK1Freq  stm32h7xx_hal_rcc.o
    0x08005ee8   0x08005ee8   0x0000022c   Code   RO          886    i.HAL_RCC_GetSysClockFreq  stm32h7xx_hal_rcc.o
    0x08006114   0x08006114   0x0000075c   Code   RO          889    i.HAL_RCC_OscConfig  stm32h7xx_hal_rcc.o
    0x08006870   0x08006870   0x00000002   Code   RO         3862    i.HAL_SPI_ErrorCallback  stm32h7xx_hal_spi.o
    0x08006872   0x08006872   0x00000002   PAD
    0x08006874   0x08006874   0x00000294   Code   RO         3865    i.HAL_SPI_IRQHandler  stm32h7xx_hal_spi.o
    0x08006b08   0x08006b08   0x000001b0   Code   RO         3866    i.HAL_SPI_Init      stm32h7xx_hal_spi.o
    0x08006cb8   0x08006cb8   0x00000178   Code   RO          478    i.HAL_SPI_MspInit   spi.o
    0x08006e30   0x08006e30   0x00000002   Code   RO         3872    i.HAL_SPI_RxCpltCallback  stm32h7xx_hal_spi.o
    0x08006e32   0x08006e32   0x00000002   Code   RO         3874    i.HAL_SPI_SuspendCallback  stm32h7xx_hal_spi.o
    0x08006e34   0x08006e34   0x00000302   Code   RO         3876    i.HAL_SPI_TransmitReceive  stm32h7xx_hal_spi.o
    0x08007136   0x08007136   0x00000002   Code   RO         3881    i.HAL_SPI_TxCpltCallback  stm32h7xx_hal_spi.o
    0x08007138   0x08007138   0x00000002   Code   RO         3883    i.HAL_SPI_TxRxCpltCallback  stm32h7xx_hal_spi.o
    0x0800713a   0x0800713a   0x00000002   Code   RO         4916    i.HAL_TIMEx_Break2Callback  stm32h7xx_hal_tim_ex.o
    0x0800713c   0x0800713c   0x00000002   Code   RO         4917    i.HAL_TIMEx_BreakCallback  stm32h7xx_hal_tim_ex.o
    0x0800713e   0x0800713e   0x00000002   Code   RO         4918    i.HAL_TIMEx_CommutCallback  stm32h7xx_hal_tim_ex.o
    0x08007140   0x08007140   0x000000e4   Code   RO         4939    i.HAL_TIMEx_MasterConfigSynchronization  stm32h7xx_hal_tim_ex.o
    0x08007224   0x08007224   0x0000006e   Code   RO         4191    i.HAL_TIM_Base_Init  stm32h7xx_hal_tim.o
    0x08007292   0x08007292   0x00000002   Code   RO         4193    i.HAL_TIM_Base_MspInit  stm32h7xx_hal_tim.o
    0x08007294   0x08007294   0x000000cc   Code   RO         4196    i.HAL_TIM_Base_Start_IT  stm32h7xx_hal_tim.o
    0x08007360   0x08007360   0x00000002   Code   RO         4225    i.HAL_TIM_IC_CaptureCallback  stm32h7xx_hal_tim.o
    0x08007362   0x08007362   0x000001b8   Code   RO         4239    i.HAL_TIM_IRQHandler  stm32h7xx_hal_tim.o
    0x0800751a   0x0800751a   0x00000002   PAD
    0x0800751c   0x0800751c   0x0000005c   Code   RO          519    i.HAL_TIM_MspPostInit  tim.o
    0x08007578   0x08007578   0x00000002   Code   RO         4242    i.HAL_TIM_OC_DelayElapsedCallback  stm32h7xx_hal_tim.o
    0x0800757a   0x0800757a   0x00000170   Code   RO         4263    i.HAL_TIM_PWM_ConfigChannel  stm32h7xx_hal_tim.o
    0x080076ea   0x080076ea   0x0000006e   Code   RO         4266    i.HAL_TIM_PWM_Init  stm32h7xx_hal_tim.o
    0x08007758   0x08007758   0x00000030   Code   RO          521    i.HAL_TIM_PWM_MspInit  tim.o
    0x08007788   0x08007788   0x00000002   Code   RO         4269    i.HAL_TIM_PWM_PulseFinishedCallback  stm32h7xx_hal_tim.o
    0x0800778a   0x0800778a   0x00000012   Code   RO           14    i.HAL_TIM_PeriodElapsedCallback  main.o
    0x0800779c   0x0800779c   0x00000002   Code   RO         4282    i.HAL_TIM_TriggerCallback  stm32h7xx_hal_tim.o
    0x0800779e   0x0800779e   0x00000002   PAD
    0x080077a0   0x080077a0   0x00000130   Code   RO         5714    i.H_K_R_Adjustment  kalman_filter.o
    0x080078d0   0x080078d0   0x00000004   Code   RO          574    i.HardFault_Handler  stm32h7xx_it.o
    0x080078d4   0x080078d4   0x00000034   Code   RO         7241    i.INS_Init          ins_task.o
    0x08007908   0x08007908   0x00000008   Code   RO          298    i.INS_Task          freertos.o
    0x08007910   0x08007910   0x00000320   Code   RO         7242    i.INS_task          ins_task.o
    0x08007c30   0x08007c30   0x0000070c   Code   RO         5715    i.Kalman_Filter_Init  kalman_filter.o
    0x0800833c   0x0800833c   0x00000050   Code   RO         5716    i.Kalman_Filter_Measure  kalman_filter.o
    0x0800838c   0x0800838c   0x00000068   Code   RO         5717    i.Kalman_Filter_P_Update  kalman_filter.o
    0x080083f4   0x080083f4   0x00000068   Code   RO         5718    i.Kalman_Filter_PminusUpdate  kalman_filter.o
    0x0800845c   0x0800845c   0x000000d2   Code   RO         5719    i.Kalman_Filter_SetK  kalman_filter.o
    0x0800852e   0x0800852e   0x00000002   PAD
    0x08008530   0x08008530   0x0000012c   Code   RO         5720    i.Kalman_Filter_Update  kalman_filter.o
    0x0800865c   0x0800865c   0x0000007c   Code   RO         5721    i.Kalman_Filter_xhatMinusUpdate  kalman_filter.o
    0x080086d8   0x080086d8   0x00000086   Code   RO         5722    i.Kalman_Filter_xhatUpdate  kalman_filter.o
    0x0800875e   0x0800875e   0x00000032   Code   RO         5646    i.LQR_K_calc        vmc_calc.o
    0x08008790   0x08008790   0x00000044   Code   RO          398    i.MX_DMA_Init       dma.o
    0x080087d4   0x080087d4   0x00000080   Code   RO          424    i.MX_FDCAN1_Init    fdcan.o
    0x08008854   0x08008854   0x00000080   Code   RO          425    i.MX_FDCAN2_Init    fdcan.o
    0x080088d4   0x080088d4   0x00000080   Code   RO          426    i.MX_FDCAN3_Init    fdcan.o
    0x08008954   0x08008954   0x000000b4   Code   RO          299    i.MX_FREERTOS_Init  freertos.o
    0x08008a08   0x08008a08   0x00000174   Code   RO          272    i.MX_GPIO_Init      gpio.o
    0x08008b7c   0x08008b7c   0x00000064   Code   RO          479    i.MX_SPI2_Init      spi.o
    0x08008be0   0x08008be0   0x00000080   Code   RO          522    i.MX_TIM3_Init      tim.o
    0x08008c60   0x08008c60   0x00000004   Code   RO          575    i.MemManage_Handler  stm32h7xx_it.o
    0x08008c64   0x08008c64   0x00000004   Code   RO          576    i.NMI_Handler       stm32h7xx_it.o
    0x08008c68   0x08008c68   0x00000008   Code   RO          300    i.OBSERVE_Task      freertos.o
    0x08008c70   0x08008c70   0x000001a4   Code   RO         7412    i.Observe_task      observe_task.o
    0x08008e14   0x08008e14   0x000001f0   Code   RO         5930    i.PID_Calc          pid.o
    0x08009004   0x08009004   0x00000060   Code   RO         5932    i.PID_init          pid.o
    0x08009064   0x08009064   0x0000000c   Code   RO         7457    i.PS2_AnologData    ps2_task.o
    0x08009070   0x08009070   0x00000018   Code   RO         7458    i.PS2_ClearData     ps2_task.o
    0x08009088   0x08009088   0x000000b0   Code   RO         7459    i.PS2_Cmd           ps2_task.o
    0x08009138   0x08009138   0x00000054   Code   RO         7460    i.PS2_DataKey       ps2_task.o
    0x0800918c   0x0800918c   0x00000068   Code   RO         7461    i.PS2_EnterConfing  ps2_task.o
    0x080091f4   0x080091f4   0x00000068   Code   RO         7462    i.PS2_ExitConfing   ps2_task.o
    0x0800925c   0x0800925c   0x000000d4   Code   RO         7463    i.PS2_ReadData      ps2_task.o
    0x08009330   0x08009330   0x0000001c   Code   RO         7465    i.PS2_SetInit       ps2_task.o
    0x0800934c   0x0800934c   0x00000050   Code   RO         7466    i.PS2_ShortPoll     ps2_task.o
    0x0800939c   0x0800939c   0x00000008   Code   RO          301    i.PS2_Task          freertos.o
    0x080093a4   0x080093a4   0x00000060   Code   RO         7467    i.PS2_TurnOnAnalogMode  ps2_task.o
    0x08009404   0x08009404   0x000001b8   Code   RO         7470    i.PS2_data_process  ps2_task.o
    0x080095bc   0x080095bc   0x00000074   Code   RO         7471    i.PS2_data_read     ps2_task.o
    0x08009630   0x08009630   0x00000038   Code   RO         7354    i.Pensation_init    chassisr_task.o
    0x08009668   0x08009668   0x00000048   Code   RO           15    i.PeriphCommonClock_Config  main.o
    0x080096b0   0x080096b0   0x00000164   Code   RO         1004    i.RCCEx_PLL2_Config  stm32h7xx_hal_rcc_ex.o
    0x08009814   0x08009814   0x00000164   Code   RO         1005    i.RCCEx_PLL3_Config  stm32h7xx_hal_rcc_ex.o
    0x08009978   0x08009978   0x0000012e   Code   RO         5506    i.RotationMatrix_update  mahony_filter.o
    0x08009aa6   0x08009aa6   0x00000002   PAD
    0x08009aa8   0x08009aa8   0x00000010   Code   RO          577    i.SPI2_IRQHandler   stm32h7xx_it.o
    0x08009ab8   0x08009ab8   0x000000d6   Code   RO         3886    i.SPI_CloseTransfer  stm32h7xx_hal_spi.o
    0x08009b8e   0x08009b8e   0x0000001c   Code   RO         3887    i.SPI_DMAAbortOnError  stm32h7xx_hal_spi.o
    0x08009baa   0x08009baa   0x0000001a   Code   RO         3897    i.SPI_GetPacketSize  stm32h7xx_hal_spi.o
    0x08009bc4   0x08009bc4   0x00000042   Code   RO         3904    i.SPI_WaitOnFlagUntilTimeout  stm32h7xx_hal_spi.o
    0x08009c06   0x08009c06   0x0000000a   Code   RO          302    i.StartDefaultTask  freertos.o
    0x08009c10   0x08009c10   0x00000034   Code   RO         7160    i.SysTick_Handler   port.o
    0x08009c44   0x08009c44   0x000000b4   Code   RO           16    i.SystemClock_Config  main.o
    0x08009cf8   0x08009cf8   0x000000e0   Code   RO         5220    i.SystemInit        system_stm32h7xx.o
    0x08009dd8   0x08009dd8   0x00000010   Code   RO          578    i.TIM2_IRQHandler   stm32h7xx_it.o
    0x08009de8   0x08009de8   0x000000e0   Code   RO         4284    i.TIM_Base_SetConfig  stm32h7xx_hal_tim.o
    0x08009ec8   0x08009ec8   0x000000ac   Code   RO         4297    i.TIM_OC1_SetConfig  stm32h7xx_hal_tim.o
    0x08009f74   0x08009f74   0x000000b4   Code   RO         4298    i.TIM_OC2_SetConfig  stm32h7xx_hal_tim.o
    0x0800a028   0x0800a028   0x000000b4   Code   RO         4299    i.TIM_OC3_SetConfig  stm32h7xx_hal_tim.o
    0x0800a0dc   0x0800a0dc   0x00000074   Code   RO         4300    i.TIM_OC4_SetConfig  stm32h7xx_hal_tim.o
    0x0800a150   0x0800a150   0x00000070   Code   RO         4301    i.TIM_OC5_SetConfig  stm32h7xx_hal_tim.o
    0x0800a1c0   0x0800a1c0   0x00000070   Code   RO         4302    i.TIM_OC6_SetConfig  stm32h7xx_hal_tim.o
    0x0800a230   0x0800a230   0x00000004   Code   RO          579    i.UsageFault_Handler  stm32h7xx_it.o
    0x0800a234   0x0800a234   0x0000039c   Code   RO         5647    i.VMC_calc_1_left   vmc_calc.o
    0x0800a5d0   0x0800a5d0   0x0000038c   Code   RO         5648    i.VMC_calc_1_right  vmc_calc.o
    0x0800a95c   0x0800a95c   0x00000196   Code   RO         5649    i.VMC_calc_2        vmc_calc.o
    0x0800aaf2   0x0800aaf2   0x00000002   PAD
    0x0800aaf4   0x0800aaf4   0x00000038   Code   RO         5650    i.VMC_init          vmc_calc.o
    0x0800ab2c   0x0800ab2c   0x00000026   Code   RO         8145    i.__ARM_fpclassifyf  m_wv.l(fpclassifyf.o)
    0x0800ab52   0x0800ab52   0x00000002   PAD
    0x0800ab54   0x0800ab54   0x00000010   Code   RO          749    i.__NVIC_GetPriorityGrouping  stm32h7xx_hal_cortex.o
    0x0800ab64   0x0800ab64   0x00000028   Code   RO          750    i.__NVIC_SetPriority  stm32h7xx_hal_cortex.o
    0x0800ab8c   0x0800ab8c   0x00000138   Code   RO         8056    i.__hardfp_asinf    m_wv.l(asinf.o)
    0x0800acc4   0x0800acc4   0x000002b4   Code   RO         8068    i.__hardfp_atan2f   m_wv.l(atan2f.o)
    0x0800af78   0x0800af78   0x00000066   Code   RO         8080    i.__hardfp_sqrt     m_wv.l(sqrt.o)
    0x0800afde   0x0800afde   0x0000003a   Code   RO         8092    i.__hardfp_sqrtf    m_wv.l(sqrtf.o)
    0x0800b018   0x0800b018   0x00000006   Code   RO         8148    i.__mathlib_flt_infnan  m_wv.l(funder.o)
    0x0800b01e   0x0800b01e   0x00000006   Code   RO         8149    i.__mathlib_flt_infnan2  m_wv.l(funder.o)
    0x0800b024   0x0800b024   0x00000010   Code   RO         8150    i.__mathlib_flt_invalid  m_wv.l(funder.o)
    0x0800b034   0x0800b034   0x00000010   Code   RO         8153    i.__mathlib_flt_underflow  m_wv.l(funder.o)
    0x0800b044   0x0800b044   0x0000000e   Code   RO         8195    i.__scatterload_copy  mc_w.l(handlers.o)
    0x0800b052   0x0800b052   0x00000002   Code   RO         8196    i.__scatterload_null  mc_w.l(handlers.o)
    0x0800b054   0x0800b054   0x0000000e   Code   RO         8197    i.__scatterload_zeroinit  mc_w.l(handlers.o)
    0x0800b062   0x0800b062   0x00000002   PAD
    0x0800b064   0x0800b064   0x0000000c   Code   RO         8185    i.__set_errno       mc_w.l(errno.o)
    0x0800b070   0x0800b070   0x0000016c   Code   RO         5263    i.bmi088_accel_init  bmi088driver.o
    0x0800b1dc   0x0800b1dc   0x00000130   Code   RO         5264    i.bmi088_gyro_init  bmi088driver.o
    0x0800b30c   0x0800b30c   0x00000084   Code   RO         7660    i.canx_send_data    can_bsp.o
    0x0800b390   0x0800b390   0x000002ac   Code   RO         7300    i.chassisL_control_loop  chassisl_task.o
    0x0800b63c   0x0800b63c   0x0000004c   Code   RO         7301    i.chassisL_feedback_update  chassisl_task.o
    0x0800b688   0x0800b688   0x000002f0   Code   RO         7355    i.chassisR_control_loop  chassisr_task.o
    0x0800b978   0x0800b978   0x0000009c   Code   RO         7356    i.chassisR_feedback_update  chassisr_task.o
    0x0800ba14   0x0800ba14   0x0000009a   Code   RO         5404    i.dm4310_fbdata     dm4310_drv.o
    0x0800baae   0x0800baae   0x00000002   PAD
    0x0800bab0   0x0800bab0   0x000000a4   Code   RO         5405    i.dm6215_fbdata     dm4310_drv.o
    0x0800bb54   0x0800bb54   0x00000042   Code   RO         5406    i.enable_motor_mode  dm4310_drv.o
    0x0800bb96   0x0800bb96   0x0000000a   Code   RO         5265    i.fabsf             bmi088driver.o
    0x0800bba0   0x0800bba0   0x00000032   Code   RO         5407    i.float_to_uint     dm4310_drv.o
    0x0800bbd2   0x0800bbd2   0x00000064   Code   RO         5651    i.ground_detectionL  vmc_calc.o
    0x0800bc36   0x0800bc36   0x00000064   Code   RO         5652    i.ground_detectionR  vmc_calc.o
    0x0800bc9a   0x0800bc9a   0x00000006   Code   RO         5408    i.joint_motor_init  dm4310_drv.o
    0x0800bca0   0x0800bca0   0x00000038   Code   RO         5507    i.mahony_init       mahony_filter.o
    0x0800bcd8   0x0800bcd8   0x0000001e   Code   RO         5508    i.mahony_input      mahony_filter.o
    0x0800bcf6   0x0800bcf6   0x0000004a   Code   RO         5509    i.mahony_output     mahony_filter.o
    0x0800bd40   0x0800bd40   0x00000286   Code   RO         5510    i.mahony_update     mahony_filter.o
    0x0800bfc6   0x0800bfc6   0x00000002   PAD
    0x0800bfc8   0x0800bfc8   0x00000070   Code   RO           17    i.main              main.o
    0x0800c038   0x0800c038   0x0000000e   Code   RO         6725    i.makeFreeRtosPriority  cmsis_os.o
    0x0800c046   0x0800c046   0x00000002   PAD
    0x0800c048   0x0800c048   0x0000006c   Code   RO         8118    i.malloc            mc_w.l(malloc.o)
    0x0800c0b4   0x0800c0b4   0x000000f0   Code   RO         5409    i.mit_ctrl          dm4310_drv.o
    0x0800c1a4   0x0800c1a4   0x000000f8   Code   RO         5410    i.mit_ctrl2         dm4310_drv.o
    0x0800c29c   0x0800c29c   0x00000028   Code   RO         7357    i.mySaturate        chassisr_task.o
    0x0800c2c4   0x0800c2c4   0x00000018   Code   RO         6727    i.osDelay           cmsis_os.o
    0x0800c2dc   0x0800c2dc   0x0000000a   Code   RO         6730    i.osKernelStart     cmsis_os.o
    0x0800c2e6   0x0800c2e6   0x00000030   Code   RO         6764    i.osThreadCreate    cmsis_os.o
    0x0800c316   0x0800c316   0x00000002   PAD
    0x0800c318   0x0800c318   0x00000098   Code   RO         6402    i.prvAddCurrentTaskToDelayedList  tasks.o
    0x0800c3b0   0x0800c3b0   0x000000b4   Code   RO         6403    i.prvAddNewTaskToReadyList  tasks.o
    0x0800c464   0x0800c464   0x00000048   Code   RO         6404    i.prvCheckTasksWaitingTermination  tasks.o
    0x0800c4ac   0x0800c4ac   0x00000012   Code   RO         6405    i.prvDeleteTCB      tasks.o
    0x0800c4be   0x0800c4be   0x00000002   PAD
    0x0800c4c0   0x0800c4c0   0x0000007c   Code   RO         7092    i.prvHeapInit       heap_4.o
    0x0800c53c   0x0800c53c   0x00000028   Code   RO         6406    i.prvIdleTask       tasks.o
    0x0800c564   0x0800c564   0x000000b4   Code   RO         6407    i.prvInitialiseNewTask  tasks.o
    0x0800c618   0x0800c618   0x00000068   Code   RO         6408    i.prvInitialiseTaskLists  tasks.o
    0x0800c680   0x0800c680   0x00000068   Code   RO         7093    i.prvInsertBlockIntoFreeList  heap_4.o
    0x0800c6e8   0x0800c6e8   0x00000034   Code   RO         6409    i.prvResetNextTaskUnblockTime  tasks.o
    0x0800c71c   0x0800c71c   0x00000040   Code   RO         7161    i.prvTaskExitError  port.o
    0x0800c75c   0x0800c75c   0x0000005c   Code   RO         7472    i.pstwo_task        ps2_task.o
    0x0800c7b8   0x0800c7b8   0x0000014c   Code   RO         7094    i.pvPortMalloc      heap_4.o
    0x0800c904   0x0800c904   0x0000002c   Code   RO         7162    i.pxPortInitialiseStack  port.o
    0x0800c930   0x0800c930   0x0000003e   Code   RO         8094    i.sqrtf             m_wv.l(sqrtf.o)
    0x0800c96e   0x0800c96e   0x00000034   Code   RO         5413    i.uint_to_float     dm4310_drv.o
    0x0800c9a2   0x0800c9a2   0x00000028   Code   RO         6055    i.uxListRemove      list.o
    0x0800c9ca   0x0800c9ca   0x0000001a   Code   RO         6056    i.vListInitialise   list.o
    0x0800c9e4   0x0800c9e4   0x00000006   Code   RO         6057    i.vListInitialiseItem  list.o
    0x0800c9ea   0x0800c9ea   0x00000034   Code   RO         6058    i.vListInsert       list.o
    0x0800ca1e   0x0800ca1e   0x00000018   Code   RO         6059    i.vListInsertEnd    list.o
    0x0800ca36   0x0800ca36   0x00000002   PAD
    0x0800ca38   0x0800ca38   0x00000054   Code   RO         7164    i.vPortEnterCritical  port.o
    0x0800ca8c   0x0800ca8c   0x0000003c   Code   RO         7165    i.vPortExitCritical  port.o
    0x0800cac8   0x0800cac8   0x000000a4   Code   RO         7095    i.vPortFree         heap_4.o
    0x0800cb6c   0x0800cb6c   0x00000028   Code   RO         7166    i.vPortSetupTimerInterrupt  port.o
    0x0800cb94   0x0800cb94   0x0000005c   Code   RO         6418    i.vTaskDelay        tasks.o
    0x0800cbf0   0x0800cbf0   0x00000088   Code   RO         6431    i.vTaskStartScheduler  tasks.o
    0x0800cc78   0x0800cc78   0x00000010   Code   RO         6433    i.vTaskSuspendAll   tasks.o
    0x0800cc88   0x0800cc88   0x0000008c   Code   RO         6434    i.vTaskSwitchContext  tasks.o
    0x0800cd14   0x0800cd14   0x00000006   Code   RO         5414    i.wheel_motor_init  dm4310_drv.o
    0x0800cd1a   0x0800cd1a   0x00000002   PAD
    0x0800cd1c   0x0800cd1c   0x00000168   Code   RO         7168    i.xPortStartScheduler  port.o
    0x0800ce84   0x0800ce84   0x00000060   Code   RO         6437    i.xTaskCreate       tasks.o
    0x0800cee4   0x0800cee4   0x00000148   Code   RO         6444    i.xTaskIncrementTick  tasks.o
    0x0800d02c   0x0800d02c   0x00000104   Code   RO         6450    i.xTaskResumeAll    tasks.o
    0x0800d130   0x0800d130   0x00000074   Code   RO         7413    i.xvEstimateKF_Init  observe_task.o
    0x0800d1a4   0x0800d1a4   0x00000048   Code   RO         7414    i.xvEstimateKF_Update  observe_task.o
    0x0800d1ec   0x0800d1ec   0x00000078   Data   RO          303    .constdata          freertos.o
    0x0800d264   0x0800d264   0x00000008   Data   RO         1613    .constdata          stm32h7xx_hal_dma.o
    0x0800d26c   0x0800d26c   0x0000005c   Data   RO         3337    .constdata          stm32h7xx_hal_fdcan.o
    0x0800d2c8   0x0800d2c8   0x00000010   Data   RO         5221    .constdata          system_stm32h7xx.o
    0x0800d2d8   0x0800d2d8   0x0000000c   Data   RO         7303    .constdata          chassisl_task.o
    0x0800d2e4   0x0800d2e4   0x00000024   Data   RO         7359    .constdata          chassisr_task.o
    0x0800d308   0x0800d308   0x00000010   Data   RO         7416    .constdata          observe_task.o
    0x0800d318   0x0800d318   0x00000054   Data   RO          304    .conststring        freertos.o
    0x0800d36c   0x0800d36c   0x00000804   Data   RO         8036    .rodata.sinTable_f32  arm_cortexM7lfdp_math.lib(arm_common_tables.o)
    0x0800db70   0x0800db70   0x00000020   Data   RO         8193    Region$$Table       anon$$obj.o


    Execution Region RW_IRAM1 (Exec base: 0x20000000, Load base: 0x0800db90, Size: 0x00000000, Max: 0x00020000, ABSOLUTE)

    **** No section assigned to this execution region ****


    Execution Region RW_IRAM2 (Exec base: 0x24000000, Load base: 0x0800db90, Size: 0x000091d0, Max: 0x00050000, ABSOLUTE, COMPRESSED[0x00000188])

    Exec Addr    Load Addr    Size         Type   Attr      Idx    E Section Name        Object

    0x24000000   COMPRESSED   0x00000018   Data   RW          305    .data               freertos.o
    0x24000018   COMPRESSED   0x00000004   Data   RW          428    .data               fdcan.o
    0x2400001c   COMPRESSED   0x00000009   Data   RW         2345    .data               stm32h7xx_hal.o
    0x24000025   COMPRESSED   0x00000003   PAD
    0x24000028   COMPRESSED   0x00000008   Data   RW         5222    .data               system_stm32h7xx.o
    0x24000030   COMPRESSED   0x0000004a   Data   RW         5267    .data               bmi088driver.o
    0x2400007a   COMPRESSED   0x00000002   PAD
    0x2400007c   COMPRESSED   0x00000004   Data   RW         5352    .data               bmi088middleware.o
    0x24000080   COMPRESSED   0x00000010   Data   RW         5653    .data               vmc_calc.o
    0x24000090   COMPRESSED   0x00000004   Data   RW         5723    .data               kalman_filter.o
    0x24000094   COMPRESSED   0x0000003c   Data   RW         6453    .data               tasks.o
    0x240000d0   COMPRESSED   0x00000020   Data   RW         7101    .data               heap_4.o
    0x240000f0   COMPRESSED   0x0000000c   Data   RW         7169    .data               port.o
    0x240000fc   COMPRESSED   0x0000001c   Data   RW         7244    .data               ins_task.o
    0x24000118   COMPRESSED   0x00000035   Data   RW         7304    .data               chassisl_task.o
    0x2400014d   COMPRESSED   0x00000003   PAD
    0x24000150   COMPRESSED   0x000000f5   Data   RW         7360    .data               chassisr_task.o
    0x24000245   COMPRESSED   0x00000003   PAD
    0x24000248   COMPRESSED   0x00000060   Data   RW         7417    .data               observe_task.o
    0x240002a8   COMPRESSED   0x00000029   Data   RW         7474    .data               ps2_task.o
    0x240002d1   COMPRESSED   0x00000007   PAD
    0x240002d8   COMPRESSED   0x00000040   Data   RW         7588    .data               bsp_dwt.o
    0x24000318   COMPRESSED   0x00000004   Data   RW         8181    .data               mc_w.l(mvars.o)
    0x2400031c   COMPRESSED   0x00000004   Data   RW         8182    .data               mc_w.l(mvars.o)
    0x24000320   COMPRESSED   0x00000004   Data   RW         8186    .data               mc_w.l(errno.o)
    0x24000324        -       0x000001e0   Zero   RW          427    .bss                fdcan.o
    0x24000504        -       0x00000178   Zero   RW          480    .bss                spi.o
    0x2400067c        -       0x0000004c   Zero   RW          523    .bss                tim.o
    0x240006c8        -       0x0000004c   Zero   RW          694    .bss                stm32h7xx_hal_timebase_tim.o
    0x24000714        -       0x0000004c   Zero   RW         5266    .bss                bmi088driver.o
    0x24000760        -       0x000000f0   Zero   RW         6452    .bss                tasks.o
    0x24000850        -       0x00007800   Zero   RW         7100    .bss                heap_4.o
    0x24008050        -       0x00000130   Zero   RW         7243    .bss                ins_task.o
    0x24008180        -       0x000000f4   Zero   RW         7302    .bss                chassisl_task.o
    0x24008274        -       0x00000324   Zero   RW         7358    .bss                chassisr_task.o
    0x24008598        -       0x00000150   Zero   RW         7415    .bss                observe_task.o
    0x240086e8        -       0x00000015   Zero   RW         7473    .bss                ps2_task.o
    0x240086fd   COMPRESSED   0x00000003   PAD
    0x24008700        -       0x000000d0   Zero   RW         7661    .bss                can_bsp.o
    0x240087d0        -       0x00000200   Zero   RW            2    HEAP                startup_stm32h723xx.o
    0x240089d0        -       0x00000800   Zero   RW            1    STACK               startup_stm32h723xx.o


==============================================================================

Image component sizes


      Code (inc. data)   RO Data    RW Data    ZI Data      Debug   Object Name

      3420        210          0         74         76      16420   bmi088driver.o
       116         30          0          4          0       3872   bmi088middleware.o
       580        112          0         64          0       5178   bsp_dwt.o
       572         40          0          0        208       4796   can_bsp.o
      1312         92         12         53        244       5820   chassisl_task.o
      1552        132         36        245        804       6096   chassisr_task.o
        96          0          0          0          0      13323   cmsis_os.o
       986         34          0          0          0       9409   dm4310_drv.o
        68          4          0          0          0       1018   dma.o
         0          0          0          0          0       5316   event_groups.o
       820         54          0          4        480       3793   fdcan.o
       230         30        204         24          0      10440   freertos.o
       372         16          0          0          0       1379   gpio.o
       724         74          0         32      30720       7983   heap_4.o
      1544         84          0         28        304       5226   ins_task.o
      3164         28          0          4          0       9999   kalman_filter.o
       148          0          0          0          0       4070   list.o
      1108         16          0          0          0       6413   mahony_filter.o
       388         14          0          0          0    1245286   main.o
       608         80         16         96        336       3633   observe_task.o
       592          8          0          0          0       2802   pid.o
       894         78          0         12          0      11948   port.o
      1568        178          0         41         21      10416   ps2_task.o
         0          0          0          0          0       2169   quaternionekf.o
       476         38          0          0        376       2379   spi.o
        36          8        716          0       2560        892   startup_stm32h723xx.o
       172         34          0          9          0      23438   stm32h7xx_hal.o
       258         22          0          0          0      39662   stm32h7xx_hal_cortex.o
      5786        118          8          0          0      10243   stm32h7xx_hal_dma.o
      3586         52         92          0          0      24408   stm32h7xx_hal_fdcan.o
       524         50          0          0          0       3159   stm32h7xx_hal_gpio.o
        48          6          0          0          0       1070   stm32h7xx_hal_msp.o
        96          6          0          0          0        837   stm32h7xx_hal_pwr_ex.o
      3460        110          0          0          0       7470   stm32h7xx_hal_rcc.o
      3984         54          0          0          0       4944   stm32h7xx_hal_rcc_ex.o
      2206         18          0          0          0      11009   stm32h7xx_hal_spi.o
      2338        234          0          0          0      13969   stm32h7xx_hal_tim.o
       234         38          0          0          0       3628   stm32h7xx_hal_tim_ex.o
       160         18          0          0         76       1847   stm32h7xx_hal_timebase_tim.o
       134         42          0          0          0       7165   stm32h7xx_it.o
       224         32         16          8          0       1590   system_stm32h7xx.o
      1866        268          0         60        240      19941   tasks.o
       268         32          0          0         76       2759   tim.o
         0          0          0          0          0       1040   user_lib.o
      2544         46          0         16          0       6994   vmc_calc.o

    ----------------------------------------------------------------------
     49306       2540       1132        792      36524    1585249   Object Totals
         0          0         32          0          0          0   (incl. Generated)
        44          0          0         18          3          0   (incl. Padding)

    ----------------------------------------------------------------------

      Code (inc. data)   RO Data    RW Data    ZI Data      Debug   Library Member Name

         0          0       2052          0          0       4961   arm_common_tables.o
       144         12          0          0          0       1111   arm_cos_f32.o
       190          0          0          0          0       1836   arm_mat_add_f32.o
         8          0          0          0          0        841   arm_mat_init_f32.o
       716          4          0          0          0       3547   arm_mat_inverse_f32.o
       304          4          0          0          0       2362   arm_mat_mult_f32.o
       190          0          0          0          0       1834   arm_mat_sub_f32.o
       180          0          0          0          0       1862   arm_mat_trans_f32.o
       140         12          0          0          0       1098   arm_sin_f32.o
       312         54          0          0          0        176   asinf.o
       692         98          0          0          0        208   atan2f.o
        38          0          0          0          0        116   fpclassifyf.o
        44         12          0          0          0        464   funder.o
       102          0          0          0          0        140   sqrt.o
       120          0          0          0          0        272   sqrtf.o
        86          0          0          0          0          0   __dczerorl2.o
         0          0          0          0          0          0   entry.o
         0          0          0          0          0          0   entry10a.o
         0          0          0          0          0          0   entry11a.o
         4          0          0          0          0          0   entry12b.o
         8          4          0          0          0          0   entry2.o
         4          0          0          0          0          0   entry5.o
         0          0          0          0          0          0   entry7b.o
         0          0          0          0          0          0   entry8b.o
         8          4          0          0          0          0   entry9a.o
        12          6          0          4          0         68   errno.o
        30          0          0          0          0          0   handlers.o
        36          8          0          0          0         68   init.o
         0          0          0          0          0          0   iusefp.o
        30          0          0          0          0         68   llshl.o
        32          0          0          0          0         68   llushr.o
       108         16          0          0          0         84   malloc.o
        36          0          0          0          0         68   memcpya.o
        36          0          0          0          0        108   memseta.o
         0          0          0          8          0          0   mvars.o
        98          0          0          0          0         92   uldiv.o

    ----------------------------------------------------------------------
      3718        234       2052         12          0      21452   Library Totals
        10          0          0          0          0          0   (incl. Padding)

    ----------------------------------------------------------------------

      Code (inc. data)   RO Data    RW Data    ZI Data      Debug   Library Name

      1872         32       2052          0          0      19452   arm_cortexM7lfdp_math.lib
      1308        164          0          0          0       1376   m_wv.l
       528         38          0         12          0        624   mc_w.l

    ----------------------------------------------------------------------
      3718        234       2052         12          0      21452   Library Totals

    ----------------------------------------------------------------------

==============================================================================


      Code (inc. data)   RO Data    RW Data    ZI Data      Debug   

     53024       2774       3184        804      36524    1582465   Grand Totals
     53024       2774       3184        392      36524    1582465   ELF Image Totals (compressed)
     53024       2774       3184        392          0          0   ROM Totals

==============================================================================

    Total RO  Size (Code + RO Data)                56208 (  54.89kB)
    Total RW  Size (RW Data + ZI Data)             37328 (  36.45kB)
    Total ROM Size (Code + RO Data + RW Data)      56600 (  55.27kB)

==============================================================================

