:020000040800F2
:10000000D0910024A5030008658C0008D178000871
:10001000618C00089312000831A200080000000063
:10002000000000000000000000000000E5020008E1
:10003000C52200080000000041030008119C0008D0
:10004000BF030008BF030008BF030008BF03000888
:10005000BF030008BF030008BF030008BF03000878
:10006000BF030008BF030008BF030008691D0008A4
:10007000791D0008BF030008BF030008BF03000884
:10008000BF030008BF030008BF030008892400085D
:10009000F9240008BF030008BF030008BF030008DD
:1000A000BF030008BF030008BF030008BF03000828
:1000B000D99D0008BF030008BF030008BF03000864
:1000C000BF030008BF030008BF030008BF03000808
:1000D000A99A0008BF030008BF030008BF03000877
:1000E000BF030008BF03000800000000BF030008B2
:1000F000BF030008BF030008BF030008BF030008D8
:10010000BF030008BF030008BF030008BF030008C7
:10011000BF030008BF030008BF030008BF030008B7
:10012000BF030008BF030008BF030008BF030008A7
:10013000BF030008BF030008BF030008BF03000897
:1001400000000000000000000000000000000000AF
:10015000BF030008BF030008BF030008BF03000877
:10016000BF030008BF030008BF030008BF03000867
:10017000BF030008BF030008BF0300080000000021
:10018000BF030008BF030008BF030008BF03000847
:10019000BF030008BF030008BF030008BF03000837
:1001A000BF030008BF030008BF03000800000000F1
:1001B000BF030008BF030008BF030008BF03000817
:1001C000BF030008BF03000800000000000000009B
:1001D0000000000000000000BF0300080000000055
:1001E000000000000000000000000000000000000F
:1001F0000000000000000000BF030008BF0300086B
:10020000BF030008BF03000800000000BF03000890
:10021000BF030008BF030008BF030008BF030008B6
:10022000BF03000800000000BF030008000000003A
:10023000BF030008BF03000800000000BF03000860
:10024000BF030008BF030008BF030008BF03000886
:10025000BF030008BF030008BF030008BF03000876
:10026000BF030008BF030008BF030008BF03000866
:10027000BF030008BF030008BF0300080000000020
:10028000BF030008BF030008BF030008BF03000846
:1002900000000000BF030008BF03000800000000CA
:1002A00000000000BF030008BF030008BF030008F0
:1002B000BF030008BF030008BF03000809250008AA
:1002C000BF030008BF030008BF030008DFF810D019
:1002D00000F0EEF800480047C9BF0008AFF3008007
:1002E000D09100242C4B19680868B0E8F04F80F3D7
:1002F0000988BFF36F8F4FF0000080F311887047BB
:100300000000000008480068006880F308884FF08B
:10031000000080F3148862B661B6BFF34F8FBFF35D
:100320006F8F00DF00BF00BF08ED00E0DFF80C00BA
:10033000016841F470010160704700BF88ED00E082
:10034000EFF30980BFF36F8F134B1A681EF0100F85
:1003500008BF20ED108A20E9F04F106009B44FF07B
:10036000500080F31188BFF34F8FBFF36F8F0CF0F5
:100370008BFC4FF0000080F3118809BC19680868F5
:10038000B0E8F04F1EF0100F08BFB0EC108A80F3F9
:100390000988BFF36F8F704794000024EFF3058046
:1003A000704700000648804706480047FEE7FEE722
:1003B000FEE7FEE7FEE7FEE7FEE7FEE7FEE7FEE715
:1003C000F99C0008CD0200082DE9F05F05460020E9
:1003D00092469B4688460646814640241BE02846B6
:1003E00041464746224600F053F853465A46C01A43
:1003F000914110D311461846224600F03AF82D1AC2
:1004000067EB01084F4622460120002100F031F839
:1004100017EB00094E41201EA4F10104DFDC484621
:1004200031462A464346BDE8F09F40EA01039B0758
:1004300003D009E008C9121F08C0042AFAD203E059
:1004400011F8013B00F8013B521EF9D27047D2B2BD
:1004500001E000F8012B491EFBD270470022F6E7AD
:1004600010B513460A4604461946FFF7F0FF20462A
:1004700010BD202A04DB203A00FA02F10020704768
:100480009140C2F1200320FA03F3194390407047D2
:10049000202A04DB203A21FA02F00021704721FAD9
:1004A00002F3D040C2F12002914008431946704740
:1004B000064C074D06E0E06840F0010394E80700B1
:1004C00098471034AC42F6D3FFF704FF70DB000806
:1004D00090DB000870B58C1810F8015B15F007036D
:1004E00001D110F8013B2A1106D110F8012B03E0CD
:1004F00010F8016B01F8016B5B1EF9D12B0705D4D5
:100500000023521E0DD401F8013BFAE710F8013B1D
:10051000CB1A921C03E013F8015B01F8015B521E39
:10052000F9D5A142D8D3002070BD00009FED201A5C
:10053000B5EE002A00EE012A9FED1E1ABDEEC20A9A
:10054000B5EEC02AF1EE10FA10EE100AB8BF01386D
:1005500000EE100A0020B8EEC00A32EE400A9FED0D
:10056000162A20EE010ABCEEC01A11EE101A30EE67
:10057000021AB0EB512F18BF002102EE101A4DF2F3
:100580006C3000FE010AC0F60000B8EE422A00EB13
:10059000810090ED011A30EE420AB7EE002A32EEE9
:1005A000402A20EE010A90ED001A02EE010A70477F
:1005B00083F9223E00000044000000C4B0B5038867
:1005C0000D88AB4256D145884C88A54252D114883B
:1005D000A3424FD15488A5424CD105FB03FC43688C
:1005E00000254968B5EB9C0F506831D04FEA9C025A
:1005F000524200BF93ED000A91ED001A30EE010A5D
:1006000003F1100E01F1100400F1100580ED000A55
:10061000013293ED010A91ED011A30EE010A80EDED
:10062000010A93ED020A91ED021A30EE010A80ED03
:10063000020A93ED030A91ED031A30EE010A7346A4
:10064000214680ED030A2846D4D121462846734628
:100650001CF003020CD05242B3EC010AB1EC011AB7
:1006600030EE010A051D013280ED000A2846F3D163
:10067000002000E0FD2040B2B0BD01804280436018
:10068000704700002DE9F04F8BB0B0F800B0B0F823
:1006900002E0F34540F051810B88FD229B4540F07C
:1006A0004D814F88BB4240F04981BBF1000F436848
:1006B00000F029816FF003004C6800EB8B08CDF847
:1006C0001CE0002700934FF07E5906945E462046BA
:1006D000BBEB060009D0B9002046FFF7BFFE0020A3
:1006E0000130874204F10404FAD104F1040AC4F889
:1006F0000090751E10D0A8EB87015046FFF7AEFEA4
:10070000012054460130864204F10404FAD1002D40
:1007100007F101072E46DBD1BBF1000F009BDDF88E
:100720001CE000F0F0800420CDF814B000EB8E0047
:1007300001901846ABF1010603EB8E044FEA8E02DE
:100740001D1DCEF10001002308919FED800A774620
:10075000814600BF5B4580F0F58003FB0EF0B0EEF4
:10076000403A09EB80010A9191ED001A0699B0EE2A
:10077000414A01EB800009902146304606E000BF67
:1007800091ED004A0138B0EE423A1144B5EEC04A4C
:10079000F1EE10FA0ADDB4EEC34AB0EE442AF1EEEF
:1007A00010FAD8BFB0EE432A09E000BFB1EE442AE8
:1007B000B4EEC23AF1EE10FA01DBB0EE432A0028A3
:1007C000DED1B5EE402AF1EE10FA00F0BB80B0EEBB
:1007D000C13AB4EE423AF1EE10FA1CBFD84310EB26
:1007E0000B0004D0002000BF01308642FCD1B5EEE2
:1007F000401AF1EE10FA00F0A580CDE90346AEEB09
:10080000030C0A99BCF1010F4FF07E5008600AD02A
:100810000120294691ED002A82EE012A013087420B
:10082000A1EC012AF6D1DDE9080100BF91ED002A13
:1008300082EE012A0C1D013081ED002A2146F5D1FE
:10084000ACF1010B05994FF00008DDF818A04846FF
:10085000CDF80890984505D100EB8C060AEB8E0A7E
:1008600033E000BF90ED001A0A9CB0EE413ABBF1B4
:10087000000F94ED002A01EE423A00F1040680EDEB
:10088000003A15D00120002406EB040905EB040E04
:1008900099ED002A9EED003A01EE432A013087428D
:1008A00004F1040489ED002AEED12644DDF81CE0B1
:1008B000DDE908049AED002A94ED003A01EE432A9E
:1008C00004340130AAEC012AF4D106EB830001398B
:1008D00008F10108BED1DDF80890013F049E09F13E
:1008E0000409039C03F101030198A6F101060444E5
:1008F000DDF814B005447FF42DAFB5EE401A009B2F
:10090000F1EE10FA20D10EFB0BF1002000294FF080
:1009100000020BD093ED000AB5EE400AF1EE10FA9A
:1009200004D101328A4203F10403F3D38A4208BF9F
:100930006FF004000BB0BDE8F08FFD2250B20BB099
:10094000BDE8F08FFB22F9E70022F7E70000000086
:100950002DE9F04F88B0B0F802C00B889C4540F0FC
:100960008880B0F800E013889E4540F08280B1F89E
:100970000290538899457CD14FEA9C04476804FB58
:1009800009F049680CF00305029101EB0010019099
:1009900000202CF00303A0EB9C0107EB83060791DA
:1009A0004FEA89035168C5F1000A00919FED330AAF
:1009B000CDE9039CCDE9050E0099CE4601EB8008F8
:1009C000DDE901BC002CB0EE401AE146384627D0E4
:1009D000624607993846B0EE401A00BF92ED002AF1
:1009E00090ED003A03EE021A1A4490ED014A92ED9E
:1009F000002A04EE021A1A4490ED025A92ED002ADF
:100A000005EE021A1A4490ED036A92ED002A06EEF2
:100A1000021A013100F110001A44DFD1D9463046E4
:100A200055B1514690ED002A99ED003A02EE031AB5
:100A3000043001319944F5D108F1040088ED001A21
:100A4000BEF1010E0CF1040C0BF1040B8046B9D180
:100A5000DDF80C900598DDF810C04844DDF818E08A
:100A600007EB8C07BEF1010E06EB8C06A2D100202D
:100A700000E0FD2040B208B0BDE8F08F00000000AB
:100A8000B0B503880D88AB4256D145884C88A54245
:100A900052D11488A3424FD15488A5424CD105FBB2
:100AA00003FC436800254968B5EB9C0F506831D0C2
:100AB0004FEA9C02524200BF93ED000A91ED001AEA
:100AC00030EE410A03F1100E01F1100400F110059F
:100AD00080ED000A013293ED010A91ED011A30EE2A
:100AE000410A80ED010A93ED020A91ED021A30EEFF
:100AF000410A80ED020A93ED030A91ED031A30EEEC
:100B0000410A7346214680ED030A2846D4D1214686
:100B1000284673461CF003020CD05242B3EC010A83
:100B2000B1EC011A30EE410A051D013280ED000AD8
:100B30002846F3D1002000E0FD2040B2B0BD000007
:100B40002DE9F04F83B002884B889A424DD14488FA
:100B50000B889C4249D10023D1F804804FEA940CC1
:100B6000416804F0030ECDF80080A3EB94040294D6
:100B7000140196000194CEF1000B4046BCF1000F29
:100B80001ED04746029C00BF08683D463860374487
:100B9000486807EB0609A85101F11000D1F808A038
:100BA000013447F806A009EB0607C968374449F83D
:100BB00006100146E8D101996C18014603E000BF18
:100BC000009800EB8304BEF1000F07D05D4600BF24
:100BD00051F8040B013520603444F9D10133013A56
:100BE00008F10408CAD1002000E0FD2040B203B0A3
:100BF000BDE8F08F9FED1F1A20EE010A9FED1F2A1E
:100C0000BDEEC01AB5EEC00AF1EE10FA11EE100AF0
:100C1000B8BF013801EE100A0020B8EEC11A30EE5C
:100C2000410A9FED151A20EE010ABCEEC01A11EE22
:100C3000101A30EE021AB0EB512F18BF002102EE4D
:100C4000101A4DF26C3000FE010AC0F60000B8EE3A
:100C5000422A00EB810090ED011A30EE420AB7EE15
:100C6000002A32EE402A20EE010A90ED001A02EE30
:100C7000010A704783F9223E00000044000000C4CE
:100C800010B501221146024803F086FF10BD000096
:100C90000008025810B500220121024803F07CFF31
:100CA00010BD00000008025810B5012208210248BA
:100CB00003F072FF10BD00000008025810B50022BA
:100CC0000821024803F068FF10BD00000008025828
:100CD00010B50446FFF7DEFF922000F011FA06225D
:100CE000C249122000F0ECF9FFF7CAFFC0480078B3
:100CF000002855D0BD484078000200B2BB490978B1
:100D00000843BC49088094ED0C0A0846B0F900007D
:100D100000EE900AF8EEE00AB74890ED001A60EE97
:100D2000810A94ED081A10EE810A84ED000AAF489A
:100D3000C078000200B2AD4989780843AD49088007
:100D400094ED0D0A0846B0F9000000EE900AF8EEA6
:100D5000E00AA94890ED001A60EE810A94ED081AA5
:100D600010EE810A84ED010AA0484079000200B229
:100D70009E49097908439F4908800846B0F9000058
:100D800000EE100AB8EEC00A9B48D0ED000A20EE33
:100D9000200AD4ED080A20EE200A84ED020A50E071
:100DA00092484078000200B290490978084391497E
:100DB00008800846B0F9000000EE100AB8EEC00A3C
:100DC0008D48D0ED000A20EE200AD4ED080A20EE6E
:100DD000200A84ED000A8548C078000200B28349E9
:100DE00089780843834908800846B0F9000000EE7E
:100DF000100AB8EEC00A8048D0ED000A20EE200AA2
:100E0000D4ED080A20EE200A84ED010A77484079E3
:100E1000000200B2754909790843764908800846FE
:100E2000B0F9000000EE100AB8EEC00A7248D0ED2A
:100E3000000A20EE200AD4ED080A20EE200A84EDF4
:100E4000020AFFF73BFF08226849002000F038F94A
:100E5000FFF72AFF654800780F284FD164480078D3
:100E6000F0B36248C078000200B260498978084354
:100E70006049088094ED090A0846B0F9000000EEC8
:100E8000900AF8EEE00A5D4890ED001A10EE810A33
:100E900084ED030A55484079000200B253490979AC
:100EA00008435449088094ED0A0A0846B0F9000046
:100EB00000EE900AF8EEE00A504890ED001A10EEAD
:100EC000810A84ED040A4948C079000200B247490A
:100ED000897908434749088094ED0B0A084600E0E9
:100EE0000DE0B0F9000000EE900AF8EEE00A434889
:100EF00090ED001A10EE810A84ED050A44E03B48AB
:100F0000C078000200B2394989780843394908801D
:100F10000846B0F9000000EE100AB8EEC00A3748E3
:100F2000D0ED000A20EE200A84ED030A2F48407914
:100F3000000200B22D49097908432E49088008466D
:100F4000B0F9000000EE100AB8EEC00A2B48D0ED50
:100F5000000A20EE200A84ED040A2448C079000229
:100F600000B2224989790843224908800846B0F92D
:100F7000000000EE100AB8EEC00A2048D0ED000ACA
:100F800020EE200A84ED050AFFF784FEA22000F07F
:100F9000B7F802221549222000F092F8FFF770FE00
:100FA00012480078C0001149497840EA611011499F
:100FB00008800846B0F90000B0F5806F05DB0846F0
:100FC0000088A0F5006000B208800A48B0F900006F
:100FD00000EE100AF8EEC00AB4EE001AB3EE070AEB
:100FE00000EE810A84ED070A10BD000070000024A5
:100FF0004000002478000024300000243400002445
:1010000070B504460D46224804600020214908704E
:101010000AF02EF81F49097808431E4908700AF0A3
:10102000DDF81C49097808431A4908701DB11A48AF
:1010300000F032F928E09FED190A174880ED090AFF
:101040009FED170A80ED0A0A9FED160A80ED0B0A44
:101050009FED150A80ED0C0A9FED140A80ED0D0A34
:101060009FED130A80ED0E0A9FED120A80ED0F0A24
:1010700090ED0F0ADFED100A80EE801A80ED081A5D
:101080009FED0E0A80ED060A0248007870BD000050
:101090007C0000243A00002420070024F0A032BA8B
:1010A000B9F3AFBAB1EFBBBA0B6F993E2A98933D33
:1010B000000000007A841D41C3F51C41000020425D
:1010C00070B506460C46154646F0800000F018F84C
:1010D00006E0552000F014F82070641C681EC5B2AC
:1010E000002DF6D170BD70B504460D4644F0800069
:1010F00000F006F8552000F003F8287070BD0000DD
:1011000001B582B04FF47A70012301AA02A90090C0
:101110000348006805F08EFE9DF804000EBD000037
:101120007C00002470B505460C462846FFF7E8FF12
:101130002046FFF7E5FF70BDD2ED020A92ED021ADC
:10114000B6EE000A00EEC10AD2ED030A92ED031AD0
:1011500000EEC10AD0ED000A20EE200AD2ED010A0D
:1011600092ED021A60EE810A92ED001AD2ED031A96
:1011700041EE610A90ED011A00EE810AD2ED010AFA
:1011800092ED031A60EE810A92ED001AD2ED021A76
:1011900041EE210A90ED021A00EE810AF0EE000AFB
:1011A00020EE200A81ED000A92ED010AD2ED020A3A
:1011B00020EE200AD2ED000A92ED031A00EE810A19
:1011C000D0ED000A60EE200A92ED011AD2ED011A6C
:1011D000B6EE000A01EE610AD2ED031A92ED032A7F
:1011E000B0EE401A01EEC21AD0ED011AB0EE600A5C
:1011F00001EE210AD2ED020A92ED031A60EE810A95
:1012000092ED001AD2ED011A41EE610A90ED021A38
:1012100000EE810AF0EE000A20EE200A81ED010ABC
:1012200092ED010AD2ED030A20EE200AD2ED000A67
:1012300092ED021A00EEC10AD0ED000A20EE200A5B
:10124000D2ED020A92ED031A60EE810A92ED001AC5
:10125000D2ED011A41EE210A90ED011A00EE810A49
:1012600092ED011AD2ED011AF6EE000A41EE610A82
:1012700092ED021AD2ED021A41EE610A90ED021AC5
:1012800000EE810AF0EE000A20EE200A81ED020A4B
:10129000704700BFFEE7000070B52DED048B88B0ED
:1012A000044600200690079000F046FFFE4880EDBF
:1012B000000A00BF00F040FFFB48D0ED000A30EE0E
:1012C000600AF2EE040AB4EEE00AF1EE10FA14DD60
:1012D0009FEDF60A84ED090A9FEDF50A84ED0A0AEE
:1012E0009FEDF40A84ED0B0A9FEDF30A84ED0F0ADB
:1012F0009FEDF20A84ED060A5FE29FEDF10A00F02D
:10130000D7FE9FEDF00A84ED0F0A9FEDEE0A84ED03
:10131000090A9FEDEC0A84ED0A0A9FEDEA0A84EDC2
:101320000B0A002673E1FFF7B5FC9220FFF7E8FEF9
:10133000062206A91220FFF7C3FEFFF7A1FC9DF8C5
:101340001900000200B29DF8181040EA010500EEF5
:10135000105AB8EEC00ADC48D0ED000A20EE200A90
:1013600084ED000A9DF81B00000200B29DF81A10DF
:1013700040EA010500EE105AB8EEC00AD248D0ED9E
:10138000000A20EE200A84ED010A9DF81D000002EB
:1013900000B29DF81C1040EA010500EE105AB8EEAC
:1013A000C00AC948D0ED000A20EE200A84ED020AE6
:1013B000D4ED000A60EEA00A94ED011AD4ED011AF2
:1013C00041EE210A94ED021AD4ED021A41EE210AEF
:1013D000B0EE600A09F003FEB0EE408A94ED0F0A09
:1013E00030EE080A84ED0F0AFFF768FC082206A910
:1013F0000020FFF765FEFFF757FC9DF818000F2847
:1014000050D19DF81B00000200B29DF81A1040EA6E
:10141000010500EE105AB8EEC00AAC48D0ED000A43
:1014200020EE200A84ED030A94ED090AD4ED030AA4
:1014300030EE200A84ED090A9DF81D00000200B27A
:101440009DF81C1040EA010500EE105AB8EEC00AE3
:101450009E48D0ED000A20EE200A84ED040A94EDA7
:101460000A0AD4ED040A30EE200A84ED0A0A9DF837
:101470001F00000200B29DF81E1040EA010500EEB8
:10148000105AB8EEC00A9148D0ED000A20EE200AAA
:1014900084ED050A94ED0B0AD4ED050A30EE200A1E
:1014A00084ED0B0A06BBF0EE488AB0EE489A0020A5
:1014B00017E004F10C0101EB800191ED000A03A992
:1014C00001EB800181ED000A04F10C0101EB8001C8
:1014D00091ED000A694601EB800181ED000A411C93
:1014E000C8B20328E5DB49E0B4EEE88AF1EE10FA71
:1014F00001DDF0EE488AB4EEC98AF1EE10FA01D2AD
:10150000B0EE489A002037E004F10C0101EB8001B5
:1015100091ED000A03A901EB8001D1ED000AB4EEC0
:10152000E00AF1EE10FA0ADD04F10C0101EB800192
:1015300091ED000A03A901EB800181ED000A04F19D
:101540000C0101EB800191ED000A694601EB80017D
:10155000D1ED000AB4EEE00AF1EE10FA0AD204F17D
:101560000C0101EB800191ED000A694601EB80015D
:1015700081ED000A411CC8B20328C5DB38EEC90A58
:10158000534880ED000A002012E003A901EB80011E
:1015900091ED000A694601EB8001D1ED000A30EEC1
:1015A000600A4C4901EB800181ED000A411CC8B280
:1015B0000328EADB464890ED000AF6EE000AB4EE96
:1015C000E00AF1EE10FA1BDC424890ED000ADFED74
:1015D000420AB4EEE00AF1EE10FA11DC90ED010AD5
:1015E000DFED3D0AB4EEE00AF1EE10FA08DC90ED12
:1015F000020ADFED390AB4EEE00AF1EE10FA00DD7E
:101600000AE09FED360A00F053FD701C86B23448A4
:1016100000888642FFF687AE00BFD4ED0F0A30483F
:10162000008800EE100AB8EE400A80EE801A84EDC1
:101630000F1A002015E004F1240101EB8001D1ED27
:10164000000A2749098800EE101AB8EE400A80EE19
:10165000801A04F1240101EB800181ED001A411C84
:10166000C8B20328E7DBFFF715FBA220FFF748FD10
:10167000022206A92220FFF723FDFFF701FB9DF8B8
:101680001800C0009DF8191040EA6115B5F5806F8B
:1016900002DBA5F5006005B200EE105AF8EEC00AB4
:1016A000B4EE001A1EE0000068000024F0A032BA78
:1016B000B9F3AFBAB1EFBBBA7A841D410000204242
:1016C0000AD7A33B000000003000002434000024AF
:1016D0003C000024140700249A99193E6F12033A23
:1016E0006C000024B3EE070A00EE810A84ED060ABE
:1016F0007C480088401C00B27A4908807A4890ED06
:10170000000AF6EE000AB4EEE00AF1EE10FA3FF736
:10171000D1ADD4ED0F0A9FED751A70EEC10AB0EE8F
:10172000600A0AF038FAF6EE000AB4EEE00AF1EECA
:1017300010FAECDC6E4890ED000A5FED190AB4EE89
:10174000E00AF1EE10FAE2DC90ED010A5FED1E0A0C
:10175000B4EEE00AF1EE10FAD9DC90ED020A5FED8A
:10176000220AB4EEE00AF1EE10FAD0DCD4ED090A58
:10177000B0EE600A0AF00FFADFED5E0AB4EEE00A9E
:10178000F1EE10FAC3DCD4ED0A0AB0EE600A0AF0FA
:1017900002FADFED580AB4EEE00AF1EE10FAB6DC18
:1017A000D4ED0B0AB0EE600A0AF0F5F9DFED510A4C
:1017B000B4EEE00AF1EE10FAA9DC00BF94ED0F0AD6
:1017C000DFED4D0A80EE801A84ED081A002680E0D5
:1017D000FFF760FA9220FFF793FC062206A9122079
:1017E000FFF76EFCFFF74CFA9DF81900000200B2FB
:1017F0009DF8181040EA010500EE105AB8EEC00A34
:101800003E48D0ED000A20EE200AD4ED080A20EE72
:10181000200A84ED000A94ED0C0ADFED390A20EE6F
:10182000200AD4ED000A9FED371A00EE810A84EDFC
:101830000C0A9DF81B00000200B29DF81A1040EA45
:10184000010500EE105AB8EEC00A2C48D0ED000A8F
:1018500020EE200AD4ED080A20EE200A84ED010AC9
:1018600094ED0D0ADFED260A20EE200AD4ED010AE0
:101870009FED241A00EE810A84ED0D0A9DF81D00EB
:10188000000200B29DF81C1040EA010500EE105A5B
:10189000B8EEC00A1948D0ED000A20EE200AD4EDB7
:1018A000080A20EE200A84ED020A94ED0E0ADFED0C
:1018B000140A20EE200AD4ED020A9FED121A00EE5F
:1018C000810A84ED0E0A1FED7B0A00F0F1FB701C0B
:1018D00086B20D4800888642FFF67AAF08B0BDECAC
:1018E000048B70BD420000243C000024CDCC1C4180
:1018F000140700240AD7233CC3F51C413000002400
:10190000CDCC4C3FCDCC4C3E6E00002400BF00F04F
:101910005DF8FCE72DE9F04104460D46164600222D
:10192000062104F170000AF0B8F90022082104F140
:10193000A8000AF0B2F90022012104F58E700BF024
:10194000E9F9284609F0D6F8DFED1C0A9FED1C0ADC
:101950001C4A0021304607F055FB00270AE0B4F886
:10196000A820AC20015B18480AF0F4F801200AF026
:10197000A9FC7F1C0A2FF2DB00270AE0B4F87020D4
:101980007420015B10480AF0E5F801200AF09AFC87
:101990007F1C0A2FF2DB00270BE04FF48E70025BF6
:1019A000B4F8241108480AF0D5F801200AF08AFC9E
:1019B0007F1C0A2FF1DBBDE8F08100000000000071
:1019C0000000B442D8D20008C403002408B502E0E5
:1019D00001200AF077FC514890F890000028F7D0D9
:1019E0004F4A50495048FFF795FF96E04B4A4D4902
:1019F0004D4809F023FE4A484C4B484A494900905B
:101A0000494809F0C5FC484890F89801012844D19C
:101A1000444890ED1E0AB0EE402A4348B0F8AC109E
:101A2000DFED431A9FED421ADFED410A9FED400AB8
:101A300040480AF03FFB404800680AF043FC394840
:101A400090ED1D0AB0EE402A3748B0F87410DFED73
:101A5000381A9FED371ADFED360A9FED350A354803
:101A60000AF028FB344800680AF02CFC2E4890ED60
:101A7000480AB0EE402AB0F82411DFED2D1A9FED90
:101A80002C1ADFED2B0A9FED2A0A2A480AF08AFB5E
:101A9000294800680AF016FC3FE0234890F89801B6
:101AA000D8BB2148B0F8AC109FED212ADFED201AF9
:101AB0009FED1F1ADFED1E0A9FED1D0A1D480AF05B
:101AC000F9FA1D4800680AF0FDFB1748B0F87410D9
:101AD0009FED172ADFED161A9FED151ADFED140A98
:101AE0009FED130A13480AF0E5FA134800680AF05C
:101AF000E9FB0D48B0F824119FED0D2ADFED0C1A1B
:101B00009FED0B1ADFED0A0A9FED090A09480AF05A
:101B100049FB094800680AF0D5FB67E750800024BC
:101B20002C820024808100242083002418010024BA
:101B300000000000C40300244801002400BF00F09E
:101B400057F8FCE72DE9F04104460D461646002201
:101B5000062120460AF0A1F80022082104F13800ED
:101B60000AF09BF80022012104F1E0000BF0D2F80A
:101B7000284608F0BFFFDFED1A0A9FED1A0A1A4A3D
:101B80000021304607F03EFA002708E0228FA18F9F
:101B9000164809F0DFFF01200AF094FB7F1C0A2F92
:101BA000F4DB002708E02288A188104809F0D2FF62
:101BB00001200AF087FB7F1C0A2FF4DB00270AE0D4
:101BC000B4F8E020E820015B084809F0C3FF0120D9
:101BD0000AF078FB7F1C0A2FF2DBBDE8F0810000E1
:101BE000000000000000B442E4D2000824030024F6
:101BF00008B502E001200AF065FB514890F890001A
:101C00000028F7D04F4A50495048FFF79BFF5049F2
:101C1000504807F00DFD92E0494A4B494B4809F006
:101C2000ABFE48484C4B464A47490090474809F0AC
:101C30002BFD464890F89801012842D1424890ED8A
:101C40001E0AB0EE402A4148818FDFED441A9FED15
:101C5000431ADFED420A9FED410A41480AF02AFA91
:101C6000404800680AF02EFB374890ED1D0AB0EEA0
:101C7000402A36488188DFED391A9FED381ADFEDAA
:101C8000370A9FED360A36480AF014FA35480068DC
:101C90000AF018FB2D4890ED390AB0EE402AB0F852
:101CA000E810DFED2E1A9FED2D1ADFED2C0A9FEDC7
:101CB0002B0A2B480AF076FA2A4800680AF002FB41
:101CC0003DE0224890F89801C8BB2048818F9FEDE5
:101CD000232ADFED221A9FED211ADFED200A9FED66
:101CE0001F0A1F480AF0E6F91E4800680AF0EAFADF
:101CF000164881889FED192ADFED181A9FED171AF3
:101D0000DFED160A9FED150A15480AF0D3F91548BC
:101D100000680AF0D7FA0D48B0F8E8109FED0F2AD6
:101D2000DFED0E1A9FED0D1ADFED0C0A9FED0B0A89
:101D30000B480AF037FA0B4800680AF0C3FA6BE761
:101D400050800024C0840024748200242083002456
:101D50005085002408850024500100240000000064
:101D6000240300244002002410B5024800F01AFFAA
:101D700010BD00008C05002410B5024800F012FFD1
:101D800010BD0000040600240146374A086890424E
:101D900049D0354A18320868904244D0324A30322D
:101DA000086890423FD0304A4832086890423AD0A2
:101DB0002D4A60320868904235D02B4A7832086844
:101DC000904230D0284A9032086890422BD0264A60
:101DD000A8320868904226D0244A0868904222D04F
:101DE000224A1832086890421DD0204A30320868D2
:101DF000904218D01D4A48320868904213D01B4ABE
:101E00006032086890420ED0184A783208689042D2
:101E100009D0164A90320868904204D0134AA8327A
:101E20000868904201D1012000E00020B0B10A789A
:101E3000103A1823B2FBF3F000F007020C4B9A5C47
:101E4000CA65032805D90A686FF30902121D8A655D
:101E500003E00A686FF309028A6503E0086820F06E
:101E6000FF008865886D7047100002401004024032
:101E700064D2000810B502682B4C0368A34222D03C
:101E8000294C14340368A3421DD0274C283403681E
:101E9000A34218D0244C3C340368A34213D0224CF4
:101EA00050340368A3420ED01F4C64340368A3422D
:101EB00009D01D4C78340368A34204D01A4C8C34EA
:101EC0000368A34201D1012300E000238BB1037812
:101ED000083B1424B3FBF4F1144B03EB81030366BA
:101EE000124B8033436601F01F040123A340836635
:101EF00018E00378103B1824B3FBF4F10C4B9A4222
:101F000004D80B4BA83B9A4200D30831094B03EB92
:101F100081030366074B8033436601F01F040123EE
:101F2000A340836610BD00000854025800580258B0
:101F3000B8040240000802400179A9B3082940D83A
:101F4000204B02689A4222D01E4B143302689A42F8
:101F50001DD01C4B283302689A4218D0194B3C33D1
:101F600002689A4213D0174B503302689A420ED03F
:101F7000144B643302689A4209D0124B78330268DA
:101F80009A4204D00F4B8C3302689A4201D101224D
:101F900000E000224AB14A1E0B4B03EB8202C266EC
:101FA000094A4032026708E00BE04A1E074B03EB88
:101FB0008202C266054A403202674A1E01239340EC
:101FC00043677047085402580059025800090240FC
:101FD000014600208A69D2B98A6A32B1012A0DD03D
:101FE000022A03D0032A10D10EE000BFCA6A02F011
:101FF0008072B2F1807F00D1012007E0CA6AB2F19D
:10200000C07F00D1012001E000E000BF36E08A6916
:10201000B2F5005F1BD18A6A32B1012A07D0022AC9
:1020200003D0032A11D10AE000BF01200EE0CA6AE2
:1020300002F08072B2F1807F00D1012006E0CA6A0E
:10204000B2F1C07F00D1012000E000BF16E08A6A33
:1020500032B1012A05D0022A04D0032A0CD103E0B0
:1020600000BF00BF012008E0CA6A02F08072B2F12E
:10207000807F00D1012000E000BF00BF704700005A
:1020800008B50848406800900749009809688842E8
:1020900004D206480068401C0449086002490098C0
:1020A000086008BD001000E0F0020024EC020024EB
:1020B0000C494868F0EE400A00BF0A494968091A0D
:1020C00001EE101AF8EE411A074991ED001AB8EE28
:1020D000411A20EE811AF4EEC11AF1EE10FAECD397
:1020E00070470000001000E0E002002410B52DED64
:1020F000028B82B004460E48406801902068019926
:10210000081A00EE100AF8EE400A0A4890ED000A9C
:10211000B8EE400A80EE801AB0EE418A0198206045
:10212000FFF7AEFFB0EE480A02B0BDEC028B10BD67
:10213000001000E0E002002410B52DED028B00F04D
:1021400059F80F4890ED000AB8EE400A808800EE7A
:10215000900AF8EE600A9FED0B1A00EE810A08481B
:10216000C08800EE900AF8EE600A9FED071A00EEB4
:10217000810AB0EE408AB0EE480ABDEC028B10BD79
:10218000D80200246F12833ABD3786351249096898
:1021900041F08071104A11600021104A51601146CF
:1021A000096841F0010111600D4941430D4A116078
:1021B000114609684FF47A72B1FBF2F10A4A1160D4
:1021C00008490968064AB1FBF2F1084A116000218A
:1021D000074A116070470000FCED00E0001000E0CD
:1021E00040420F00E0020024E4020024E802002440
:1021F000EC02002438B5294840680090FFF740FF02
:10220000274800684FF0FF31A0FB013100981818F3
:1022100041F10001234A03C22348002321490268F7
:1022200003C9FEF7D1F8214A03C220480CC81E4852
:1022300000680024A2FB001503FB005002FB04020F
:102240001848D0E90030591A60EB0200184AC2E978
:102250000010164800681749086017480023144901
:10226000026803C9FEF7B0F81249888008468088E2
:102270001149096841430E48D0E90030591A60F10C
:1022800000000E4AC2E900100D4800230B49026805
:1022900003C9FEF799F80749C88038BD001000E06F
:1022A000EC020024F8020024E002002400030024D1
:1022B00008030024D8020024E402002410030024B0
:1022C000E80200247047D2ED020A92ED021AB6EE3F
:1022D000000A00EEC10AD2ED030A92ED031A00EEE5
:1022E000C10AD0ED000A20EE200AD2ED010A92EDDB
:1022F000021A60EE810A92ED001AD2ED031A41EE45
:10230000210A90ED011A00EE810AD2ED010A92ED48
:10231000031A60EE810A92ED001AD2ED021A41EE24
:10232000610A90ED021A00EE810AF0EE000A20EE3A
:10233000200A81ED000A92ED010AD2ED020A20EE98
:10234000200AD2ED000A92ED031A00EEC10AD0ED88
:10235000000A60EE200A92ED011AD2ED011AB6EEE3
:10236000000A01EE610AD2ED031A92ED032AB0EEE3
:10237000401A01EEC21AD0ED011AB0EE600A01EE69
:10238000210AD2ED020A92ED031A60EE810A92ED63
:10239000001AD2ED011A41EE210A90ED021A00EE68
:1023A000810AF0EE000A20EE200A81ED010A92ED8A
:1023B000010AD2ED030A20EE200AD2ED000A92EDC6
:1023C000021A00EE810AD0ED000A20EE200AD2EDBA
:1023D000020A92ED031A60EE810A92ED001AD2ED24
:1023E000011A41EE610A90ED011A00EE810A92EDA8
:1023F000011AD2ED011AF6EE000A41EE610A92EDE1
:10240000021AD2ED021A41EE610A90ED021A00EEB4
:10241000810AF0EE000A20EE200A81ED020A7047E0
:1024200072B600BFFEE7000000B589B00020019041
:102430000290022003900120049000200590069055
:1024400001A9104801F065FC08B1FFF7E9FF002081
:1024500003460222114600900A4801F0AEFC08B182
:10246000FFF7DEFF00220121064801F0B5FB08B1AD
:10247000FFF7D6FF034802F06BFA08B1FFF7D0FF71
:1024800009B000BD2403002410B5024801F0AEFDE0
:1024900010BD00002403002400B589B00020019085
:1024A00001200290022003900490002005900690E5
:1024B00001A9104801F02DFC08B1FFF7B1FF002081
:1024C00003460222114600900A4801F076FC08B14A
:1024D000FFF7A6FF00221021064801F07DFB08B19E
:1024E000FFF79EFF034802F033FA08B1FFF798FFA9
:1024F00009B000BDC403002410B5024801F076FD08
:1025000010BD0000C403002410B5024801F06EFDA8
:1025100010BD00006404002410B501464A6B086831
:10252000D0F884004FF6FC74A04340EA82000C68A7
:10253000C4F884000868D0F8840020F47F04088F71
:1025400044EA00400C68C4F88400886B02440868C0
:10255000D0F888004FF6FC74A04340EA82000C6873
:10256000C4F888000868D0F8880020F4FE04888F3A
:1025700044EA00400C68C4F88800C86B02EB4002D3
:102580000868D0F8A0004FF6FC74A04340EA82002F
:102590000C68C4F8A0000868D0F8A00020F4FE047D
:1025A0004020405A44EA00400C68C4F8A000D1E939
:1025B000104004FB00220868D0F8B0004FF6FC740D
:1025C000A04340EA82000C68C4F8B0000868D0F864
:1025D000B00020F4FE04B1F8480044EA00400C6862
:1025E000C4F8B000D1E9124004FB00220868D0F81A
:1025F000AC004FF6FC74A04340EA82000C68C4F8BB
:10260000AC00D1E9144004FB00220868D0F8F000C7
:102610004FF6FC74A04340EA82000C68C4F8F00056
:102620000868D0F8F00020F47C14B1F8580044EAAF
:1026300000400C68C4F8F000886D02EB40020868A6
:10264000D0F8C0004FF6FC74A04340EA82000C684A
:10265000C4F8C0000868D0F8C00020F47C14B1F8B9
:102660005C0044EA00400C68C4F8C0000868D0F878
:10267000C00020F07C5491F8600044EA00600C68CF
:10268000C4F8C0002A4C486B04EB8000C866CC6ECE
:10269000886B04EB80040C670C6FC86B04EBC00400
:1026A0004C67D1E9100460434C6F04EB80048C67E5
:1026B000D1E9120460438C6F04EB8004CC67D1E94C
:1026C00014046043CC6F04EB8004802044504458D1
:1026D000886D04EBC004842044508C6EC86D604348
:1026E0008424645804EB8004882044508C6E086E67
:1026F00060438824645804EB800490204450405880
:102700000C4CA04209D99831486840F0200048603C
:10271000032001F89809012010BDCB6E02E00020D3
:1027200018601B1D902040589842F8D80020F3E70D
:1027300000AC0040FCD300402DE9F04105461446B2
:102740001E46D1F804C0BCF1000F0AD1D1F810C068
:10275000D1F808804CEA080CB1F800804CEA8843B4
:102760000BE0D1F810C04CF0804CD1F808804CEA56
:10277000080CD1F800804CEA080391F82080D1F8C9
:102780001CC04CEA086CD1F818804CEA080CD1F84F
:1027900014804CEA080CD1F80C804CEA0807D5F8F4
:1027A00068C00CFB06FCD5F8848008EB8C02136033
:1027B000121D1760121D002019E000F1030C14F81F
:1027C0000CC04FEA0C6800F1020C14F80CC048EA87
:1027D0000C4800F1010C14F80CC048EA0C2C14F859
:1027E00000804CEA080CC2F800C0121D001DDFF882
:1027F0001880D1F80CC008EB1C4C9CF800C0844534
:10280000DBD8BDE8F08100006CD2000870B504464A
:102810000CB9012070BD94F83500022803D0802047
:1028200060650120F6E7DC492068884249D0DA4932
:1028300018312068884244D0D74930312068884216
:102840003FD0D5494831206888423AD0D2496031DA
:102850002068884235D0D04978312068884230D00D
:10286000CD499031206888422BD0CB49A8312068CF
:10287000884226D0C9492068884222D0C7491831E9
:10288000206888421DD0C54930312068884218D060
:10289000C24948312068884213D0C049603120685D
:1028A00088420ED0BD4978312068884209D0BB49A2
:1028B00090312068884204D0B849A8312068884205
:1028C00001D1012000E00020F0B3042084F835009D
:1028D000B149206888424BD0AF49183120688842FE
:1028E00046D0AD4930312068884241D0AA494831AC
:1028F000206888423CD0A84960312068884237D09F
:10290000A54978312068884232D0A34990312068A7
:1029100088422DD0A049A8312068884228D09F49FC
:102920002068884224D09D491831206888421FD0F1
:102930009A493031206888421AD098494831206835
:10294000884215D0954900E020E060312068884237
:102950000ED0924978312068884209D08F49903151
:102960002068884204D08D49A8312068884206D169
:102970002068006820F001002168086009E12068F3
:10298000006820F001002168086002E1206800680A
:1029900020F00E00216808607F492068884249D0F5
:1029A0007D4918312068884244D07B493031206805
:1029B00088423FD078494831206888423AD07649E9
:1029C00060312068884235D0734978312068884268
:1029D00030D071499031206888422BD06E49A8319F
:1029E0002068884226D06D492068884222D06B49F1
:1029F0001831206888421DD06849303120688842EB
:102A000018D0664948312068884213D06349603144
:102A1000206888420ED0614978312068884209D008
:102A20005E4990312068884204D05C49A831206812
:102A3000884206D12068006820F001002168086003
:102A400005E02068006820F0010021680860524914
:102A50002068884270D050491831206888426BD075
:102A60004D4930312068884266D04B494831206852
:102A7000884261D048496031206888425CD046492C
:102A800078312068884257D0434990312068884285
:102A900052D04149A831206888424DD03F49206832
:102AA000884249D03D4918312068884244D03B498A
:102AB0003031206888423FD0384948312068884208
:102AC0003AD0364960312068884235D03349783170
:102AD0002068884230D031499031206888422BD01C
:102AE0002E49A8312068884226D02D492068884286
:102AF00022D02B491431206888421DD02849283122
:102B00002068884218D026493C312068884213D07A
:102B100023495031206888420ED021496431206811
:102B2000884209D01E4978312068884204D01C4967
:102B30008C312068884201D1012000E00020D8B10A
:102B4000206E006820F48070216E0860A56D94F8F6
:102B50005C0000F01F01012088406860D4E9191072
:102B60004860E06E40B1E06E006820F48070E16E75
:102B70000860D4E91C104860012084F8350000BFCB
:102B8000002084F8340000BF206D10B12046216D74
:102B9000884700203EE6000010000240100402407A
:102BA000085402582DE9F84F044600200090FE48D2
:102BB00000684FF41651B0FBF1FAA66DD4F85880B6
:102BC0003768D8F80090F9492068884249D0F74919
:102BD00018312068884244D0F44930312068884256
:102BE0003FD0F2494831206888423AD0EF496031FD
:102BF0002068884235D0ED4978312068884230D04D
:102C0000EA499031206888422BD0E849A8312068F1
:102C1000884226D0E6492068884222D0E44918310B
:102C2000206888421DD0E24930312068884218D09F
:102C3000DF4948312068884213D0DD49603120687F
:102C400088420ED0DA4978312068884209D0D849C4
:102C500090312068884204D0D549A8312068884244
:102C600001D1012000E0002000287DD094F85C0014
:102C700000F01F01082088403840002868D0CB4968
:102C80002068884249D0C94918312068884244D018
:102C9000C6493031206888423FD0C4494831206855
:102CA00088423AD0C14960312068884235D0BF4956
:102CB00078312068884230D0BC4990312068884201
:102CC0002BD0BA49A8312068884226D0B84920685C
:102CD000884222D0B6491831206888421DD0B449B4
:102CE00030312068884218D0B14948312068884284
:102CF00013D0AF496031206888420ED0AC4978319A
:102D00002068884209D0AA4990312068884204D0BE
:102D1000A749A8312068884204D12068006800F0E3
:102D2000040003E02068006800F0080080B120681B
:102D3000006820F004002168086094F85C0000F04E
:102D40001F0108208840B060606D40F001006065A0
:102D500094F85C0000F01F01012088403840E8B37F
:102D600092492068884200E0B7E24BD08F49183181
:102D70002068884246D08D4930312068884241D051
:102D80008A494831206888423CD0884960312068AF
:102D9000884237D0854978312068884232D08349CB
:102DA0009031206888422DD08049A831206888421F
:102DB00028D07F492068884224D07D491831206876
:102DC00088421FD07A493031206888421AD0784929
:102DD00048312068884215D0754900E026E060310E
:102DE000206888420ED0724978312068884209D024
:102DF0006F4990312068884204D06D49A83120681D
:102E0000884204D12068406900F0800002E0206818
:102E10000068002050B194F85C0000F01F01012010
:102E20008840B060606D40F00200606594F85C001E
:102E300000F01F01042088403840E8B35B49206857
:102E400088424BD0594918312068884246D05749AA
:102E500030312068884241D0544948312068884246
:102E60003CD0524960312068884237D04F49783190
:102E70002068884232D04D499031206888422DD058
:102E80004A49A8312068884228D0494920688842A8
:102E900024D047491831206888421FD04449303136
:102EA000206888421AD0424948312068884215D0AB
:102EB0003F496031206800E024E088420ED03C4960
:102EC00078312068884209D0394990312068884299
:102ED00004D03749A8312068884204D120680068AE
:102EE00000F0020002E020680068002050B194F871
:102EF0005C0000F01F0104208840B060606D40F06D
:102F00000400606594F85C0000F01F011020884008
:102F10003840E8B325492068884251D02349183108
:102F2000206888424CD0214930312068884247D0FF
:102F30001E4948312068884242D01C4960312068CF
:102F400088423DD0194978312068884238D01749E5
:102F500090312068884233D01449A83120688842D3
:102F60002ED01349206888422AD011491831206890
:102F7000884225D00E4930312068884220D00C4943
:102F80004831206888421BD009496031206800E040
:102F90004DE0884214D006497831206888420FD02D
:102FA00003499031206805E0280000241000024009
:102FB00010040240884203D0FE492068884204D1B0
:102FC0002068006800F0080003E02068006800F056
:102FD000040060B394F85C0000F01F0110208840EA
:102FE000B0602068006800F4802080B1206800682C
:102FF00000F4002028B9206CC8B12046216C884715
:1030000015E0A06C98B12046A16C88470FE02068BD
:10301000006800F4807028B92068006820F008007B
:1030200021680860206C10B12046216C884794F814
:103030005C0000F01F0120208840384000287DD02F
:10304000DD492068884249D0DB4918312068884230
:1030500044D0D9493031206888423FD0D6494831E0
:10306000206888423AD0D44960312068884235D0FF
:10307000D14978312068884230D0CF4990312068DA
:1030800088422BD0CC49A8312068884226D0C94933
:10309000A8392068884221D0C649903920688842E2
:1030A0001CD0C44978392068884217D0C14960399A
:1030B0002068884212D0BF494839206888420DD024
:1030C000BC4930392068884208D0BA49183920688C
:1030D000884203D0B7492068884204D1206800683C
:1030E00000F0100003E02068006800F0020028B340
:1030F00094F85C0000F01F0120208840B06094F834
:10310000350004282DD12068006820F016002168C1
:1031100008602068406920F0800021684861206CC8
:1031200008B9A06C28B12068006820F00800216868
:10313000086094F85C0000F01F0100E03FE03F20D1
:103140008840B060012084F8350000BF002084F87A
:10315000340000BF206D10B12046216D8847BDE8C6
:10316000F88F2068006800F4802080B12068006833
:1031700000F4002028B9606C08B32046616C8847D1
:103180001DE0E06BD8B12046E16B884717E020686E
:10319000006800F4807068B92068006820F01000B2
:1031A00021680860012084F8350000BF002084F801
:1031B000340000BFE06B10B12046E16B8847606DC2
:1031C00000287AD0606D00F00100E8B3042084F894
:1031D00035007949206888424BD0774918312068FA
:1031E000884246D0744930312068884241D07249C3
:1031F0004831206888423CD06F496031206888425D
:1032000037D06D4978312068884232D06A49903190
:10321000206888422DD06849A8312068884228D08B
:103220006449A8392068884223D0624990392068CF
:1032300088421ED05F4978392068884219D05D499C
:1032400060392068884200E040E012D0594948398E
:10325000206888420DD0574930392068884208D00C
:10326000544918392068884203D05249206888425E
:1032700006D12068006820F001002168086005E0A0
:103280002068006820F001002168086000BF0098F5
:10329000401C0090504500D905E02068006800F00F
:1032A00001000028F3D100BF2068006800F0010091
:1032B00020B1032084F8350003E00DE0012084F8FC
:1032C000350000BF002084F8340000BFE06C002807
:1032D00002D02046E16C8847D9E13849206888420D
:1032E00022D036491431206888421DD03349283114
:1032F0002068884218D031493C312068884213D078
:103300002E495031206888420ED02C496431206803
:10331000884209D0294978312068884204D0274959
:103320008C312068884201D1012000E00020002873
:10333000D2D02068056894F85C0000F01F010420DA
:10334000884000EA0900D8B305F00400C0B394F83F
:103350005C0000F01F0104208840C8F8040005F458
:10336000004080B105F4803030B9A06C0028B3D0A3
:103370002046A16C88478AE1206C0028ACD020460A
:10338000216C884783E105F02000E8BB0A492068EA
:10339000884253D008491831206888424ED00649E7
:1033A00030312068884249D003494831206888423A
:1033B00044D006E0B804024010000240085402580D
:1033C0004FE0B44960312068884237D0B149783144
:1033D0002068884232D0AF499031206888422DD091
:1033E000AC49A8312068884228D0AB49206888427F
:1033F00024D0A9491831206888421FD0A64930310D
:10340000206888421AD000E025E0A34948312068AE
:10341000884213D0A0496031206888420ED09E496E
:1034200078312068884209D09B49903120688842D1
:1034300004D09949A8312068884206D120680068E4
:1034400020F008002168086005E02068006820F08E
:10345000040021680860206C10B32046216C884766
:1034600015E194F85C0000F01F010220884000EA9A
:103470000900E8B305F00200D0B394F85C0000F056
:103480001F0102208840C8F8040005F4004070B114
:1034900005F4803028B9606C10B12046616C884713
:1034A000F5E0E06BF0B32046E16B8847EFE005F014
:1034B0002000C0BB7749206888424ED0754918313A
:1034C0002068884249D0734930312068884244D00E
:1034D00070494831206888423FD06E496031206889
:1034E00088423AD06B4978312068884235D000E074
:1034F0004EE068499031206888422ED06549A83155
:103500002068884229D064492068884225D06249D1
:1035100018312068884220D05F49303120688842C5
:103520001BD001E06EE02DE05B4948312068884205
:1035300013D059496031206888420ED056497831FD
:103540002068884209D0544990312068884204D0CC
:103550005149A8312068884206D12068006820F0CF
:1035600014002168086005E02068006820F00A0067
:1035700021680860012084F8350000BF002084F82D
:10358000340000BFE06BE8B32046E16B88477EE083
:1035900094F85C0000F01F010820884000EA090050
:1035A00080B305F0080068B33A49206888424BD0E0
:1035B000384918312068884246D036493031206871
:1035C000884241D033494831206888423CD0314953
:1035D00060312068884237D02E497831206888428F
:1035E00032D02C499031206888422DD02949A83109
:1035F0002068884228D028492068884224D026495B
:10360000183100E043E0206888421DD02249303163
:103610002068884218D0204948312068884213D059
:103620001D496031206888420ED01B4978312068DE
:10363000884209D0184990312068884204D0164940
:10364000A8312068884206D12068006820F01C005C
:103650002168086005E02068006820F00E002168FD
:10366000086094F85C0000F01F0101208840C8F851
:1036700004000120606584F8350000BF002084F854
:10368000340000BFE06C10B12046E16C884700BFF9
:1036900065E5000010000240100402402DE9F041F1
:1036A000044601F07FFA804614B90120BDE8F0819C
:1036B000FE492068884249D0FC4918312068884278
:1036C00044D0FA493031206888423FD0F749483128
:1036D000206888423AD0F54960312068884235D068
:1036E000F24978312068884230D0F0499031206822
:1036F00088422BD0ED49A8312068884226D0EC4979
:103700002068884222D0EA491831206888421DD0BA
:10371000E74930312068884218D0E54948312068AF
:10372000884213D0E2496031206888420ED0E049D7
:1037300078312068884209D0DD499031206888427C
:1037400004D0DB49A8312068884201D1012000E083
:103750000020002873D0606A00B100BF022084F806
:10376000350000BF002084F8340000BFCF49206836
:10377000884249D0CD4918312068884244D0CB498D
:103780003031206888423FD0C8494831206888429B
:103790003AD0C64960312068884235D0C349783173
:1037A0002068884230D0C1499031206888422BD0AF
:1037B000BE49A8312068884226D0BD492068884289
:1037C00022D0BB491831206888421DD0B849303119
:1037D0002068884218D0B64948312068884213D002
:1037E000B3496031206888420ED0B14978312068F1
:1037F000884209D0AE4990312068884204D0AC4953
:10380000A8312068884206D12068006820F00100B5
:103810002168086005E02068006820F00100216848
:1038200008600DE001F0BEF9A0EB0800052807D9FB
:1038300020206065032084F83500012036E769E028
:103840002068006800F001000028EBD120680568BE
:1038500098480540D4E90201084321690843616999
:103860000843A1690843E1690843216A0843054305
:10387000606A042803D1D4E90B010843054360685A
:10388000292802D360682E2817D960683F2802D300
:103890006068422811D96068472802D360684828C8
:1038A0000BD960684F2802D36068522805D9606838
:1038B000742804D36068772801D8012000E0002034
:1038C00008B145F48015206805602068456925F039
:1038D0000705606A0543606A04280DD1A06A0543A4
:1038E000E06A48B12046FEF773FB28B140206065CE
:1038F000012084F83500D9E6206845612046FEF7AE
:1039000043FA064694F85C0000F01F013F2088400F
:10391000B0609EE068492068884222D06649143130
:10392000206888421DD0644928312068884218D018
:1039300061493C312068884213D05F49503120688A
:1039400088420ED05C4964312068884209D05A49C7
:1039500078312068884204D057498C3120688842E9
:1039600001D1012000E00020E0B3534920688842E3
:1039700022D051491431206888421DD04E49283147
:103980002068884218D04C493C312068884213D0C6
:1039900049495031206888420ED047496431206837
:1039A000884209D0444978312068884204D042498D
:1039B0008C312068884201D1012000E0002000B154
:1039C00000BF022084F8350000BF002084F83400D6
:1039D00000BF2068056839480540A068402802D12A
:1039E000102106E02EE0A068802801D1C10100E08E
:1039F0000021E06841EAD001206941EAD001606914
:103A000041EAD001A06941EAD001E06941EAD00170
:103A1000206A41EA101005432068056026492068A5
:103A2000401A1421B0FBF1F08000E0652046FEF75B
:103A3000ABF9074694F85C0000F01F0101208840B4
:103A4000786006E040206065032084F8350001209E
:103A50002CE61649206888427AD01449183120682B
:103A6000884275D0114930312068884270D00F49A2
:103A70004831206888426BD00C4960312068884208
:103A800066D00A4978312068884261D00749903170
:103A9000206888425CD00549A8312068884257D008
:103AA00003492068884253D0014909E010000240D0
:103AB000100402403F8010FE085402580F00FEFF21
:103AC00018312068884243D03749206888423FD067
:103AD00035491831206888423AD03349303120685E
:103AE000884235D0304948312068884230D02E494C
:103AF0006031206888422BD02B4978312068884279
:103B000026D02A492068884222D0284914312068CA
:103B100088421DD0254928312068884218D0234981
:103B20003C312068884213D02049503120688842B7
:103B30000ED01E4964312068884209D01B49783173
:103B40002068884204D019498C312068884201D10C
:103B5000012000E0002000B32046FEF78BF9A068AA
:103B6000802801D1002060602079216E0860D4E9AE
:103B700019104860606860B16068082809D820465C
:103B8000FEF7DAF90020E16E0860D4E91C10486005
:103B900003E00020E0662067606700206065012088
:103BA00084F83500002081E54004024008540258A2
:103BB00070B5044600F0F6FF06462546681C10B1B5
:103BC00004480078054400BF00F0ECFF801BA842C9
:103BD000FAD370BD2400002430B5034693F8984012
:103BE000012C01D0022C3ED11868806D084030B9FC
:103BF0001868C06D40F001001D68E8650EE01868A7
:103C0000806D0840884206D11868C06D40F00200FF
:103C10001D68E86502E003201D68E86501F4007096
:103C200030B11868D0F8E00010431D68C5F8E00016
:103C300001F4806030B11868D0F8E40010431D68CA
:103C4000C5F8E40000BF1868406D0B4D0D402843D7
:103C50001D6868650948006840EA9170074D286052
:103C600000BF002030BDD3F89C0040F00200C3F834
:103C70009C000120F6E70000FFFFCF3F14A80040A2
:103C80002DE9F04104460E461746706800B900E081
:103C900000BF94F89800022832D12068D0F8C00004
:103CA00000F07C5040B9D4F89C0040F02000C4F8EB
:103CB0009C000120BDE8F0812068D0F8C40000F429
:103CC000001038B1D4F89C0040F40070C4F89C0097
:103CD0000120EFE72068D0F8C400C0F304452B466C
:103CE0003A4631462046FEF727FD0120A8402168CC
:103CF000C1F8D0000120A840C4F894000020D9E702
:103D0000D4F89C0040F00800C4F89C000120D1E7E2
:103D10007047F0B5024692F89860012E01D0022E4D
:103D200043D1C868072800D100BF086818BBC8681D
:103D3000072800D000BFC86807280BD1088A4FF0B9
:103D4000605747EA0040CF6940EA07208F6940EAA0
:103D500007040AE0087A80070F7B40EAC7600F8AF1
:103D600040EA07404F6940EA0704D76E486807EB0E
:103D700080031C6017E0C868072800D000BF0F7BD5
:103D8000086940EA4774C868072801D18D6903E0D3
:103D90000F7A486940EA8775176F486807EBC003D8
:103DA0001C601B1D1D600020F0BDD2F89C0040F07F
:103DB0000200C2F89C000120F6E770B50446049D9D
:103DC00094F8980001280AD1080140EA820040EAEC
:103DD000430028432668C6F88000002070BDD4F850
:103DE0009C0040F00400C4F89C000120F6E77047F6
:103DF000704700002DE9F04304460D469C46002321
:103E000094F89880B8F1020F74D1402D38D1206811
:103E1000D0F8A00000F4FE0040B9D4F89C0040F0B7
:103E20002000C4F89C000120BDE8F0832068D0F891
:103E3000A40000F07F0038B9D4F89C0040F48070F2
:103E4000C4F89C000120EFE72068D0F8A400C0F37C
:103E5000006040B12068D0F8A0004FF00049B9EBF5
:103E6000D07F00D101232068D0F8A400C0F3052042
:103E70000344606C5843D4F8749009EB80014BE024
:103E8000412D38D12068D0F8B00000F4FE0038B9D8
:103E9000D4F89C0040F02000C4F89C000120C3E747
:103EA0002068D0F8B40000F07F0038B9D4F89C0046
:103EB00040F48070C4F89C000120B5E72068D0F879
:103EC000B400C0F3006040B12068D0F8B0004FF0FB
:103ED0000049B9EBD07F00D101232068D0F8B400AD
:103EE000C0F305200344E06C5843D4F8789009EB04
:103EF000800111E06EE0206DA84207D8D4F89C0044
:103F000040F02000C4F89C0001208DE7606D6843FC
:103F1000D4F87C9009EB8001086800F08040506084
:103F2000506820B90868C0F38A40106003E0086850
:103F300020F060401060086800F000509060086851
:103F400000F000401061091D088880B2D061086847
:103F500000F47020D060086800F480105061086898
:103F600000F4001090610868C0F3066010620868F1
:103F7000C00F5062091D0F46002603E0B85D0CF823
:103F80000600761CDFF85C90D06809EB10400078E2
:103F9000B042F3D8402D03D12068C0F8A83017E014
:103FA000412D03D12068C0F8B83011E0202D06D291
:103FB0000120A840D4F80090C9F8980008E005F066
:103FC0001F09012000FA09F0D4F80090C9F89C00FC
:103FD000002029E7D4F89C0040F00800C4F89C00B9
:103FE000012021E76CD20008704700002DE9F04F56
:103FF0008DB00446EF4800688707EE48001D006852
:1040000007EA80772068006D00F470482068406DF2
:1040100000EA08082068006D00F00F092068406D74
:1040200000EA09092068006D00F0F00A2068406D80
:1040300000EA0A0A2068006D00F0715B2068406D9C
:1040400000EA0B0B2068006D00F060700C90206897
:10405000406D0C9908400C902068456D2068066DF5
:10406000C5F3002070B1C6F3002058B100BF4FF473
:104070008070216808650020CE49086000BF204696
:10408000FFF7B2FFC5F38020C8B1C6F38020B0B1FE
:104090002068D0F8DC000A902068D0F8E4000A9983
:1040A00008400A9000BF4FF4806021680865002036
:1040B000C049086000BF20460A9900F069FC67B15A
:1040C00000BFBD48384021680865B80FB94908608D
:1040D00000BF39462046FFF71BFEB8F1000F0ED097
:1040E00000BFB54808EA0000216808654FEA9870EB
:1040F000B049086000BF4146204600F04BFCB9F1D2
:10410000000F0ED000BFAC4809EA00002168086526
:104110004FEA9970A749086000BF4946204600F061
:104120009BFBBAF1000F0ED000BFA3480AEA0000C3
:10413000216808654FEA9A709E49086000BF5146A1
:10414000204600F0C7FBC5F3C02070B1C6F3C02005
:1041500058B100BF4FF40060216808650020954900
:10416000086000BF204600F016FCC5F34020C8B12F
:10417000C6F34020B0B12068D0F8D8000B9020687A
:10418000D0F8E0000B9908400B9000BF4FF400708E
:104190002168086500208749086000BF20460B9908
:1041A00000F0F7FBC5F3C04070B1C6F3C04058B192
:1041B00000BF4FF400202168086500207D49086099
:1041C00000BF204600F046FBC5F3004070B1C6F3C7
:1041D000004058B100BF4FF48030216808650020CE
:1041E0007449086000BF204600F0D1FBC5F3804051
:1041F00070B1C6F3804058B100BF4FF480202168F1
:10420000086500206B49086000BF204600F0BEFB37
:10421000C5F3404088B1C6F3404070B100BF4FF4D1
:1042200000302168086500206249086000BFD4F8AA
:104230009C0040F08000C4F89C000C9870B100BF56
:104240005D490C980840216808650C98800F594911
:10425000086000BF20460C99FFF7CAFDBBF1000FB4
:1042600010D000BF54480BEA0000216808654FEAEF
:104270009B705049086000BFD4F89C0040EA0B00D6
:10428000C4F89C004D49206888427DD160688068F0
:1042900000F00300002877D06068006A00F00F008B
:1042A00009906068406A0999084009906068006A4E
:1042B00000F0300008906068406A08990840089053
:1042C0006068006A00F4C07007906068406A0799EF
:1042D000084007906068006A00F4FC40069060683F
:1042E000406A0699084006906068006A00F4F02071
:1042F00005906068406A0599084005906068406ACA
:1043000002906068006A0190099830B1099861686C
:1043100008622046099900F036FB089830B10898E9
:10432000616808622046089900F02FFB0298C0F3EC
:104330008010A0B10198C0F3801080B16068C06B9C
:10434000000C04906068C06B00F03F0003904020B8
:10435000616808622046DDE9032100F015FB07983B
:1043600030B10798616808622046079900F00AFB9F
:10437000069840B1069861680862D4F89C000699D6
:104380000843C4F89C0000E00AE0059840B1059895
:1043900061680862D4F89C0005990843C4F89C0041
:1043A000D4F89C0010B12046FFF721FD0DB0BDE808
:1043B000F08F000010A80040FFFFCF3F00A000409A
:1043C00070B594B004464C22B34901A8FCF72DF80F
:1043D00014B9012014B070BDB0492068884203D1DF
:1043E000206800F580706060A068B0F5407F00D163
:1043F00000BF206C00B100BFA06C00B100BF206DF9
:1044000000B100BF206E00B100BFD4E9171008440E
:1044100000B100BF94F8980028B9002084F89900F2
:10442000204600F03DF92068806920F010002168E6
:10443000886100F0B7FB05460EE000F0B3FB401BBF
:104440000A2809D99834606840F0010060600320B0
:1044500004F898090120BDE72068806900F0080091
:104460000828EAD02068806940F00100216888614E
:1044700000F098FB05460EE000F094FB401B0A2874
:1044800009D99834606840F001006060032004F8A6
:10449000980901209EE72068806900F0010000284B
:1044A000EAD02068806940F0020021688861207CA1
:1044B000012806D12068806920F0400021688861C9
:1044C00005E02068806940F0400021688861607CD8
:1044D000012806D12068806940F480402168886105
:1044E00005E02068806920F4804021688861A07C14
:1044F000012806D12068806920F4805021688861F5
:1045000005E02068806940F4805021688861206857
:10451000806920F44070A1680843216888612068A0
:10452000806920F0A400216888612068006920F07B
:10453000100021680861E068012806D120688069C0
:1045400040F004002168886120E0E068F0B1E06894
:10455000022815D02068806940F0800021688861B9
:104560002068006940F0100021680861E0680328B5
:104570000CD12068806940F020002168886105E046
:104580002068806940F0200021688861207E401EFC
:104590004106E069401E41EA0020216A491E0843A5
:1045A000A18A491E40EA01402168C861A068B0F5AF
:1045B000407F0FD1A06A401EE16A491E40EA0121F6
:1045C000206B401E41EA0011A08C401E41EA0040D1
:1045D0002168C860206E38B12068D0F8C000616ED4
:1045E00008432168C1F8C000D4E91710084460B13D
:1045F0002068D0F8C80020F0070001AAA16E52F888
:10460000211008432168C1F8C800206C60B12068FF
:10461000D0F8BC0020F0070001AA616C52F821100C
:1046200008432168C1F8BC00A06C68B12068D0F8CC
:10463000BC0020F0700101AAE06C52F8200041EAB1
:1046400000102168C1F8BC00206D68B12068D0F866
:10465000BC0020F4E06101AA606D52F8200041EA3C
:1046600000202168C1F8BC000C492068884205D1AF
:104670006068806820F0030061688860002044F86A
:10468000940FA06001202071943C2046FDF744FF68
:10469000064630469EE600007CD2000800A000409E
:1046A00010B586B00446142101A8FBF7D7FE624975
:1046B000206888423CD161480068401C5F4908601E
:1046C0000846006801280DD100BF5D48006840F42D
:1046D00080705B4908600846006800F480700090B4
:1046E00000BF00BF00BF56480C38006840F008000B
:1046F00053490C3908600846006800F00800009033
:1047000000BF00BF03200190022002900020039010
:1047100004900920059001A94A4800F03DF90022C3
:104720000621132000F0FCFA132000F0E5FA81E0E6
:104730004549206888423CD140480068401C3F49B8
:1047400008600846006801280DD100BF3C48006899
:1047500040F480703A4908600846006800F48070B0
:10476000009000BF00BF00BF35480C38006840F023
:10477000020033490C3908600846006800F0020066
:10478000009000BF00BF6020019002200290002036
:10479000039004900920059001A92C4800F0FCF832
:1047A00000220521142000F0BBFA142000F0A4FA26
:1047B00040E02749206888423CD120480068401CDE
:1047C0001E4908600846006801280DD100BF1C483A
:1047D000006840F480701A4908600846006800F4D8
:1047E0008070009000BF00BF00BF15480C38006803
:1047F00040F0080012490C3908600846006800F0D3
:104800000800009000BF00BF4FF44050019002200C
:1048100002900020039004900520059001A909480A
:1048200000F0BAF8002205219F2000F079FA9F20BD
:1048300000F062FA06B010BD00A00040180000248D
:10484000EC440258000C025800A400400004025836
:1048500000D400407047000070B504460D4605F0D6
:10486000010070B31749206888422AD140211648B8
:10487000FBF7F4FD144B154A40212046FFF7BAFA26
:104880001248006898B1032802D0042817D106E026
:104890000E480D49C2680E4807F0BCF810E00B48FE
:1048A0000949C2680A48383007F0B4F808E00748F8
:1048B0000549C2680648E03007F0FAF800E000BF9A
:1048C00000BF70BD00A0004028870024008700249E
:1048D0002083002470B504460D4605F0100070B327
:1048E0001749206888422AD140211648FBF7B6FDB7
:1048F000144B154A41212046FFF77CFA1248006804
:1049000098B1032802D0042817D106E00E480D49BB
:10491000C2680E4807F07EF810E00B480949C268EB
:104920000A48383007F076F808E007480549C268B9
:104930000648AC3007F0BCF800E000BF00BF70BD17
:1049400000A40040908700246887002490830024FE
:10495000014691F8980001280CD1022081F89800B6
:104960000868806920F001000A6890610020C1F8A1
:104970009C007047D1F89C0040F00400C1F89C00F6
:104980000120F6E7704770477047704770477047DF
:104990007047704770477047F8B502460B460021D4
:1049A0006D4DD2E001278F401E6806EA0704002CF7
:1049B00072D01E7906F00306012E04D01E7906F08F
:1049C0000306022E13D190684F000326BE40B04369
:1049D0004F00DE68BE4030439060506801268E4034
:1049E000B0431E79C6F300168E40304350601E79E6
:1049F00006F00306032E09D0D0684F000326BE4000
:104A0000B0434F009E68BE403043D0601E7906F030
:104A10000306022E13D1CF0802F1200656F8270014
:104A20004E07F70E0F26BE40B0434F07FF0E1E691C
:104A3000BE403043CF0802F1200646F82700106838
:104A40004F000326BE40B0431E7906F003064F0018
:104A5000BE40304310605E6806F44036002E73D0CE
:104A600000BF3E4E366846F002063C4F3E603E4672
:104A7000366806F00206009600BF00BF384E8F0869
:104A800056F827008E07370F0F26BE40B043354E2D
:104A9000B24202D1002629E056E0334EB24201D1A3
:104AA000012623E0314EB24201D102261EE0304EF3
:104AB000B24201D1032619E02E4EB24201D10426A2
:104AC00014E02D4EB24201D105260FE02B4EB2422A
:104AD00001D106260AE02A4EB24201D1072605E09E
:104AE000284EB24201D1092600E00A268F073F0F67
:104AF000BE4030431A4E8F0846F827004FF0B046AC
:104B00003068A0435E6806F4801606B120434FF07B
:104B1000B04630607068A0435E6806F4001606B1C7
:104B200020434FF0B04670606868A0435E6806F4AA
:104B3000003606B1204368602868A0435E6806F42A
:104B4000803606B120432860491C1E68CE40002EE6
:104B50007FF428AFF8BD000080000058F4440258EC
:104B600008040058000002580004025800080258C7
:104B7000000C025800100258001402580018025885
:104B8000001C025800240258024613690B400BB166
:104B9000012000E0002070470AB1816101E00B04B0
:104BA0008361704701480068704700001C000024C2
:104BB00003480068034909780844014908607047C0
:104BC0001C0000242400002410B5032000F0E6F8A7
:104BD00001F08AF910490968C1F303210F4A515CB9
:104BE00001F01F0120FA01F40B48006800F00F00EB
:104BF0001146085C00F01F0024FA00F00849086024
:104C0000084804600F2000F00FF808B1012010BD23
:104C100000F05AF80020FAE718440258C8D20008F9
:104C20002C00002428000024F0B58BB00446102C82
:104C30000AD2002221461C2000F072F81C2000F04D
:104C40005BF81D48046002E001200BB0F0BD00BF1E
:104C50001A48006840F001001849086008460068DA
:104C600000F00100019000BF00BF02A903A801F0FD
:104C7000CDF8089E1EB901F025F9054602E001F0C5
:104C800021F945000E48B5FBF0F0471E4FF080407B
:104C90000C49086040F2E7310A48C16047600021D2
:104CA0000161816002F0BEFA18B9064802F0F2FA1A
:104CB000CBE70120C9E7000020000024E8440258A7
:104CC00040420F00C806002408B500BF094800682C
:104CD00040F00200074908600846006800F0020042
:104CE000009000BF00BF00220F21901E00F018F8B6
:104CF00008BD0000F44402580146084600280DDBB8
:104D000000BF00BF00F01F0301229A4043099B002F
:104D100003F1E023C3F8002100BF00BF00BF7047CC
:104D20002DE9F05F80460D46164605F013FF074655
:104D300039462A46334601F00700C0F1070ABAF1A6
:104D4000040F02D94FF0040A01E0C0F1070AD1466E
:104D500000F1040ABAF1070F02D24FF0000A01E095
:104D6000A0F1030AD4464FF0010A0AFA09FAAAF19F
:104D7000010A0AEA020A0AFA0CFA4FF0010B0BFACE
:104D80000CFBABF1010B0BEA030B4AEA0B042146C7
:104D9000404605F0E7FEBDE8F09F000000BF00F0D0
:104DA0000702064B19684FF6FF031940044B0B43EB
:104DB00043EA0221014B196000BF70470CED00E08F
:104DC0000000FA0570B5044615480068C0F380007D
:104DD00048B91348006800F00700A04201D0012044
:104DE00070BD0020FCE70E48006820F0070020435B
:104DF0000B490860FFF7D6FE054607E0FFF7D2FE35
:104E0000401BB0F57A7F01D90120E9E70448083852
:104E10000068C0F340300028F0D00020E0E7000038
:104E20000C4802582DE9F04104460025A8464FF0F1
:104E30000062D4E900101140002013465940404060
:104E4000014331D1606E48B1B0F5801F0DD0B0F58F
:104E5000001F11D0B0F5401F16D114E0FE480068C5
:104E600040F40030FC49086010E0022104F1080021
:104E700004F01EFC054609E0022104F1280004F0BC
:104E8000C9FC054602E001E0012500BF00BF55B99D
:104E9000F1482430006820F44010616E0843EE4968
:104EA0002431086000E0A8464FF48072D4E9001075
:104EB0001140002013465940404001432ED1A06DBF
:104EC00005281BD2DFE800F0030A11181900E24898
:104ED000006840F40030E049086011E0002104F16E
:104EE000080004F0E5FB05460AE0002104F1280073
:104EF00004F090FC054603E002E001E0012500BF5C
:104F000000BF55B9D4482430006820F00700A16DD7
:104F10000843D1492431086000E0A8464FF480627C
:104F2000D4E900101140002013465940404001438D
:104F30003DD1D4F8A400B0F5C00F24D007DC68B18F
:104F4000B0F5001F11D0B0F5800F1FD114E0B0F5FF
:104F5000000F19D0B0F5200F18D116E0BE48006838
:104F600040F40030BC49086012E0002104F1080060
:104F700004F09EFB05460BE0002104F1280004F03C
:104F800049FC054604E003E002E001E0012500BF22
:104F900000BF5DB9B0482C30006820F46000D4F840
:104FA000A4100843AC492C31086000E0A8464FF437
:104FB0000062D4E9000110400021134658404940E6
:104FC00008433DD1D4F8A800B0F1407F24D007DCDD
:104FD00068B1B0F1807F11D0B0F1007F1FD114E033
:104FE000B0F1806F19D0B0F1A06F18D116E09A48D7
:104FF000006840F400309849086012E0002104F194
:10500000080004F055FB05460BE0002104F12800E0
:1050100004F000FC054604E003E002E001E00125A5
:1050200000BF00BF5DB98C482C30006820F0E06004
:10503000D4F8A810084388492C31086000E0A8463D
:105040004FF00073D4E9001019400020594040404F
:10505000014328D1E06CA8B1102804D0202809D041
:10506000302810D10DE07C48006840F400307A49C7
:1050700008600AE0022104F1080004F019FB05466B
:1050800003E002E001E0012500BF00BF55B972480E
:105090002030006820F03000E16C08436E49203178
:1050A000086000E0A8464FF48053D4E9001019408E
:1050B000002059404040014337D1E06DB0F5005F1A
:1050C0001AD004DC50B1B0F5805F1ED10DE0B0F510
:1050D000405F18D0B0F5804F17D115E05E480068EA
:1050E00040F400305C49086011E0002104F1080040
:1050F00004F0DEFA05460AE0002104F1280004F07D
:1051000089FB054603E002E001E0012500BF00BF86
:1051100055B951482430006820F4E040E16D08435F
:105120004D492431086000E0A8464FF40053D4E90B
:1051300000101940002059404040014335D1206EF5
:10514000B0F5403F1ED007DC68B1B0F5803F0BD012
:10515000B0F5003F19D10EE0B0F5802F13D0B0F5B7
:10516000A02F12D110E012E0012104F1080004F098
:105170009FFA05460BE0012104F1280004F04AFBE8
:10518000054604E003E002E001E0012500BF00BFA6
:1051900055B931482430006820F4E020216E0843DE
:1051A0002D492431086000E0A8464FF48042D4E93C
:1051B000000110400021134658404940084337D1B0
:1051C000D4F8AC00B0F1405F1ED007DC68B1B0F19C
:1051D000805F0BD0B0F1005F19D10EE0B0F1804FCD
:1051E00013D0B0F1A04F12D110E012E0012104F170
:1051F000080004F05DFA05460BE0012104F12800E7
:1052000004F008FB054604E003E002E001E00125AC
:1052100000BF00BF5DB910482C30006820F0E040AE
:10522000D4F8AC1008430C492C31086000E0A846C3
:105230004FF40043D4E90001184000215840494090
:1052400008432AD1E06EB8B1B0F1805F06D0B0F16A
:10525000005F12D109E000002C440258F9480068B0
:1052600040F40030F749086009E0012104F108002A
:1052700004F01EFA054602E001E0012500BF00BF70
:1052800055B9F0482430006820F04050E16E0843E2
:10529000EC492431086000E0A8464FF08073D4E95F
:1052A00000101940002059404040014328D1A06C13
:1052B000A8B1012804D0022809D0032810D10DE09C
:1052C000E048006840F40030DE4908600AE002214E
:1052D00004F1080004F0ECF9054603E002E001E007
:1052E000012500BF00BF55B9D6482030006820F026
:1052F0000300A16C0843D3492031086000E0A846B0
:105300004FF48003D4E90010194000205940404078
:1053100001437DD1CC48006840F48070CA490860E0
:10532000FFF740FC064606E0FFF73CFC801B6428C4
:1053300001D9032505E0C448006800F48070002806
:10534000F2D000BF85BBBF484430006800F4407015
:10535000B4F8B01001F44071884213D0B948443019
:10536000006820F44077B7484430006840F480304B
:10537000B449443108600846006820F48030086071
:1053800008460760D4F8B000B0F5807F15D1FFF76C
:1053900009FC064609E0FFF705FC801B41F2883155
:1053A000884202D9032507E038E0A6484430006867
:1053B000C0F340000028EED000BF55BB00BFB4F8DA
:1053C000B00000F44070B0F5407F0ED19D481C380D
:1053D000006820F47C519D4AD4F8B000104041EAA6
:1053E000101098491C39086007E096481C3800687E
:1053F00020F47C5093491C3908609248443000687E
:10540000B4F8B010C1F30B0108438E49443101E0F8
:1054100005E001E0086002E0A84600E0A84601229D
:10542000D4E9000110400021134658404940084388
:1054300030D1A06F18281AD005DC48B1082808D050
:10544000102817D10CE0202812D0282812D110E003
:1054500012E0012104F1080004F02AF905460BE0EE
:10546000012104F1280004F0D5F9054604E003E029
:1054700002E001E0012500BF00BF55B971482830A6
:10548000006820F03800A16F08436E492831086099
:1054900000E0A8460223D4E900101940002059403A
:1054A0004040014329D1606F062816D2DFE800F0A2
:1054B00003040B12131412E0012104F1080004F09C
:1054C000F7F805460BE0012104F1280004F0A2F9E9
:1054D000054604E003E002E001E0012500BF00BF53
:1054E00055B958482830006820F00700616F08431C
:1054F00054492831086000E0A8460422D4E900108D
:105500001140002013465940404001432BD1D4F8AC
:105510009000062816D2DFE800F003040B121314E3
:1055200012E0012104F1080004F0C2F805460BE086
:10553000012104F1280004F06DF9054604E003E0C0
:1055400002E001E0012500BF00BF5DB93D482C30FD
:10555000006820F00700D4F89010084339492C3136
:10556000086000E0A8462023D4E90001184000218B
:1055700058404940084337D1D4F88C00B0F1405F1F
:105580001ED007DC68B1B0F1805F0BD0B0F1005FD6
:1055900019D10EE0B0F1804F13D0B0F1A04F12D16D
:1055A00010E012E0002104F1080004F081F8054643
:1055B0000BE0022104F1280004F02CF9054604E078
:1055C00003E002E001E0012500BF00BF5DB91D4816
:1055D0002830006820F0E040D4F88C1008431949C6
:1055E0002831086000E0A8464023D4E900101940A3
:1055F00000205940404001433CD1D4F89800B0F518
:10560000406F25D007DC68B1B0F5806F0BD0B0F5E6
:10561000006F20D10EE0B0F5805F1AD0B0F5A05F2A
:1056200019D117E019E0002104F1080004F040F856
:10563000054612E0022104F1280004F0EBF80546CB
:105640000BE000002C44025800480258FFFCFF0FFA
:1056500003E002E001E0012500BF00BF4DB9FE48B4
:10566000006820F4E050D4F898100843FA49086024
:1056700000E0A8468023D4E90010194000205940DA
:105680004040014335D1D4F89C00B0F5C04F1ED046
:1056900007DC68B1B0F5005F0BD0B0F5804F19D1D1
:1056A0000EE0B0F5004F13D0B0F5204F12D110E04E
:1056B00012E0002104F1080003F0FAFF05460BE0B8
:1056C000022104F1280004F0A5F8054604E003E0F7
:1056D00002E001E0012500BF00BF4DB9DE480068CF
:1056E00020F46040D4F89C100843DB49086000E0D7
:1056F000A8460823D4E90001184000215840494039
:10570000084317D1D4F88000B0F5805F07D102219B
:1057100004F1280004F07EF808B14FF00108CE48EB
:10572000001F006820F44050D4F880100843CA4994
:10573000091F08601023D4E90001184000215840D7
:105740004940084315D1D4F89400B0F5807F07D1C3
:10575000022104F1280004F05DF808B14FF00108BF
:10576000BD48006820F44070D4F894100843BA494A
:1057700008604FF40023D4E900011840002158408C
:105780004940084327D1D4F8A00030B1B0F5803F9C
:105790000AD0B0F5003F0FD10DE0002104F1080060
:1057A00003F086FF054609E0022104F1280004F019
:1057B00031F8054602E001E0012500BF00BF4DB908
:1057C000A548006820F44030D4F8A0100843A2494E
:1057D000086000E0A8464FF48023D4E90001184097
:1057E00000215840494008432DD1D4F88400B0F539
:1057F000801F06D0B0F5001F0CD0B0F5401F11D1AE
:105800000FE095482C38006840F4003092492C395C
:10581000086009E0012104F1280003F0FBFF0546C0
:1058200002E001E0012500BF00BF5DB98A48001F0A
:10583000006820F44010D4F8841008438649091FFA
:10584000086000E0A8464FF48032D4E9000110401F
:105850000021134658404940084325D1206D18B116
:10586000B0F5803F10D108E07B482C38006840F448
:10587000003079492C39086008E0022104F1080061
:1058800003F016FF054601E0012500BF00BF55B932
:1058900071480C38006820F48030216D08436E494F
:1058A0000C39086000E0A8464FF00053D4E900101E
:1058B0001940002059404040014307D1022104F122
:1058C000280003F0A7FF08B14FF001084FF40032A1
:1058D000D4E90001104000211346584049400843D4
:1058E00027D1E06FA0B1B0F5807F06D0B0F5007F82
:1058F0000CD0B0F5407F0CD109E057482C38006837
:1059000040F4003054492C39086004E003E002E020
:1059100001E0012500BF00BF55B94F48001F0068D6
:1059200020F44070E16F08434B49091F086000E014
:10593000A8464FF48012D4E900101140002013460D
:1059400059404040014309D143480838006820F0DD
:105950000040216F08434049083908604FF40013A4
:10596000D4E900011840002158404940084309D1BA
:1059700039480838006820F08070A16E0843364925
:10598000083908604FF08043D4E900101940002026
:1059900059404040014311D100BF2F4848380068AA
:1059A00020F400402C494839086008460068D4F8C3
:1059B000B410084328494839086000BF4FF000423E
:1059C000D4E90001104000211346584049400843E3
:1059D00009D121480C38006820F04050616D08431F
:1059E0001D490C3908604FF40002D4E90010114041
:1059F000002013465940404001430AD11648001F79
:105A0000006820F44000D4F8881008431249091FA8
:105A10000860012200216068104049405040014365
:105A200006D104F1080003F043FE054605B1A8467F
:105A3000022200216068104049405040014307D1D4
:105A4000012104F1080003F033FE054605B1A84624
:105A500004230020616801E05844025819400422E0
:105A600040405140084307D1022104F1080003F0EF
:105A70001FFE054605B1A8460823002061681940AD
:105A8000082240405140084307D1002104F128007A
:105A900003F0C0FE054605B1A8461023002061684A
:105AA0001940102240405140084307D1012104F120
:105AB000280003F0AFFE054605B1A84620220021CC
:105AC0006068104049405040014307D1022104F171
:105AD000280003F09FFE054605B1A846B8F1000F67
:105AE00002D10020BDE8F0810120FBE72DE9F04163
:105AF00004460D4614B90120BDE8F081BD48006898
:105B000000F00F00A8420ED2BA48006820F00F0043
:105B10002843B84908600846006800F00F00A84212
:105B200001D00120E8E7207800F0040004280ED11D
:105B3000B1492069096801F07001884207D9AE486F
:105B4000006820F0700021690843AB4908602078A4
:105B500000F00800082811D1A749091D60690968EB
:105B600001F07001884209D9A348001D006820F0A7
:105B7000700061690843A049091D0860207800F0A1
:105B80001000102811D19C49091DA069096801F471
:105B9000E061884209D99848001D006820F4E0605F
:105BA000A16908439449091D0860207800F020008D
:105BB000202811D190490831E069096801F070018D
:105BC000884209D98C480830006820F07000E169EB
:105BD0000843894908310860207800F00200022853
:105BE0000ED18549E068096801F00F01884207D9A4
:105BF0008148006820F00F00E16808437E49086092
:105C0000207800F00100002850D07B48006820F484
:105C10007060A1680843784908606068022807D16D
:105C2000754818380068C0F34040F8B9012063E7B0
:105C30006068032807D1704818380068C0F34060D6
:105C4000A0B9012058E76068012807D16A481838D0
:105C50000068C0F3002048B901204DE766481838B5
:105C60000068C0F3800008B9012045E762480838A1
:105C7000006820F00700616808435F490839086040
:105C8000FEF790FF064608E0FEF78CFF801B41F20E
:105C90008831884201D903202EE757480838006828
:105CA00000F038006168B0EBC10FEDD1207800F052
:105CB000020002280ED15049E068096801F00F0186
:105CC000884207D24C48006820F00F00E168084382
:105CD000494908604748006800F00F00A8420ED903
:105CE0004448006820F00F002843424908600846F5
:105CF000006800F00F00A84201D00120FCE62078E7
:105D000000F0040004280ED13B492069096801F025
:105D10007001884207D23848006820F0700021697D
:105D2000084335490860207800F00800082811D1A0
:105D30003149091D6069096801F07001884209D282
:105D40002D48001D006820F07000616908432A4951
:105D5000091D0860207800F01000102811D1264994
:105D6000091DA069096801F4E061884209D222484E
:105D7000001D006820F4E060A16908431E49091D68
:105D80000860207800F02000202811D11A4908313D
:105D9000E069096801F07001884209D216480830AC
:105DA000006820F07000E169084313490831086079
:105DB00000F09AF810490968C1F303210F4A515CB9
:105DC00001F01F0120FA01F70B48006800F00F00F6
:105DD0001146085C00F01F0027FA00F0084908602F
:105DE0000848076008480068FEF71EFF80464046E6
:105DF00082E600000020005218440258C8D2000871
:105E00002C00002428000024200000243F220260EF
:105E1000174A126802F007024260154A08321268F7
:105E200002F470628260124A0832126802F00F02B5
:105E3000C2600F4A0832126802F0700202610C4A16
:105E40000C32126802F070024261094A0C32126888
:105E500002F4E0628261064A1032126802F07002B7
:105E6000C261044A126802F00F020A607047000023
:105E7000104402580020005210B500F035F80D49CA
:105E80000968C1F303210C4A515C01F01F0120FA9B
:105E900001F40848006800F00F001146085C00F0AB
:105EA0001F0024FA00F00549086005480460084610
:105EB000006810BD18440258C8D200082C00002405
:105EC0002800002400B5FFF7D7FF05490968C1F392
:105ED0000211044A515C01F01F01C84000BD0000DE
:105EE0001C440258C8D20008F0B5824E366806F04D
:105EF000380636B1082E15D0102E15D0182E7DD1AB
:105F000014E07C4E103E3668C6F3401646B1794E1A
:105F1000103E3668C6F3C107774E26FA07F000E058
:105F20007548E5E07548E3E07548E1E0714E1836E4
:105F3000366806F003046F4E18363668C6F305114E
:105F40006C4E1C36366806F001056A4E24363668FB
:105F5000C6F3CC0616FB05F601EE106AB8EE410A50
:105F6000002971D024B1012C50D0022C6DD16DE0EC
:105F7000604E103E3668C6F340163EB35D4E103E8E
:105F80003668C6F3C1075C4E26FA07F301EE103AF5
:105F9000F8EE411A01EE101AB8EE411A81EE812A8C
:105FA0009FED581AC0EE011A524E20363668C6F3DD
:105FB000080601EE106AB8EE411A31EE811AF7EECA
:105FC000001A31EE211A62EE010A1EE001EE101AEB
:105FD000B8EE411ADFED4C1A81EE812A9FED491A85
:105FE000C0EE011A434E20363668C6F3080601EEAD
:105FF000106AB8EE411A31EE811A00E076E0F7EE51
:10600000001A31EE211A62EE010A5BE001EE101A6D
:10601000B8EE411A9FED3D2AC2EE011A9FED391AE2
:1060200080EE012A334E20363668C6F3080601EEAC
:10603000106AB8EE411A32EE011AB7EE002A31EEBC
:10604000021A61EE810A3DE04EE01DE001EE101AF9
:10605000B8EE411ADFED2E1A81EE812A9FED291A42
:10606000C0EE011A234E20363668C6F3080601EE4C
:10607000106AB8EE411A31EE811AF7EE001A31EECD
:10608000211A62EE010A1DE001EE101AB8EE411A63
:106090009FED1E2AC2EE011A9FED1A1A80EE012A08
:1060A000144E20363668C6F3080601EE106AB8EEC4
:1060B000411A32EE011AB7EE002A31EE021A61EEF1
:1060C000810A00BF00BF0B4E20363668C6F3462655
:1060D000721C01EE102AB8EE411AC0EE811ABCEE15
:1060E000E11A11EE100A00E0002001E0034800BFB1
:1060F00000BFF0BD104402580090D00300093D00DD
:1061000000366E01000000460024744C0024744ADE
:10611000001BB74B2DE9F047044614B90120BDE838
:10612000F087207800F00100002870D0F94800685E
:1061300000F03808F7481830D0F80090B8F1100F88
:1061400006D0B8F1180F0FD109F0030002280BD1C7
:10615000F04810380068C0F3404000286AD06068FA
:10616000002867D10120DAE700BF6068B0F5803F02
:1061700008D1E8481038006840F48030E54910390B
:1061800008602EE0606868B9E2481038006820F4C2
:106190008030E049103908600846006820F480200B
:1061A00008601EE06068B0F5A02F0DD1D948103806
:1061B000006840F48020D74910390860084600681C
:1061C00040F4803008600CE0D2481038006820F4B9
:1061D0008030D049103908600846006820F48020DB
:1061E000086000BF606898B1FEF7DCFC054606E079
:1061F000FEF7D8FC401B642801D903208FE7C5486F
:1062000010380068C0F340400028F1D012E012E0DE
:10621000FEF7C8FC054606E0FEF7C4FC401B6428F8
:1062200001D903207BE7BB4810380068C0F3404029
:106230000028F1D100BF207800F00200022879D1B7
:10624000B448006800F03808B2481830D0F8009020
:10625000B8F1000F05D0B8F1180F35D109F00300DF
:1062600088BBAC4810380068C0F3800018B1E06803
:1062700008B9012053E7A7481038006820F019003A
:10628000E1680843A34910390860FEF78BFC054616
:1062900006E0FEF787FC401B022801D903203EE7F9
:1062A0009C4810380068C0F380000028F1D099485D
:1062B0000C38006820F0FE40217C40EA01609549DE
:1062C0000C39086045E0FFE7E06838B391481038C2
:1062D000006820F01900E16808438E491039086011
:1062E000FEF760FC054606E0FEF75CFC401B02285A
:1062F00001D9032013E7874810380068C0F38000F5
:106300000028F1D083480C38006820F0FE40217C42
:1063100040EA01607F490C3908601AE07D48103876
:10632000006820F001007B4910390860FEF73AFC54
:10633000054607E00EE0FEF735FC401B022801D9B8
:106340000320ECE6734810380068C0F38000002892
:10635000F1D100BF207800F0100010286FD16D48F7
:10636000006800F038086B481830D0F80090B8F199
:10637000080F06D0B8F1180F1CD109F0030001284E
:1063800018D1644810380068C0F3002020B1E069DB
:10639000802801D00120C2E600BF5E48001F0068CF
:1063A00020F07C5094F8201040EA01605949091F00
:1063B000086043E0E06938B356481038006840F0A0
:1063C0008000544910390860FEF7ECFB054606E0F2
:1063D000FEF7E8FB401B022801D903209FE64D4849
:1063E00010380068C0F300200028F1D000BF4948F1
:1063F000001F006820F07C5094F8201040EA0160F3
:106400004449091F086019E042481038006820F02C
:106410008000404910390860FEF7C4FB054606E0DD
:10642000FEF7C0FB401B022801D9032077E639485C
:1064300010380068C0F300200028F1D100BF207898
:1064400000F00800082836D16069D0B131486430C6
:10645000006840F001002F4964310860FEF7A2FB9C
:10646000054606E0FEF79EFB401B022801D90320EB
:1064700055E6284864300068C0F340000028F1D099
:1064800019E024486430006820F00100214964319B
:106490000860FEF787FB054606E0FEF783FB401B1E
:1064A000022801D903203AE61A4864300068C0F394
:1064B00040000028F1D1207800F02000202838D1B9
:1064C000A069D0B113481038006840F480501149D9
:1064D00010390860FEF766FB054606E0FEF762FB32
:1064E000401B022801D9032019E60A481038006829
:1064F000C0F340300028F1D01BE006481038006897
:1065000020F48050034910390860FEF74BFB054624
:1065100009E0000010440258FEF744FB401B02282B
:1065200001D90320FBE5D0480068C0F340300028C3
:10653000F2D1207800F0040004287DD1CB48006817
:1065400040F48070C9490860FEF72CFB054606E060
:10655000FEF728FB401B642801D90320DFE5C34870
:10656000006800F480700028F2D000BFA068012805
:1065700008D1BD487030006840F00100BA49703160
:1065800008602DE0A06868B9B7487030006820F056
:106590000100B549703108600846006820F0040029
:1065A00008601DE0A06805280DD1AF487030006874
:1065B00040F00400AC49703108600846006840F0C3
:1065C000010008600CE0A8487030006820F001006D
:1065D000A549703108600846006820F00400086092
:1065E00000BFA068A0B1FEF7DDFA054608E0FEF79F
:1065F000D9FA401B41F28831884201D903208EE547
:10660000994870300068C0F340000028EFD013E0D4
:10661000FEF7C8FA054608E0FEF7C4FA401B41F24F
:106620008831884201D9032079E58F4870300068AD
:10663000C0F340000028EFD1606A00287DD08A486E
:106640001030006800F03800182877D0606A0228FF
:1066500075D18548006820F0807083490860FEF796
:10666000A1FA054606E0FEF79DFA401B022801D973
:10667000032054E57C480068C0F340600028F2D154
:1066800000BFD4E90A1041EA0010774928310968AF
:1066900040F2F33291430843734928310860208E59
:1066A000401EC0F30800616B491E4FF47E4202EAAF
:1066B00041210843218F491ED20102EA01410843CA
:1066C0003C21095D491E120202EA01610843664944
:1066D0003031086000BF081F006820F00100091F6A
:1066E00008606148343000684FF6F8718843A16C47
:1066F00040EAC1005C49343108605B482C300068D6
:1067000020F00C00216C084357492C3108600846E2
:10671000006820F00200616C084353492C31086086
:106720000846006840F4803008600846006840F47D
:10673000003008600846006802E092E038E01FE0A0
:1067400040F4802008600846006840F001000860BE
:106750004548006840F0807043490860FEF722FA1F
:10676000054606E0FEF71EFA401B022801D9032069
:10677000D5E43D480068C0F340600028F2D070E0E6
:106780003948006820F0807037490860FEF70AFA3F
:10679000054606E0FEF706FA401B022801D9032051
:1067A000BDE431480068C0F340600028F2D158E0F1
:1067B0002D48283007682C4830300668606A012868
:1067C00021D007F00301A06A81421CD1C7F3051153
:1067D000E06A884217D1C6F30801206B401E81424F
:1067E00011D1606B401EC6F3462188420BD1A06BCD
:1067F000401EC6F30641884205D1E06B401EC6F339
:106800000661884201D0012089E4174834300068CD
:10681000C0F3CC07A06CB84223D013482C300068DA
:1068200020F0010010492C310860FEF7BBF9054645
:1068300000BFFEF7B7F9401BFBD00B4834300068AF
:106840004FF6F8718843A16C40EAC1000649343123
:10685000086005482C30006840F0010002492C31E6
:10686000086000205BE40000004402580048025821
:10687000704700002DE9F05F044620680769206832
:10688000D0F8148007EA08052068D0F808904FF087
:10689000000A94F88160206800F1300B08F4006071
:1068A000B0F5006F0ED107F0080008280AD1206863
:1068B000806940F4006021688861204600F0B9FAE0
:1068C000BDE8F09F05F0400070B905F0200058B910
:1068D00005F00400042807D12046616F8847204650
:1068E000216F88474FF0010A05F0400050B905F0CC
:1068F000010038B105F0040020B92046216F884717
:106900004FF0010A05F0200058B905F002000228F6
:1069100007D105F0040020B92046616F88474FF089
:10692000010ABAF1000F00D0CAE705F008000828F4
:1069300063D12068806940F0080021688861206880
:10694000806940F01000216888612068806940F407
:106950000060216888612068006920F008002168D3
:1069600008612068806800F4404038BB22E0E0689D
:106970000F2807D92068006B616E0860606E001DEB
:10698000606612E0E068072807D9BBF80000616E76
:106990000880606E801C606607E0206890F8300018
:1069A000616E0870606E401C6066B4F86A00401E3C
:1069B000A4F86A00B4F86A000028D8D1204603F091
:1069C0007BF8012084F88100D4F8840018B12046B7
:1069D000FFF74EFF74E7052E03D1204600F0ACFB15
:1069E0000AE0042E03D1204600F022FA04E0032E30
:1069F00002D1204600F09FFB62E705F458700028A2
:106A00007DD005F0400058B1D4F8840040F0040077
:106A1000C4F884002068806940F0400021688861E3
:106A200005F4007058B1D4F8840040F00100C4F8B7
:106A300084002068806940F400702168886105F452
:106A4000807058B1D4F8840040F00800C4F8840085
:106A50002068806940F480702168886105F020001A
:106A600058B1D4F8840040F08000C4F88400206855
:106A7000806940F0200021688861D4F88400A8B3C0
:106A80002068006820F00100216808602068006923
:106A900040F26B3188432168086109F44040B0F549
:106AA000404F25D12068806820F4404021688860EC
:106AB000E06F60B11348E16F0865E06FFBF7A6FE79
:106AC00028B1D4F8840040F04000C4F88400A06FDE
:106AD00060B10C48A16F0865A06FFBF797FE28B165
:106AE000D4F8840040F04000C4F8840006E006E0DA
:106AF000012084F881002046FFF7BAFEE0E600BFDF
:106B0000DEE600008F9B000870B504460CB901203A
:106B100070BD606A00B900BF0021A16263492068AE
:106B200088420CD062492068884208D061492068B8
:106B3000884204D0E0680F2801D90120E8E7204608
:106B400003F033F8054659492068884209D058496E
:106B50002068884205D057492068884201D0082D16
:106B60000DD852492068884207D051492068884290
:106B700003D050492068884203D1102D01D901204B
:106B8000C6E794F8810028B9002084F880002046E8
:106B900000F092F8022084F881002068006820F05C
:106BA0000100216808602068806800F4F816A06978
:106BB000B0F1806F11D16068B0F5800F01D1A06B8A
:106BC00028B1606848B9A06BB0F1805F05D120683A
:106BD000006840F4805021680860606800F480001C
:106BE000B0F5800F0BD1E068072808D32068006853
:106BF00020F48070216D08432168086005E020685A
:106C0000006820F4807021680860A16AE069084388
:106C10003043E16B0843E168084321688860616A9A
:106C2000606B0843A16B0843A169084321690843CD
:106C300061690843216A084361680843E16C0843BD
:106C4000A1680843A16C0843A16D08432168C8608E
:106C5000606878B92068806820F4C05040F4006013
:106C6000216888602068806820F4C06040F48060FB
:106C7000216888602068006D20F0010021680865A7
:106C8000606800F48000B0F5800F07D12068C0680C
:106C900020F00040616D08432168C8600020C4F8FE
:106CA0008400012084F88100002031E70030014099
:106CB00000380040003C004010B5B6B00446142136
:106CC00030A8F9F7CBFBB82102A8F9F7C7FB514967
:106CD000206888427DD181140020CDE902101990EE
:106CE00002A8FEF79FF808B1FBF79AFB00BF4A48DD
:106CF000006840F48040484908600846006800F495
:106D00008040019000BF00BF00BF434808380068C2
:106D100040F004004049083908600846006800F067
:106D20000400019000BF00BF00BF0846006840F0AB
:106D3000020008600846006800F00200019000BFF1
:106D400000BF0620309002203190002032900320B6
:106D500033900520349030A93048FDF71DFE4FF4E4
:106D60000050309002203190002032900320339068
:106D70000520349030A92A48FDF70EFE29482A49FB
:106D8000086027204860002127488160C1604FF4D7
:106D900080610161002141618161C1614FF4403135
:106DA000016200214162FCF779FC08B1FBF738FB76
:106DB00000BF1D48E067846300BF1A4818301B49B4
:106DC0000860282048604021184881600021C16087
:106DD00000E01DE04FF480610161002141618161AB
:106DE000C1614FF40031016200214162FCF756FCA1
:106DF00008B1FBF715FB00BF0C48A067846300BF18
:106E0000002205212420FDF78BFF2420FDF774FFCD
:106E100036B010BD00380040E8440258000802585F
:106E200000040258100002408C05002404060024CF
:106E3000704770472DE9FF5F04468A4693461E4619
:106E40000E9D002003902068203002902068303092
:106E5000019000BF94F88000012803D1022004B003
:106E6000BDE8F09F012084F8800000BFFDF79AFE86
:106E700081463746B04694F88100012808D00220A8
:106E8000039000BF002084F8800000BF0398E6E76D
:106E9000BAF1000F03D0BBF1000F00D046B90120BA
:106EA000039000BF002084F8800000BF0398D6E75D
:106EB000052084F881000020C4F88400C4F864B080
:106EC000A4F86A60A4F86860C4F85CA0A4F86260E2
:106ED000A4F86060206760672068C06820F4C02064
:106EE0002168C860206840686FF30F003043216854
:106EF00048602068006840F0010021680860606810
:106F0000B0F5800F05D12068006840F4007021685A
:106F10000860E0680F284ED947E02068406900F01B
:106F2000020002280ED16FB1E06D0068216808628E
:106F3000E06D001DE065B4F86200401EA4F8620038
:106F4000B4F862702068406948F20801084080B1D6
:106F5000B8F1000F0DD02068006B616E0860606EA4
:106F6000001D6066B4F86A00401EA4F86A00B4F818
:106F70006A80FDF717FEA0EB0900A84201D3681C48
:106F800000B995B9204602F097FD00BF002084F8B3
:106F9000800000BFD4F8840040F48070C4F88400FE
:106FA000012084F88100032059E7002FB5D1B8F102
:106FB000000FB2D19EE0E06807284CD945E0206878
:106FC000406900F0020002280DD167B154F85C0F4F
:106FD0000188029801802068801C2060E088401EA3
:106FE000E080E7885C3C2068406900F0010080B1E7
:106FF000B8F1000F0DD00198008854F8641F088084
:107000002068801C2060E088401EE080B4F8068084
:10701000643CFDF7C7FDA0EB0900A84201D3681C42
:1070200000B995B9204602F047FD00BF002084F862
:10703000800000BFD4F8840040F48070C4F884005D
:10704000012084F88100032009E7002FB7D1B8F1AF
:10705000000FB4D14EE048E02068406900F0020023
:1070600002280FD177B1E06D0078216881F8200007
:10707000E06D401CE065B4F86200401EA4F86200B8
:10708000B4F862702068406900F0010088B1B8F17E
:10709000000F0ED0206890F83000616E0870606EAE
:1070A000401C6066B4F86A00401EA4F86A00B4F898
:1070B0006A80FDF777FDA0EB0900A84201D3681CA8
:1070C00000B995B9204602F0F7FC00BF002084F813
:1070D000800000BFD4F8840040F48070C4F88400BD
:1070E000012084F881000320B9E6002FB4D1B8F163
:1070F000000FB1D12B46002208212046CDF8009088
:1071000002F060FD28B1D4F8840040F02000C4F8FB
:107110008400204602F0D0FC00BF002084F88000EC
:1071200000BF012084F88100D4F8840008B1012058
:1071300095E6039893E6704770477047704770472D
:1071400030B502460B4600BF92F83C00012801D141
:10715000022030BD012082F83C0000BF022082F8EE
:107160003D001068416810688468254D1068A84289
:1071700003D0244D1068A84203D121F4700158684F
:10718000014321F0700118680143106841601C4DF3
:107190001068A84223D01068B0F1804F1FD01A4D5C
:1071A0001068A8421BD0194D1068A84217D0184D7E
:1071B0001068A84213D0134D1068A8420FD0154D87
:1071C0001068A8420BD0144D1068A84207D0134D88
:1071D0001068A84203D0124D1068A84205D124F0CF
:1071E00080049868044310688460012082F83D00A0
:1071F00000BF002082F83C0000BF00BFA9E70000EC
:10720000000001400004014000040040000800406C
:10721000000C0040001800400040014000E0004029
:1072200000E4004010B504460CB9012010BD94F8EC
:107230003D0028B9002084F83C00204600F029F8E1
:10724000022084F83D00211D206802F0CDFD0120C0
:1072500084F8480000BF84F83E0001213F2001551A
:107260004020015541200155422001554320015540
:1072700000BF00BF012084F844004520015546208E
:1072800001554720015500BF012084F83D00002032
:10729000CCE77047014691F83D00012801D001205C
:1072A0007047022081F83D000868C06840F0010086
:1072B0000B68D860204B0868984223D00868B0F16A
:1072C000804F1FD01D4B086898421BD01C4B08688C
:1072D000984217D01B4B0868984213D01A4B086885
:1072E00098420FD0194B086898420BD0184B086889
:1072F000984207D0174B0868984203D0164B08688D
:10730000984210D108688068144B00EA0302062AEC
:107310000FD0B2F5803F0CD00868006840F0010043
:107320000B68186005E00868006840F001000B6811
:1073300018600020B4E70000000001400004004095
:1073400000080040000C004000040140001800400C
:107350000040014000E0004000E400400700010060
:10736000704710B5044620680069C0F34000D8B1EA
:107370002068C068C0F34000B0B16FF0020021681F
:107380000861012020772068806900F0030018B1AF
:107390002046FFF7E5FF05E0204600F0EDF8204627
:1073A00000F0F2F90020207720680069C0F3800027
:1073B000D8B12068C068C0F38000B0B16FF004009D
:1073C00021680861022020772068806900F44070FD
:1073D00018B12046FFF7C4FF05E0204600F0CCF8C6
:1073E000204600F0D1F90020207720680069C0F322
:1073F000C000D8B12068C068C0F3C000B0B16FF061
:10740000080021680861042020772068C06900F026
:10741000030018B12046FFF7A3FF05E0204600F067
:10742000ABF8204600F0B0F9002020772068006912
:10743000C0F30010D8B12068C068C0F30010B0B12C
:107440006FF0100021680861082020772068C0696B
:1074500000F4407018B12046FFF782FF05E0204697
:1074600000F08AF8204600F08FF90020207720688D
:10747000006900F0010058B12068C06800F0010008
:1074800030B16FF0010021680861204600F07DF9FD
:1074900020680069C0F3C01058B12068C068C0F30C
:1074A000C01030B16FF08000216808612046FFF7FE
:1074B00045FE20680069C0F3002058B12068C0680C
:1074C000C0F3C01030B16FF48070216808612046AD
:1074D000FFF733FE20680069C0F3801058B12068C0
:1074E000C068C0F3801030B16FF0400021680861BF
:1074F000204600F053F920680069C0F3401058B1ED
:107500002068C068C0F3401030B16FF020002168DF
:1075100008612046FFF713FE10BD000010B586B0CD
:107520000446142101A8F8F799FF10492068884201
:1075300019D100BF0E48006840F002000C490860F5
:107540000846006800F00200009000BF00BF022063
:10755000019002900020039004900220059001A960
:107560000448FDF719FA06B010BD00000004004001
:10757000E04402580004025870472DE9F0410446E7
:107580000D461646002700BF94F83C00012802D1A2
:107590000220BDE8F081012084F83C0000BF0C2EE1
:1075A00051D005DC4EB1042E1ED0082E7AD133E026
:1075B000102E60D0142EF9D175E02946206802F013
:1075C00083FC2068806940F0080021688861206899
:1075D000806920F004002168886120688069296939
:1075E00008432168886178E02946206802F0C2FCDF
:1075F0002068806940F400602168886120688069A3
:1076000020F480602168886120688069296940EAE7
:1076100001202168886160E02946206802F004FDAD
:107620002068C06940F008002168C8612068C0690E
:1076300020F004002168C8612068C06929690843F6
:107640002168C86149E02946206802F047FD2068AA
:10765000C06940F400602168C8612068C06920F4F6
:1076600080602168C8612068C069296940EA0120FA
:107670002168C86131E02946206802F069FD206870
:10768000406D40F00800216848652068406D20F09A
:107690000400216848652068406D29690843216815
:1076A00048651AE017E02946206802F089FD206845
:1076B000406D40F40060216848652068406D20F40A
:1076C0008060216848652068406D296940EA012092
:1076D0002168486501E0012700BF00BF00BF00200E
:1076E00084F83C0000BF384653E710B504460CB997
:1076F000012010BD94F83D0028B9002084F83C001A
:10770000204600F029F8022084F83D00211D206861
:1077100002F06AFB012084F8480000BF84F83E00B4
:1077200001213F20015540200155412001554220B3
:1077300001554320015500BF00BF012084F84400DB
:1077400045200155462001554720015500BF012025
:1077500084F83D000020CCE708B5094A0168914251
:107760000DD100BF0749096841F00201054A1160C7
:107770001146096801F00201009100BF00BF08BD79
:1077800000040040E8440258704710B504462068E1
:10779000B0F1804F01D1FDF70BFA10BD704700002A
:1077A00070B5044600202074A37B484D2D8803FB50
:1077B00005F26168D4F8FC00F8F737FEA27B434B72
:1077C0001B8802FB03F16068F8F748FEA27B3F4B81
:1077D0001B885A43A37B02FB03F1D4F82401F8F77A
:1077E0003DFE227B394B1B885A43A37B02FB03F1EE
:1077F000D4F81801F8F732FE002031E0D4F8FC107C
:1078000001EB800191ED000AB5EEC00AF1EE10FA2D
:1078100024D0D4F8FC1001EB800191ED000A227C09
:10782000D4F8FC1001EB820181ED000A227C616A30
:107830008854A16901EB800191ED000A6169095C3E
:10784000227B237C12FB0311491ED4F8182102EB82
:10785000810181ED000A217C491C2174411CC8B2C0
:10786000A17B8142CADC002011E0626A125CE169FE
:1078700001EB820191ED000A227C00FB0202D4F8A8
:10788000241101EB820181ED000A411CC8B2217C68
:107890008142EADC207CA4F88000217B8220015315
:1078A000207BA4F88800217C8A200153207CA4F846
:1078B0009800217C9A200153207BA4F8A000217C11
:1078C000A2200153207CA4F8480070BD9000002441
:1078D00000BFFEE710B59FED071ADFED070AB7EE10
:1078E000000A064804F0DCF99FED050A054880ED22
:1078F000100A10BD6F12833A00000000E4800024DB
:107900004ED1113C5080002400BF00F001F8FCE78C
:107910000EB5FFF7DFFF6AE1B548FAF7E7FBB548B8
:1079200080ED000A90ED000AB34880ED020AB348EA
:10793000F9F7CEF9B14890ED000AB14880ED070A99
:10794000AE4890ED010AAE4880ED080AAB4890EDD4
:10795000020AAB4880ED090AA84890ED000AA94840
:1079600080ED000AA54890ED010AA64880ED010AC5
:10797000A24890ED020AA34880ED020A9F4890EDCC
:10798000030A9F4880ED040A9C4890ED040A9C4835
:1079900080ED050A994890ED050A994880ED060AA0
:1079A000964890ED030A984880ED000A934890EDC0
:1079B000040A954880ED010A904890ED050A924826
:1079C00080ED020A8F48D0ED022A90ED012AD0ED19
:1079D000001A8D4890ED021AD0ED010A90ED000AD0
:1079E000854804F079F9844804F0AAF9824804F043
:1079F00082F9814801F0C0FF7F4890ED0C0A804871
:107A000080ED000A7C4890ED0D0A7D4880ED010A6A
:107A1000794890ED0E0A7A4880ED020A764890ED9A
:107A20000F0A774880ED030A024669467748FAF75D
:107A30004AFC002039E072491C3101EB800191EDD4
:107A4000000A694601EB8001D1ED000A30EE600AC0
:107A50006849D1ED000A60EE200A694991ED100AEB
:107A6000644991ED001A30EE011A80EE810A6449F2
:107A7000283101EB8001D1ED000A614991ED101A26
:107A800060EE810A91ED101A5A49D1ED001A31EEDB
:107A9000211AC0EE811A30EE210A5949283101EB32
:107AA000800181ED000A411CC8B20328C3DB544A9F
:107AB00002F13401A1F10C00F9F73EFB504890EDC2
:107AC0000D0AF0EEC00A9FED520AF4EEC00AF1EE84
:107AD00010FA03D29FED4F0A80ED0D0A484890ED51
:107AE0000E0AF0EEC00A9FED4A0AF4EEC00AF1EE6B
:107AF00010FA03D29FED470A80ED0E0A404890ED40
:107B00000F0AF0EEC00A9FED440AF4EEC00AF1EE4F
:107B100010FA03D29FED3F0A80ED0F0A3F4890ED27
:107B2000000ADFED3F0AB4EEE00AF1EE10FA51DD93
:107B30000120334981F890002F4890ED1A0A084639
:107B400080ED1D0A2C4890ED190A084680ED1C0AAC
:107B5000294890ED1B0A084680ED1E0A90ED1E0A8A
:107B6000D0ED200A30EE600ADFED2E0AB4EEE00A16
:107B7000F1EE10FA08DD90ED210AF7EE000A30EE82
:107B8000600A80ED210A15E01D4890ED1E0AD0ED37
:107B9000200A30EE600ADFED240AB4EEE00AF1EECE
:107BA00010FA07D290ED210AF7EE000A30EE200A13
:107BB00080ED210A124890ED1E0AD0ED210A9FEDBA
:107BC0001B1A01EE200A80ED1F0A90ED1E0A80EDBF
:107BD000200A08E0114890ED000AF7EE000A30EEA6
:107BE000200A80ED000A012004F06CFB00BF93E640
:107BF000080100240C010024E48000242007002454
:107C0000508000247481002468810024FC0000243A
:107C10000AD7A33C000000000AD7233D100100242E
:107C200000803B45DA0F4940DA0F49C0560EC94083
:107C30000FB583B00420FE4908800820FD49088064
:107C4000DDE90310087303990598487303990698B2
:107C500088730021039801740698029004F0F4F9E7
:107C6000039948610698029003984069019002992F
:107C7000F8F7F4FBEE48008806994843029004F0B8
:107C8000E3F903998861EA4800880699484302901D
:107C90000398806901900299F8F7E0FBE4480088B6
:107CA00006994843029004F0CFF90399C861E0486F
:107CB00000880699484302900398C0690190029990
:107CC000F8F7CCFBDA48008804994843029004F0A6
:107CD000BBF903990862D64800880499484302908A
:107CE0000398006A01900299F8F7B8FB0698029091
:107CF00004F0AAF903994862069802900398406A32
:107D000001900299F8F7AAFBC948008804994843F2
:107D1000029004F099F903990860C5480088049915
:107D2000484302900398006801900299F8F796FB87
:107D3000BF48008806994843029004F085F90399EA
:107D40004860BB4800880699484302900398406801
:107D500001900299F8F782FBB548008805994843DD
:107D6000029004F071F903998860B1480088059980
:107D7000484302900398806801900299F8F76EFBDF
:107D8000AB48008804994843029004F05DF90399D8
:107D9000C1F8F000A648008804994843029003986F
:107DA000D0F8F00001900299F8F758FB0398D0F84A
:107DB000F00002900398007B019001220146DDE96A
:107DC00002303030F8F759FC99480088049948434C
:107DD000029004F039F90399C1F8F400944800883E
:107DE0000499484302900398D0F8F4000190029956
:107DF000F8F734FB0398D0F8F40002900398007B66
:107E0000019001220146DDE902303830F8F735FCF7
:107E1000059818B38648008805994843029004F0F5
:107E200013F90399C1F8F80081480088059948437F
:107E300002900398D0F8F80001900299F8F70EFB31
:107E40000398D0F8F80002900398407B019001223B
:107E50000146DDE902304030F8F70FFC7448008835
:107E600006994843029004F0EFF80399C1F8FC002A
:107E70006F4800880699484302900398D0F8FC00A8
:107E800001900299F8F7EAFA0398D0F8FC00029002
:107E90000398807B019001220146DDE902304830E1
:107EA000F8F7EBFB62480088049948434843029086
:107EB00004F0CAF80399C1F800015D4800880499EC
:107EC0004843484302900398D0F80001019002997A
:107ED000F8F7C4FA0398D0F8000102900398007BE9
:107EE00001900398007B00900146DDE9023050309C
:107EF000019AF8F7C2FB4E4800880499484348436A
:107F0000029004F0A1F80399C1F8040148480088E0
:107F100004994843484302900398D0F80401019023
:107F20000299F8F79BFA0398D0F80401029003989D
:107F3000007B01900398007B00900146DDE9023050
:107F40005830019AF8F799FB39480088049948435A
:107F50004843029004F078F80399C1F808013448C6
:107F60000088049948434843029004F06DF803994F
:107F7000C1F80C012E4800880499484348430290F8
:107F80000398D0F8080101900299F8F767FA284899
:107F9000008804994843484302900398D0F80C01A4
:107FA00001900299F8F75AFA0398D0F80801029064
:107FB0000398007B01900398007B00900146DDE967
:107FC00002306030019AF8F758FB0398D0F80C01A2
:107FD00002900398007B01900398007B009001467B
:107FE000DDE902306830019AF8F747FB059878B36D
:107FF0000F4800880499484305994843029004F0CB
:1080000023F80399C1F814010948008804994843EA
:108010000599484302900398D0F814010190029901
:10802000F8F71CFA0398D0F814010290039803E0C3
:108030009000002492000024407B01900398007B74
:1080400000900146DDE902307830019AF8F715FB1F
:10805000B94800880699484304994843029003F0C0
:10806000F3FF0399C1F81801B34800880499484305
:1080700006994843029003F0E7FF0399C1F81C01F9
:10808000AD480088069948430499484302900398F4
:10809000D0F8180101900299F8F7E0F9A648008895
:1080A000049948430699484302900398D0F81C016C
:1080B00001900299F8F7D2F90398D0F818010290CC
:1080C0000398007B01900398807B00900146DDE9D6
:1080D00002308030019AF8F7D0FA0398D0F81C01EA
:1080E00002900398807B01900398007B00900146EA
:1080F000DDE902308830019AF8F7BFFA8E4800882F
:10810000049948434843029003F09EFF0399C1F845
:108110002001894800880499484348430290039805
:10812000D0F8200101900299F8F798F90398D0F857
:10813000200102900398007B01900398007B00903F
:108140000146DDE902309030019AF8F796FA7A4854
:108150000088069948434843029003F075FF03994D
:10816000C1F82401744800880699484348430290A6
:108170000398D0F8240101900299F8F76FF9039859
:10818000D0F8240102900398807B01900398807BB3
:1081900000900146DDE902309830019AF8F76DFA57
:1081A000654800880499484306994843029003F0C3
:1081B0004BFF0399C1F828015F48008804994843A0
:1081C0000699484302900398D0F82801019002993B
:1081D000F8F744F90398D0F8280102900398807BBF
:1081E00001900398007B00900146DDE90230A03049
:1081F000019AF8F742FA0398007B4F4909884843EF
:108200000399097B4843029003F01EFF0399C1F8CC
:108210002C010398007B4849098848430399097B4E
:108220004843029003F010FF0399C1F8300103980E
:10823000007B4149098848430399097B48430290E0
:1082400003F002FF0399C1F834010398007B3A4917
:1082500009884843029003F0F7FE0399C1F83801FA
:108260000398007B344909884843029003F0ECFEF0
:108270000399C1F83C010398D0F82C0102900398AF
:10828000007B01900398007B00900146DDE90230FD
:10829000A830019AF8F7F1F90398D0F8300102906C
:1082A0000398007B01900398007B00900146DDE974
:1082B0000230B030019AF8F7E0F90398D0F83401B1
:1082C00002900398007B01900398007B0090014688
:1082D000DDE90230B830019AF8F7CFF90398D0F809
:1082E000380102900398007B019001220146DDE9EC
:1082F0000230C030F8F7C1F90398D0F83C01029081
:108300000398007B019001220146DDE90230C8306C
:10831000F8F7B3F90021039880F82810039880F843
:108320002910039880F82A10039880F82B100398DE
:1083300080F82C1007B000BD9000002470B50446F2
:10834000E07B18B12046FFF72BFA11E0A37B0E4D1E
:108350002D8803FB05F26168D4F8FC00F8F765F896
:10836000A27B094B1B8802FB03F16068F8F776F8E3
:10837000637B054D2D8803FB05F2A168D4F8F80056
:10838000F8F753F870BD00009000002410B50446C3
:1083900094F82C0068BBB4F8A000A4F8B0008220C8
:1083A000015BB2200153B4F8B000A4F8B8005A2021
:1083B000015BBA20015304F1B00204F1800104F121
:1083C000A000F8F7C5FA84F8D00004F1B80204F16F
:1083D000580104F1B000F8F7BBFA84F8D00004F1BA
:1083E000500204F1B80104F15800F8F749FB84F891
:1083F000D00010BD10B5044694F8290068BB04F104
:10840000680104F16000F8F79BFB84F8D00004F1E8
:10841000580204F1500104F16000F8F799FA84F869
:10842000D000B4F85800A4F8B0006A20015BB22074
:10843000015304F1B00204F1680104F15800F8F7A7
:1084400087FA84F8D00004F1580204F1900104F195
:10845000B000F8F7B3F884F8D00010BD10B50446AA
:1084600094F82A00002861D104F1880104F1800009
:10847000F8F766FB84F8D000B4F88000A4F8B000E8
:108480005A20015BB220015304F1B00204F15801FB
:1084900004F18000F8F75CFA84F8D000B4F8B0007A
:1084A000A4F8B8008A20015BBA20015304F1B80295
:1084B00004F1880104F1B000F8F74AFA84F8D0001A
:1084C000B4F89800A4F8A8009A20015BAA200153F0
:1084D00004F1A80204F1980104F1B800F8F76EF86D
:1084E00084F8D00004F1B80104F1A800F8F7CAF844
:1084F00084F8D000B4F85800A4F8B0008A20015BDA
:10850000B220015304F1B00204F1880104F15800D3
:10851000F8F71EFA84F8D00004F1A00204F1B801C3
:1085200004F1B000F8F714FA84F8D00010BD000090
:1085300070B504462046FFF701FFD4F8D40018B107
:108540002046D4F8D4108847204600F087F8D4F8A5
:10855000D80018B12046D4F8D81088472046FFF735
:1085600049FFD4F8DC0018B12046D4F8DC10884765
:10857000207C08B9E07BB8B92046FFF76FFFD4F83C
:10858000E00018B12046D4F8E0108847204600F0FB
:10859000A3F8D4F8E40018B12046D4F8E4108847D2
:1085A0002046FFF7F3FE14E0237B2B4D2D8803FBC1
:1085B00005F2D4E93C01F7F738FF237B264D2D88DF
:1085C0006B43257B03FB05F204F5807003C8F7F7C6
:1085D0002CFFD4F8E80018B12046D4F8E8108847FA
:1085E000002022E0227B00FB0202D4F8001101EB04
:1085F000820191ED000A216A01EB8001D1ED000AB0
:10860000B4EEE00AF1EE10FA0DD2216A01EB80011E
:1086100091ED000A227B00FB0202D4F8001101EB6D
:10862000820181ED000A411CC8B2217B8142D9DC64
:10863000237B094D2D8803FB05F2D4F8F010206848
:10864000F7F7F3FED4F8EC0018B12046D4F8EC109C
:108650008847206870BD00009000002410B50446D3
:1086600094F8280060BB607B00282ADD207BA4F8FA
:10867000C0000121C220015304F1C00204F1300105
:1086800004F16000F8F764F984F8D000207BA4F8C6
:10869000C8000121CA20015304F1C80204F14001BD
:1086A00004F17800F8F754F984F8D00004F13802A6
:1086B00004F1C80104F1C000F7F780FF84F8D0008E
:1086C00009E004F1380204F1300104F16000F8F728
:1086D0003FF984F8D00010BD10B5044694F82B0083
:1086E000E0BBB4F88000A4F8C0000121C22001530F
:1086F00004F1C00204F1380104F18000F8F728F910
:1087000084F8D000B4F84800A4F8C8000121CA20B9
:10871000015304F1C80204F1C00104F14800F8F764
:10872000AFF984F8D000B4F8A000A4F8C00001218B
:10873000C220015304F1C00204F1C80104F1A000F9
:10874000F8F706F984F8D00004F1300204F1C00112
:1087500004F13800F7F732FF84F8D00010BDF0EED6
:10876000400A90ED000A20EE200A20EE200A20EEBA
:10877000200A90ED011A21EE201A01EE200A90ED58
:10878000021A01EE200A90ED031A30EE010A70473A
:1087900008B500BF0E48006840F001000C490860B1
:1087A0000846006800F00100009000BF00BF0022F2
:1087B00006210B20FCF7B4FA0B20FCF79DFA0022EF
:1087C00006210C20FCF7ACFA0C20FCF795FA08BD4A
:1087D000D844025810B51D481D4908600020886023
:1087E00000211B48C16001744174817404214161FE
:1087F000012181611321C1610521016204214162CE
:10880000012181621321C1620521016300214163BD
:1088100005218163C16304210164082141640021B1
:1088200081640821C16400210165042141650021A2
:108830008165C165082101660021416608218166C4
:10884000FBF7BEFD08B1F9F7EBFD10BD00A000403D
:108850002403002410B51D481D49086000208860CD
:1088600000211B48C160017441748174052141617C
:10887000012181610E21C161052101624162012155
:1088800081620E21C1620521016340F256314163CC
:1088900005218163C1630021016404214164816475
:1088A0000821C16400210165042141650021816521
:1088B000C165042101660021416606218166FBF73E
:1088C0007FFD08B1F9F7ACFD10BD000000A4004029
:1088D000C403002410B51D481D49086000208860AD
:1088E00000211B48C16001744174817405214161FC
:1088F000012181610E21C1610521016241620121D5
:1089000081620E21C1620521016340F2AD614163C4
:1089100005218163C16302210164042141640021B6
:1089200081640421C16400210165042141650021A5
:108930008165C165032101660021416604218166CC
:10894000FBF73EFD08B1F9F76BFD10BD00D4004008
:108950006404002400B59FB0142224491AA8F7F734
:1089600064FD00211AA803F0BEFC2149086014220E
:108970001E49143115A8F7F758FD002115A803F07A
:10898000B2FC1C49086014221849283110A8F7F7D6
:108990004CFD002110A803F0A6FC17490860142222
:1089A00012493C310BA8F7F740FD00210BA803F05A
:1089B0009AFC1249086014220C49503106A8F7F7B6
:1089C00034FD002106A803F08EFC0D490860142236
:1089D0000649643101A8F7F728FD002101A803F03A
:1089E00082FC084908601FB000BD0000ECD10008FF
:1089F0000000002404000024080000240C000024CF
:108A0000100000241400002400B587B0142102A82F
:108A1000F7F724FD00BF5548006840F004005349B3
:108A200008600846006800F00400019000BF00BF25
:108A300000BF0846006840F08000086008460068F3
:108A400000F08000019000BF00BF00BF0846006832
:108A500040F0010008600846006800F00100019045
:108A600000BF00BF00BF0846006840F00200086079
:108A70000846006800F00200019000BF00BF00BF80
:108A80000846006840F0100008600846006800F0E2
:108A90001000019000BF00BF00BF0846006840F012
:108AA000080008600846006800F00800019000BF58
:108AB00000BF00224FF4C0412D48FCF76DF80122A1
:108AC00009212B48FCF768F8012204212948FCF70A
:108AD00063F801224FF408512748FCF75DF84FF482
:108AE000C04002900120039000200490059002A94C
:108AF0001F48FBF751FF092002900120039000203E
:108B000004900320059002A91948FBF745FF0120B6
:108B10000290002003900120049002A91548FBF761
:108B20003BFF042002900120039004900320059055
:108B300002A91048FBF730FF4FF4085002900120C3
:108B4000039004900320059002A90B48FBF724FF33
:108B50004FF4A05002904FF488100390002004902E
:108B600002A90548FBF718FF07B000BDE044025812
:108B700000080258000002580010025810B51648AC
:108B8000164908604FF48000486000211348816056
:108B90000721C1604FF000710161491041618900F6
:108BA00081610901C1610021016241628162C1628A
:108BB0004FF08041416300218163C16301644164DE
:108BC0008164C164016541658165FDF79DFF08B160
:108BD000F9F726FC10BD0000003800400405002411
:108BE00000B58BB00020089009900A901C2101A8C4
:108BF000F7F734FC1848194908601720486000212D
:108C00001648816042F20F71C1600021016180212C
:108C10008161FEF76AFD08B1F9F702FC00200890B7
:108C20000A9008A90D48FEF78BFA08B1F9F7F8FB8E
:108C30006020019000200290039005900C2201A971
:108C40000648FEF79AFC08B1F9F7EAFB0348FEF77D
:108C500065FC0BB000BD0000000400407C06002451
:108C600000BFFEE700BFFEE700BF00F001F8FCE731
:108C70002DED028B02E0012003F024FB574890F811
:108C800090000028F7D0564804F052FAA5E0554865
:108C900090ED410AB1EE400A5048D0ED040A30EEA2
:108CA000600A5148D0ED0E0A30EE200A4F4880EDA0
:108CB000000A4D48D0ED210AB0EE600AF7F736FC05
:108CC0004948D0ED0B0A90ED221A60EE810A20EEA1
:108CD000208A464890ED000ADFED450A00EE208A22
:108CE0004148D0ED210AB0EE600AF7F783FF3E4815
:108CF000D0ED250A00EE808A3E4880ED008A394892
:108D000090ED500AB1EE400A3448D0ED040A30EE3E
:108D1000200A3948D0ED0E0A30EE200A374880ED9F
:108D2000000A3548D0ED210AB0EE600AF7F7FEFBE5
:108D30003148D0ED0B0A90ED221A60EE810A20EE48
:108D4000208A2E4890ED000ADFED290A00EE208AE5
:108D50002948D0ED210AB0EE600AF7F74BFF26480C
:108D6000D0ED250A00EE808A254880ED008A214852
:108D700090ED000A2248D0ED000A30EE600AF0EED5
:108D8000000A80EE201A1F4880ED001A1348D0ED2B
:108D90000E0AB0EE600A1B48D0ED000A104804F03D
:108DA00001FA194890ED000A0E4880ED5B0A174859
:108DB00090ED000AB8EE400A9FED151AC0EE010AC8
:108DC000084890ED5C0A90ED5B1A01EE200A80EDF8
:108DD0005C0A0E48006803F075FA58E750800024DA
:108DE00098850024208300247482002494020024A7
:108DF00022FD763D9C0200248081002498020024FC
:108E0000A0020024A402002488020024900200246E
:108E100000007A44B0EE401A10B99FED790A70470D
:108E200090ED100A80ED110A90ED0F0A80ED100A06
:108E3000C0ED060A80ED071A30EEC10A80ED0F0A78
:108E40000178002975D190ED010AD0ED0F1A20EEBE
:108E5000210A80ED090A90ED0A0AD0ED021A90ED80
:108E60000F2A01EE820A80ED0A0A90ED0D0A80EDCC
:108E70000E0A90ED0C0A80ED0D0A90ED0F0AD0ED70
:108E8000101A30EE610A80ED0C0A90ED030AD0ED65
:108E90000C1A20EE210A80ED0B0A90ED0A0AD0EDA3
:108EA000051AB4EEE10AF1EE10FA04DD90ED050AC0
:108EB00080ED0A0A10E090ED0A0AD0ED051AF1EEF5
:108EC000611AB4EEE10AF1EE10FA05D290ED050A4E
:108ED000B1EE400A80ED0A0A90ED090AD0ED0A1AB7
:108EE00030EE210AD0ED0B1A30EE210A80ED080A8F
:108EF00090ED080AD0ED041AB4EEE10AF1EE10FA92
:108F000004DD90ED040A80ED080A76E090ED080A91
:108F1000D0ED041AF1EE611AB4EEE10AF1EE10FAA6
:108F20006BD290ED040AB1EE400A80ED080A64E0CD
:108F3000FFE70178012960D190ED0F0AD0ED101AFA
:108F400030EE610AD0ED011A20EE210A80ED090A07
:108F500090ED020AD0ED0F1A20EE210A80ED0A0AE8
:108F600090ED0D0A80ED0E0A90ED0C0A80ED0D0AD1
:108F700090ED0F0AD0ED101AB0EE002A02EE610A51
:108F8000D0ED111A30EE210A80ED0C0A90ED030AA3
:108F9000D0ED0C1A20EE210A80ED0B0A90ED090AA3
:108FA000D0ED0A1A30EE210AD0ED0B1A30EE210A6C
:108FB000D0ED081A30EE210A80ED080A90ED080A7B
:108FC000D0ED041AB4EEE10AF1EE10FA04DD90EDF2
:108FD000040A80ED080A10E090ED080AD0ED041AAA
:108FE000F1EE611AB4EEE10AF1EE10FA05D290ED5D
:108FF000040AB1EE400A80ED080A90ED080A0EE777
:109000000000000000B102B97047017092ED001A33
:1090100080ED011A92ED011A80ED021A92ED021A0A
:1090200080ED031A80ED040AC0ED050A9FED0C1ACD
:1090300080ED0E1A80ED0D1A80ED0C1A9FED081AC6
:1090400080ED081A80ED0B1A80ED0A1A80ED091ADE
:1090500080ED111A80ED101A80ED0F1A00BFD3E7D2
:109060000000000001460148405C7047F48600247F
:10907000002004E00021034A1154411CC8B2092811
:10908000F8DB7047F486002438B5044601200090D0
:109090000020244948700120009039E0BDF800000C
:1090A000204028B1012204211F48FBF775FD04E090
:1090B000002204211C48FBF76FFD012251031B48CD
:1090C000FBF76AFD9FED1A0AF8F7F2FF00224FF452
:1090D00000511648FBF760FD9FED150AF8F7E8FF11
:1090E000012251031148FBF757FD01210E48FBF700
:1090F0004BFD30B10B484078BDF8001008430949DA
:109100004870BDF800004FF6FF7101EA4000009082
:10911000BDF80000FF28C1DD9FED060AF8F7C8FF83
:1091200038BD0000F48600240000025800100258E8
:10913000ACC5A736BD37863710B5FFF799FF00F0ED
:109140008DF80F48C0780E49097940EA01200D4991
:10915000088000240FE00C4810F81400401E012184
:1091600001FA00F007490988084010B9601CC0B234
:1091700010BD601CC4B2102CEDDB0020F8E700002D
:10918000F4860024A8020024AC02002410B50022BA
:109190004FF400711548FBF7FFFC9FED150AF8F737
:1091A00087FF0120FFF770FF4320FFF76DFF0020CE
:1091B000FFF76AFF0120FFF767FF0020FFF764FF5A
:1091C0000020FFF761FF0020FFF75EFF0020FFF7A0
:1091D0005BFF0020FFF758FF012251020348FBF715
:1091E000DBFC9FED030AF8F763FF10BD0010025887
:1091F000BD37863710B500224FF400711548FBF7D4
:10920000CBFC9FED150AF8F753FF0120FFF73CFF59
:109210004320FFF739FF0020FFF736FF0020FFF75C
:1092200033FF5A20FFF730FF5A20FFF72DFF5A2057
:10923000FFF72AFF5A20FFF727FF5A20FFF724FFE6
:10924000012251020348FBF7A7FC9FED030AF8F740
:109250002FFF10BD00100258BD3786371CB5002007
:10926000019001200090002241022B48FBF794FC62
:109270002A490878FFF708FF28494878FFF704FFD4
:10928000022001903EE0012000902EE001225103D7
:109290002148FBF781FC9FED220AF8F709FF002225
:1092A0004FF400511C48FBF777FC9FED1D0AF8F7BF
:1092B000FFFE012251031848FBF76EFC01211948FB
:1092C000FBF762FC50B118489DF80410405CBDF8F3
:1092D0000010084314499DF804208854BDF800008C
:1092E0004FF6FF7101EA40000090BDF80000FF2832
:1092F000CCDD9FED0E0AF8F7DBFE9DF80400401C64
:10930000C0B201909DF804000928BCDB0122510283
:109310000148FBF741FC1CBD00100258AA020024C2
:10932000ACC5A73600000258F4860024BD37863746
:1093300010B500F00BF800F009F800F007F8FFF79F
:1093400025FF00F02FF8FFF755FF10BD10B50022E4
:109350004FF400710F48FBF71FFC9FED0F0AF8F761
:10936000A7FE0120FFF790FE4220FFF78DFE0020B0
:10937000FFF78AFE0020FFF787FE0020FFF784FE3C
:10938000012251020348FBF707FC9FED030AF8F79F
:109390008FFE10BD00100258BD37863700BF03F0A6
:1093A000DDF9FCE710B500224FF400711348FBF71C
:1093B000F3FB0120FFF768FE4420FFF765FE002065
:1093C000FFF762FE0120FFF75FFE0320FFF75CFE60
:1093D0000020FFF759FE0020FFF756FE0020FFF7A0
:1093E00053FE0020FFF750FE012251020348FBF715
:1093F000D3FB9FED030AF8F75BFE10BD0010025887
:10940000BD37863770B52DED028B05460C46B0EEA4
:10941000408A6888042833D02888042830D194F8FA
:10942000980168BB012084F8980194F89C0130BB36
:1094300094ED5D0ADFED530AB4EEE00AF1EE10FAA6
:1094400008D294ED5D0ADFED500AB4EEE00AF1EEC9
:1094500010FA11DC94ED5D0ADFED4C0AB4EEE00A7F
:10946000F1EE10FA1BDD94ED5D0ADFED490AB4EE72
:10947000E00AF1EE10FA12D2012084F89C010EE00D
:10948000688804280BD02888042808D194F898010B
:10949000012804D1002084F8980184F89C012888D0
:1094A000688094F89801012855D1B5F90A008038F0
:1094B00000EE100AB8EEC00ADFED360A20EE200AF0
:1094C00084ED560A94ED570AD4ED560A00EE880A48
:1094D00084ED570A94ED580AB5F908007F3800EE7C
:1094E000900AF8EEE00A9FED2C1A00EE810A84ED56
:1094F000580A94ED590AB5F90600803800EE900A32
:10950000F8EEE00A9FED251A00EE810A84ED590A73
:10951000DFED230A9FED230A04F5B27002F0BEFED0
:10952000D4ED5A0A94ED591A30EEC10AF0EEC00A91
:109530009FED1D0AF4EEC00AF1EE10FA06DD0120DF
:109540001A4981F8A9001A4981F8A90094ED590A2D
:1095500084ED5A0A12E094F8980178B99FED150A43
:1095600084ED560A94ED5C0A84ED570A94ED620A84
:1095700084ED580A9FED100A84ED590ABDEC028B68
:1095800070BD0000DA0F49BFDA0FC9BFDA0F493FDB
:10959000DA0FC93F6F1283BB6F1283B982A87BB702
:1095A000EC51383EB81E853D17B7D138748200247F
:1095B00080810024000000000AD7A33D10B50446B6
:1095C000FFF7BAFD20800720FFF74CFDA0800820A0
:1095D000FFF748FDE0800520FFF744FD20810620CD
:1095E000FFF740FD6081B4F90A00FF2803DCB4F9FD
:1095F0000A00C02807DCB4F90A00402805DAB4F9EB
:109600000A00002801DB7F202081B4F90800FF2830
:1096100003DCB4F90800C02807DCB4F908004028CE
:1096200005DAB4F90800002801DB8020608110BD54
:1096300070B505460C46DFED090AB0EE000A084A8F
:1096400000212846FFF7DEFCDFED040AB7EE000A32
:10965000044A00212046FFF7D5FC70BD0000000041
:10966000F0D20008FCD2000800B5AFB0B8216846BF
:10967000F6F7F4FE4FF400410020CDE90010182069
:109680000290C821039102210491059106910021C5
:10969000079120210891002109914FF000501B9063
:1096A0006846FBF7BFFB08B1F8F7BAFE2FB000BD64
:1096B0002DE9F04104460E4600275548006800F0A9
:1096C0000300032802D10120BDE8F081504828386A
:1096D000006820F080604E4928390860FBF762FA84
:1096E000054606E0FBF75EFA401B022801D903207D
:1096F000EAE7474828380068C0F3C0600028F1D185
:1097000000BF4348006820F47C30216840EA013003
:109710003F490860A088401EC0F30800A168491EA8
:109720004FF47E4202EA41210843A189491ED20139
:1097300002EA01410843217C491E120202EA01614A
:10974000084333491031086000BF3148001D0068EC
:1097500020F0C000616908432D49091D08600846D2
:10976000006820F02000A16908432949091D08600C
:109770000846006820F01000086025481430006892
:109780004FF6F8718843E16940EAC100204914317D
:1097900008601F48001D006840F010001C49091DAA
:1097A00008602EB90846006840F40020086012E006
:1097B000012E08D11648001D006840F4801014499D
:1097C000091D086007E01248001D006840F4001001
:1097D0000F49091D08600E482838006840F0806075
:1097E0000B4928390860FBF7DDF9054606E0FBF771
:1097F000D9F9401B022801D9032065E7044828381D
:109800000068C0F3C0600028F1D038465CE7000073
:10981000284402582DE9F04104460E4600275548D9
:10982000006800F00300032802D10120BDE8F081A8
:1098300050482838006820F080504E492839086088
:10984000FBF7B0F9054606E0FBF7ACF9401B022830
:1098500001D90320EAE7474828380068C0F3407080
:109860000028F1D100BF4348006820F07C702188B7
:1098700040EA01503F490860A088401EC0F308003C
:10988000A168491E4FF47E4202EA41210843A189A2
:10989000491ED20102EA01410843217C491E1202FD
:1098A00002EA0161084333491831086000BF3148BA
:1098B000001D006820F44060616908432D49091DBE
:1098C00008600846006820F40070A169084329492F
:1098D000091D08600846006820F48070086025486B
:1098E0001C3000684FF6F8718843E16940EAC10016
:1098F00020491C3108601F48001D006840F480703A
:109900001C49091D08602EB90846006840F4800013
:10991000086012E0012E08D11648001D006840F4CE
:1099200000001449091D086007E01248001D006886
:1099300040F080700F49091D08600E482838006803
:1099400040F080500B4928390860FBF72BF9054699
:1099500006E0FBF727F9401B022801D9032065E741
:10996000044828380068C0F340700028F1D0384619
:109970005CE7000028440258D0ED0D4A64EEA44A8A
:10998000B0EE640AD0ED0E4A64EEA44AF0EE640A2A
:10999000D0ED0F4A64EEA44AB0EE641AD0ED0C4A42
:1099A00090ED0D5A64EE854AF0EE641AD0ED0C4A43
:1099B00090ED0E5A64EE854AB0EE642AD0ED0C4A62
:1099C00090ED0F5A64EE854AF0EE642AD0ED0D4A10
:1099D00090ED0E5A64EE854AB0EE643AD0ED0D4A31
:1099E00090ED0F5A64EE854AF0EE643AD0ED0E4ADF
:1099F00090ED0F5A64EE854AB0EE644AF7EE004AE5
:109A0000B0EE005A45EE604AB0EE005A45EE414ACB
:109A1000C0ED104A73EE624AB0EE005A64EE854A19
:109A2000C0ED114A73EE824AB0EE005A64EE854AE8
:109A3000C0ED124A73EE224AB0EE005A64EE854A37
:109A4000C0ED134AF7EE004AB0EE005A45EE404A28
:109A5000B0EE005A45EE414AC0ED144A74EE614A38
:109A6000B0EE005A64EE854AC0ED154A73EEC24A64
:109A7000B0EE005A64EE854AC0ED164A74EE214AF3
:109A8000B0EE005A64EE854AC0ED174AF7EE004A80
:109A9000B0EE005A45EE404AB0EE005A45EE604A3C
:109AA000C0ED184A7047000010B50248FCF7E2FE0E
:109AB00010BD000004050024026851690268926923
:109AC00042F0080203689A610268926942F010024B
:109AD00003689A610268126822F0010203681A6042
:109AE0000268126940F26F339A4303681A61026890
:109AF000926822F4404203689A6090F88120042A18
:109B00000ED001F020025AB1D0F8842042F0800239
:109B1000C0F884200268926942F0200203689A61CA
:109B200090F88120032A0ED001F040025AB1D0F8FB
:109B3000842042F00402C0F884200268926942F056
:109B4000400203689A6101F400725AB1D0F884208F
:109B500042F00102C0F884200268926942F4007267
:109B600003689A6101F480725AB1D0F8842042F0FF
:109B70000802C0F884200268926942F48072036887
:109B80009A610022A0F86220A0F86A20704770B5A0
:109B90000546AC6B00206234208120800120E077F4
:109BA000623C2046FCF764FE70BD10B501460124FE
:109BB000C86B04EB5013C868421CD01DC20802FBDE
:109BC00003F010BD2DE9F04106460D4617461C4630
:109BD000DDF818800BE0FAF7E5FFA0EB0800A042E3
:109BE00001D3601C00B914B90320BDE8F0813068CE
:109BF00040692840A84201D1012000E00020B8427D
:109C0000E9D00020F1E700BF012002F05BFBFBE799
:109C100010B500BF502080F31188BFF34F8FBFF302
:109C20006F8F00BF03F05EF918B14FF08050044908
:109C3000086000BF002080F3118800BF10BD000045
:109C400004ED00E000B59DB04C210AA8F6F706FC33
:109C5000202102A8F6F702FC0220FBF7B3F800BFB0
:109C6000002001902348006820F44040214908600A
:109C70000846006800F44040019000BF00BF00BFEC
:109C80001C48006800F40050B0F5005FF8D10120D6
:109C90000A9000040B900220139002211491159158
:109CA00028211691012117910221189119910C2157
:109CB0001A9100211B911C910AA8FCF72BFA08B1FC
:109CC000F8F7AEFB3F2002900320039000200490A1
:109CD0000820059040200690079000010890402041
:109CE0000990032102A8FBF701FF08B1F8F798FBE0
:109CF0001DB000BD184802582F48006840F470009D
:109D00002D4908602D48006800F00F00072806D292
:109D10002A48006820F00F00C01D28490860284824
:109D2000006840F0010026490860002024491031F5
:109D300008602348006823490840214908601F48FB
:109D4000006800F00F00072806D91C48006820F0C2
:109D50000F00C01D1949086000201949183108601A
:109D6000091D0860091D0860174815492831086059
:109D70001648091D08601648091D08600020091DC5
:109D800008601348091D08600020091D086010487C
:109D9000091D08600020091D08600948006820F4BA
:109DA000802007490860002005496031086043F2BF
:109DB000D20008490860704788ED00E0002000529A
:109DC000004402587FEDF6EA000202020000FF01A3
:109DD000800201010040005210B50248FDF7C1FAAF
:109DE00010BD0000C806002410B502682C4B984234
:109DF0000ED0B0F1804F0BD02A4B984208D02A4B9E
:109E0000984205D0294B984202D0294B984203D161
:109E100022F070024B681A43214B98421DD0B0F1DA
:109E2000804F1AD01F4B984217D01F4B984214D026
:109E30001E4B984211D01E4B98420ED01D4B98429B
:109E40000BD01D4B984208D01C4B984205D01C4BA0
:109E5000984202D01B4B984203D122F44072CB6847
:109E60001A4322F080034C6943EA040202608B68C3
:109E7000C3620B6883620A4B98420BD00C4B98422A
:109E800008D00C4B984205D00B4B984202D00B4B9C
:109E9000984201D10B6903630123436110BD0000A7
:109EA000000001400004004000080040000C004099
:109EB00000040140004001400044014000480140CE
:109EC00000E0004000E4004030B5056A25F00105DF
:109ED0000562026A43688469204D2C4024F0030423
:109EE0000D682C4322F002028D682A431C4DA842C3
:109EF00000D10FE01B4DA84200D10BE01A4DA84243
:109F000000D107E0194DA84200D103E0184DA84246
:109F100006D100BF22F00802CD682A4322F00402D5
:109F20000F4DA8420BD00F4DA84208D00E4DA842AD
:109F300005D00E4DA84202D00D4DA84207D123F402
:109F4000807323F400734D692B438D692B43436069
:109F500084614D684563026230BD00008FFFFEFFE3
:109F60000000014000040140004001400044014065
:109F70000048014030B5056A25F010050562026A07
:109F800043688469224D2C4024F440740D6844EAEF
:109F9000052422F020028D6842EA05121D4DA842D8
:109FA00000D10FE01C4DA84200D10BE01B4DA84290
:109FB00000D100BF1A4DA84200D100BF194DA842E0
:109FC00007D106E022F08002CD6842EA051222F0B5
:109FD0004002104DA8420BD00F4DA84208D00F4DA3
:109FE000A84205D00E4DA84202D00E4DA84209D17C
:109FF00023F4806323F400634D6943EA85038D698C
:10A0000043EA8503436084614D688563026230BD25
:10A01000FF8FFFFE000001400004014000400140AE
:10A02000004401400048014030B5056A25F48075C0
:10A030000562026A4368C469224D2C4024F003047F
:10A040000D682C4322F400728D6842EA05221E4DF1
:10A05000A84200D10FE01D4DA84200D10BE01C4DDD
:10A06000A84200D100BF1B4DA84200D100BF1A4D2D
:10A07000A84207D106E022F40062CD6842EA052238
:10A0800022F48062104DA8420BD0104DA84208D097
:10A090000F4DA84205D00F4DA84202D00E4DA84248
:10A0A00009D123F4805323F400534D6943EA051387
:10A0B0008D6943EA05134360C4614D68C56302625C
:10A0C00030BD00008FFFFEFF000001400004014092
:10A0D00000400140004401400048014030B5056A9D
:10A0E00025F480550562036A4468C269124D2A400E
:10A0F00022F440720D6842EA052223F400538D6871
:10A1000043EA05330D4DA8420BD00D4DA84208D0AF
:10A110000C4DA84205D00C4DA84202D00B4DA842D0
:10A1200004D124F480444D6944EA85144460C2613A
:10A130004D680564036230BDFF8FFFFE00000140E3
:10A14000000401400040014000440140004801403B
:10A1500030B5056A25F480350562026A4368446DAE
:10A16000114D2C400D682C4322F400320D8942EA37
:10A1700005420E4DA8420BD00D4DA84208D00D4D02
:10A18000A84205D00C4DA84202D00C4DA84204D1E3
:10A1900023F480334D6943EA0523436044654D68E9
:10A1A0008565026230BD00008FFFFEFF00000140A8
:10A1B00000040140004001400044014000480140CB
:10A1C00030B5056A25F480150562026A4368446D5E
:10A1D000114D2C400D6844EA052422F400120D892B
:10A1E00042EA05520D4DA8420BD00D4DA84208D0B1
:10A1F0000C4DA84205D00C4DA84202D00B4DA842F0
:10A2000004D123F480234D6943EA852343604465E8
:10A210004D68C565026230BDFF8FFFFE0000014042
:10A22000000401400040014000440140004801405A
:10A2300000BFFEE770B52DED048B04460D46B0EE71
:10A24000408A95ED1D0ADFEDDE0A30EEC00ADD48DA
:10A2500080ED000A95ED040ADFEDD90A30EEC00A60
:10A26000D94880ED000AD4ED180AB0EE600AF6F77E
:10A27000C1FCD4ED040A20EE200A84ED080AD4EDD6
:10A28000170AB0EE600AF6F7B5FCD4ED010A20EE2D
:10A29000200A84ED060AD4ED180AB0EE600AF6F73B
:10A2A00045F9D4ED000A94ED041A41EE000AC4ED1C
:10A2B000070AD4ED170AB0EE600AF6F737F9D4EDC5
:10A2C000010A20EE200A84ED050A94ED071AD4ED68
:10A2D000051A31EE611A21EE011AD4ED081A94ED37
:10A2E000062A71EEC21A94ED082AD4ED062A32EE3F
:10A2F000622A01EE821AB7EEC11AB0EE410B00F0ED
:10A300003BFEB7EEC00B84ED0F0A94ED070AD4EDC7
:10A31000050A30EE600AD4ED020AB0EE001A60EED3
:10A32000810A20EE200A84ED120A94ED080AD4ED89
:10A33000060A30EE600AD4ED020AB0EE001A60EEB2
:10A34000810A20EE200A84ED130A94ED020A20EE21
:10A35000000AD4ED0F0A94ED0F1A00EE810AD4ED35
:10A36000030A94ED031A00EEC10A84ED140A94ED79
:10A37000121A21EE011AD4ED131A94ED132A01EEEC
:10A38000821AD4ED141A94ED142A01EEC21AB7EE13
:10A39000C11AB0EE410B00F0EFFD94ED131AB7EEC9
:10A3A000C11A30EE010BB7EEC00BF0EE408A94ED0F
:10A3B000120A94ED141A30EE010AF0EE400AB0EEE3
:10A3C000680A00F07FFCF0EE000A20EE200A84ED1F
:10A3D000150AD4ED150AB0EE600AF6F7A7F8D4ED29
:10A3E000050A94ED071A70EEC10A94ED021A41EEC7
:10A3F000000AF0EE608AD4ED150AB0EE600AF6F7B6
:10A40000F9FBD4ED060A94ED081A70EEC10A94ED3A
:10A41000021A41EE000AB0EE609AF0EE680AB0EE61
:10A42000490A00F04FFC84ED160AD4ED170AB0EE8D
:10A43000600AF6F77BF8D4ED010A60EE208AD4EDCD
:10A44000150AB0EE600AF6F771F8D4ED020A40EE94
:10A45000808AC4ED098AD4ED170AB0EE600AF6F7D7
:10A46000C9FBD4ED010A60EE208AD4ED150AB0EEE6
:10A47000600AF6F7BFFBD4ED020A40EE808AC4ED15
:10A480000A8A94ED000AF0EE000A80EE201A94ED9C
:10A49000090A30EE410A20EE000AD4ED0A0A94EDD2
:10A4A0000A1A00EE810AB7EEC00AB0EE409B00F037
:10A4B00063FDB7EEC00B84ED0B0AD4ED000AB0EEDD
:10A4C000001A80EE810AD4ED090A30EEC00AF0EEDF
:10A4D000408AD4ED0A0AB0EE600AF0EE680A00F095
:10A4E000F1FB84ED0C0A94ED0C0ADFED380A30EE36
:10A4F000C00A84ED0D0A94F8A80030B994ED0C0A56
:10A5000084ED110A012084F8A80094ED0C0AD4ED22
:10A51000110A30EE600AC0EE080AC4ED100A94ED8C
:10A52000100ADFED270A30EEC00A84ED0E0A254836
:10A5300090ED000ADFED250A30EEC00AD4ED0C0ADA
:10A5400030EE600A84ED210A94ED100A1E48D0ED29
:10A55000000AF1EE600A30EEC00A84ED220A94EDA2
:10A560000C0A84ED110A94ED0B0AD4ED270A30EEA3
:10A57000600AC0EE080AC4ED250A94ED250AD4ED60
:10A58000280A30EE600AC0EE080AC4ED260A94EDEF
:10A59000250A84ED280A94ED0B0A84ED270A94ED30
:10A5A000220AD4ED230A30EE600AC0EE080AC4ED98
:10A5B000240A94ED220A84ED230ABDEC048B70BDBD
:10A5C00000000000880000248C000024DA0FC93F3E
:10A5D00070B52DED048B04460D46B0EE408A95ED26
:10A5E0001D0ADA4880ED000A95ED040AD84880ED8E
:10A5F000000AD4ED180AB0EE600AF6F7FBFAD4EDC3
:10A60000040A20EE200A84ED080AD4ED170AB0EE01
:10A61000600AF6F7EFFAD4ED010A20EE200A84ED85
:10A62000060AD4ED180AB0EE600AF5F77FFFD4ED04
:10A63000000A94ED041A41EE000AC4ED070AD4EDB5
:10A64000170AB0EE600AF5F771FFD4ED010A20EEAB
:10A65000200A84ED050A94ED071AD4ED051A31EEAF
:10A66000611A21EE011AD4ED081A94ED062A71EE52
:10A67000C21A94ED082AD4ED062A32EE622A01EEBF
:10A68000821AB7EEC11AB0EE410B00F075FCB7EEBE
:10A69000C00B84ED0F0A94ED070AD4ED050A30EEE5
:10A6A000600AD4ED020AB0EE001A60EE810A20EED4
:10A6B000200A84ED120A94ED080AD4ED060A30EE61
:10A6C000600AD4ED020AB0EE001A60EE810A20EEB4
:10A6D000200A84ED130A94ED020A20EE000AD4ED5C
:10A6E0000F0A94ED0F1A00EE810AD4ED030A94EDDF
:10A6F000031A00EEC10A84ED140A94ED121A21EE39
:10A70000011AD4ED131A94ED132A01EE821AD4ED36
:10A71000141A94ED142A01EEC21AB7EEC11AB0EE63
:10A72000410B00F029FC94ED131AB7EEC11A30EE7C
:10A73000010BB7EEC00BF0EE408A94ED120A94EDD7
:10A74000141A30EE010AF0EE400AB0EE680A00F08A
:10A75000B9FAF0EE000A20EE200A84ED150AD4EDD5
:10A76000150AB0EE600AF5F7E1FED4ED050A94EDA6
:10A77000071A70EEC10A94ED021A41EE000AF0EEDB
:10A78000608AD4ED150AB0EE600AF6F733FAD4ED1C
:10A79000060A94ED081A70EEC10A94ED021A41EE11
:10A7A000000AB0EE609AF0EE680AB0EE490A00F0D6
:10A7B00089FA84ED160AD4ED170AB0EE600AF5F7AF
:10A7C000B5FED4ED010A60EE208AD4ED150AB0EE94
:10A7D000600AF5F7ABFED4ED020A40EE808AC4EDC4
:10A7E000098AD4ED170AB0EE600AF6F703FAD4ED41
:10A7F000010A60EE208AD4ED150AB0EE600AF6F781
:10A80000F9F9D4ED020A40EE808AC4ED0A8A94ED8B
:10A81000000AB0EE001AC0EE010A94ED090A30EE0B
:10A82000600A20EE000AD4ED0A0A94ED0A1A00EE3E
:10A83000810AB7EEC00AB0EE409B00F09DFBB7EE78
:10A84000C00B84ED0B0AD4ED000AB0EE001A80EEC6
:10A85000810AD4ED090A30EEC00AF0EE408AD4ED48
:10A860000A0AB0EE600AF0EE680A00F02BFA84EDF6
:10A870000C0A94ED0C0ADFED370A30EEC00A84EDC5
:10A880000D0A94F8A80030B994ED0C0A84ED110A71
:10A89000012084F8A80094ED0C0AD4ED110A30EEE2
:10A8A000600AC0EE080AC4ED100A94ED100ADFED4C
:10A8B0002A0A30EEC00A84ED0E0A244890ED000A00
:10A8C000DFED240A30EEC00AD4ED0C0A30EE600A47
:10A8D00084ED210A94ED100A1D48D0ED000AF1EE36
:10A8E000600A30EEC00A84ED220A94ED0C0A84ED71
:10A8F000110A94ED0B0AD4ED270A30EE600AC0EE7F
:10A90000080AC4ED250A94ED250AD4ED280A30EE94
:10A91000600AC0EE080AC4ED260A94ED250A84ED0B
:10A92000280A94ED0B0A84ED270A94ED220AD4ED4F
:10A93000230A30EE600AC0EE080AC4ED240A94ED42
:10A94000220A84ED230ABDEC048B70BD8000002434
:10A9500084000024DA0FC93F0000000010B52DED7F
:10A96000028B0446D4ED0C0A94ED161A70EEC10A5F
:10A97000B0EE600AF6F73EF9D4ED010A20EE208A27
:10A98000D4ED170A94ED151A70EEC10AB0EE600A04
:10A99000F6F730F928EE008AD4ED160A94ED151A70
:10A9A00070EEC10AB0EE600AF6F724F9C8EE000AAC
:10A9B000C4ED190AD4ED0C0A94ED161A70EEC10A12
:10A9C000B0EE600AF5F7B2FDD4ED010A20EE208A60
:10A9D000D4ED170A94ED151A70EEC10AB0EE600AB4
:10A9E000F6F708F928EE008AD4ED160A94ED151A48
:10A9F00070EEC10AB0EE600AF6F7FCF8D4ED0B0A6F
:10AA000020EE200AC8EE000AC4ED1A0AD4ED0C0AA2
:10AA100094ED151A70EEC10AB0EE600AF6F7EAF886
:10AA2000D4ED040A20EE208AD4ED160A94ED181A0B
:10AA300070EEC10AB0EE600AF6F7DCF828EE008A84
:10AA4000D4ED160A94ED151A70EEC10AB0EE600A44
:10AA5000F6F7D0F8C8EE000AC4ED1B0AD4ED0C0AD4
:10AA600094ED151A70EEC10AB0EE600AF5F75EFDBE
:10AA7000D4ED040A20EE208AD4ED160A94ED181ABB
:10AA800070EEC10AB0EE600AF6F7B4F828EE008A5C
:10AA9000D4ED160A94ED151A70EEC10AB0EE600AF4
:10AAA000F6F7A8F8D4ED0B0A20EE200AC8EE000A4B
:10AAB000C4ED1C0A94ED190AD4ED1F0A20EE200AF9
:10AAC000D4ED1A0A94ED201A00EE810A84ED1D0AD5
:10AAD00094ED1B0AD4ED1F0A20EE200AD4ED1C0AC7
:10AAE00094ED201A00EE810A84ED1E0ABDEC028B63
:10AAF00010BD00009FED0A0A80ED000A9FED090AD3
:10AB000080ED010A9FED080A80ED020A9FED060A1A
:10AB100080ED030A9FED030A80ED040A70470000F0
:10AB20000AD7A33D9A99993D295C0F3E410008023E
:10AB300018BF04200A0E18BF40F001004FF07F42FA
:10AB400032EA010108BF40F00200012808BF0520D9
:10AB50007047000002480068C0F302207047000000
:10AB60000CED00E010B5002804DB0A07130E054ABF
:10AB7000135406E00A07140E034A00F00F031B1FCC
:10AB8000D45410BD00E400E018ED00E010B54FF023
:10AB90000E402DED028BB0EE408A18EE104A00EB0D
:10ABA0004400B0F1506F4AD84FF0FC40B0EB440F76
:10ABB00022D2B0EEC80ADFED360A30EEC00ADFED71
:10ABC000350A60EE208A18EE900A01F0B1FE01EE1F
:10ABD000100A14F0004F1DBFDFED2F0A9FED2F0A62
:10ABE000B1EE411ADFED2E0A08BF9FED2E0ADFED10
:10ABF0002E1A21EE218A05E0DFED2C0A68EE088A84
:10AC0000B0EE600A9FED2A1ADFED2A1A30EE080A2C
:10AC100048EE811A9FED281A08EEA11ADFED271AD7
:10AC200048EE811A9FED261A08EEA11A68EE281A3E
:10AC3000BDEC028B01EE810A30EE200A10BD4FF010
:10AC4000E440B0EB440F0CD918EE100AFFF76EFF8A
:10AC5000042808BF00F0EEF9B0EE480ABDEC028B04
:10AC600010BD4FF07F40B0EB440F07D2B0EE480A62
:10AC7000BDEC028BBDE8104000F0CEB9012000F021
:10AC8000F1F9BDEC028BBDE8104000F0CBB900003B
:10AC90000000803F0000003F0000C9BF22AAFDB9AC
:10ACA0000000C93F22AAFD39000000C000000000DA
:10ACB00024FE1C3DC78AD83C1E67383D1B93993D36
:10ACC000AFAA2A3E70B54FF068422DED048BF0EE2E
:10ACD000408A18EE900AB0EE608A18EE101A02EB65
:10ACE0004003B3F1654F3CBF02EB4102B2F1654F47
:10ACF0007DD200BFC0F3C753C1F3C7529A1A1B2AB3
:10AD000009DD10F0004F14BF9FED830A9FED830A09
:10AD1000BDEC048B70BD12F11A0F36DA11F0004F42
:10AD200009D010F0004F0CBF9FED7D0A9FED7D0A0A
:10AD3000BDEC048B70BD88EE889A19EE100AFFF7FF
:10AD4000F5FE042808BF00F075F918EE900AFFF729
:10AD5000EDFE054618EE100AFFF7E8FE044619EE70
:10AD6000100AFFF7E3FE042D18BF052D08D1042CAF
:10AD700018BF052C04D1002804BF022000F072F98E
:10AD8000B0EE490ABDEC048B70BD4200B2EB410F3E
:10AD90003AD910F0004F19BFDFED630A9FED630A47
:10ADA000DFED630A9FED630AB0EE481A0A46B1EE82
:10ADB000688A80F00041F0EE418A10460A1A52007B
:10ADC000B2F1807F34D2484010F0004FDFED5A1AC4
:10ADD0009FED5A2A1DBF9FED5A1A70EEE10A30EE20
:10ADE000420A9FED581A08BF70EEA10A00E040E049
:10ADF00008BF30EE020AB0EE682A01EE482A08EEDB
:10AE0000818AC2EE081A15E011F0004F04BF9FEDD1
:10AE10004E0AF0EE400AD1D010F0004F19BFDFED1E
:10AE20004B0A9FED4B0ADFED4B0A9FED4B0AC5E73E
:10AE3000C8EE881A21EEA11A9FED482ADFED482AB4
:10AE400041EE022A9FED472A01EE222ADFED462A33
:10AE500041EE022A9FED452ABDEC048B01EE222A29
:10AE600021EE811A01EE020A30EE210A30EE200AAC
:10AE700070BD4FF07F42B2EB400F28BFB2EB410FE5
:10AE800009D2F0EE480AB0EE680ABDEC048BBDE8CA
:10AE9000704000F0C4B840EA01035B0008BF41F015
:10AEA000FF410BD0B2EB400F08BFB2EB410F08D10E
:10AEB00020F0804008EE900A21F0804108EE101A40
:10AEC00018E7B2EB400F12BF5FEA410340F0FF40CA
:10AED00001F000413FF40EAFB2EB410F12BF5FEA49
:10AEE000400200F0004041F0FF413FF403AF4A0050
:10AEF00092EA40033FF5FEAE002AACBF9FED1C0A6C
:10AF00009FED1C0A68EE808A28EE008A18EE900AEF
:10AF100018EE101AEEE60000DB0FC9BFDB0FC93FC9
:10AF2000DB0F4940DB0F49C00000C9BF22AAFDB9B1
:10AF30000000C93F22AAFD390060ED3EC30ACE37AA
:10AF4000000000BF0000003F00000000000049C0FA
:10AF500022AA7DBA0000494022AA7D3A2DAD65BDE6
:10AF60008FB8D53D0FB511BE61C84C3EA8AAAABE88
:10AF70000000804F0000802F00B52DED028BB1EE58
:10AF8000C08B83B018EE100A18EE901A8DED008B6E
:10AF9000002818BF0120084320F00040C0F17F6066
:10AFA00000F1E040C00F14D010EE101A10EE900A1D
:10AFB0008DED000B002918BF0121084320F000404F
:10AFC000C0F17F6000F1E040C00F04BF012000F03D
:10AFD00049F8B0EE480B03B0BDEC028B00BD10B5D4
:10AFE0002DED028BB1EEC08A18EE100A20F0004061
:10AFF000C0F1FF40C00F0AD010EE100A20F0004050
:10B00000C0F1FF40C00F04BF012000F02BF8B0EEEC
:10B01000480ABDEC028B10BD30EE000A704730EEDE
:10B02000200A7047DFED020A80EEA00A7047000098
:10B03000000000009FED020A20EE000A70470000A9
:10B040000000001002E008C8121F08C1002AFAD14F
:10B0500070477047002001E001C1121F002AFBD198
:10B060007047000001490860704700002003002479
:10B0700010B5F5F70FFE8020F6F742F85520F6F7E9
:10B080003FF85520F6F73CF850490870F5F7F8FD01
:10B090000120F8F78DFDF5F7FDFD8020F6F730F87B
:10B0A0005520F6F72DF85520F6F72AF8474908708D
:10B0B000F5F7E6FD0120F8F77BFDF5F7EBFDB6218E
:10B0C0007E20F6F72FF8F5F7DBFD5020F8F770FD3E
:10B0D000F5F7E0FD8020F6F713F85520F6F710F8A5
:10B0E0005520F6F70DF839490870F5F7C9FD01202C
:10B0F000F8F75EFDF5F7CEFD8020F6F701F8552054
:10B10000F5F7FEFF5520F5F7FBFF30490870F5F71E
:10B11000B7FD0120F8F74CFD2C4800781E2801D01F
:10B12000FF2010BD00202A49087049E0F5F7B2FD64
:10B13000274A127802EB4202264B1A445178244ADD
:10B14000127802EB4202985CF5F7ECFFF5F798FDF8
:10B150000120F8F72DFDF5F79DFD1D49097801EB5C
:10B1600041011C4A515C41F08000F5F7C9FF5520B0
:10B17000F5F7C6FF5520F5F7C3FF14490870F5F73A
:10B180007FFD0120F8F714FD1148007800EB400026
:10B190001049084440780D49097888420BD00C4882
:10B1A000007800EB40000B49084480780A49097890
:10B1B00008430949087006480078401C0449087093
:10B1C000034800780628B1DB0020AAE738000024F5
:10B1D00039000024440000243A00002410B5F5F79B
:10B1E0006DFD45490020F5F77EFFF5F75DFD012077
:10B1F000F8F7DEFCF5F762FD3F490020F5F773FF35
:10B20000F5F752FD0120F8F7D3FCF5F757FDB6210D
:10B210001420F5F787FFF5F747FD5020F8F7C8FC35
:10B22000F5F74CFD34490020F5F75DFFF5F73CFDDF
:10B230000120F8F7BDFCF5F741FD2F490020F5F797
:10B2400052FFF5F731FD0120F8F7B2FC2A480078EB
:10B250000F2801D0FF2010BD00202849087045E0CC
:10B26000F5F72CFD254A127802EB4202244B1A44D2
:10B270005178224A127802EB4202985CF5F752FFAD
:10B28000F5F712FD0120F8F793FCF5F717FD1B49C0
:10B29000097801EB41011A4A505C1749F5F723FF81
:10B2A000F5F702FD0120F8F783FC1448007800EB65
:10B2B00040001349084440780F490978884210D06B
:10B2C0000E480078401E0D4908700846007800EBD3
:10B2D00040000C49084480780B49097808430A4922
:10B2E000087006480078401C04490870034800783C
:10B2F0000628B5DB0020AEE7380000243900002422
:10B3000056000024440000243A000024F0B589B01F
:10B3100006460D4617461C460095002001900290F7
:10B32000082C02D82004039021E00C2C03D14FF408
:10B33000102003901BE0102C03D14FF42020039029
:10B3400015E0142C03D14FF4302003900FE0182C9B
:10B3500002D1E00303900AE0302C03D14FF46020C7
:10B36000039004E0402C02D14FF4702003900020A1
:10B37000049005900690079008903A46694630463A
:10B38000F8F77EFC08B1F7F74BF8002009B0F0BDE4
:10B390002DE9F0472DED028B04460D4690461E46E2
:10B3A000DDF828909D4890ED000AB8EE400AF0EED6
:10B3B000080A20EE200ADFED9A0A80EE201AB0EE8D
:10B3C000418AB0EE480A41462846FEF733FF00277F
:10B3D0000DE0D5ED0B0AB0EE600A924901EB0710C3
:10B3E000FDF7BDF906EB870080ED000A7F1C0C2FEE
:10B3F000EFDB96ED000AD5ED210A9FED8B1A70EE7A
:10B40000C10A20EE200AD6ED010A95ED221ADFEDE1
:10B41000861A31EE611A00EE810AD4ED570A94EDD6
:10B420005C1A70EEC10A96ED021A01EE200AD4ED04
:10B43000560A94ED5B1A70EEC10A96ED031A01EEFE
:10B44000200AD6ED040A94ED5F1ADFED771A31EE8B
:10B45000611A00EE810AD6ED050A94ED601ADFED5F
:10B46000721A31EE611A00EE810A84ED480A96EDF7
:10B47000060AD5ED210A9FED6C1A70EEC10A20EE86
:10B48000200AD6ED070A95ED221ADFED671A31EE94
:10B49000611A00EE810AD4ED570A94ED5C1A70EE41
:10B4A000C10A96ED081A01EE200AD4ED560A94ED71
:10B4B0005B1A70EEC10A96ED091A01EE200AD6ED6C
:10B4C0000A0A94ED5F1ADFED581A31EE611A00EEA8
:10B4D000810AD6ED0B0A94ED601ADFED531A31EEB6
:10B4E000611A00EE810A85ED200A94ED480AD4ED38
:10B4F000640A30EE600A84ED480AF7EE000ABFEEF7
:10B50000000A04F5907000F0C9FE95ED200AD4ED14
:10B51000650A30EE200A85ED200A94ED591AF0EE06
:10B52000410A95ED0B1AB0EE410A4846FDF772FC50
:10B53000F2EE0A0A30EE200A85ED1F0A414628463F
:10B5400000F047FB3949087094F89C01C8BB0846D5
:10B550000078012837D136480078012833D195F892
:10B56000A90078BB9FED300A84ED480A96ED060AE3
:10B57000D5ED210A9FED2C1A70EEC10A20EE200AAB
:10B58000D6ED070A95ED221ADFED271A31EE611A82
:10B5900000EE810A85ED200A9FED230A84ED5C0A06
:10B5A00094ED5C0A84ED570A94ED620A84ED580A22
:10B5B00095ED200AD4ED650A30EE200A85ED200ACB
:10B5C0000DE004E0FFE7002085F8A90007E094F80B
:10B5D0009C01012803D19FED140A85ED200ADFEDBF
:10B5E000150A9FED150A05F17C0000F057FE28466C
:10B5F000FFF7B4F9F0EE080AB8EE080A05F1780092
:10B6000000F04CFEF0EE080AB8EE080A05F17400EE
:10B6100000F044FEBDEC028BBDE8F0874801002439
:10B6200000007A4480010024000000004C01002446
:10B63000440200240000C8420000C8C290ED230A62
:10B64000DFED0F0A30EE200A81ED170A90ED310A86
:10B65000DFED0B0A30EE200A81ED180A92ED1D0A8B
:10B66000DFED080A30EEC00A80ED5F0A92ED040AB1
:10B67000DFED040A30EEC00A80ED600A704700007A
:10B68000DA0FC93F000000002DE9F0472DED028BD5
:10B6900004460D4690461E46DDF82890AC4890EDD5
:10B6A000000AB8EE400AF0EE080A20EE200ADFEDAC
:10B6B000A90A80EE201AB0EE418AB0EE480A41464F
:10B6C0002846FEF785FF00270DE0D5ED0B0AB0EE0A
:10B6D000600AA14901EB0710FDF741F806EB87006E
:10B6E00080ED000A7F1C0C2FEFDB94ED580AD4ED9F
:10B6F000620A30EE600A9948D0ED010A20EE200A75
:10B70000D0ED030A98ED061A00EEC10A84ED640A32
:10B71000D4ED630AB0EE600ADFED910A9148FDF7BF
:10B7200079FB84ED650A96ED000AD5ED210A9FEDBF
:10B730008C1A70EEC10A20EE200AD6ED010A95EDB2
:10B74000221ADFED871A31EE611A00EE810AD4ED7C
:10B750005C0A94ED571A70EEC10A96ED021A01EEDA
:10B76000200AD4ED5B0A94ED561A70EEC10A96EDEC
:10B77000031A01EE200AD6ED040A94ED5D1ADFEDFE
:10B78000781A31EE611A00EE810AD6ED050A94EDC1
:10B790005E1ADFED731A31EE611A00EE810A84ED54
:10B7A000390A96ED060AD5ED210A9FED6D1A70EE65
:10B7B000C10A20EE200AD6ED070A95ED221ADFED28
:10B7C000681A31EE611A00EE810AD4ED5C0A94ED3C
:10B7D000571A70EEC10A96ED081A01EE200AD4ED50
:10B7E0005B0A94ED561A70EEC10A96ED091A01EE45
:10B7F000200AD6ED0A0A94ED5D1ADFED591A31EEF2
:10B80000611A00EE810AD6ED0B0A94ED5E1ADFEDA7
:10B81000541A31EE611A00EE810A85ED200A94ED8A
:10B82000390AD4ED640A30EE600A84ED390AF7EE85
:10B83000000ABFEE000A04F1E40000F02FFD95EDD0
:10B84000200AD4ED650A30EE200A85ED200A94ED39
:10B85000591AF0EE410A95ED0B1AB0EE410A48462E
:10B86000FDF7D8FAF2EE0A0A30EE200A85ED1F0A3B
:10B870004146284600F0DFF93B49087094F89C01E6
:10B88000C8BB08460078012837D13848007801281D
:10B8900033D195F8A90078BB9FED310A84ED390AC0
:10B8A00096ED060AD5ED210A9FED2D1A70EEC10A1C
:10B8B00020EE200AD6ED070A95ED221ADFED281AB0
:10B8C00031EE611A00EE810A85ED200A9FED240A0F
:10B8D00084ED5C0A94ED5C0A84ED570A94ED620AEB
:10B8E00084ED580A95ED200AD4ED650A30EE200A61
:10B8F00085ED200A0DE004E0FFE7002085F8A900AF
:10B9000007E094F89C01012803D19FED150A85ED0D
:10B91000200ADFED170A9FED170A05F17C0000F001
:10B92000BDFC2846FFF71AF8F0EE080AB8EE080A40
:10B9300005F1780000F0B2FCF0EE080AB8EE080A53
:10B9400005F1740000F0AAFCBDEC028BBDE8F087A5
:10B950004002002400007A44800100245085002425
:10B960000000000008850024440200244C0100244B
:10B970000000C8420000C8C290ED070ADFED200AAF
:10B9800030EE200A81ED170A90ED150ADFED1C0A52
:10B9900030EE200A81ED180A92ED1D0A80ED5D0A55
:10B9A00092ED040A80ED5E0A92ED1F0A80ED620AB4
:10B9B00092ED1C0A80ED610A91ED210A114BD3ED45
:10B9C000210A30EE200ADFED100A30EEC00A80EDC9
:10B9D000630A92ED1D0ADFED0D0AB4EEE00AF1EE06
:10B9E00010FA0BD292ED1D0ADFED090AB4EEE00A5F
:10B9F000F1EE10FA02DD002380F89C317047000060
:10BA0000DA0FC93F8081002400000000910A063F40
:10BA1000910A06BF30B503460C461546B5F5002F12
:10BA200044D1207800F00F00988020780111D9804F
:10BA3000A078617840EA01219960E07800012179DD
:10BA400040EA2111D9606079217901F00F0140EAC3
:10BA5000012119611021F2EE090ABAEE090A98686B
:10BA600000F085FF83ED070A0C21F3EE0E0ABBEE12
:10BA70000E0AD86800F07BFF83ED080A0C21F2EE75
:10BA8000040ABAEE040A186900F071FF83ED090A8E
:10BA9000A07900EE100AB8EE400A83ED0C0AE079B6
:10BAA00000EE100AB8EE400A83ED0D0A30BD00002A
:10BAB00030B503460C461546B5F5002F44D1207825
:10BAC00000F00F001881207801115981A078617869
:10BAD00040EA0121D960E0780001217940EA211192
:10BAE00019616079217901F00F0140EA0121596162
:10BAF0001021F2EE080ABAEE080AD86800F037FF03
:10BB000083ED080A0C21DFED110A9FED110A186977
:10BB100000F02DFF83ED090A0C21F3EE020ABBEEC3
:10BB2000020A586900F023FF83ED0A0AA07900EEAB
:10BB3000100AB8EE400A83ED0D0AE07900EE100A13
:10BB4000B8EE400A83ED0E0A30BD0000000034421A
:10BB5000000034C22DE9FC4106460C46154660192A
:10BB600087B2FF208DF800008DF801008DF80200EB
:10BB70008DF803008DF804008DF805008DF806009F
:10BB8000FC208DF8070008236A4639463046FFF747
:10BB9000BDFBBDE8FC81F0EE400AB0EEE00A704764
:10BBA000014671EE602AF0EE621AB0EE602A30EEC5
:10BBB000423A01208840401E02EE900AF8EEE22A46
:10BBC00063EE222A82EEA13AFDEEC32A12EE900A1B
:10BBD000704770B52DED028B04460D46D4ED210A59
:10BBE000B0EE600AF5F706F8D4ED200A20EE200A40
:10BBF000D4ED0B0A80EE208AD4ED210AB0EE600A63
:10BC0000F4F794FCD4ED1F0A00EE808AB1EE080A26
:10BC100038EE000A84ED290A94ED290AF1EE040AAF
:10BC2000B4EEE00AF1EE10FA03D20120BDEC028B73
:10BC300070BD0020FAE770B52DED028B04460D466D
:10BC4000D4ED210AB0EE600AF4F7D4FFD4ED200A57
:10BC500020EE200AD4ED0B0A80EE208AD4ED210AD2
:10BC6000B0EE600AF4F762FCD4ED1F0A00EE808AA1
:10BC7000B1EE080A38EE000A84ED290A94ED290A8B
:10BC8000F1EE040AB4EEE00AF1EE10FA03D201205C
:10BC9000BDEC028B70BD0020FAE702808180704706
:10BCA00080ED000AC0ED010A80ED021AF7EE001ADD
:10BCB000C0ED0C1A04494167044981670449C16712
:10BCC0000449C0F880107047D9BC000841BD000885
:10BCD000F7BC00087999000801B52DED060B9DE829
:10BCE0000E00C0E90423C16003A90EC9C0E90723FF
:10BCF000816107B000BD10B50446D4ED160AB0EE60
:10BD0000600AFEF743FFB1EE400A84ED190A94ED94
:10BD1000181AF0EE410A94ED171AB0EE410AFEF738
:10BD2000D1FF84ED1A0A94ED101AF0EE410A94ED59
:10BD3000131AB0EE410AFEF7C5FF84ED1B0A10BDD1
:10BD400010B52DED0A8B044694ED061A21EE011A6A
:10BD5000D4ED071A94ED072A01EE821AD4ED081AE1
:10BD600094ED082A01EE821AB7EEC11AB0EE410B2B
:10BD7000FFF702F9B7EEC00BB0EE408A94ED060A69
:10BD8000C0EE080AC4ED060A94ED070AC0EE080AE0
:10BD9000C4ED070A94ED080AC0EE080AC4ED080ACB
:10BDA00094ED070AD4ED180A20EE200AD4ED080A13
:10BDB00094ED171A00EEC10AB0EE40BA94ED080AED
:10BDC000D4ED160A20EE200AD4ED060A94ED181AD6
:10BDD00000EEC10AF0EE40BA94ED060AD4ED170A5F
:10BDE00020EE200AD4ED070A94ED161A00EEC10ADF
:10BDF000B0EE40CA94ED090AD4ED010A60EE8B0A58
:10BE000094ED021A00EE810A84ED090A94ED0A0A03
:10BE1000D4ED010A60EEAB0A94ED021A00EE810A3D
:10BE200084ED0A0A94ED0B0AD4ED010A60EE8C0A47
:10BE300094ED021A00EE810A84ED0B0A94ED090AD2
:10BE4000D4ED000A00EE8B0AD4ED030A30EE200A8E
:10BE500084ED030A94ED0A0AD4ED000A00EEAB0A61
:10BE6000D4ED040A30EE200A84ED040A94ED0B0AA6
:10BE7000D4ED000A00EE8C0AD4ED050A30EE200A5B
:10BE800084ED050A94ED0C0AB0EE409A94ED0D0A8B
:10BE9000F0EE409A94ED0E0AB0EE40AA94ED0F0A2F
:10BEA000F0EE40AA94ED020AF6EE000A20EE200A17
:10BEB000F0EE408A94ED030AF1EE690A20EE200AC2
:10BEC000D4ED040A0AEE600AD4ED050A0AEEE00A8F
:10BED000D4ED0C0A40EE280AC4ED0C0A94ED030AD6
:10BEE00020EE090AD4ED050A0AEE200AD4ED040A70
:10BEF0000AEEE00AD4ED0D0A40EE280AC4ED0D0A60
:10BF000094ED040A20EE090AD4ED050A09EEE00AD0
:10BF1000D4ED030A0AEEA00AD4ED0E0A40EE280A78
:10BF2000C4ED0E0A94ED050A20EE090AD4ED040AC8
:10BF300009EEA00AD4ED030A0AEE600AD4ED0F0A56
:10BF400040EE280AC4ED0F0A94ED0C1A21EE011AF6
:10BF5000D4ED0D1A94ED0D2A01EE821AD4ED0E1ACD
:10BF600094ED0E2A01EE821AD4ED0F1A94ED0F2AE9
:10BF700001EE821AB7EEC11AB0EE410BFEF7FCFFDC
:10BF8000B7EEC00BB0EE408A94ED0C0AC0EE080A82
:10BF9000C4ED0C0A94ED0D0AC0EE080AC4ED0D0ABA
:10BFA00094ED0E0AC0EE080AC4ED0E0A94ED0F0AD5
:10BFB000C0EE080AC4ED0F0A2046D4F88010884766
:10BFC000BDEC0A8B10BD0000F8F7FEFDFDF73AFE50
:10BFD000FDF74AFBFCF718FDFCF7DAFBFCF7CEFD9A
:10BFE000FCF7F8FBFCF736FCFCF7FAFDFCF772FCFB
:10BFF0004FF4F070F6F7CAF800BF00210C48F4F7D0
:10C00000FFFF0028F9D1012251030A48F8F7C4FDC7
:10C01000012291030748F8F7BFFDF6F705FAF6F796
:10C020003BFAFCF797FC00F059F900BFFEE700006F
:10C03000040500240008025801460020842901D08C
:10C04000CA1C104470470000F0B50B30154D20F0AD
:10C0500007010024144A0FE003688B420BD38B4284
:10C0600005D95E1A43184768C3E9006700E04368D2
:10C07000136002C004E0021D10680028ECD12046C5
:10C08000002802D1286808B10020F0BD064A074800
:10C090001060074A121A22F00702C0E900240120AA
:10C0A0002860D7E71C03002418030024D487002449
:10C0B000D08900242DE9F04F2DED068B83B0824608
:10C0C0000C46B0EE40AAB0EE608AF0EE418AB0EEC7
:10C0D000619AF0EE429A1FFA84FB1020B2EE091A20
:10C0E000FAEE090AB0EE4A0AFFF75AFD85B20C20B3
:10C0F000B3EE0E1AFBEE0E0AB0EE480AFFF750FD43
:10C1000086B20C209FED251ADFED250AB0EE680AF5
:10C11000FFF746FD87B20C20B1EE041ADFED200ACE
:10C12000B0EE490AFFF73CFD1FFA80F80C20B2EE92
:10C13000041AFAEE040AB0EE690AFFF731FD1FFA9D
:10C1400080F928128DF80400E8B28DF80500C6F3D6
:10C1500007108DF806003007000E40EA27208DF802
:10C160000700F8B28DF80800C8F307108DF8090031
:10C170004FEA0870000E40EA29208DF80A0009F005
:10C18000FF008DF80B00082301AA59465046FFF71F
:10C19000BDF803B0BDEC068BBDE8F08F0000FA439C
:10C1A000000000002DE9F04F2DED068B83B0824694
:10C1B0000C46B0EE40AAB0EE608AF0EE418AB0EED6
:10C1C000619AF0EE429A1FFA84FB1020B2EE081A30
:10C1D000FAEE080AB0EE4A0AFFF7E2FC85B20C203C
:10C1E0009FED2A1ADFED2A0AB0EE480AFFF7D8FCC5
:10C1F00086B20C209FED271ADFED270AB0EE680A01
:10C20000FFF7CEFC87B20C20B1EE041ADFED220A54
:10C21000B0EE490AFFF7C4FC1FFA80F80C20B3EE19
:10C22000021AFBEE020AB0EE690AFFF7B9FC1FFA28
:10C2300080F928128DF80400E8B28DF80500C6F3E5
:10C2400007108DF806003007000E40EA27208DF811
:10C250000700F8B28DF80800C8F307108DF8090040
:10C260004FEA0870000E40EA29208DF80A0009F014
:10C27000FF008DF80B00082301AA59465046FFF72E
:10C2800045F803B0BDEC068BBDE8F08F00003442EA
:10C29000000034C20000FA430000000090ED001AD4
:10C2A000B4EEC01AF1EE10FA02D280ED000A08E0F6
:10C2B00090ED001AB4EEE01AF1EE10FA01DDC0EDD7
:10C2C000000A704770B5044625460DB1294600E0C6
:10C2D0000121084600F05EFC002070BD10B500F0A2
:10C2E00087FC002010BDFEB504460D46B4F90800D9
:10C2F000FFF7A2FE064602A8CDE90060238A9AB2A3
:10C300002B46D4E9001000F0BDFD012801D000202B
:10C31000FEBD0298FCE700002DE9F04105460E46FF
:10C320001C4807681C480068001D00F03AFB50B923
:10C330001948006890F82C100120884017490968B6
:10C34000814316480160681C38B936B1124801684B
:10C35000091D134800F063FB1AE07C190E480068C1
:10C360004460BC4207D20C480168091D0D480068B2
:10C3700000F03BFB0CE008480168091D0A48006812
:10C3800000F033FB09480068844201D2074804608A
:10C39000BDE8F081A800002494000024AC00002433
:10C3A0003C0800249C00002498000024C4000024C1
:10C3B00010B5044600F040FB23480068401C2249A9
:10C3C00008602248006840B92048046008460068B8
:10C3D00001280DD100F020F90AE01D48006838B9A5
:10C3E0001A480068C06AE16A884201D817480460A8
:10C3F00018480068401C1749086094F82C10012068
:10C40000884015490968084313490860E16A01EB4F
:10C410008101124A02EB8100211D00F000FB00F0B7
:10C4200035FB0B48006868B108480068C06AE16ADB
:10C43000884207D24FF0805009490860BFF34F8F00
:10C44000BFF36F8F10BD0000A400002494000024EF
:10C45000B0000024C0000024AC00002460070024C9
:10C4600004ED00E010B516E000F0E6FA0C48C068F4
:10C47000C468201D00F095FA0A480068401E09496A
:10C48000086009480068401E0749086000F0FEFA8D
:10C49000204600F00BF8044800680028E4D110BDE5
:10C4A00028080024A4000024A000002410B504469D
:10C4B000206B00F009FB204600F006FB10BD0000D9
:10C4C00030B54FF4F043174800F007042CB1C01DFD
:10C4D00020F00700134C041B1B1B0246124C226069
:10C4E0000024114D6C60D018083820F007000F4C64
:10C4F000206000240D4D2D686C600C4D2D682C6063
:10C500001146441A4C60094C24680C60084D4C6874
:10C510002C60084D4C682C604FF00044064D2C6098
:10C5200030BD000050080024D0000024D8000024B2
:10C53000E0000024DC000024EC00002400BFFFF732
:10C5400091FF064800680128F9D94FF0805004494E
:10C550000860BFF34F8FBFF36F8FF0E760070024D1
:10C5600004ED00E02DE9FF5F81460E469246DDE9CD
:10C570000E7B109CAAF10100216B01EB800828F0D2
:10C58000070808F0070008B9012000E0002050B9B2
:10C5900000BF502080F31188BFF34F8FBFF36F8F20
:10C5A00000BF00BFFEE786B1002507E0715D04F122
:10C5B00034004155705D00B902E06D1C102DF5D3BB
:10C5C00000BF00214320015502E0002084F8340020
:10C5D000072F00D30627E76267640020A064201DB0
:10C5E00000F000FA04F1180000F0FCF92461C7F132
:10C5F0000700A06164620020E06484F850004946AE
:10C600004046039A00F07EF92060BBF1000F01D094
:10C61000CBF80040BDE8FF9F10B5002407E004EB15
:10C6200084010F4A02EB810000F0CFF9641C072C53
:10C63000F5D30C4800F0C9F90B4800F0C6F90B48D7
:10C6400000F0C3F90A4800F0C0F90A4800F0BDF94B
:10C6500004480949086004480849086010BD000002
:10C6600060070024EC0700240008002414080024BC
:10C67000280800243C080024980000249C00002482
:10C6800010B50146164800E0006803688B42FBD3F2
:10C690000246436813448B4204D143684C682344E8
:10C6A000436001460A464B6813440468A34211D113
:10C6B0000C4C03682468A34208D04B680468646883
:10C6C00023444B6003681B680B6005E0054B1B6847
:10C6D0000B6001E003680B60884200D0016010BD70
:10C6E000D0000024D80000240A490968096809B963
:10C6F000012100E0002121B14FF0FF31064A116015
:10C7000006E004490968C968C868034A41681160BD
:10C710007047000098000024C40000240E48006800
:10C72000401C08B9012000E0002050B900BF502093
:10C7300080F31188BFF34F8FBFF36F8F00BF00BF2F
:10C74000FEE700BF502080F31188BFF34F8FBFF387
:10C750006F8F00BF00BFFEE7F00000242DED028BBD
:10C76000FCF7E6FD1DE00F484078732801D0FCF788
:10C77000DFFD0D48FCF722FF0C4890ED000AB8EEF3
:10C78000400ADFED0B0A80EE201AB0EE418AB0EECF
:10C79000480A08490448FCF735FE04480068FFF7DA
:10C7A00091FDE0E7F4860024E8860024CC02002412
:10C7B00000007A44208300242DE9F04104464FF024
:10C7C000000800F059FA4948006808B9FFF778FEF8
:10C7D000474800682040002870D1D4B1083404F0E4
:10C7E0000700B0B104F00700C0F10800044404F0F1
:10C7F000070008B9012000E0002050B900BF502018
:10C8000080F31188BFF34F8FBFF36F8F00BF00BF5E
:10C81000FEE7002C52D03748006884424ED8364E8E
:10C820003046056801E02E462D686868A04202D2B5
:10C8300028680028F7D12D48006885423ED030682E
:10C8400000F10808286830606868001B102819D9B2
:10C850002F1907F0070008B9012000E0002050B9A7
:10C8600000BF502080F31188BFF34F8FBFF36F8F4D
:10C8700000BF00BFFEE76868001B78606C60384648
:10C88000FFF7FEFE1B4968680968081A1949086025
:10C890000846006819490968884203D215480068AB
:10C8A00016490860124968680968084368600020F2
:10C8B000286013480068401C1149086000F0B6FB6E
:10C8C00008F0070008B9012000E0002050B900BFBF
:10C8D000502080F31188BFF34F8FBFF36F8F00BFDD
:10C8E00000BFFEE74046BDE8F0810000D80000240C
:10C8F000EC000024DC000024D0000024E000002430
:10C90000E4000024001F4FF080730360001F21F03B
:10C9100001030360001F054B036014380260001F11
:10C920006FF0020303602038704700001DC7000845
:10C9300010B500EE100A2DED028BB1EEC08A18EE94
:10C94000100A20F00040C0F1FF40C00F0AD010EEE6
:10C95000100A20F00040C0F1FF40C00F04BF0120CA
:10C96000FEF780FB18EE100ABDEC028B10BDB0EE96
:10C97000401A30EEC10AF0EE401AB0EE412A00EE45
:10C98000100AB8EEC00A60EE212A01228A40521E27
:10C9900000EE102AB8EEC03A82EE830A30EE020AA8
:10C9A000704701460A69D1E901309860D1E9010375
:10C9B00058605068884201D1886850600020086142
:10C9C0001068401E10601068704700F10801416057
:10C9D0004FF0FF31816000F10801C1600161002169
:10C9E0000160704700210161704710B502460B6875
:10C9F0005C1C0CB9106907E002F1080000E0406817
:10CA0000446824689C42FAD944684C604C68A16030
:10CA1000886041600A611468641C146010BD42683B
:10CA20004A6093688B6093685960916008610368FD
:10CA30005B1C03607047000000BF502080F311882A
:10CA4000BFF34F8FBFF36F8F00BF0E480068401CCD
:10CA50000C49086008460068012812D10A4800689D
:10CA6000C0B208B9012000E0002050B900BF50203A
:10CA700080F31188BFF34F8FBFF36F8F00BF00BFEC
:10CA8000FEE77047F000002404ED00E00D48006868
:10CA900050B900BF502080F31188BFF34F8FBFF310
:10CAA0006F8F00BF00BFFEE706480068401E0549C3
:10CAB00008600846006820B9002080F3118800BF94
:10CAC00000BF7047F000002470B506463546002EC2
:10CAD00044D0083D2C46224960680968084008B1E6
:10CAE000012000E0002050B900BF502080F31188E1
:10CAF000BFF34F8FBFF36F8F00BF00BFFEE720680B
:10CB000008B9012000E0002050B900BF502080F398
:10CB10001188BFF34F8FBFF36F8F00BF00BFFEE7D9
:10CB20000F49606809680840C0B12068B0B90C4975
:10CB3000606809688843606000F09EF80949606891
:10CB400009680844074908602046FFF799FD064830
:10CB50000068401C0449086000F068FA70BD0000DD
:10CB6000EC000024DC000024E800002400204FF04A
:10CB7000E02108618861064800684FF47A71B0FBD3
:10CB8000F1F0401E4FF0E021486107200861704736
:10CB90002800002470B504460025D4B1124800686E
:10CBA00008B9012000E0002050B900BF502080F3F8
:10CBB0001188BFF34F8FBFF36F8F00BF00BFFEE739
:10CBC00000F05AF800212046FFF7A6FB00F02EFAED
:10CBD00005463DB94FF0805004490860BFF34F8FC0
:10CBE000BFF36F8F70BD0000CC00002404ED00E0A7
:10CBF0001CB51A4800210B468022CDE9001018A16F
:10CC0000194800F03FF90446012C15D100BF50200F
:10CC100080F31188BFF34F8FBFF36F8F00BF4FF0CA
:10CC2000FF301249086001201149086000201149B5
:10CC3000086000F073F810E0601C08B1012000E00B
:10CC4000002050B900BF502080F31188BFF34F8FF0
:10CC5000BFF36F8F00BF00BFFEE71CBDC8000024FC
:10CC600049444C45000000003DC50008C4000024B4
:10CC7000B0000024A800002402480068401C0149BC
:10CC800008607047CC0000241D48006818B10120DE
:10CC90001C49086032E000201A4908601A48006800
:10CCA000B0FA80F0C0F11F0101EB8100174A52F881
:10CCB000200008B1012000E0002050B900BF502042
:10CCC00080F31188BFF34F8FBFF36F8F00BF00BF9A
:10CCD000FEE701EB81020D4B03EB820042685268D4
:10CCE000426000F108024368934202D142685268F0
:10CCF00042604268D268064B1A6000BF704700006D
:10CD0000CC000024B8000024AC00002460070024FC
:10CD10009400002402800181704700001CB5524835
:10CD200000685249884201D0012000E0002050B93B
:10CD300000BF502080F31188BFF34F8FBFF36F8F78
:10CD400000BF00BFFEE7484800684849491E8842C6
:10CD500001D0012000E0002050B900BF502080F336
:10CD60001188BFF34F8FBFF36F8F00BF00BFFEE787
:10CD70003F49084600780190FF200A461070084697
:10CD8000007800909DF8000000F0F0009DF8002071
:10CD9000904201D1012000E0002050B900BF502096
:10CDA00080F31188BFF34F8FBFF36F8F00BF00BFB9
:10CDB000FEE79DF8000000F050002E4A107007209A
:10CDC0002D4A106009E02C480068401E2A4A106075
:10CDD0009DF800004006000E00909DF8000000F055
:10CDE00080008028EFD024480068C0F107000428A4
:10CDF00001D1012000E0002050B900BF502080F395
:10CE00001188BFF34F8FBFF36F8F00BF00BFFEE7E6
:10CE1000194800680002184A10601046008800F4A3
:10CE2000E0601060124A019810700F4820300068CE
:10CE300040F470000C49203108600846006840F05A
:10CE400070400860FFF792FE00200C490860F3F77D
:10CE50006DFA0B48006840F0404009490860F3F75C
:10CE600051FA00201CBD000000ED00E071C20F412E
:10CE700000E400E0F4000024F8000024F0000024A6
:10CE800034EF00E02DE9FF4F85B080468946174614
:10CE9000DDE912ABB800FFF78FFC064656B154200F
:10CEA000FFF78AFC04460CB1266304E03046FFF726
:10CEB0000BFE00E000247CB10020CDE900ABCDE901
:10CEC00002403A4649464046089BFFF74BFB204646
:10CED000FFF76EFA012501E04FF0FF35284609B053
:10CEE000BDE8F08F2DE9F0414FF00008444800689C
:10CEF00000287CD143480068451C4248056015BBAA
:10CF000041480068006808B9012000E0002050B9DD
:10CF100000BF502080F31188BFF34F8FBFF36F8F96
:10CF200000BF00BFFEE73848076838480068364948
:10CF300008603648076036480068401C344908607D
:10CF4000FFF7D2FB00BF3348006885423CD300BFE7
:10CF50002D480068006808B9012000E0002020B1D9
:10CF60004FF0FF302B4908602DE027480068C0686B
:10CF7000C4686668B54202D22648066023E0201DD8
:10CF8000FFF70FFDA06A18B104F11800FFF709FDC3
:10CF900094F82C10012088401F49096808431E4955
:10CFA0000860E16A01EB81011C4A02EB8100211D4E
:10CFB000FFF735FD1A49E06A0968C96A8842C7D394
:10CFC0004FF00108C4E700BF15480068C06A00EBD5
:10CFD0008000124951F82000012801D94FF00108C2
:10CFE0001048006808B14FF0010805E0FFE70E485F
:10CFF0000068401C0C4908604046BDE8F081000014
:10D00000CC000024A8000024980000249C000024E8
:10D01000BC000024C4000024AC00002460070024ED
:10D0200094000024B8000024B400002470B500244B
:10D0300000263648006850B900BF502080F31188A0
:10D04000BFF34F8FBFF36F8F00BF00BFFEE7FFF747
:10D05000F3FC2E480068401E2C4908600846006812
:10D0600000284FD12A48006800284BD024E02948E6
:10D07000C068C46804F11800FFF793FC201DFFF797
:10D0800090FC94F82C10012088402349096808433B
:10D0900021490860E16A01EB8101204A02EB81002D
:10D0A000211DFFF7BCFC1E49E06A0968C96A884275
:10D0B00002D301201B4908601648006808B9012006
:10D0C00000E000200028D2D00CB1FFF70DFB16487D
:10D0D000056865B100BFFFF705FF10B101201149D8
:10D0E00008606D1E002DF6D100200F4908600D4824
:10D0F000006838B1012630070C490860BFF34F8F34
:10D10000BFF36F8FFFF7C2FC304670BDCC00002428
:10D11000A400002414080024AC00002460070024AC
:10D1200094000024B8000024B400002404ED00E0C2
:10D1300070B504460223002219462046FAF778FD0E
:10D1400004F580741249A06891E82C00C96880E851
:10D150002C00C1600F492068D1E901530A68C968F1
:10D16000C0E901530260C1600B4D206AD5E901138B
:10D170002A68ED68061D2AC60260084D636A27CD3D
:10D1800027C3A369A4F58074054D27CD27C370BDBF
:10D190004802002458020024680200247802002477
:10D1A00008D3000810B52DED028B0446B0EE408B7D
:10D1B0006068C0ED008A606880ED018A2046FBF758
:10D1C000B7F900200BE0216801EB800191ED000A26
:10D1D000054901EB800181ED000A411CC8B202281B
:10D1E000F1DBBDEC028B10BD8802002460D3000887
:10D1F000079C000800000000000000008000000004
:10D2000054D3000809790008030000000000000062
:10D210000002000044D300083D1B0008010000008C
:10D22000000000000002000034D300080D190008BF
:10D2300001000000000000000002000024D30008EC
:10D24000698C0008020000000000000000020000DD
:10D2500018D300089D9300080100000000000000A2
:10D2600080000000000610160006101600010203E0
:10D2700004050607080C10141820304000000000B8
:10D28000000000000000000000000000000000009E
:10D290000100000002000000030000000400000084
:10D2A0000000000005000000000000000000000079
:10D2B0000000000006000000000000000000000068
:10D2C000000000000700000000000000010203044D
:10D2D00001020304060708090000AF430000000034
:10D2E00000803B450000AF430000000000803B454C
:10D2F0000000204100000000CDCCCC3D00000040EB
:10D3000000000000CDCC4C3E0000803F000000003B
:10D31000000000000000803F5053325F5441534BE7
:10D32000000000004F4253455256455F5441534B55
:10D3300000000000434841535349534C5F5441534C
:10D340004B00000043484153534953525F544153EB
:10D350004B000000494E535F5441534B0000000006
:10D3600064656661756C745461736B000000000045
:10D37000920E493CB10AC93C2BC3163D2EFB483DD9
:10D38000752B7B3D04A9963D80B6AF3D36BDC83DAB
:10D390002FBCE13D73B2FA3D87CF093E8340163E74
:10D3A000B5AB223EA2102F3ECF6E3B3EC2C5473EDC
:10D3B0000115543E135C603E7F9A6C3ECCCF783EA4
:10D3C000C07D823E938E883E229A8E3E32A0943E4D
:10D3D00086A09A3EE59AA03E128FA63ED47CAC3E33
:10D3E000EF63B23E2A44B83E491DBE3E15EFC33E30
:10D3F00053B9C93ECA7BCF3E4136D53E80E8DA3EBE
:10D400004F92E03E7533E63EBBCBEB3EEA5AF13E2F
:10D41000CBE0F63E275DFC3EE4E7003F3D9C033F4A
:10D42000824B063F9BF5083F6B9A0B3FDA390E3F64
:10D43000CDD3103F2A68133FD9F6153FC07F183F60
:10D44000C6021B3FD17F1D3FCBF61F3F9967223F8E
:10D4500025D2243F5636273F1594293F4AEB2B3FD0
:10D46000DE3B2E3FBB85303FC9C8323FF304353F1A
:10D47000233A373F4268393F3B8F3B3FF9AE3D3F50
:10D4800067C73F3F70D8413F01E2433F03E4453F58
:10D4900065DE473F12D1493FF8BB4B3F029F4D3FEE
:10D4A000207A4F3F3D4D513F4918533F31DB543FA8
:10D4B000E595563F5348583F6AF2593F1A945B3FEF
:10D4C000532D5D3F05BE5E3F2146603F97C5613FDE
:10D4D0005A3C633F59AA643F880F663FD86B673F49
:10D4E0003CBF683FA7096A3F0C4B6B3F5E836C3FB4
:10D4F00093B26D3F9ED86E3F73F56F3F0809713F41
:10D500005213723F4714733FDD0B743F0BFA743FA5
:10D51000C6DE753F07BA763FC58B773FF853783F35
:10D520009812793F9DC7793F02737A3FBE147B3FC3
:10D53000CDAC7B3F283B7C3FC9BF7C3FAC3A7D3FB5
:10D54000CCAB7D3F23137E3FB0707E3F6DC47E3FEA
:10D55000580E7F3F6D4E7F3FAB847F3F0FB17F3FC3
:10D5600097D37F3F43EC7F3F11FB7F3F0000803F1D
:10D5700011FB7F3F43EC7F3F97D37F3F0FB17F3F4E
:10D58000AB847F3F6D4E7F3F580E7F3F6DC47E3F23
:10D59000B0707E3F23137E3FCCAB7D3FAC3A7D3FE6
:10D5A000C9BF7C3F283B7C3FCDAC7B3FBE147B3F5B
:10D5B00002737A3F9DC7793F9812793FF853783FBD
:10D5C000C58B773F07BA763FC6DE753F0BFA743FCF
:10D5D000DD0B743F4714733F5213723F0809713FCC
:10D5E00073F56F3F9ED86E3F93B26D3F5E836C3F85
:10D5F0000C4B6B3FA7096A3F3CBF683FD86B673F46
:10D60000880F663F59AA643F5A3C633F97C5613F04
:10D610002146603F05BE5E3F532D5D3F1A945B3F40
:10D620006AF2593F5348583FE595563F31DB543F26
:10D630004918533F3D4D513F207A4F3F029F4D3F88
:10D64000F8BB4B3F12D1493F65DE473F03E4453FFE
:10D6500001E2433F70D8413F67C73F3FF9AE3D3FCE
:10D660003B8F3B3F4268393F233A373FF304353F16
:10D67000C9C8323FBB85303FDE3B2E3F4AEB2B3FD4
:10D680001594293F5636273F25D2243F9967223FDC
:10D69000CBF61F3FD17F1D3FC6021B3FC07F183F07
:10D6A000D9F6153F2A68133FCDD3103FDA390E3F24
:10D6B0006B9A0B3F9BF5083F824B063F3D9C033F17
:10D6C000E4E7003F275DFC3ECBE0F63EEA5AF13E40
:10D6D000BBCBEB3E7533E63E4F92E03E80E8DA3E50
:10D6E0004136D53ECA7BCF3E53B9C93E15EFC33E46
:10D6F000491DBE3E2A44B83EEF63B23ED47CAC3EE8
:10D70000128FA63EE59AA03E86A09A3E32A0943E95
:10D71000229A8E3E938E883EC07D823ECCCF783E4C
:10D720007F9A6C3E135C603E0115543EC2C5473E75
:10D73000CF6E3B3EA2102F3EB5AB223E8340163E3D
:10D7400087CF093E73B2FA3D2FBCE13D36BDC83DDF
:10D7500080B6AF3D04A9963D752B7B3D2EFB483D21
:10D760002BC3163DB10AC93C920E493C0000000093
:10D77000920E49BCB10AC9BC2BC316BD2EFB48BDD5
:10D78000752B7BBD04A996BD80B6AFBD36BDC8BDA7
:10D790002FBCE1BD73B2FABD87CF09BE834016BE70
:10D7A000B5AB22BEA2102FBECF6E3BBEC2C547BED8
:10D7B000011554BE135C60BE7F9A6CBECCCF78BEA0
:10D7C000C07D82BE938E88BE229A8EBE32A094BE49
:10D7D00086A09ABEE59AA0BE128FA6BED47CACBE2F
:10D7E000EF63B2BE2A44B8BE491DBEBE15EFC3BE2C
:10D7F00053B9C9BECA7BCFBE4136D5BE80E8DABEBA
:10D800004F92E0BE7533E6BEBBCBEBBEEA5AF1BE2B
:10D81000CBE0F6BE275DFCBEE4E700BF3D9C03BF46
:10D82000824B06BF9BF508BF6B9A0BBFDA390EBF60
:10D83000CDD310BF2A6813BFD9F615BFC07F18BF5C
:10D84000C6021BBFD17F1DBFCBF61FBF996722BF8A
:10D8500025D224BF563627BF159429BF4AEB2BBFCC
:10D86000DE3B2EBFBB8530BFC9C832BFF30435BF16
:10D87000233A37BF426839BF3B8F3BBFF9AE3DBF4C
:10D8800067C73FBF70D841BF01E243BF03E445BF54
:10D8900065DE47BF12D149BFF8BB4BBF029F4DBFEA
:10D8A000207A4FBF3D4D51BF491853BF31DB54BFA4
:10D8B000E59556BF534858BF6AF259BF1A945BBFEB
:10D8C000532D5DBF05BE5EBF214660BF97C561BFDA
:10D8D0005A3C63BF59AA64BF880F66BFD86B67BF45
:10D8E0003CBF68BFA7096ABF0C4B6BBF5E836CBFB0
:10D8F00093B26DBF9ED86EBF73F56FBF080971BF3D
:10D90000521372BF471473BFDD0B74BF0BFA74BFA1
:10D91000C6DE75BF07BA76BFC58B77BFF85378BF31
:10D92000981279BF9DC779BF02737ABFBE147BBFBF
:10D93000CDAC7BBF283B7CBFC9BF7CBFAC3A7DBFB1
:10D94000CCAB7DBF23137EBFB0707EBF6DC47EBFE6
:10D95000580E7FBF6D4E7FBFAB847FBF0FB17FBFBF
:10D9600097D37FBF43EC7FBF11FB7FBF000080BF19
:10D9700011FB7FBF43EC7FBF97D37FBF0FB17FBF4A
:10D98000AB847FBF6D4E7FBF580E7FBF6DC47EBF1F
:10D99000B0707EBF23137EBFCCAB7DBFAC3A7DBFE2
:10D9A000C9BF7CBF283B7CBFCDAC7BBFBE147BBF57
:10D9B00002737ABF9DC779BF981279BFF85378BFB9
:10D9C000C58B77BF07BA76BFC6DE75BF0BFA74BFCB
:10D9D000DD0B74BF471473BF521372BF080971BFC8
:10D9E00073F56FBF9ED86EBF93B26DBF5E836CBF81
:10D9F0000C4B6BBFA7096ABF3CBF68BFD86B67BF42
:10DA0000880F66BF59AA64BF5A3C63BF97C561BF00
:10DA1000214660BF05BE5EBF532D5DBF1A945BBF3C
:10DA20006AF259BF534858BFE59556BF31DB54BF22
:10DA3000491853BF3D4D51BF207A4FBF029F4DBF84
:10DA4000F8BB4BBF12D149BF65DE47BF03E445BFFA
:10DA500001E243BF70D841BF67C73FBFF9AE3DBFCA
:10DA60003B8F3BBF426839BF233A37BFF30435BF12
:10DA7000C9C832BFBB8530BFDE3B2EBF4AEB2BBFD0
:10DA8000159429BF563627BF25D224BF996722BFD8
:10DA9000CBF61FBFD17F1DBFC6021BBFC07F18BF03
:10DAA000D9F615BF2A6813BFCDD310BFDA390EBF20
:10DAB0006B9A0BBF9BF508BF824B06BF3D9C03BF13
:10DAC000E4E700BF275DFCBECBE0F6BEEA5AF1BE3C
:10DAD000BBCBEBBE7533E6BE4F92E0BE80E8DABE4C
:10DAE0004136D5BECA7BCFBE53B9C9BE15EFC3BE42
:10DAF000491DBEBE2A44B8BEEF63B2BED47CACBEE4
:10DB0000128FA6BEE59AA0BE86A09ABE32A094BE91
:10DB1000229A8EBE938E88BEC07D82BECCCF78BE48
:10DB20007F9A6CBE135C60BE011554BEC2C547BE71
:10DB3000CF6E3BBEA2102FBEB5AB22BE834016BE39
:10DB400087CF09BE73B2FABD2FBCE1BD36BDC8BDDB
:10DB500080B6AFBD04A996BD752B7BBD2EFB48BD1D
:10DB60002BC316BDB10AC9BC920E49BC000000808F
:10DB700090DB00080000002424030000D404000807
:10DB800018DD000824030024AC8E000054B0000807
:10DB90000120321042012C90D0030480093333EB72
:10DBA0003A58A08B3A291C157D04017C100F0240C5
:10DBB000AB034101055308065804070F16081081EE
:10DBC0000911160A15800B16450C18010D058070F9
:10DBD0001770171AAA0101100510C3F51C4108326D
:10DBE000356F810CC03C4E51BE13F261BF3789A91D
:10DBF000BF9CA2A33FD3BCE33D767123405F298B3A
:10DC00003E8351C93FE483124024284341C364EA60
:10DC10003E0138100AAE9DB0C24CD08942C778B6DA
:10DC2000F0C150854ABE3717C33F87F58BBFB3EBB2
:10DC300034C033FEE63CEAF5AEC1EBDF4B41769EE5
:10DC400025C0973740BFF49DEAC1A7DA8C41DD8338
:10DC500087C0947D8BBF91C513C31422BC42981C0E
:10DC6000B4C1581022407350D7C00ECA8E403857E6
:10DC700092BF9204353E17992CC237920C42F12F75
:10DC80004CC162A45740F59D84400B7024C00E46E1
:10DC9000F53EA8217E3EEFE565C303F31043BBAD1F
:10DCA00007C2C4585C403EC1A4C324384F43178503
:10DCB00041C2607B9E406C4BBE43F7A85FC3C5ADBD
:10DCC00038425F2B1D41FDCED0410A967BC18612A2
:10DCD000594095A08EF8216F803FA69B443B0C498C
:10DCE00004891C85CDCCCC3D490CA3C842890C02CB
:10DCF0001903140142011A0220120412051206121D
:10DD00000712081209120A120B120C120D120E122F
:08DD10000F1A100E015600006D
:04000005080002CD20
:00000001FF
